:100000000C9424010C944C010C944C010C94D90ACE
:100010000C94D90A0C94D90A0C944C010C944C0100
:100020000C944C010C944C010C944C010C944C011C
:100030000C944C010C944C010C944C010C944C010C
:100040000C94D1030C944C010C9441040C941B04AB
:100050000C944C010C944C010C944C010C944C01EC
:100060000C944C010C944C01536F6E6F20696E2000
:1000700052656C61792073696D756C6174696F6E1E
:10008000206D6F646500707265706172696E6720C3
:10009000726573706F6E7365206D657373616765EC
:1000A0002E2E2E2000202D206572726F7265206E1C
:1000B0006F6E206964656E746966696361746F3A16
:1000C00020007263766452436F64653A200000003A
:1000D0000000240027002A000000000800020100A0
:1000E000000304070000000000000000434D44200E
:1000F00020726177202D202020202020005D202DDF
:10010000200066756C6C20726177202D206C656E06
:100110003A5B00434D442F737562434D44202030B9
:1001200078203A2000434D445F52436F646520209D
:10013000203078203A20005345514E4F2020202077
:100140002020203078203A2000435243205265631B
:100150002F43616C203078203A20005D202D200054
:10016000636F6D6D616E64446174612061736320BF
:100170002D206C656E3A5B005D202D2000636F6D55
:100180006D616E644461746120686578202D206C17
:10019000656E3A5B005D202D200066756C6C4461D5
:1001A000746120202020686578202D206C656E3ACF
:1001B0005B00202D205B72637664436F64653A2098
:1001C00000202D205B69742773204E4F5420666FEA
:1001D00072206D652E2E2E5D00202D205B574F570F
:1001E000206974277320666F72206D652E2E2E5D38
:1001F00000202D205365714E4F3A20002D2D3E30AA
:100200007800202D20307800000000002500280014
:100210002B00000000002300260029000404040431
:1002200004040404020202020202030303030303A0
:10023000010204081020408001020408102001027D
:10024000040810200E10041011241FBECFEFD8E0B8
:10025000DEBFCDBF12E0A0E0B1E0EEE6F2E202C008
:1002600005900D92A03AB107D9F724E0A0EAB2E0D8
:1002700001C01D92A23CB207E1F711E0C3E2D1E058
:1002800004C02197FE010E941711C232D107C9F79D
:100290000E94830B0C942A110C940000833081F08F
:1002A00028F4813099F08230A1F008958730A9F0C8
:1002B0008830B9F08430D1F4809180008F7D03C004
:1002C000809180008F7780938000089584B58F7728
:1002D00002C084B58F7D84BD08958091B0008F7772
:1002E00003C08091B0008F7D8093B0000895CF93BC
:1002F000DF93282F30E0F901E852FF4F8491F90194
:10030000E05DFD4FD491F901E45EFD4FC491CC2333
:1003100091F081110E944E01EC2FF0E0EE0FFF1FD3
:10032000EE5EFD4FA591B491EC91ED2381E090E05C
:1003300021F480E002C080E090E0DF91CF91089549
:100340003FB7F8948091A6029091A702A091A802CD
:10035000B091A90226B5A89B05C02F3F19F00196C0
:10036000A11DB11D3FBFBA2FA92F982F8827820F3B
:10037000911DA11DB11DBC01CD0142E0660F771F8B
:10038000881F991F4A95D1F708958F929F92AF9237
:10039000BF92CF92DF92EF92FF926B017C010E949D
:1003A000A0014B015C01C114D104E104F104F1F09E
:1003B0000E94A001DC01CB0188199909AA09BB0997
:1003C000883E9340A105B10570F321E0C21AD1081F
:1003D000E108F10888EE880E83E0981EA11CB11C8C
:1003E000C114D104E104F10419F7DDCFFF90EF90BF
:1003F000DF90CF90BF90AF909F908F900895CF9255
:10040000DF92EF92FF920F931F93CF93DF936C01D4
:100410007A018B01C0E0D0E0CE15DF0589F0D8016C
:100420006D918D01D601ED91FC910190F081E02D4F
:10043000C6010995892B11F47E0102C02196ECCFEB
:10044000C701DF91CF911F910F91FF90EF90DF9047
:10045000CF900895FC01918D828D981761F0828D67
:10046000DF01A80FB11D5D968C91928D9F5F9F73E8
:10047000928F90E008958FEF9FEF0895FC01918D8A
:10048000828D981731F0828DE80FF11D858D90E0F7
:1004900008958FEF9FEF0895FC01918D228D892F94
:1004A00090E0805C9F4F821B91098F73992708957C
:1004B00082EB92E00E944C0221E0892B09F420E0BB
:1004C000822F0895FC01848DDF01A80FB11DA35A6E
:1004D000BF4F2C91848D90E001968F739927848F64
:1004E000A689B7892C93A089B1898C9180648C935B
:1004F000938D848D981306C00288F389E02D808146
:100500008F7D80830895EF92FF920F931F93CF9377
:10051000DF93EC0181E0888F9B8D8C8D981305C053
:10052000E889F989808185FD24C0F62E0B8D10E0C5
:100530000F5F1F4F0F731127E02E8C8DE8120CC038
:100540000FB607FCFACFE889F989808185FFF5CFDE
:10055000CE010E946202F1CF8B8DFE01E80FF11DEA
:10056000E35AFF4FF0820B8FEA89FB89808180621A
:1005700007C0EE89FF896083E889F98980818064FA
:10058000808381E090E0DF91CF911F910F91FF90E8
:10059000EF900895CF93DF93EC01888D8823C9F005
:1005A000EA89FB89808185FD05C0A889B9898C917C
:1005B00086FD0FC00FB607FCF5CF808185FFF2CF17
:1005C000A889B9898C9185FFEDCFCE010E94620286
:1005D000E7CFDF91CF91089580E090E0892B29F05B
:1005E0000E94580281110C9400000895EF92FF922E
:1005F0000F931F93CF9392EF980F8E3008F0892FAF
:100600008770C82FC0648AE0E82EF12C00E010E06B
:10061000C0937C0080917A00806480937A008091FE
:100620007A0086FDFCCF209178008091790030E03F
:10063000382B020F131F64E670E080E090E00E9408
:10064000C50181E0E81AF10819F7C8016AE070E015
:100650000E94E110CB01CF911F910F91FF90EF907D
:100660000895682F8FE493E00C9413058FE493E0D2
:100670000C9467058FE493E00C947F05EF92FF9252
:100680000F931F93CF93DF937A018C01C62FD0E095
:10069000209791F0F80181918F01082E000C990BA1
:1006A0000E94B4050E94B205C130D10519F0C701FE
:1006B0000E94B2052197ECCFDF91CF911F910F914E
:1006C000FF90EF9008950E941D111F93CF93DF9329
:1006D000282F30E0F901E852FF4F8491F901E05DE5
:1006E000FD4FD491F901E45EFD4FC491CC23C9F0D4
:1006F000162F81110E944E01EC2FF0E0EE0FFF1F2C
:10070000E85FFD4FA591B4918FB7F894111105C022
:100710009C91ED2FE095E92302C0EC91ED2BEC9339
:100720008FBFDF91CF911F910895CF93DF9390E01A
:10073000FC01E05DFD4F2491FC01E45EFD4F8491DE
:10074000882361F190E0880F991FFC01E253FF4F6D
:10075000C591D491FC01E85FFD4FA591B491611161
:1007600009C09FB7F8948881209582238883EC91F3
:100770002E230BC0623061F49FB7F8943881822F2A
:10078000809583238883EC912E2B2C939FBF06C0EA
:100790008FB7F894E8812E2B28838FBFDF91CF91FC
:1007A00008951F920F920FB60F9211242F933F932B
:1007B0008F939F93AF93BF938091AE029091AF02BE
:1007C000A091B002B091B1023091A50223E0230FB5
:1007D0002D3720F40196A11DB11D05C026E8230F79
:1007E0000296A11DB11D2093A5028093AE029093A5
:1007F000AF02A093B002B093B1028091A602909193
:10080000A702A091A802B091A9020196A11DB11D55
:100810008093A6029093A702A093A802B093A90286
:10082000BF91AF919F918F913F912F910F900FBEEC
:100830000F901F9018951F920F920FB60F921124D0
:100840002F933F934F935F936F937F938F939F93D8
:10085000AF93BF93EF93FF9382EB92E00E9462020B
:10086000FF91EF91BF91AF919F918F917F916F9188
:100870005F914F913F912F910F900FBE0F901F905E
:1008800018951F920F920FB60F9211242F938F93EA
:100890009F93EF93FF93E091C202F091C302808196
:1008A000E091C802F091C90282FD12C0908180914E
:1008B000CB028F5F8F732091CC02821751F0E091B1
:1008C000CB02F0E0EE54FD4F958F8093CB0201C038
:1008D0008081FF91EF919F918F912F910F900FBE8B
:1008E0000F901F901895CF93DF931092B704E6EB0B
:1008F000F4E0262F2E1BCAE0D0E0322F3E0F0097E7
:1009000041F0BE010E94CD10805D8083CB01319704
:10091000F4CF832FDF01119690E3815010F09E9366
:10092000FCCF81E090E0831B91098E0F9F1FDF9128
:10093000CF910895DF92EF92FF920F931F93CF9381
:10094000DF93182FEB01282F30E084E035952795B1
:100950008A95E1F70FE0822F802794E0220F331F62
:100960009A95E1F7D82ED22A8D2D0E9431037E016F
:1009700028E7E20EF11CF70180818F5F8083FE0182
:10098000E80FF11DE858FF4FD0821F70F0E11F9F64
:10099000C00111241027182B812F0E943103F70169
:1009A00080818F5F8083C80FD11DC858DF4F1883A7
:1009B000DF91CF911F910F91FF90EF90DF900895FD
:1009C000582FFC0180E07CE89E2F951B961788F439
:1009D000419198E0A42FA827282F30E0359527953E
:1009E000822FA0FF02C0872F82274695915091F752
:1009F000EBCF08952091AC023091AD022817390752
:100A000071F49091AB028091AA02981741F0E091A5
:100A1000AB02F0E0E259FB4F808190E008958FEF48
:100A20009FEF089508951F93CF93DF93DC015C96A9
:100A30002D913C915D972115310539F481E090E0CD
:100A400013969C938E9312973DC05196ED91FC9115
:100A5000529750969C915097892F80951FB75E961C
:100A60004C915E9741FB772770F941FD6095F894B2
:100A70004081772311F0492B01C048234083E901CD
:100A80002197F1F748E0508160FF02C0592B01C067
:100A900058235083E9012197F1F76695415099F762
:100AA000772321F090818923808303C08081982B54
:100AB00090831FBF5C968D919C915D970197F1F794
:100AC00021E030E0C901DF91CF911F91089520917D
:100AD000AC023091AD022817390771F48091AA0257
:100AE0002091AB0290E0805C9F4F821B910960E4F3
:100AF00070E00E94E110089580E090E00895209158
:100B0000AC023091AD0228173907B9F49091AB02CD
:100B10008091AA02981789F0E091AB02F0E0E259C7
:100B2000FB4F80812091AB0230E02F5F3F4F2F734E
:100B300033272093AB0290E008958FEF9FEF089545
:100B4000009769F0FC0101900020E9F73197AF01AF
:100B5000481B590BBC0182EB92E00C94FF0180E032
:100B600090E008950C94A005CF93DF93CDB7DEB746
:100B700061970FB6F894DEBF0FBECDBF21E1E0E173
:100B8000F2E0DE01119601900D922A95E1F7A8EBB3
:100B9000B4E012961C921297BC0124E076956795FA
:100BA0002A95E1F79C012F70332741E050E04C0F6C
:100BB0005D1F240F351FF901208111962C93119789
:100BC000892F9927E4E0880F991FEA95E1F7FB0147
:100BD000E81BF90BE40FF51F80818C93CD01619622
:100BE0000FB6F894DEBF0FBECDBFDF91CF91089551
:100BF000EF92FF921F93CF93DF931F92CDB7DEB793
:100C0000611107C0382FFC016E2F631B2191211148
:100C1000FBCF182F7C018E2D811B861788F4F701DE
:100C200081917F01082E000C990B69830E94B40505
:100C30000E94B20587E392E00E94B2056981EBCF82
:100C40008DE691E00F90DF91CF911F91FF90EF9093
:100C50000C94B205CF93DF931F92CDB7DEB76983B3
:100C60000E94B2056981862F90E00E94B4050E941F
:100C7000B2058DE691E00F90DF91CF910C94B20513
:100C800090E00E94B4050C94B2050F931F93CF938C
:100C9000DF938C01C0E0D0E0F801EC0FFD1F649100
:100CA000662371F0E091B202F091B3020190F081FD
:100CB000E02D82EB92E00995892B11F02196ECCF83
:100CC000CE01DF91CF911F910F91089582E492E0C0
:100CD0000C94A005E091B202F091B3020190F08172
:100CE000E02D682F82EB92E00994CF93DF930E946E
:100CF0004506EC010E9466068C0F9D1FDF91CF9187
:100D000008950F931F93CF93DF938B01EA010E9405
:100D1000B205C8010E94B205CE010E94B2058DE65F
:100D200091E00E94B2058DE691E00E94B2058DE649
:100D300091E0DF91CF911F910F910C94B2058F92AA
:100D40009F92AF92BF920F931F93CF93DF93CDB734
:100D5000DEB7A1970FB6F894DEBF0FBECDBF19A2C4
:100D6000423008F44AE08E010F5D1F4F842E912C13
:100D7000A12CB12CA50194010E94F510E62FB90118
:100D8000CA0101501109EA3014F4E05D01C0E95CC8
:100D9000D801EC93232B242B252B61F7C8010E944B
:100DA000A005A1960FB6F894DEBF0FBECDBFDF91B0
:100DB000CF911F910F91BF90AF909F908F9008950A
:100DC000CF93DF93DC01FB01EC012896485F98E0AC
:100DD000941305C041504C93DF91CF910895943402
:100DE00021F09F5F81918993F3CF44E4F3CF2F9259
:100DF0003F924F925F926F927F928F929F92AF92AB
:100E0000BF92CF92DF92EF92FF920F931F93CF93F7
:100E1000DF9300D000D000D0CDB7DEB726E0E3E30B
:100E2000F2E0DE01119601900D922A95E1F7FA01A8
:100E3000E850FF4F4080DA01AA50BF4F33973C91F2
:100E40002081230F6A0137EFC30ED11CF6013081D8
:100E5000230F240D09F496C1FC012081243539F4B7
:100E60007A01FCE3EF0EF11CFA0154AC06C0223506
:100E700009F088C17A01FA0150808A01262E5C01AE
:100E80003A01F8E76F0E711CF3013080552009F428
:100E900036C1F70184818380912C982C8824880E98
:100EA000911C0E946606F801E650FF4F80819181F7
:100EB0000E94B205C5010E94B20582E092E00E9444
:100EC0004506F70181810E9440068CEF91E00E9467
:100ED0004506F70182810E94400681EF91E00E9461
:100EE000450665E0C4010E9473040E94B205F80142
:100EF000E750FF4F208191E0F7018181281390E0B6
:100F000081E0F7013281231380E0890F39F089ED08
:100F100091E00E944506DD24D39406C081EC91E067
:100F20000E944506F601D080F5018081823589F462
:100F300082EB91E00E944506E22DF0E0EE0FFF1FEC
:100F4000E85EFE4F808191810E94B2058DE50E948E
:100F50006A06DD2009F4D3C00E946606CE01019620
:100F60000E94B2058AE991E00E94450663E0852D62
:100F700090E00E9473040E94B20585E991E00E940E
:100F80004506F7016081C70101960E94F805F9EF57
:100F90005F0ECE0101960E94B2058DE791E00E949E
:100FA0004506852C912C63E0C4010E9473040E94C5
:100FB000B20588E791E00E94450695E1D92E80E2CE
:100FC0000E946A06DA94D110FACF670128E0C20EB7
:100FD000D11C652DC6010E94F805CE0101960E9424
:100FE000B20580E691E00E94450663E0C4010E94DC
:100FF00073040E94B2058BE591E00E94450685E1ED
:10100000982E80E20E946A069A949110FACF8BE59E
:101010000E946A06511007C09C2DF6015E2E591AD7
:1010200081918111FBCF2C2C4601882D82198515C9
:1010300058F4F40181914F0190EE980F9F3508F01C
:1010400080E20E946A06F1CF8DE50E946A060E9446
:101050006606F50180818235C9F4CE0101960E94B1
:10106000B20589E491E00E944506F801EC50FF4F7B
:1010700080810E94400687E392E00E94B205F80159
:10108000ED50FF4F80810E9440060CC0CE010196BA
:101090000E94B205F801EE50FF4F608181E292E0BC
:1010A0000E942A06CE0101960E94B20587E391E0D4
:1010B0000E94450662E0C70103960E94F805CE0132
:1010C00001960E94B20585E291E00E944506F70173
:1010D00085810E944006CE0101960E94B20583E1FF
:1010E00091E00E944506F70186810E94400687E351
:1010F00092E00E94B205F70187810E9440064420D9
:1011000009F440C03320F1F10E946606CE01019639
:101110000E94B20582E091E00E944506F3018081C1
:1011200063E090E00E9473040E94B2058DEF90E0AE
:101130000E944506CE0101960E94B205F30160812E
:10114000C80187589F4F0E94F8050E946606CE018D
:1011500001960E94B2058CEE90E00E944506F301D4
:10116000808163E090E00E9473040E94B205CE018A
:1011700001960E94B2056EEE630DC80188579F4F1D
:101180000E94F80526960FB6F894DEBF0FBECDBFBD
:10119000DF91CF911F910F91FF90EF90DF90CF9053
:1011A000BF90AF909F908F907F906F905F904F9087
:1011B0003F902F900895BF92CF92DF92EF92FF92CF
:1011C0000F931F93CF93DF93CDB7DEB727970FB65B
:1011D000F894DEBF0FBECDBF8C0187E0E9E3F2E0FB
:1011E000DE01119601900D928A95E1F7F801B4ACF9
:1011F0006B2DC801CD960E94E004C82EF801EE5078
:10120000FF4F80837801F8E7EF0EF11CF7011082A1
:1012100082E00E943103F70190819F5F9083F80183
:10122000E90FF11DE858FF4F82E08083DD24D3945D
:10123000BD1448F0F801ED0DF11DB80184AD0E9418
:101240009A04D394F5CFB8018C2D0E949A0483E0C0
:101250000E943103F70180818F5F8083F801E80FDE
:10126000F11DE858FF4F83E08083F801EB50FF4FFA
:101270008081882331F0A80160E0CE0101960E94B0
:10128000F70627960FB6F894DEBF0FBECDBFDF91ED
:10129000CF911F910F91FF90EF90DF90CF90BF9073
:1012A00008952F923F924F925F926F927F928F920A
:1012B0009F92AF92BF92CF92DF92EF92FF920F93E5
:1012C0001F93CF93DF93CDB7DEB72A970FB6F8946D
:1012D000DEBF0FBECDBF8C0188E0E4E6F2E0DE01A8
:1012E000119601900D928A95E1F78FB7F8942090AE
:1012F000AE023090AF024090B0025090B1028FBF6A
:10130000780188E7E80EF11CF7011082F8011082DD
:10131000B12CA12CC80184509F4F9A878987EB502C
:10132000FF4F4F013801FAEF6F0E711C2FB7F89481
:101330008091AE029091AF02A091B002B091B10243
:101340002FBF82199309A409B509E985FA8540815F
:1013500051816281738184179507A607B70708F04A
:10136000FBC00E9436031816190604F70E943A03C0
:101370006C01F70180818A3708F072C08F5F80832B
:10138000F801E80FF11DE858FF4FC082C601992708
:101390008936910509F4B8C09CF58E31910509F4A0
:1013A000B3C0E4F48330910509F455C08F30910542
:1013B00009F4AAC0029709F0AEC081E0F70180836A
:1013C0008FB7F8942090AE023090AF024090B002F8
:1013D0005090B1028FBFAA24A394A8CF8C3391055B
:1013E00009F492C024F48D9709F095C08DC08B3418
:1013F000910509F489C08A35910509F08CC084C033
:10140000843B910509F480C09CF48738910509F468
:101410007BC02CF48837910509F07DC075C08639F2
:10142000910509F471C0853A910509F074C06CC04A
:10143000823D910509F468C02CF4833C910509F0C4
:101440006AC062C0813E910509F45EC0803F91058B
:1014500009F061C059C0F701508192E060E00EC010
:10146000F801EB50FF4F8081882309F482C0A80166
:1014700061E0CE0101960E94F7067BC09517A8F4A3
:101480006F5FD801A60FB11D9801290F311DF90119
:10149000E758FF4F8081482F42954F7031978081E8
:1014A000807F842B8C939E5FE9CFF801E60FF11DBE
:1014B000F080F801EC50FF4FF0826150F801619329
:1014C000CF010E94E004F801ED50FF4F8083329677
:1014D0008F1559F08081882309F44DC0A80162E07E
:1014E000CE0101960E94F70646C08081882309F448
:1014F00044C080E492E00E94B205A80160E0CE0101
:1015000001960E94F70639C0A11010CFF701808123
:10151000815080830BCFF701808181508083B1108F
:1015200010C0F4018081882361F00E946606F301F7
:10153000808191810E94B2056C2D85E492E00E9429
:101540002A06F4018081882329F06C2D87E392E03C
:101550000E942A06B394EACEF801EB50FF4F808137
:10156000882369F0A80164E0CE0101960E94F70685
:1015700006C081E005C082E003C080E001C084E0D5
:101580002A960FB6F894DEBF0FBECDBFDF91CF9184
:101590001F910F91FF90EF90DF90CF90BF90AF9091
:1015A0009F908F907F906F905F904F903F902F9083
:1015B00008951F920F920FB60F9211242F933F930D
:1015C0004F935F936F937F938F939F93AF93BF934B
:1015D000EF93FF93E091AC02F091AD02309709F4E4
:1015E00051C0968DA685B785858591FF04C09C91D5
:1015F000892329F447C09C91892309F043C0A3891A
:10160000B4899C918589809589238C938689978953
:101610000197F1F7608D718DA685B785558538E006
:1016200020E0CB010197F1F7822F90E09595879507
:10163000282F4C91452309F02068315091F7868D71
:1016400081FD20958091AA0290E001968F739927E1
:101650003091AB02381749F0A091AA02B0E0A2592C
:10166000BB4F2C938093AA0203C0868D8160868F26
:10167000828D938D0197F1F7A389B4899C91858917
:10168000892B8C93FF91EF91BF91AF919F918F9197
:101690007F916F915F914F913F912F910F900FBE6E
:1016A0000F901F901895E091AC02F091AD02E817F1
:1016B000F90769F4A389B4899C9185898095892368
:1016C0008C931092AD021092AC0281E0089580E0FC
:1016D0000895262FFC01A4E0B1E0059631913D93D9
:1016E000E817F907D9F763E0822F90E00E947304AE
:1016F000FC01808180930A01818180930B018281AA
:1017000080930C010895CF93DF93CDB7DEB7C85710
:10171000D1090FB6F894DEBF0FBECDBF789484B563
:10172000826084BD84B5816084BD85B5826085BDDD
:1017300085B5816085BD80916E00816080936E006B
:10174000109281008091810082608093810080915D
:10175000810081608093810080918000816080930E
:1017600080008091B10084608093B1008091B000CE
:1017700081608093B00080917A00846080937A00C9
:1017800080917A00826080937A0080917A008160F3
:1017900080937A0080917A00806880937A0010921A
:1017A000C10060E081E00E94950360E087E00E9454
:1017B000950360E088E00E94950361E08AE00E9462
:1017C000950361E08BE00E94950361E08CE00E944C
:1017D000950361E08DE00E94950310926A031092D8
:1017E00069031092680310926703109266031092C7
:1017F00065038DE991E090936C0380936B03909166
:101800005B03963108F057C02DEB30E03093660350
:10181000209365032BE931E030936803209367033D
:101820002CE231E030936A03209369032091680031
:10183000983050F031E09E3008F430E081E001C093
:10184000880F3A95EAF701C084E0822B8093680004
:10185000983038F09E3040F0963148F020E030E08B
:1018600008C02DE630E005C02BE630E002C02CE6D3
:1018700030E03093630320936203983030F481E0CA
:1018800001C0880F9A95EAF70EC0292F30E09E30EC
:1018900018F42850310902C02E50310981E001C0EE
:1018A000880F2A95EAF78093640380916B039091E7
:1018B0006C030197F1F78091690390916A03892B7A
:1018C00021F18091AC029091AD0223E08F34920718
:1018D000E1F0009711F00E94530B80916D038E7F11
:1018E00080936D031092AA021092AB028FE493E0F2
:1018F0009093AD028093AC02E0916203F091630398
:10190000908180916403892B80838EE693E090938D
:10191000A4028093A30261E084E00E94950360E04A
:1019200084E00E946503E091C202F091C30282E06C
:101930008083E091BE02F091BF021082E091C0026C
:10194000F091C1028FEC80831092CA02E091C6022E
:10195000F091C70286E08083E091C402F091C50255
:10196000808180618083E091C402F091C502808112
:1019700088608083E091C402F091C5028081806814
:101980008083E091C402F091C50280818F7D8083C5
:1019900080E090E00E9422118093A20267E0B62EC0
:1019A00070ED472E77E0572E612C712C0091A30229
:1019B0001091A4026091A202F801E750FF4F6083EA
:1019C000809100016B3008F0DFC0882359F086E475
:1019D00091E00E94690B81E091E0F801E650FF4F31
:1019E00091838083F801EB50FF4F81E08083319633
:1019F0008083319680833196108281E091E00E944D
:101A0000B20588E690E00E9475060091A30210914D
:101A1000A402E9961FAEE9979CE0D92E21E3C22EDD
:101A200036E0A32E4DE0942E78018CEFE80EF11CE9
:101A30005AE1852EE9968FADE99781118DC0F801A5
:101A40001182E9968FADE997D2828091A0029091A0
:101A5000A102938384831582E2E9F1E0DE015B96C3
:101A60008B2D01900D928A95E1F7F801C682A7822D
:101A70009B8E41E0BE01655E7F4FC8010E94E0067B
:101A8000F801908180E0F801E80FF11D208124AF7A
:101A90008F5F9817C0F761E084E00E946503C8017A
:101AA0000E94DB0860E084E00E946503F701408249
:101AB000518262827382C8010E945109382E8823A4
:101AC00061F1F801828181831282E9E9F1E0DE01AE
:101AD0001196882D01900D928A95E1F7E32DF0E0A3
:101AE000EE0FFF1FE85EFE4F8081A82FB1812B2DE6
:101AF000281B922F9A0F8D91882341F0E1E0F0E0AE
:101B0000EC0FFD1FE90FF11D8083F3CF4AE1BE0109
:101B10006F5F7F4FC8010E94E006F801908180E06E
:101B2000F801E80FF11D208124AF8F5F9817C0F7EF
:101B3000A801632D8CE491E00E94F70660E177E252
:101B400080E090E00E94C501E9968FADE9978F5F34
:101B5000E9968FAFE9976ECF8091A0029091A10294
:101B600001969093A1028093A0020E94660660E114
:101B700077E280E090E00E94C50168EE73E080E0CB
:101B800090E00E94C5013BC28823C9F084E591E042
:101B90000E94690BE091A302F091A402E650FF4F6E
:101BA00081E091E09183808381E0F801EB50FF4F69
:101BB0008083319680833196108231961082C801DD
:101BC0000E945109182FE090A302F090A402F7019F
:101BD0008111FFC1A1801085018592818091A202AF
:101BE00098130DC280E1E3EBF1E0DE01DB9601909A
:101BF0000D928A95E1F780E1E3ECF1E0DE019B963E
:101C000001900D928A95E1F7E3EDF1E0DE01AF5826
:101C1000BF4F8B2D01900D928A95E1F788E0EAED98
:101C2000F1E0DE01A759BF4F01900D928A95E1F7CF
:101C30008FE0E2EEF1E0DE01A65ABF4F01900D9277
:101C40008A95E1F78FE0E1EFF1E0DE01A55BBF4FA0
:101C500001900D928A95E1F780E1E0E0F2E0DE018B
:101C60005B9601900D928A95E1F7F701908180E0F3
:101C7000F701E80FF11D208124AF8F5F9817C0F79F
:101C80006701FCE3CF0ED11CF7018681813379F027
:101C900038F4833009F454C1813209F479C16CC13C
:101CA000823309F49BC0833309F472C165C1F70123
:101CB0008781853021F1863009F449C0843009F0EC
:101CC00080C0AE01465A5F4FBE0167597F4F82E127
:101CD00091E00E948106612F70E080E090E04AE090
:101CE0000E949F06812F0E94770189834FE0BE01E9
:101CF000665A7F4FC6010E94E00611E063C0AE0144
:101D0000455B5F4FBE0167597F4F82E191E00E94C2
:101D10008106812F90E0A0E0B0E04AE0BC01CD0157
:101D20000E949F06812F0E947701982E081721F0AC
:101D3000602F812F0E9465036AE070E080E090E0F0
:101D40000E94C501812F0E947701998229C0AE01AE
:101D5000455E5F4FBE0167597F4F82E191E00E946F
:101D60008106812F90E0A0E0B0E04AE0BC01CD0107
:101D70000E949F06812F0E947701082F811102C0C7
:101D800061E001C060E0812F0E9465036AE070E0BD
:101D900080E090E00E94C501812F0E9477010983B5
:101DA0008A834DE651E0BA018AE591E00E948106FE
:101DB00049E651E062E0CE0101960E943E0312E046
:101DC00001C010E0412FBE016F5F7F4FC6010E942E
:101DD000E006F701EF5BFF4F1082DBC08BE691E07E
:101DE0000E94B20582E191E00E94B205CE018F58B7
:101DF0009F4F0E94B2058EE691E00E94B20561E01D
:101E000070E080E090E022EF210F283018F060E0D1
:101E100070E0CB014AE00E949F06F7018781843081
:101E200019F0853091F085C0CE01865A9F4F0E94EF
:101E3000B205612F70E080E090E04AE00E949F06CA
:101E40000E946606812F90E071C0CE01855B9F4F96
:101E50000E94B205812F90E0A0E0B0E04AE0BC0112
:101E6000CD010E949F060E946606202E312C61E063
:101E7000812F0E949503812E912C2114310409F4A5
:101E800048C0FFEF2F16310409F445C0F401E852B1
:101E9000FF4FE491E330F9F048F4E130B9F0E2307B
:101EA000A1F584B5806284BD08BD39C0E730E9F092
:101EB000E83019F1E43049F5809180008062809328
:101EC000800030928B0020928A0029C084B58068FF
:101ED00084BD07BD24C0809180008068809380000D
:101EE00030928900209288001AC08091B0008068EA
:101EF0008093B0000093B30012C08091B000806264
:101F00008093B0000093B4000AC020E82216310488
:101F100014F460E001C061E0812F0E94650364EF6A
:101F200071E080E090E00E94C501C4010E94F602C9
:101F300001C080E0898341E0BE016F5F7F4F14C024
:101F4000F7018781823021F58CE691E00E94B2058D
:101F500082E191E00E94B20586E890E00E94750659
:101F600040E1BE01655C7F4FC6010E94E006F701BB
:101F7000EF5BFF4F10820CC040E1BE01655D7F4FFB
:101F8000C6010E94E00683E0F701EF5BFF4F80830C
:101F900010E0F701A6AE8091A20285AF4DE651E0B8
:101FA00061E871E082E191E00E94810647E352E03E
:101FB000612FCE0101960E943E0361E084E00E9401
:101FC0006503C7010E94DB0860E084E00E946503AE
:101FD00016C08081882399F081E091E00E94B205CB
:101FE00082EC90E00E944506612F70E080E090E076
:101FF0004AE00E949F0685EA90E00E9475061092D2
:1020000000010E94EC02D2CC8AE391E0909350034D
:1020100080934F038FE493E00C94530B1092B5021E
:102020001092B40288EE93E0A0E0B0E08093B60294
:102030009093B702A093B802B093B9022AE231E0BC
:102040003093B3022093B20225EC30E03093BF020C
:102050002093BE0224EC30E03093C1022093C002F2
:1020600020EC30E03093C3022093C20221EC30E038
:102070003093C5022093C40222EC30E03093C702B3
:102080002093C60226EC30E03093C9022093C802A8
:102090001092CB021092CC021092CD021092CE027E
:1020A0001092630410926404109265041092660406
:1020B00040ED57E060E070E040936A0450936B0499
:1020C00060936C0470936D0410925203109251034C
:1020D0008093530390935403A0935503B0935603F6
:1020E0008AE391E09093500380934F03109266032C
:1020F00010926503109268031092670310926A03AE
:102100001092690310926C0310926B0360916D033F
:102110006E7F6D7F60936D036695617081E06827C7
:1021200082E00E94650361E082E00E949503E2E3A1
:10213000F2E0E491E0935F03EEE1F2E0E491F0E09D
:10214000EE0FFF1FE85FFD4F85919491909361031F
:102150008093600360E083E00E94950380916D03AB
:1021600081FD04C061E083E00E94650383E0809309
:102170005B03E3E3F2E0E491E0935C03EFE1F2E080
:10218000E491F0E0EE0FFF1FEE5EFD4F859194911C
:1021900090935E0380935D030895AA1BBB1B51E1DE
:1021A00007C0AA1FBB1FA617B70710F0A61BB70BC7
:1021B000881F991F5A95A9F780959095BC01CD016C
:1021C000089597FB072E16F4009407D077FD09D0E9
:1021D0000E94CD1007FC05D03EF4909581959F4F4D
:1021E0000895709561957F4F0895A1E21A2EAA1B5C
:1021F000BB1BFD010DC0AA1FBB1FEE1FFF1FA217B7
:10220000B307E407F50720F0A21BB30BE40BF50BB3
:10221000661F771F881F991F1A9469F7609570953C
:10222000809590959B01AC01BD01CF010895EE0F03
:10223000FF1F0590F491E02D099481E090E0F8945F
:102240000C942A11F999FECF92BD81BDF89A992775
:1022500080B5089511E0C3E2D1E004C0FE010E9400
:0E22600017112196C432D107C9F7F894FFCFA9
:10226E00010D0A5B59595959592D7878785D202DF1
:10227E0020000A20202020006C026F0278028002CB
:10228E00890291029902000000008302FF014C02B4
:10229E002A023E02CA02000000001305FF01670574
:1022AE007F05FA041205456D756C610052582D704C
:1022BE006F6C6C00536C61766500206265666F72A0
:1022CE00652F616674657220002F000A0A0020696E
:1022DE00732070696E20416E616C6F673F202D3EDA
:1022EE000072657475726E696E6720446174613A2E
:1022FE0020002E2E2E2E2E2E004552524F523A20B8
:10230E002E2E2E2E2E2E2E2E206F6363757272653C
:10231E00642100506F6C6C696E6720616E73776517
:10232E00722100554E4B4E4F574E20636F6D6D61AF
:10233E006E6400414E414C4F470044494749544159
:10234E004C00202D2072656164202070696E3A2049
:10235E0000202D2077726974652070696E3A200016
:10236E00202D20746F67676C652070696E3A2000AF
:10237E0030313233343536373839414243444546AD
:10238E0000784D6974746564204352432030782080
:10239E003A20000A202020200054582D6C6962003B
:1023AE000D0A0D0A006C696252454356202D2075A8
:1023BE006E657870657874656420627974652873CB
:1023CE00293A200052582D64617461004F4B004F22
:1023DE00564552464C4F57004241442D43524300FE
:1023EE004241442D434841520054494D454F5554A6
:1023FE00005041594C4F414400444542554700005E
:00000001FF
