:100000000C945B010C9483010C9483010C949A036F
:100010000C949A030C949A030C9483010C9483011E
:100020000C9483010C9483010C9483010C94830140
:100030000C9483010C9483010C9483010C94830130
:100040000C9480040C9483010C94F0040C94CA0466
:100050000C9483010C9483010C9483010C94830110
:100060000C9483010C948301707265706172696EE7
:100070006720726573706F6E7365206D6573736151
:1000800067652E2E2E20002E0020436F6D6D616E51
:100090006420202020726963657675746F202D3E80
:1000A000200020414E414C4F472020636F6D6D6111
:1000B0006E6420202020202D3E2000204449474906
:1000C00054414C20636F6D6D616E642020202020B0
:1000D0002D3E200000202D206572726F7265206E0B
:1000E0006F6E206964656E746966696361746F3AE6
:1000F00020007263766452436F64653A2000202DBD
:10010000204E657373756E612072696368696573EB
:10011000746120726963657675746120696E2075FB
:100120006E2074656D706F206469206D533A2000F5
:100130007263766452436F64653A200000000000E9
:10014000240027002A00000000080002010000032C
:1001500004070000000000000000434D442020720E
:100160006177202D202020202020005D202D2000E0
:1001700066756C6C20726177202D206C656E3A5B21
:1001800000434D442F737562434D44202030782046
:100190003A2000434D445F52436F64652020203075
:1001A00078203A20005345514E4F20202020202017
:1001B000203078203A2000435243205265632F4379
:1001C000616C203078203A20005D202D2000636F84
:1001D0006D6D616E644461746120617363202D20D4
:1001E0006C656E3A5B005D202D2000636F6D6D6164
:1001F0006E644461746120686578202D206C656EA2
:100200003A5B005D202D200066756C6C4461746162
:1002100020202020686578202D206C656E3A5B00D8
:10022000202D205B72637664436F64653A20002062
:100230002D205B69742773204E4F5420666F722007
:100240006D652E2E2E5D00202D205B574F572069A7
:1002500074277320666F72206D652E2E2E5D002030
:100260002D205365714E4F3A20002D2D3E307800E1
:10027000202D2030780000000000250028002B00F1
:1002800000000000230026002900040404040404E4
:100290000404020202020202030303030303010235
:1002A0000408102040800102040810200102040804
:1002B0001020D00FC60F11241FBECFEFD8E0DEBF35
:1002C000CDBF12E0A0E0B1E0E2EFF1E202C00590A4
:1002D0000D92AE35B107D9F724E0AEE5B2E001C02A
:1002E0001D92AE37B207E1F711E0CAE5D1E004C0D4
:1002F0002197FE010E94D910C935D107C9F70E9484
:10030000050C0C94EC100C940000E091A702F09105
:10031000A802E817F90769F4A389B4899C91858933
:10032000809589238C931092A8021092A70281E0F5
:10033000089580E00895833081F028F4813099F0A9
:100340008230A1F008958730A9F08830B9F0843068
:10035000D1F4809180008F7D03C0809180008F77E1
:1003600080938000089584B58F7702C084B58F7D17
:1003700084BD08958091B0008F7703C08091B00054
:100380008F7D8093B0000895CF93DF93282F30E0C6
:10039000F901EA5BFE4F8491F901E256FD4FD491D9
:1003A000F901E657FD4FC491CC2391F081110E94D1
:1003B0009B01EC2FF0E0EE0FFF1FE058FD4FA591E1
:1003C000B491EC91ED2381E090E021F480E002C053
:1003D00080E090E0DF91CF9108953FB7F89480914D
:1003E000610290916202A0916302B091640226B50D
:1003F000A89B05C02F3F19F00196A11DB11D3FBF5D
:10040000BA2FA92F982F8827820F911DA11DB11DEA
:10041000BC01CD0142E0660F771F881F991F4A95E6
:10042000D1F708958F929F92AF92BF92CF92DF92B1
:10043000EF92FF926B017C010E94ED014B015C0188
:10044000C114D104E104F104F1F00E94ED01DC01DA
:10045000CB0188199909AA09BB09883E9340A105D7
:10046000B10570F321E0C21AD108E108F10888EE65
:10047000880E83E0981EA11CB11CC114D104E104B4
:10048000F10419F7DDCFFF90EF90DF90CF90BF9090
:10049000AF909F908F900895CF92DF92EF92FF924E
:1004A0000F931F93CF93DF936C017A018B01C0E010
:1004B000D0E0CE15DF0589F0D8016D918D01D60110
:1004C000ED91FC910190F081E02DC6010995892BF9
:1004D00011F47E0102C02196ECCFC701DF91CF91CC
:1004E0001F910F91FF90EF90DF90CF900895FC0146
:1004F000918D828D981761F0828DDF01A80FB11D5B
:100500005D968C91928D9F5F9F73928F90E008957E
:100510008FEF9FEF08958EEA92E00C947702FC0132
:10052000918D828D981731F0828DE80FF11D858DA8
:1005300090E008958FEF9FEF0895FC01918D228D3B
:10054000892F90E0805C9F4F821B91098F739927C0
:1005500008958EEA92E00C949D028EEA92E00E9449
:100560009D0221E0892B09F420E0822F0895FC01EF
:10057000848DDF01A80FB11DA35ABF4F2C91848D2C
:1005800090E001968F739927848FA689B7892C9361
:10059000A089B1898C9180648C93938D848D9813FC
:1005A00006C00288F389E02D80818F7D80830895C5
:1005B000EF92FF920F931F93CF93DF93EC0181E0B3
:1005C000888F9B8D8C8D981305C0E889F98980816F
:1005D00085FD24C0F62E0B8D10E00F5F1F4F0F73AB
:1005E0001127E02E8C8DE8120CC00FB607FCFACF55
:1005F000E889F989808185FFF5CFCE010E94B70295
:10060000F1CF8B8DFE01E80FF11DE35AFF4FF08211
:100610000B8FEA89FB898081806207C0EE89FF89A0
:100620006083E889F98980818064808381E090E03B
:10063000DF91CF911F910F91FF90EF900895682F58
:100640008EEA92E00C94D802CF93DF93EC01888D70
:100650008823C9F0EA89FB89808185FD05C0A889C6
:10066000B9898C9186FD0FC00FB607FCF5CF80814C
:1006700085FFF2CFA889B9898C9185FFEDCFCE0196
:100680000E94B702E7CFDF91CF91089580E090E01C
:10069000892B29F00E94AD0281110C94000008956D
:1006A000EF92FF920F931F93CF9392EF980F8E309C
:1006B00008F0892F8770C82FC0648AE0E82EF12CDB
:1006C00000E010E0C0937C0080917A008064809309
:1006D0007A0080917A0086FDFCCF2091780080918D
:1006E000790030E0382B020F131F64E670E080E0E1
:1006F00090E00E94120281E0E81AF10819F7C8019F
:100700006AE070E00E94A310CB01CF911F910F917E
:10071000FF90EF900895682F8BE493E00C941606F9
:100720008BE493E00C946A068BE493E00C948206CD
:100730000E94DF101F920F920FB60F9211242F9379
:100740003F934F935F936F937F938F939F93AF9359
:10075000BF93EF93FF93E091A702F091A802309727
:1007600009F451C0968DA685B785858591FF04C093
:100770009C91892329F447C09C91892309F043C0A7
:10078000A389B4899C918589809589238C938689D6
:1007900097890197F1F7608D718DA685B78555858D
:1007A00038E020E0CB010197F1F7822F90E095959A
:1007B0008795282F4C91452309F02068315091F7F7
:1007C000868D81FD20958091A50290E001968F7322
:1007D00099273091A602381749F0A091A502B0E000
:1007E000AB59BD4F2C938093A50203C0868D8160C9
:1007F000868F828D938D0197F1F7A389B4899C919F
:100800008589892B8C93FF91EF91BF91AF919F9137
:100810008F917F916F915F914F913F912F910F90A9
:100820000FBE0F901F9018951F93CF93DF93282F23
:1008300030E0F901EA5BFE4F8491F901E256FD4F89
:10084000D491F901E657FD4FC491CC23C9F0162F7E
:1008500081110E949B01EC2FF0E0EE0FFF1FEA5880
:10086000FD4FA591B4918FB7F894111105C09C91DB
:10087000ED2FE095E92302C0EC91ED2BEC938FBFB7
:10088000DF91CF911F910895CF93DF9390E0FC010A
:10089000E256FD4F2491FC01E657FD4F84918823D9
:1008A00061F190E0880F991FFC01E45CFE4FC59157
:1008B000D491FC01EA58FD4FA591B491611109C092
:1008C0009FB7F8948881209582238883EC912E230A
:1008D0000BC0623061F49FB7F8943881822F809505
:1008E00083238883EC912E2B2C939FBF06C08FB758
:1008F000F894E8812E2B28838FBFDF91CF91089544
:100900001F920F920FB60F9211242F933F938F9344
:100910009F93AF93BF938091A9029091AA02A09157
:10092000AB02B091AC023091600223E0230F2D376F
:1009300020F40196A11DB11D05C026E8230F0296E3
:10094000A11DB11D209360028093A9029093AA0279
:10095000A093AB02B093AC028091610290916202CD
:10096000A0916302B09164020196A11DB11D809314
:10097000610290936202A0936302B0936402BF91FC
:10098000AF919F918F913F912F910F900FBE0F903C
:100990001F9018951F920F920FB60F9211242F934C
:1009A0003F934F935F936F937F938F939F93AF93F7
:1009B000BF93EF93FF938EEA92E00E94B702FF91FC
:1009C000EF91BF91AF919F918F917F916F915F91C7
:1009D0004F913F912F910F900FBE0F901F90189540
:1009E0001F920F920FB60F9211242F938F939F9304
:1009F000EF93FF93E091BE02F091BF028081E091FE
:100A0000C402F091C50282FD12C090818091C7029C
:100A10008F5F8F732091C802821751F0E091C70257
:100A2000F0E0E255FD4F958F8093C70201C08081B1
:100A3000FF91EF919F918F912F910F900FBE0F908B
:100A40001F901895CF93DF93CDB7DEB761970FB6A0
:100A5000F894DEBF0FBECDBF21E1E4EDF1E0DE0191
:100A6000119601900D922A95E1F7A4E7B4E0129651
:100A70001C921297BC0124E0769567952A95E1F7C0
:100A80009C012F70332741E050E04C0F5D1F240F75
:100A9000351FF901208111962C931197892F9927E1
:100AA000E4E0880F991FEA95E1F7FB01E81BF90BD9
:100AB000E40FF51F80818C93CD0161960FB6F894F9
:100AC000DEBF0FBECDBFDF91CF910895CF93DF93EF
:100AD00010927304E2E7F4E0262F2E1BCAE0D0E068
:100AE000322F3E0F009741F0BE010E948F10805DB3
:100AF0008083CB013197F4CF832FDF01119690E3F0
:100B0000815010F09E93FCCF81E090E0831B91090F
:100B10008E0F9F1FDF91CF910895E091AE02F0916B
:100B2000AF020190F081E02D682F8EEA92E00994E7
:100B3000BF92CF92DF92EF92FF920F931F93CF93CA
:100B4000DF937C01162FEA01262F30E084E03595F3
:100B500027958A95E1F70FE0822F802794E0220FF6
:100B6000331F9A95E1F7B82EB22A8B2DF70109951C
:100B70006E01F8E7CF0ED11CF60180818F5F808374
:100B8000FE01E80FF11DE858FF4FB0821F70F0E141
:100B90001F9FC00111241027182B812FF7010995E1
:100BA000F60180818F5F8083C80FD11DC858DF4F49
:100BB0001883DF91CF911F910F91FF90EF90DF90FD
:100BC000CF90BF900895582FFC0180E07CE89E2FC5
:100BD000951B961788F4419198E0A42FA827282FF9
:100BE00030E035952795822FA0FF02C0872F8227FE
:100BF0004695915091F7EBCF08952091A70230913F
:100C0000A8022817390771F49091A6028091A502D5
:100C1000981741F0E091A602F0E0EB59FD4F80817A
:100C200090E008958FEF9FEF089508951F93CF935D
:100C3000DF93DC015C962D913C915D972115310588
:100C400039F481E090E013969C938E9312973DC007
:100C50005196ED91FC91529750969C915097892F07
:100C600080951FB75E964C915E9741FB772770F990
:100C700041FD6095F8944081772311F0492B01C024
:100C800048234083E9012197F1F748E0508160FF54
:100C900002C0592B01C058235083E9012197F1F775
:100CA0006695415099F7772321F0908189238083BD
:100CB00003C08081982B90831FBF5C968D919C917F
:100CC0005D970197F1F721E030E0C901DF91CF9105
:100CD0001F9108952091A7023091A8022817390783
:100CE00071F48091A5022091A60290E0805C9F4F54
:100CF000821B910960E470E00E94A310089580E0D7
:100D000090E008952091A7023091A8022817390792
:100D1000B9F49091A6028091A502981789F0E0910C
:100D2000A602F0E0EB59FD4F80812091A60230E051
:100D30002F5F3F4F2F7333272093A60290E0089533
:100D40008FEF9FEF0895009769F0FC01019000205C
:100D5000E9F73197AF01481B590BBC018EEA92E0CD
:100D60000C944C0280E090E008950F931F93CF9372
:100D7000DF938C01C0E0D0E0F801EC0FFD1F64911F
:100D8000662371F0E091AE02F091AF020190F08124
:100D9000E02D8EEA92E00995892B11F02196ECCF97
:100DA000CE01DF91CF911F910F9108950C94A3066E
:100DB000EF92FF921F93CF93DF931F92CDB7DEB7D1
:100DC000611107C0382FFC016E2F631B2191211187
:100DD000FBCF182F7C018E2D811B861788F4F7011D
:100DE00081917F01082E000C990B69830E942205D6
:100DF0000E94D60685EF91E00E94D6066981EBCF6E
:100E00008AE591E00F90DF91CF911F91FF90EF90D5
:100E10000C94D606CF93DF931F92CDB7DEB76983CC
:100E20000E94D6066981862F90E00E9422050E94CA
:100E3000D6068AE591E00F90DF91CF910C94D6060B
:100E400090E00E9422050C94D60689EF91E00C9464
:100E5000A306CF93DF930E94B506EC010E942507FD
:100E60008C0F9D1FDF91CF9108958F929F92AF922B
:100E7000BF920F931F93CF93DF93CDB7DEB7A197A8
:100E80000FB6F894DEBF0FBECDBF19A2423008F4F2
:100E90004AE08E010F5D1F4F842E912CA12CB12CA6
:100EA000A50194010E94B710E62FB901CA010150B3
:100EB0001109EA3014F4E05D01C0E95CD801EC935B
:100EC000232B242B252B61F7C8010E94A306A19692
:100ED0000FB6F894DEBF0FBECDBFDF91CF911F914B
:100EE0000F91BF90AF909F908F900895CF93DF9315
:100EF000682F70E080E090E04AE00E943507EC0146
:100F00000E9425078C0F9D1FDF91CF910895CF92EE
:100F1000DF92EF92FF92CF93DF936C01990FEE086F
:100F2000FF08F7FE17C08DE20E948D05EC016627D1
:100F30007727CB016C197D098E099F094AE00E9431
:100F400035078C0F9D1FDF91CF91FF90EF90DF90C1
:100F5000CF9008954AE0C701B601DF91CF91FF908D
:100F6000EF90DF90CF900C943507CF92DF92EF9205
:100F7000FF92CF93DF936C01990FEE08FF08F7FE05
:100F800012C08DE20E948D05EC0166277727CB0108
:100F90006C197D098E099F094AE00E9435077C0182
:100FA000EC0EFD1E06C04AE0C701B6010E943507DF
:100FB0007C010E9425078E0D9F1DDF91CF91FF9030
:100FC000EF90DF90CF900895CF93DF93DC01411134
:100FD00007C0962FFB014E2F491B81918111FBCF3A
:100FE000FB01ED012896495F97E0941305C09150ED
:100FF0009C93DF91CF9108959334C9F39F5F8191C2
:101000008993F3CF4F925F926F927F928F929F92CC
:10101000AF92BF92CF92DF92EF92FF920F931F9306
:10102000CF93DF93DC01EA01FA01E850FF4F7080B3
:10103000CA018A509F4F9A012B503F4FFC0190816B
:10104000F9018081980F7A01F7EFEF0EF11CF7019B
:101050002081920F970D09F4A1C18C91843529F458
:101060008A01045C1F4F5CAC05C0823509F096C153
:101070008A015880462E6D014E01F8E78F0E911CB3
:10108000F4016080552009F435C1F8018481A38002
:10109000B12CBA2CAA24A80EB11C0E942507FE016F
:1010A000E650FF4F808191810E94D606C6010E94C2
:1010B000D60680E792E00E94B506F80181810E9481
:1010C00020078AE692E00E94B506F80182810E941C
:1010D00020078FE592E00E94B50665E0C5010E94F9
:1010E00066050E94D6062091AD0291E0F80181814B
:1010F000281390E081E0F8013281231380E0890F0A
:1011000039F087E492E00E94B506FF24F39406C00C
:101110008FE292E00E94B506F701F080F60180812F
:10112000823589F480E292E00E94B506E42DF0E079
:10113000EE0FFF1FE25EFE4F808191810E94D60676
:101140008DE50E948D05FF2009F4D4C00E9425077B
:1011500088E191E00E94D60688E092E00E94B50600
:10116000F80181917F0163E090E00E9466050E9492
:10117000D60683E092E00E94B506F8016081C701BF
:101180000E94D806F9EF5F0E88E191E00E94D60632
:101190008BEE91E00E94B506A52CB12C63E0C50151
:1011A0000E9466050E94D60686EE91E00E94B50672
:1011B00095E1F92E80E20E948D05FA94F110FACFA4
:1011C000780188E0E80EF11C652DC7010E94D80661
:1011D00088E191E00E94D6068EEC91E00E94B5066F
:1011E00063E0C5010E9466050E94D60689EC91E085
:1011F0000E94B50685E1B82E80E20E948D05BA9462
:10120000B110FACF8BE50E948D05511007C09E2DBD
:10121000F7015E2E591A81918111FBCF4E2C570197
:101220008A2D8419851558F4F50181915F0190EE9E
:10123000980F9F3508F080E20E948D05F1CF8DE573
:101240000E948D050E942507F60180818235C9F430
:1012500088E191E00E94D60687EB91E00E94B506F6
:10126000FE01EC50FF4F80810E94200785EF91E046
:101270000E94D606FE01ED50FF4F80810E9420079C
:101280000CC088E191E00E94D606FE01EE50FF4FAF
:10129000608185EE91E00E940A0788E191E00E945A
:1012A000D60685EA91E00E94B50662E0C801039681
:1012B0000E94D80688E191E00E94D60683E991E079
:1012C0000E94B506F80185810E94200788E191E01F
:1012D0000E94D60681E891E00E94B506F801868159
:1012E0000E94200785EF91E00E94D606F8018781D1
:1012F0000E942007772009F451C0662009F44EC0EF
:101300000E94250788E191E00E94D60680E791E0DF
:101310000E94B506F401808163E090E00E946605BA
:101320000E94D6068BE691E00E94B50688E191E026
:101330000E94D606F4016081CE0187589F4F0E941B
:10134000D8060E94250788E191E00E94D6068AE52A
:1013500091E00E94B506F401808163E090E00E9474
:1013600066050E94D60688E191E00E94D6066EEEE0
:10137000660DCE0188579F4FDF91CF911F910F913E
:10138000FF90EF90DF90CF90BF90AF909F908F90A5
:101390007F906F905F904F900C94D806DF91CF9123
:1013A0001F910F91FF90EF90DF90CF90BF90AF9083
:1013B0009F908F907F906F905F904F9008952F92A5
:1013C0003F924F925F926F927F928F929F92AF92D5
:1013D000BF92CF92DF92EF92FF920F931F93CF9322
:1013E000DF93CDB7DEB72E970FB6F894DEBF0FBEF2
:1013F000CDBF8C017C876B871A0188E0EBE1F2E0BE
:10140000DE01119601900D928A95E1F78FB7F8945D
:101410008090A9029090AA02A090AB02B090AC027A
:101420008FBF780188E7E80EF11CF7011082F80100
:101430001082512C412CC80184509F4F9E878D876C
:10144000EB50FF4FFA87E9873801FAEF6F0E711CF6
:101450002FB7F8948091A9029091AA02A091AB02B3
:10146000B091AC022FBF88199909AA09BB09ED8573
:10147000FE85408151816281738184179507A6079B
:10148000B70708F0FEC0F10109951816190604F710
:10149000EB85FC8509956C01F70180818A3708F09E
:1014A00072C08F5F8083F801E80FF11DE858FF4F8D
:1014B000C082C60199278936910509F4B8C09CF508
:1014C0008E31910509F4B3C0E4F48330910509F439
:1014D00055C08F30910509F4AAC0029709F0AEC03B
:1014E00081E0F70180838FB7F8948090A9029090F3
:1014F000AA02A090AB02B090AC028FBF44244394E8
:10150000A7CF8C33910509F492C024F48D9709F08C
:1015100095C08DC08B34910509F489C08A35910539
:1015200009F08CC084C0843B910509F480C09CF410
:101530008738910509F47BC02CF48837910509F0B0
:101540007DC075C08639910509F471C0853A910551
:1015500009F074C06CC0823D910509F468C02CF498
:10156000833C910509F06AC062C0813E910509F48F
:101570005EC0803F910509F061C059C0F7015081FC
:1015800092E060E00EC0F801EB50FF4F80818823AD
:1015900009F484C0A80161E0CE0101960E9402080E
:1015A0007DC09517A8F46F5FD801A60FB11D9801F3
:1015B000290F311DF901E758FF4F8081482F4295CF
:1015C0004F7031978081807F842B8C939E5FE9CF11
:1015D000F801E60FF11DF080F801EC50FF4FF082AA
:1015E0006150F8016193CF010E94E305F801ED50CD
:1015F000FF4F808332968F1559F08081882309F43C
:101600004FC0A80162E0CE0101960E94020848C0C6
:101610008081882309F446C087EF91E00E94D606B6
:10162000A80160E0CE0101960E9402083BC0411073
:101630000FCFF7018081815080830ACFF70180812D
:1016400081508083511011C0E985FA8580818823FB
:1016500061F00E942507F301808191810E94D606E6
:101660006C2D8CEF91E00E940A07E985FA85808154
:10167000882329F06C2D85EF91E00E940A0753948E
:10168000E7CEF801EB50FF4F8081882369F0A80175
:1016900064E0CE0101960E94020806C081E005C008
:1016A00082E003C080E001C084E02E960FB6F8947B
:1016B000DEBF0FBECDBFDF91CF911F910F91FF9085
:1016C000EF90DF90CF90BF90AF909F908F907F90E2
:1016D0006F905F904F903F902F9008959F92AF92A0
:1016E000BF92CF92DF92EF92FF920F931F93CF930F
:1016F000DF93CDB7DEB727970FB6F894DEBF0FBEE6
:10170000CDBF8C016B0187E0E3E2F2E0DE011196D0
:1017100001900D928A95E1F7F80194AC692DC8010A
:10172000CD960E94E305A82EF801EE50FF4F80836E
:101730007801F8E7EF0EF11CF701108282E0F60164
:101740000995F70190819F5F9083F801E90FF11DE2
:10175000E858FF4F82E08083BB24B3949B1450F081
:10176000F801EB0DF11DA80164ADC6010E949805BA
:10177000B394F4CFA8016A2DC6010E94980583E0B6
:10178000F6010995F70180818F5F8083F801E80FEA
:10179000F11DE858FF4F83E08083F801EB50FF4FC5
:1017A0008081882331F0A80160E0CE0101960E947B
:1017B000020827960FB6F894DEBF0FBECDBFDF91AB
:1017C000CF911F910F91FF90EF90DF90CF90BF903E
:1017D000AF909F900895262FFC01A4E0B1E00596FC
:1017E00031913D93E817F907D9F763E0822F90E034
:1017F0000E946605FC01808180930A0181818093AB
:101800000B01828180930C010895CF93DF93CDB7B4
:10181000DEB7C556D1090FB6F894DEBF0FBECDBFF7
:10182000789484B5826084BD84B5816084BD85B5BB
:10183000826085BD85B5816085BD80916E008160C7
:1018400080936E001092810080918100826080936D
:10185000810080918100816080938100809180006F
:101860008160809380008091B10084608093B1009A
:101870008091B00081608093B00080917A00846094
:1018800080937A0080917A00826080937A008091C0
:101890007A00816080937A0080917A0080688093DA
:1018A0007A001092C10010926603109265031092A4
:1018B00064031092630310926203109261038DE936
:1018C00091E090936803809367039091570396315A
:1018D00008F057C02DEB30E0309362032093610392
:1018E0002BE931E030936403209363032CE231E071
:1018F000309366032093650320916800983050F080
:1019000031E09E3008F430E081E001C0880F3A9564
:10191000EAF701C084E0822B80936800983038F0A9
:101920009E3040F0963148F020E030E008C02DE6CF
:1019300030E005C02BE630E002C02CE630E030930A
:101940005F0320935E03983030F481E001C0880F7C
:101950009A95EAF70EC0292F30E09E3018F42850EF
:10196000310902C02E50310981E001C0880F2A954B
:10197000EAF7809360038091670390916803019771
:10198000F1F78091650390916603892B21F1809195
:10199000A7029091A80223E08B349207E1F0009710
:1019A00011F00E948501809169038E7F8093690305
:1019B0001092A5021092A6028BE493E09093A802E5
:1019C0008093A702E0915E03F0915F039081809184
:1019D0006003892B80838AE693E090935F02809373
:1019E0005E0261E084E00E94440460E084E00E94C2
:1019F0001404E091BE02F091BF0282E08083E09186
:101A0000BA02F091BB021082E091BC02F091BD02DB
:101A10008FEC80831092C602E091C202F091C30263
:101A200086E08083E091C002F091C10280818061F4
:101A30008083E091C002F091C10280818860808340
:101A4000E091C002F091C102808180688083E091C2
:101A5000C002F091C10280818F7D808380E090E0A0
:101A60000E94E4108093AD0261E08DE00E94440486
:101A700080E1B82E98E0292E21E1A22E38E8432EED
:101A800033E1532E612C712C6091AD0280910001E5
:101A90006B3088F58823D9F08CE491E00E94EB0B41
:101AA00080915E0290915F02FC01E750FF4F209110
:101AB000AD022083319621E031E0318320833597D8
:101AC0001082319610823196108231961082809168
:101AD0005E0290915F02FC01E450FF4F4082518210
:101AE00062827382FC01108249EA52E06BE872E084
:101AF0000E94DF0946C2882309F182E591E00E9435
:101B0000EB0B80915E0290915F02FC01E750FF4F6A
:101B10002091AD022083319621E031E03183208392
:101B2000359721E0208331962083319610823196BB
:101B300010823496408251826282738240E953E07F
:101B400064E973E080915E0290915F020E94DF0978
:101B500000915E0210915F02F8018111D9C13180BC
:101B6000EB5BFF4FF0803196E080F801928180912D
:101B7000AD02981306C2E3E8F1E0DE01A95BBF4FB6
:101B80008B2D01900D928A95E1F7E3E9F1E0DE01FA
:101B9000D7968B2D01900D928A95E1F7E3EAF1E05B
:101BA000DE01A15ABF4F87E001900D928A95E1F7BF
:101BB000EAEAF1E0DE01A95ABF4F822D01900D92B1
:101BC0008A95E1F7E2EBF1E0DE0196968A2D01902D
:101BD0000D928A95E1F7E3ECF1E0DE0155968A2D4E
:101BE00001900D928A95E1F7F801908180E0F8016B
:101BF000E80FF11D208124AF8F5F9817C0F784EDA7
:101C000090E00E9429078BEB90E00E94B5068CE0E3
:101C100090E00E94B50782EA90E00E94B5068DE050
:101C200090E00E94B50789E890E00E94B506F801AF
:101C3000668170E080E090E04AE00E94350787E826
:101C400090E00E94B506F80187810E947607F801AE
:101C500086818C3009F4B3C038F4833009F41BC199
:101C60008B3009F442C134C18D3021F08E3009F43B
:101C700012C12EC188E591E00E94D60682E191E072
:101C80000E94D606CE01815A9F4F0E94D6068BE550
:101C900091E00E94D60681E090E022EF2F0D2830DF
:101CA00010F080E090E00E948707F801878184307F
:101CB00019F0853059F075C0CE0186960E94D6067F
:101CC0008F2D0E9476078F2D90E068C0CE0145963B
:101CD0000E94D6068F2D0E947607CE2CD12C61E073
:101CE0008F2D0E9444048F2C912CC114D10409F42F
:101CF00048C0FFEFCF16D10409F445C0F401EA5BF8
:101D0000FE4FE491E330F9F048F4E130B9F0E2300D
:101D1000A1F584B5806284BDE8BC39C0E730E9F044
:101D2000E83019F1E43049F58091800080628093B9
:101D30008000D0928B00C0928A0029C084B5806850
:101D400084BDE7BC24C080918000806880938000BF
:101D5000D0928900C09288001AC08091B00080683B
:101D60008093B000E092B30012C08091B000806216
:101D70008093B000E092B4000AC020E8C216D104FB
:101D800014F460E001C061E08F2D0E94140464EF40
:101D900071E080E090E00E941202C4010E945003B2
:101DA00001C080E0898341E0BE016F5F7F4FC801C1
:101DB000CC960E94E407F801EF5BFF4F108288E5A4
:101DC00091E00E94D60682E191E00E94D606CE0103
:101DD000895A9F4F0E94D606CE0186960E94D6064B
:101DE00084EF91E00E94D6068F2D90E0A0E0B0E055
:101DF0004AE0BC01CD010E9435078EE691E00E94C9
:101E0000D60681E090E02EEF2F0D223110F080E019
:101E100090E00E948707F80187819801245C3F4F7A
:101E200069018430C1F0853049F5CE0145960E94A4
:101E3000D6068F2D0E9476076E2D8F2D0E941404DA
:101E400064EF71E080E090E00E9412028F2D0E940A
:101E5000C401F82E14C0CE0186960E94D6068F2D9E
:101E60000E9476078F2D0E94C401F82E40E1BE012A
:101E7000695B7F4FC6010E94E40701C0F12CF98223
:101E800041E0BE016F5F7F4FC6010E94E407F80189
:101E9000EF5BFF4F1082F8018781823031F588E5D2
:101EA00091E00E94D60682E191E00E94D60688E683
:101EB00090E00E94290740E1BE01695B7F4FC801A5
:101EC000CC960E94E407F801EF5BFF4F10820DC033
:101ED00040E1BE01695C7F4FC801CC960E94E407D7
:101EE00083E0F801EF5BFF4F8083F80136AE80910D
:101EF000AD0285AF61E084E00E9414046BE873E0FA
:101F0000C8010E946E0B60E084E00E94140439C096
:101F10009081C82ED12CE12CF12C911121C081E0AF
:101F200091E00E94D60680E391E00E94B5064AE067
:101F3000C701B6010E9435078EEF90E00E94B506FA
:101F4000E0915E02F0915F02E450FF4F6081718189
:101F5000828193814AE00E9435070E94250711C0C3
:101F600081E091E00E94D60682EF90E00E94B506E3
:101F70004AE0C701B6010E94350785ED90E00E9456
:101F80002907109200010E9446037ECD80E491E073
:101F900090934C0380934B038BE493E00C94850166
:101FA0001092B1021092B00288EE93E0A0E0B0E08F
:101FB0008093B2029093B302A093B402B093B5029F
:101FC00020E331E03093AF022093AE0225EC30E005
:101FD0003093BB022093BA0224EC30E03093BD0270
:101FE0002093BC0220EC30E03093BF022093BE026D
:101FF00021EC30E03093C1022093C00222EC30E0AB
:102000003093C3022093C20226EC30E03093C50225
:102010002093C4021092C7021092C8021092C90203
:102020001092CA0210925F04109260041092610430
:102030001092620440E157E260E070E04093660471
:1020400050936704609368047093690410924E0380
:1020500010924D0380934F0390935003A09351032C
:10206000B093520380E491E090934C0380934B0330
:102070001092620310926103109264031092630342
:102080001092660310926503109268031092670322
:10209000609169036E7F6D7F6093690366956170DF
:1020A00081E0682782E00E94140461E082E00E94DF
:1020B0004404E0EAF2E0E491E0935B03ECE8F2E050
:1020C000E491F0E0EE0FFF1FEA58FD4F85919491E7
:1020D00090935D0380935C0360E083E00E9444047E
:1020E0008091690381FD04C061E083E00E941404D3
:1020F00083E080935703E1EAF2E0E491E093580330
:10210000EDE8F2E0E491F0E0EE0FFF1FE058FD4F44
:102110008591949190935A03809359030895AA1B33
:10212000BB1B51E107C0AA1FBB1FA617B70710F0C2
:10213000A61BB70B881F991F5A95A9F780959095F4
:10214000BC01CD01089597FB072E16F4009407D02B
:1021500077FD09D00E948F1007FC05D03EF49095C2
:1021600081959F4F0895709561957F4F0895A1E2E5
:102170001A2EAA1BBB1BFD010DC0AA1FBB1FEE1F01
:10218000FF1FA217B307E407F50720F0A21BB30B4C
:10219000E40BF50B661F771F881F991F1A9469F7C8
:1021A00060957095809590959B01AC01BD01CF0124
:1021B0000895EE0FFF1F0590F491E02D099481E042
:1021C00090E0F8940C94EC10F999FECF92BD81BD8B
:1021D000F89A992780B5089511E0CAE5D1E004C0C6
:1021E000FE010E94D9102196CB35D107C9F7F8948A
:0221F000FFCF1F
:1021F200010D0A5B59595959592D7878785D202D6E
:1022020020000A20202020000A20202020002A026C
:102212002D0236023E0247024F0257020000000022
:10222200D8024C029D0277028F02240300000000B4
:1022320016064C026A068206FD05150652656C6199
:102242007900536C617665000A0A00206973207078
:10225200696E20416E616C6F673F202D3E00202D1C
:102262002069732070696E204469676974616C3FEC
:102272003A2000506F6C6C696E6720616E737765EF
:10228200722100554E4B4E4F574E20636F6D6D615C
:102292006E6400414E414C4F470044494749544106
:1022A2004C00202D2072656164696E672070696E32
:1022B2003A2000202D2077726974696E6720706958
:1022C2006E3A2000303132333435363738394142B4
:1022D2004344454600784D69747465642043524313
:1022E200203078203A20000D0A0D0A006C696252F3
:1022F200454356202D20756E657870657874656447
:1023020020627974652873293A200052582D64613D
:1023120074610054582D6C6962004F4B004F564552
:1023220052464C4F57004241442D435243004241D2
:10233200442D434841520054494D454F5554005095
:0E23420041594C4F414400444542554700006C
:00000001FF
