:100000000C9495000C94BD000C94BD000C94D0048D
:100010000C94D0040C94D0040C94BD000C94BD003E
:100020000C94BD000C94BD000C94BD000C94BD005C
:100030000C94BD000C94BD000C94BD000C94BD004C
:100040000C944A050C94BD000C94BA050C949405CC
:100050000C94BD000C94BD000C94BD000C94BD002C
:100060000C94BD000C94BD002020202852657175B1
:10007000657374206973204E4F5420666F72206D33
:1000800065290020202028526571756573742069E8
:100090007320666F72206D6529202E2E2E20616ED2
:1000A00073776572696E67005D00205B0020746F76
:1000B00020203A2000696E6F524543562066726FC9
:1000C0006D3A200000000000240027002A000000F4
:1000D0000008000201000003040700000000000007
:1000E00000005D202D2000205B00000000002500A6
:1000F00028002B0000000000230026002900040433
:1001000004040404040402020202020203030303BF
:10011000030301020408102040800102040810209B
:10012000010204081020EC05A80A11241FBECFEF1D
:10013000D8E0DEBFCDBF12E0A0E0B1E0E8E3F6E139
:1001400002C005900D92A233B107D9F723E0A2E3D4
:10015000B2E001C01D92A73AB207E1F710E0C4E98E
:10016000D0E004C02197FE010E94FC0AC339D107E8
:10017000C9F70E94A5060C940F0B0C940000CF93B6
:10018000DF93CDB7DEB761970FB6F894DEBF0FBE31
:10019000CDBF21E1E9E3F1E0DE01119601900D927E
:1001A0002A95E1F7A8E8B2E012961C921297BC01DA
:1001B00024E0769567952A95E1F79C012F70332707
:1001C00041E050E04C0F5D1F240F351FF9012081E5
:1001D00011962C931197892F9927E4E0880F991F86
:1001E000EA95E1F7FB01E81BF90BE40FF51F8081AD
:1001F0008C9361960FB6F894DEBF0FBECDBFDF9132
:10020000CF9108950F931F93CF93DF938C01C0E09C
:10021000D0E0F801EC0FFD1F6491662371F0E091CE
:100220009202F09193020190F081E02D82E992E038
:100230000995892B11F02196ECCFCE01DF91CF915A
:100240001F910F910895582FFC0180E07CE89E2FAC
:10025000951B961788F4419198E0A42FA827282F82
:1002600030E035952795822FA0FF02C0872F822787
:100270004695915091F7EBCF0895CF93DF9310926D
:100280009102E0E9F2E0262F2E1BCAE0D0E0322FE7
:100290003E0F009741F0BE010E94B20A805D80834C
:1002A000CB013197F4CF832FDF011196815010F0ED
:1002B0004E93FCCF81E090E0831B91098E0F9F1F2E
:1002C000DF91CF9108952091840230918502281703
:1002D000390771F49091830280918202981741F05E
:1002E000E0918302F0E0EE5BFD4F808190E00895A5
:1002F0008FEF9FEF089508951F93CF93DF93DC0155
:100300005C962D913C915D972115310539F481E082
:1003100090E013969C938E9312973DC05196ED9169
:10032000FC91529750969C915097892F80951FB7BA
:100330005E964C915E9741FB772770F941FD609581
:10034000F8944081772311F0492B01C04823408362
:10035000E9012197F1F748E0508160FF02C0592B75
:1003600001C058235083E9012197F1F76695415068
:1003700099F7772321F090818923808303C08081BE
:10038000982B90831FBF5C968D919C915D970197F0
:10039000F1F721E030E0C901DF91CF911F9108957D
:1003A00020918402309185022817390771F48091D9
:1003B00082022091830290E0805C9F4F821B910912
:1003C00060E470E00E94C60A089580E090E008951D
:1003D000209184023091850228173907B9F4909151
:1003E000830280918202981789F0E0918302F0E005
:1003F000EE5BFD4F80812091830230E02F5F3F4F05
:100400002F7333272093830290E008958FEF9FEF9F
:100410000895E0918402F0918502E817F90769F4E4
:10042000A389B4899C918589809589238C931092A6
:1004300085021092840281E0089580E0089590E0A2
:10044000FC01E253FF4F3491FC01EE5EFE4F24911C
:10045000FC01E250FF4FE491EE2309F43BC033234B
:1004600039F1333091F038F43130A9F0323001F500
:1004700084B58F7D12C0373091F03830A1F0343020
:10048000B9F4809180008F7D03C0809180008F77C8
:10049000809380000DC084B58F7784BD09C08091A2
:1004A000B0008F7703C08091B0008F7D8093B00043
:1004B000F0E0EE0FFF1FE651FF4FA591B4918FB70B
:1004C000F894EC91611103C020952E2301C02E2BCE
:1004D0002C938FBF0895CF93DF9390E0FC01EE5EE5
:1004E000FE4F2491FC01E250FF4F8491882361F17B
:1004F00090E0880F991FFC01EC53FF4FC591D491F8
:10050000FC01E651FF4FA591B491611109C09FB75D
:10051000F8948881209582238883EC912E230BC048
:10052000623061F49FB7F8943881822F80958323DD
:100530008883EC912E2B2C939FBF06C08FB7F89425
:10054000E8812E2B28838FBFDF91CF9108953FB78D
:10055000F89480913E0290913F02A0914002B091A8
:10056000410226B5A89B05C02F3F19F00196A11D99
:10057000B11D3FBFBA2FA92F982F8827820F911D39
:10058000A11DB11DBC01CD0142E0660F771F881F80
:10059000991F4A95D1F70895682F88E893E00C9445
:1005A0007C01FF920F931F93CF93DF93182FEB01E2
:1005B000282F30E084E0359527958A95E1F70FE004
:1005C000822F802794E0220F331F9A95E1F7F82EAF
:1005D000F22A8F2D0E94CC0288A58F5F88A7FE018A
:1005E000E80FF11DF0A61F7020E1129FC001112439
:1005F0001027182B812F0E94CC0288A58F5F88A717
:10060000C80FD11D18A7DF91CF911F910F91FF90B7
:100610000895CF92DF92EF92FF920F931F93CF93A3
:10062000DF936C017A018B01C0E0D0E0CE15DF05CD
:1006300089F0D8016D918D01D601ED91FC91019069
:10064000F081E02DC6010995892B11F47E0102C0CD
:100650002196ECCFC701DF91CF911F910F91FF90B1
:10066000EF90DF90CF900895FC01918D828D9817C7
:1006700061F0828DDF01A80FB11D5D968C91928D86
:100680009F5F9F73928F90E008958FEF9FEF089583
:10069000FC01918D828D981731F0828DE80FF11D4C
:1006A000858D90E008958FEF9FEF0895FC01918D67
:1006B000228D892F90E0805C9F4F821B91098F7360
:1006C0009927089582E992E00E94560321E0892B40
:1006D00009F420E0822F0895FC01848DDF01A80F2A
:1006E000B11DA35ABF4F2C91848D90E001968F735A
:1006F0009927848FA689B7892C93A089B1898C9179
:1007000080648C93938D848D981306C00288F3893E
:10071000E02D80818F7D80830895EF92FF920F936B
:100720001F93CF93DF93EC0181E0888F9B8D8C8D9D
:10073000981305C0E889F989808185FD24C0F62ECB
:100740000B8D10E00F5F1F4F0F731127E02E8C8D64
:10075000E8120CC00FB607FCFACFE889F98980814E
:1007600085FFF5CFCE010E946C03F1CF8B8DFE018A
:10077000E80FF11DE35AFF4FF0820B8FEA89FB89E6
:100780008081806207C0EE89FF896083E889F989EA
:1007900080818064808381E090E0DF91CF911F9120
:1007A0000F91FF90EF900895CF93DF93EC01888D28
:1007B0008823C9F0EA89FB89808185FD05C0A88965
:1007C000B9898C9186FD0FC00FB607FCF5CF8081EB
:1007D00085FFF2CFA889B9898C9185FFEDCFCE0135
:1007E0000E946C03E7CFDF91CF91089580E090E005
:1007F000892B29F00E94620381110C940000089556
:10080000009769F0FC0101900020E9F73197AF01F2
:10081000481B590BBC0182E992E00C94090380E06B
:1008200090E008950C940004CF93DF931F92CDB70E
:10083000DEB769830E9412046981862F90E00E94CE
:10084000BF0088E892E00E9412048EE491E00F90CD
:10085000DF91CF910C941204CF92DF92EF92FF922E
:100860001F93CF93DF931F92CDB7DEB77C016A0150
:10087000FA011081809186029091870269830E941B
:100880001204C7010E9412046981E62FF0E0EE0F06
:10089000FF1FE55FFE4F808191810E9412041123AA
:1008A00099F187EE90E00E94020140E263E0812F1F
:1008B00090E00E943D010E94120482EE90E00E94AE
:1008C0000201FFEFCF1ADF0A76018E2D8C198117F6
:1008D00078F4F70181917F0190E00E94BF0088E8E1
:1008E00092E00E94120482E691E00E941204EDCF91
:1008F0008EE491E00F90DF91CF911F91FF90EF90E8
:10090000DF90CF900C9412040F90DF91CF911F9144
:10091000FF90EF90DF90CF9008958F929F92AF92CB
:10092000BF920F931F93CF93DF93CDB7DEB7A197FD
:100930000FB6F894DEBF0FBECDBF19A2423008F447
:100940004AE08E010F5D1F4F842E912CA12CB12CFB
:10095000A50194010E94DA0AE62FB901CA010150EB
:100960001109EA3014F4E05D01C0E95CD801EC93B0
:10097000232B242B252B61F7C8010E940004A1968C
:100980000FB6F894DEBF0FBECDBFDF91CF911F91A0
:100990000F91BF90AF909F908F9008950E94020B8F
:1009A0001F920F920FB60F9211242F933F934F93E4
:1009B0005F936F937F938F939F93AF93BF93EF93C7
:1009C000FF93E0918402F0918502309709F451C0C1
:1009D000968DA685B785858591FF04C09C91892356
:1009E00029F447C09C91892309F043C0A389B489A5
:1009F0009C918589809589238C9386899789019715
:100A0000F1F7608D718DA685B785558538E020E0BA
:100A1000CB010197F1F7822F90E095958795282FCC
:100A20004C91452309F02068315091F7868D81FD66
:100A300020958091820290E001968F7399273091E2
:100A40008302381749F0A0918202B0E0AE5BBD4F3F
:100A50002C938093820203C0868D8160868F828D65
:100A6000938D0197F1F7A389B4899C918589892B8E
:100A70008C93FF91EF91BF91AF919F918F917F9157
:100A80006F915F914F913F912F910F900FBE0F90FB
:100A90001F9018951F920F920FB60F9211242F934B
:100AA0003F938F939F93AF93BF9380913A0290911E
:100AB0003B02A0913C02B0913D023091390223E00B
:100AC000230F2D3720F40196A11DB11D05C026E886
:100AD000230F0296A11DB11D2093390280933A0283
:100AE00090933B02A0933C02B0933D0280913E0262
:100AF00090913F02A0914002B09141020196A11D48
:100B0000B11D80933E0290933F02A0934002B093A8
:100B10004102BF91AF919F918F913F912F910F9083
:100B20000FBE0F901F9018951F920F920FB60F9245
:100B300011242F933F934F935F936F937F938F93E2
:100B40009F93AF93BF93EF93FF9382E992E00E944C
:100B50006C03FF91EF91BF91AF919F918F917F9126
:100B60006F915F914F913F912F910F900FBE0F901A
:100B70001F9018951F920F920FB60F9211242F936A
:100B80008F939F93EF93FF93E091A202F091A302C2
:100B90008081E091A802F091A90282FD12C09081AB
:100BA0008091AB028F5F8F732091AC02821751F05E
:100BB000E091AB02F0E0EE56FD4F958F8093AB02D3
:100BC00001C08081FF91EF919F918F912F910F90A4
:100BD0000FBE0F901F9018951092950210929402DC
:100BE00088EE93E0A0E0B0E08093960290939702A5
:100BF000A0939802B09399022DE131E030939302D3
:100C00002093920225EC30E030939F0220939E02C5
:100C100024EC30E03093A1022093A00220EC30E0DD
:100C20003093A3022093A20221EC30E03093A5027E
:100C30002093A40222EC30E03093A7022093A60276
:100C400026EC30E03093A9022093A8021092AB0268
:100C50001092AC021092AD021092AE0210928B0371
:100C600010928A0380938C0390938D03A0938E033C
:100C7000B0938F038DE291E0909389038093880372
:100C800010929F0310929E031092A1031092A00352
:100C90001092A3031092A2031092A5031092A40332
:100CA0006091A6036E7F6D7F6093A6036695617069
:100CB00081E0682782E00E941F0261E082E00E94DA
:100CC0006B02E4E1F1E0E491E0939803E0E0F1E00D
:100CD000E491F0E0EE0FFF1FE651FF4F85919491F4
:100CE00090939A038093990360E083E00E946B02E3
:100CF0008091A60381FD04C061E083E00E941F0291
:100D000083E080939403E5E1F1E0E491E0939503BF
:100D1000E1E0F1E0E491F0E0EE0FFF1FEC50FF4F57
:100D200085919491909397038093960380E197E245
:100D3000A0E0B0E08093810390938203A0938303AB
:100D4000B0938403109285030895CF93DF93CDB7BA
:100D5000DEB7A6970FB6F894DEBF0FBECDBF78946E
:100D600084B5826084BD84B5816084BD85B58260B0
:100D700085BD85B5816085BD80916E008160809361
:100D80006E001092810080918100826080938100CA
:100D900080918100816080938100809180008160DA
:100DA000809380008091B10084608093B100809135
:100DB000B00081608093B00080917A00846080935D
:100DC0007A0080917A00826080937A0080917A0024
:100DD000816080937A0080917A00806880937A00A5
:100DE0001092C1008FE293E0909338028093370213
:100DF00010928503E091A202F091A30282E0808329
:100E0000E0919E02F0919F021082E091A002F09189
:100E1000A1028FEC80831092AA02E091A602F091C9
:100E2000A70286E08083E091A402F091A502808170
:100E300080618083E091A402F091A50280818860A6
:100E40008083E091A402F091A50280818068808374
:100E5000E091A402F091A50280818F7D80831092A1
:100E6000A3031092A2031092A1031092A003109268
:100E70009F0310929E038DE991E09093A5038093C8
:100E8000A40390919403963108F057C02DEB30E005
:100E900030939F0320939E032BE931E03093A1030D
:100EA0002093A0032CE231E03093A3032093A2030C
:100EB00020916800983050F031E09E3008F430E026
:100EC00081E001C0880F3A95EAF701C084E0822BE7
:100ED00080936800983038F09E3040F0963148F0AA
:100EE00020E030E008C02DE630E005C02BE630E021
:100EF00002C02CE630E030939C0320939B03983093
:100F000030F481E001C0880F9A95EAF70EC0292FCE
:100F100030E09E3018F42850310902C02E503109BB
:100F200081E001C0880F2A95EAF780939D038091A4
:100F3000A4039091A5030197F1F78091A2039091EA
:100F4000A303892B21F1809184029091850223E0F3
:100F500088389207E1F0009711F00E940902809111
:100F6000A6038E7F8093A6031092820210928302C2
:100F700088E893E09093850280938402E0919B033C
:100F8000F0919C03908180919D03892B808361E087
:100F900084E00E946B0260E084E00E941F0261E036
:100FA0008DE00E946B0280E090E00E94070B80932E
:100FB000360240E363E090E00E943D01FC018DE0D9
:100FC000809300018AE08093010180818093030176
:100FD00081818093040182818093050180E091E00A
:100FE00090938703809386030E9400048CE491E031
:100FF0000E9400048091360290E00A9744EF51E08D
:10100000849F9001859F300D949F300D1124C9015C
:10101000330FAA0BBB0B8093320290933302A09341
:101020003402B09335029DE0F92ECE014B966C014F
:101030002BE0222E280EA0903702B09038024501F6
:1010400092E5890E911C80E197E2A0E0B0E0F40106
:1010500080839183A283B383E8E9F1E0DE011E96E9
:101060008F2D01900D928A95E1F7E5EAF1E0DE011E
:1010700011968F2D01900D928A95E1F7F501E95AAD
:10108000FF4F8081918190938702809386028FB772
:10109000F89440903A0250903B0260903C0270906D
:1010A0003D028FBFD50198961C92E12C312C2FB7B1
:1010B000F89480913A0290913B02A0913C02B09149
:1010C0003D022FBF84199509A609B709F401408193
:1010D00051816281738184179507A607B70708F0CD
:1010E000F4C088E893E00E94D00118161906FCF6B7
:1010F00088E893E00E94E8018C01F50180A58A321E
:1011000008F070C08F5F80A7E80FF11D00A7C8012D
:1011100099278936910509F4B2C09CF58E31910565
:1011200009F4ADC0E4F48330910509F455C08F3063
:10113000910509F4A4C0029709F0A8C021E0F501C7
:1011400020A78FB7F89440903A0250903B026090ED
:101150003C0270903D028FBF33243394A8CF8C3370
:10116000910509F48CC024F48D9709F08FC087C0D5
:101170008B34910509F483C08A35910509F086C046
:101180007EC0843B910509F47AC09CF487389105B0
:1011900009F475C02CF48837910509F077C06FC049
:1011A0008639910509F46BC0853A910509F06EC046
:1011B00066C0823D910509F462C02CF4833C910520
:1011C00009F064C05CC0813E910509F458C0803FBD
:1011D000910509F05BC053C0D50198963C9192E00F
:1011E00060E00AC0A501485D5F4F61E0CE010E9648
:1011F0000E942C0421E091C1931788F46F5FD50100
:10120000A60FB11DF501E90FF11D81A5282F22952B
:101210002F7080A5807F822B8C939E5FEDCFF50190
:10122000E60FF11D10816150D5016D93CD010E9433
:101230002301811751F0A501485D5F4F62E0CE01A7
:101240000E960E942C0422E068C1F501EA5AFF4F75
:101250002081222309F443C08AE491E00E94120411
:10126000A501485D5F4F60E0CE010E960E942C0400
:10127000A50160E0CE0101960E942C0430C031101F
:1012800016CFF50180A5815080A711CFD501989682
:101290008C919897815098968C93E1100FC08CE4B4
:1012A00091E00E94000480918602909187020E9442
:1012B0001204602F8FE491E00E941404602F82E6F4
:1012C00091E00E941404E394F2CEA501485D5F4FC3
:1012D00064E0CE010E960E942C0424E01EC1009111
:1012E000370210913802D8011196EC90119712969E
:1012F0009C9012971396AC901397B12CBA2CAA24F9
:1013000014968C91A80EB11C80E091E00E9412040A
:1013100085EB90E00E9402016E2D70E080E090E08D
:101320004AE00E948D048DEA90E00E940201692D3E
:1013300070E080E090E04AE00E948D048AEA90E04C
:101340000E94020140E365E0C5010E943D010E9448
:10135000120488EA90E00E940201809136029812FD
:10136000CDC083E890E00E940201E2EBF1E0D601FB
:101370008BE001900D928A95E1F780913602F80199
:10138000858BE68A8381878B8481808FD8015996EB
:10139000F60181918D932E12FCCF80E1D8015496F5
:1013A0008C938090320290903302A0903402B090DF
:1013B00035020E94A7022B013C0181149104A10473
:1013C000B104F1F00E94A702DC01CB018419950958
:1013D000A609B709883E9340A105B10570F3B1E0B5
:1013E0008B1A9108A108B108E8EE4E0EE3E05E1EEC
:1013F000611C711C81149104A104B10419F7DDCFA3
:1014000061E084E00E941F02EDEBF1E0DE011E9638
:101410008F2D01900D928A95E1F7EAECF1E0DE0163
:1014200011968F2D01900D928A95E1F7D80154966F
:101430006C91C80145960E942301B82EF80110A6B0
:10144000E95AFF4F808191819093870280938602B1
:1014500082E00E94CC02D80198969C9198979F5F59
:1014600098969C93F801E90FF11DB2E0B0A7EE2425
:10147000E394F80184898E1548F0F801EE0DF11D12
:10148000B80184890E94D102E394F3CFB8018B2D77
:101490000E94D10283E00E94CC02D80198968C91E0
:1014A00098978F5F98968C93F801E80FF11D83E071
:1014B00080A7F801EA5AFF4F8081BE975F010C5E5A
:1014C0001F4F882361F0AF0160E0CE0101960E94BA
:1014D0002C04A80160E0CE010E960E942C0460E06E
:1014E00084E00E941F02A80160E084E691E00E946F
:1014F0002C04A50160E081E791E021C088E690E03E
:101500000E940201A80160E08EE791E00E942C0495
:10151000A801485D5F4F60E010C000913702109154
:101520003802A801622F8EE791E02EA30E942C04BE
:10153000A801485D5F4F2EA1622F8BE891E00E94C9
:101540002C048CE491E00E9400040E94F60373CD09
:101550008DE291E0909389038093880388E893E07B
:101560000C940902AA1BBB1B51E107C0AA1FBB1F99
:10157000A617B70710F0A61BB70B881F991F5A951F
:10158000A9F780959095BC01CD01089597FB072E92
:1015900016F4009407D077FD09D00E94B20A07FC28
:1015A00005D03EF4909581959F4F08957095619573
:1015B0007F4F0895A1E21A2EAA1BBB1BFD010DC08F
:1015C000AA1FBB1FEE1FFF1FA217B307E407F507F3
:1015D00020F0A21BB30BE40BF50B661F771F881FCF
:1015E000991F1A9469F760957095809590959B0165
:1015F000AC01BD01CF010895EE0FFF1F0590F491DE
:10160000E02D099481E090E0F8940C940F0BF99987
:10161000FECF92BD81BDF89A992780B5089510E05C
:10162000C4E9D0E004C0FE010E94FC0A2196C5393D
:08163000D107C9F7F894FFCFC0
:10163800726E5B7878785D202D2000D701E401F187
:1016480001FE010B0218022502000000008D0309AB
:1016580003560334034803D403000000007C010947
:1016680003D001E80163017B013031323334353670
:10167800373839414243444546000D0A0D0A007582
:101688006E6578706578746564206279746528730E
:10169800293A2000696E6F53454E442D6461746188
:1016A80000696E6F53454E442D7261772000696E54
:1016B8006F524543562D6461746100696E6F5245DF
:1016C80043562D72617720006C6962524543562D4E
:1016D80072617720006C6962524543562D646174CB
:1016E80061004C6F7265746F2E2E2E2E006C69622D
:1016F80053454E442D64617461006C696253454ED4
:10170800442D7261772000202D204F4B2E2E2E2E37
:101718002E2E3A00202D204F564552464C4F573A10
:1017280000202D204241442D4352432E3A00202DC3
:10173800204241442D434841523A00202D2054492B
:101748004D454F55542E3A00202D205041594C4FAD
:1017580041442E3A00202D2044454255472E2E2E36
:021768003A0045
:00000001FF
