:100000000C9434010C945C010C945C010C94C406B7
:100010000C94C4060C94C4060C945C010C945C0112
:100020000C945C010C945C010C945C010C945C01DC
:100030000C945C010C945C010C945C010C945C01CC
:100040000C94C9030C945C010C9439040C941304B3
:100050000C945C010C945C010C945C010C945C01AC
:100060000C945C010C945C01707265706172696E35
:100070006720726573706F6E7365206D6573736151
:1000800067652E2E2E2000202D206572726F7265FE
:10009000206E6F6E206964656E7469666963617451
:1000A0006F3A20007263766452436F64653A2000B1
:1000B000202D204E657373756E61207269636869C7
:1000C0006573746120726963657675746120696E09
:1000D00020756E2074656D706F206469206D533AD1
:1000E00020007263766452436F64653A200000001A
:1000F0000000240027002A00000000080002010080
:10010000000304070000000000000000434D4420ED
:1001100020726177202D202020202020005D202DBE
:10012000200066756C6C20726177202D206C656EE6
:100130003A5B00434D442F737562434D4420203099
:1001400078203A2000434D445F52436F646520207D
:10015000203078203A20005345514E4F2020202057
:100160002020203078203A200043524320526563FB
:100170002F43616C203078203A20005D202D200034
:10018000636F6D6D616E644461746120617363209F
:100190002D206C656E3A5B005D202D2000636F6D35
:1001A0006D616E644461746120686578202D206CF7
:1001B000656E3A5B005D202D200066756C6C4461B5
:1001C000746120202020686578202D206C656E3AAF
:1001D0005B00202D205B72637664436F64653A2078
:1001E00000202D205B69742773204E4F5420666FCA
:1001F00072206D652E2E2E5D00202D205B574F57EF
:10020000206974277320666F72206D652E2E2E5D17
:1002100000202D205365714E4F3A20002D2D3E3089
:100220007800202D203078000000000025002800F4
:100230002B00000000002300260029000404040411
:100240000404040402020202020203030303030380
:10025000010204081020408001020408102001025D
:1002600004081020F30EE90E11241FBECFEFD8E0D2
:10027000DEBFCDBF12E0A0E0B1E0E8E3F0E202C0F3
:1002800005900D92A236B107D9F724E0A2E6B2E0BC
:1002900001C01D92A238B207E1F711E0C3E3D1E03B
:1002A00004C02197FE010E94FC0FC233D107C9F799
:1002B0000E94750B0C940F100C940000833081F099
:1002C00028F4813099F08230A1F008958730A9F0A8
:1002D0008830B9F08430D1F4809180008F7D03C0E4
:1002E000809180008F7780938000089584B58F7708
:1002F00002C084B58F7D84BD08958091B0008F7752
:1003000003C08091B0008F7D8093B0000895CF939B
:10031000DF93282F30E0F901E850FF4F8491F90175
:10032000E05BFD4FD491F901E45CFD4FC491CC2317
:1003300091F081110E945E01EC2FF0E0EE0FFF1FA3
:10034000EE5CFD4FA591B491EC91ED2381E090E03E
:1003500021F480E002C080E090E0DF91CF91089529
:100360003FB7F8948091650290916602A091670270
:10037000B091680226B5A89B05C02F3F19F00196E1
:10038000A11DB11D3FBFBA2FA92F982F8827820F1B
:10039000911DA11DB11DBC01CD0142E0660F771F6B
:1003A000881F991F4A95D1F708958F929F92AF9217
:1003B000BF92CF92DF92EF92FF926B017C010E947D
:1003C000B0014B015C01C114D104E104F104F1F06E
:1003D0000E94B001DC01CB0188199909AA09BB0967
:1003E000883E9340A105B10570F321E0C21AD108FF
:1003F000E108F10888EE880E83E0981EA11CB11C6C
:10040000C114D104E104F10419F7DDCFFF90EF909E
:10041000DF90CF90BF90AF909F908F900895CF9234
:10042000DF92EF92FF920F931F93CF93DF936C01B4
:100430007A018B01C0E0D0E0CE15DF0589F0D8014C
:100440006D918D01D601ED91FC910190F081E02D2F
:10045000C6010995892B11F47E0102C02196ECCFCB
:10046000C701DF91CF911F910F91FF90EF90DF9027
:10047000CF900895FC01918D828D981761F0828D47
:10048000DF01A80FB11D5D968C91928D9F5F9F73C8
:10049000928F90E008958FEF9FEF089582E792E0AA
:1004A0000C943A02FC01918D828D981731F0828D67
:1004B000E80FF11D858D90E008958FEF9FEF08956F
:1004C000FC01918D228D892F90E0805C9F4F821BD3
:1004D00091098F739927089582E792E00C94600246
:1004E00082E792E00E94600221E0892B09F420E07B
:1004F000822F0895FC01848DDF01A80FB11DA35A3E
:10050000BF4F2C91848D90E001968F739927848F33
:10051000A689B7892C93A089B1898C9180648C932A
:10052000938D848D981306C00288F389E02D808115
:100530008F7D80830895EF92FF920F931F93CF9347
:10054000DF93EC0181E0888F9B8D8C8D981305C023
:10055000E889F989808185FD24C0F62E0B8D10E095
:100560000F5F1F4F0F731127E02E8C8DE8120CC008
:100570000FB607FCFACFE889F989808185FFF5CFAE
:10058000CE010E947A02F1CF8B8DFE01E80FF11DA2
:10059000E35AFF4FF0820B8FEA89FB8980818062EA
:1005A00007C0EE89FF896083E889F98980818064CA
:1005B000808381E090E0DF91CF911F910F91FF90B8
:1005C000EF900895682F82E792E00C949B02CF93FE
:1005D000DF93EC01888D8823C9F0EA89FB8980814B
:1005E00085FD05C0A889B9898C9186FD0FC00FB61D
:1005F00007FCF5CF808185FFF2CFA889B9898C915E
:1006000085FFEDCFCE010E947A02E7CFDF91CF9137
:10061000089580E090E0892B29F00E9470028111FA
:100620000C9400000895EF92FF920F931F93CF93C5
:1006300092EF980F8E3008F0892F8770C82FC06412
:100640008AE0E82EF12C00E010E0C0937C0080915D
:100650007A00806480937A0080917A0086FDFCCFD6
:10066000209178008091790030E0382B020F131F21
:1006700064E670E080E090E00E94D50181E0E81A35
:10068000F10819F7C8016AE070E00E94C60FCB01BB
:10069000CF911F910F91FF90EF900895682F8FE0F9
:1006A00093E00C94FA048FE093E00C944E058FE0F5
:1006B00093E00C9466050E9402101F93CF93DF9382
:1006C000282F30E0F901E850FF4F8491F901E05BF9
:1006D000FD4FD491F901E45CFD4FC491CC23C9F0E6
:1006E000162F81110E945E01EC2FF0E0EE0FFF1F2C
:1006F000E85DFD4FA591B4918FB7F894111105C035
:100700009C91ED2FE095E92302C0EC91ED2BEC9349
:100710008FBFDF91CF911F910895CF93DF9390E02A
:10072000FC01E05BFD4F2491FC01E45CFD4F8491F2
:10073000882361F190E0880F991FFC01E251FF4F7F
:10074000C591D491FC01E85DFD4FA591B491611173
:1007500009C09FB7F8948881209582238883EC9103
:100760002E230BC0623061F49FB7F8943881822F3A
:10077000809583238883EC912E2B2C939FBF06C0FA
:100780008FB7F894E8812E2B28838FBFDF91CF910C
:1007900008951F920F920FB60F9211242F933F933B
:1007A0008F939F93AF93BF938091690290916A0258
:1007B000A0916B02B0916C023091640223E0230F90
:1007C0002D3720F40196A11DB11D05C026E8230F89
:1007D0000296A11DB11D209364028093690290933B
:1007E0006A02A0936B02B0936C02809165029091B3
:1007F0006602A0916702B09168020196A11DB11D29
:100800008093650290936602A0936702B09368029A
:10081000BF91AF919F918F913F912F910F900FBEFC
:100820000F901F9018951F920F920FB60F921124E0
:100830002F933F934F935F936F937F938F939F93E8
:10084000AF93BF93EF93FF9382E792E00E947A0207
:10085000FF91EF91BF91AF919F918F917F916F9198
:100860005F914F913F912F910F900FBE0F901F906E
:1008700018951F920F920FB60F9211242F938F93FA
:100880009F93EF93FF93E0918202F0918302808126
:10089000E0918802F091890282FD12C090818091DE
:1008A0008B028F5F8F7320918C02821751F0E09141
:1008B0008B02F0E0EE58FD4F958F80938B0201C0C4
:1008C0008081FF91EF919F918F912F910F900FBE9B
:1008D0000F901F901895CF93DF93CDB7DEB7619738
:1008E0000FB6F894DEBF0FBECDBF21E1E9EDF1E018
:1008F000DE01119601900D922A95E1F7A8E7B4E088
:1009000012961C921297BC0124E0769567952A9561
:10091000E1F79C012F70332741E050E04C0F5D1F41
:10092000240F351FF901208111962C931197892FDF
:100930009927E4E0880F991FEA95E1F7FB01E81B8E
:10094000F90BE40FF51F80818C93CD0161960FB6F2
:10095000F894DEBF0FBECDBFDF91CF910895CF9346
:10096000DF9310927704E6E7F4E0262F2E1BCAE00F
:10097000D0E0322F3E0F009741F0BE010E94B20F2F
:10098000805D8083CB013197F4CF832FDF011196F7
:1009900090E3815010F09E93FCCF81E090E0831BA8
:1009A00091098E0F9F1FDF91CF910895E091720200
:1009B000F09173020190F081E02D682F82E792E0C0
:1009C000099420917002309171022817390771F44F
:1009D00090916F0280916E02981741F0E0916F0242
:1009E000F0E0E25DFB4F808190E008958FEF9FEF94
:1009F000089508951F93CF93DF93DC015C962D91AA
:100A00003C915D972115310539F481E090E0139612
:100A10009C938E9312973DC05196ED91FC91529705
:100A200050969C915097892F80951FB75E964C9158
:100A30005E9741FB772770F941FD6095F8944081FE
:100A4000772311F0492B01C048234083E901219706
:100A5000F1F748E0508160FF02C0592B01C05823D4
:100A60005083E9012197F1F76695415099F7772373
:100A700021F090818923808303C08081982B90830B
:100A80001FBF5C968D919C915D970197F1F721E0D6
:100A900030E0C901DF91CF911F910895209170023C
:100AA000309171022817390771F480916E022091FC
:100AB0006F0290E0805C9F4F821B910960E470E0C0
:100AC0000E94C60F089580E090E008952091700282
:100AD0003091710228173907B9F490916F02809113
:100AE0006E02981789F0E0916F02F0E0E25DFB4F33
:100AF000808120916F0230E02F5F3F4F2F733327AB
:100B000020936F0290E008958FEF9FEF0895BF92BA
:100B1000CF92DF92EF92FF920F931F93CF93DF93C9
:100B20007C01162FEA01262F30E084E035952795C9
:100B30008A95E1F70FE0822F802794E0220F331F80
:100B40009A95E1F7B82EB22A8B2DF70109956E011F
:100B5000F8E7CF0ED11CF60180818F5F8083FE0104
:100B6000E80FF11DE858FF4FB0821F70F0E11F9FA2
:100B7000C00111241027182B812FF7010995F601C8
:100B800080818F5F8083C80FD11DC858DF4F1883C5
:100B9000DF91CF911F910F91FF90EF90DF90CF9059
:100BA000BF900895582FFC0180E07CE89E2F951B94
:100BB000961788F4419198E0A42FA827282F30E0B9
:100BC00035952795822FA0FF02C0872F8227469553
:100BD000915091F7EBCF0895009769F0FC010190D7
:100BE0000020E9F73197AF01481B590BBC0182E7A0
:100BF00092E00C940F0280E090E008950F931F9311
:100C0000CF93DF938C01C0E0D0E0F801EC0FFD1F23
:100C10006491662371F0E0917202F0917302019089
:100C2000F081E02D82E792E00995892B11F0219661
:100C3000ECCFCE01DF91CF911F910F9108950C94CD
:100C4000EC05EF92FF921F93CF93DF931F92CDB7E6
:100C5000DEB7611107C0382FFC016E2F631B219195
:100C60002111FBCF182F7C018E2D811B861788F454
:100C7000F70181917F01082E000C990B69830E9476
:100C80006B040E941F068AEF91E00E941F06698193
:100C9000EBCF8AE591E00F90DF91CF911F91FF900C
:100CA000EF900C941F06CF93DF931F92CDB7DEB762
:100CB00069830E941F066981862F90E00E946B0461
:100CC0000E941F068AE591E00F90DF91CF910C946E
:100CD0001F0690E00E946B040C941F068EEF91E0BB
:100CE0000C94EC058F929F92AF92BF920F931F933B
:100CF000CF93DF93CDB7DEB7A1970FB6F894DEBFE1
:100D00000FBECDBF19A2423008F44AE08E010F5D3C
:100D10001F4F842E912CA12CB12CA50194010E946F
:100D2000DA0FE62FB901CA0101501109EA3014F4B3
:100D3000E05D01C0E95CD801EC93232B242B252B2B
:100D400061F7C8010E94EC05A1960FB6F894DEBFCA
:100D50000FBECDBFDF91CF911F910F91BF90AF908C
:100D60009F908F900895CF93DF93682F70E080E07D
:100D700090E04AE00E947206EC010E946E068C0F21
:100D80009D1FDF91CF9108951F920F920FB60F9282
:100D900011242F933F934F935F936F937F938F9380
:100DA0009F93AF93BF93EF93FF93E0917002F09105
:100DB0007102309709F451C0968DA685B785858557
:100DC00091FF04C09C91892329F447C09C918923F9
:100DD00009F043C0A389B4899C91858980958923B2
:100DE0008C93868997890197F1F7608D718DA6851F
:100DF000B785558538E020E0CB010197F1F7822FC8
:100E000090E095958795282F4C91452309F020680F
:100E1000315091F7868D81FD209580916E0290E092
:100E200001968F73992730916F02381749F0A0917E
:100E30006E02B0E0A25DBB4F2C9380936E0203C0A4
:100E4000868D8160868F828D938D0197F1F7A389BE
:100E5000B4899C918589892B8C93FF91EF91BF91E7
:100E6000AF919F918F917F916F915F914F913F9142
:100E70002F910F900FBE0F901F901895E091700268
:100E8000F0917102E817F90769F4A389B4899C917C
:100E90008589809589238C9310927102109270023B
:100EA00081E0089580E00895CF93DF93DC01411144
:100EB00007C0962FFB014E2F491B81918111FBCF5B
:100EC000FB01ED012896495F97E0941305C091500E
:100ED0009C93DF91CF9108959334C9F39F5F8191E3
:100EE0008993F3CF4F925F926F927F928F929F92EE
:100EF000AF92BF92CF92DF92EF92FF920F931F9328
:100F0000CF93DF93DC01EA01FA01E850FF4F7080D4
:100F1000CA018A509F4F9A012B503F4FFC0190818C
:100F2000F9018081980F7A01F7EFEF0EF11CF701BC
:100F30002081920F970D09F4A1C18C91843529F479
:100F40008A01045C1F4F5CAC05C0823509F096C174
:100F50008A015880462E6D014E01F8E78F0E911CD4
:100F6000F4016080552009F435C1F8018481A38023
:100F7000B12CBA2CAA24A80EB11C0E946E06FE0148
:100F8000E650FF4F808191810E941F06C6010E949A
:100F90001F0682E292E00E94FE05F80181810E9414
:100FA00069068CE192E00E94FE05F80182810E94B0
:100FB000690681E192E00E94FE0565E0C5010E949C
:100FC000AF040E941F0620916D0291E0F80181811B
:100FD000281390E081E0F8013281231380E0890F2B
:100FE00039F089EF91E00E94FE05FF24F39406C0DA
:100FF00081EE91E00E94FE05F701F080F60180810C
:10100000823589F482ED91E00E94FE05E42DF0E046
:10101000EE0FFF1FE25EFE4F808191810E941F064E
:101020008DE50E94D604FF2009F4D4C00E946E060C
:1010300088E191E00E941F068AEB91E00E94FE0584
:10104000F80181917F0163E090E00E94AF040E946B
:101050001F0685EB91E00E94FE05F8016081C70143
:101060000E942106F9EF5F0E88E191E00E941F06C1
:101070008DE991E00E94FE05A52CB12C63E0C5012D
:101080000E94AF040E941F0688E991E00E94FE05BD
:1010900095E1F92E80E20E94D604FA94F110FACF7D
:1010A000780188E0E80EF11C652DC7010E94210639
:1010B00088E191E00E941F0680E891E00E94FE0511
:1010C00063E0C5010E94AF040E941F068BE791E018
:1010D0000E94FE0585E1B82E80E20E94D604BA94F3
:1010E000B110FACF8BE50E94D604511007C09E2D97
:1010F000F7015E2E591A81918111FBCF4E2C5701B9
:101100008A2D8419851558F4F50181915F0190EEBF
:10111000980F9F3508F080E20E94D604F1CF8DE54C
:101120000E94D6040E946E06F60180818235C9F4C1
:1011300088E191E00E941F0689E691E00E94FE0589
:10114000FE01EC50FF4F80810E9469068AEF91E01A
:101150000E941F06FE01ED50FF4F80810E9469062C
:101160000CC088E191E00E941F06FE01EE50FF4F87
:1011700060818AEE91E00E94530688E191E00E942E
:101180001F0687E591E00E94FE0562E0C801039614
:101190000E94210688E191E00E941F0685E491E00B
:1011A0000E94FE05F80185810E94690688E191E0B0
:1011B0000E941F0683E391E00E94FE05F8018681EC
:1011C0000E9469068AEF91E00E941F06F80187815C
:1011D0000E946906772009F451C0662009F44EC0C8
:1011E0000E946E0688E191E00E941F0682E291E073
:1011F0000E94FE05F401808163E090E00E94AF044C
:101200000E941F068DE191E00E94FE0588E191E0B9
:101210000E941F06F4016081CE0187589F4F0E94F3
:1012200021060E946E0688E191E00E941F068CE074
:1012300091E00E94FE05F401808163E090E00E944D
:10124000AF040E941F0688E191E00E941F066EEE27
:10125000660DCE0188579F4FDF91CF911F910F915F
:10126000FF90EF90DF90CF90BF90AF909F908F90C6
:101270007F906F905F904F900C942106DF91CF91FB
:101280001F910F91FF90EF90DF90CF90BF90AF90A4
:101290009F908F907F906F905F904F9008952F92C6
:1012A0003F924F925F926F927F928F929F92AF92F6
:1012B000BF92CF92DF92EF92FF920F931F93CF9343
:1012C000DF93CDB7DEB72E970FB6F894DEBF0FBE13
:1012D000CDBF8C017C876B871A0188E0E0E2F2E0E9
:1012E000DE01119601900D928A95E1F78FB7F8947F
:1012F0008090690290906A02A0906B02B0906C029C
:101300008FBF780188E7E80EF11CF7011082F80121
:101310001082512C412CC80184509F4F9E878D878D
:10132000EB50FF4FFA87E9873801FAEF6F0E711C17
:101330002FB7F8948091690290916A02A0916B0294
:10134000B0916C022FBF88199909AA09BB09ED85D4
:10135000FE85408151816281738184179507A607BC
:10136000B70708F0FEC0F10109951816190604F731
:10137000EB85FC8509956C01F70180818A3708F0BF
:1013800072C08F5F8083F801E80FF11DE858FF4FAE
:10139000C082C60199278936910509F4B8C09CF529
:1013A0008E31910509F4B3C0E4F48330910509F45A
:1013B00055C08F30910509F4AAC0029709F0AEC05C
:1013C00081E0F70180838FB7F89480906902909054
:1013D0006A02A0906B02B0906C028FBF44244394C9
:1013E000A7CF8C33910509F492C024F48D9709F0AE
:1013F00095C08DC08B34910509F489C08A3591055B
:1014000009F08CC084C0843B910509F480C09CF431
:101410008738910509F47BC02CF48837910509F0D1
:101420007DC075C08639910509F471C0853A910572
:1014300009F074C06CC0823D910509F468C02CF4B9
:10144000833C910509F06AC062C0813E910509F4B0
:101450005EC0803F910509F061C059C0F70150811D
:1014600092E060E00EC0F801EB50FF4F80818823CE
:1014700009F484C0A80161E0CE0101960E947207C0
:101480007DC09517A8F46F5FD801A60FB11D980114
:10149000290F311DF901E758FF4F8081482F4295F0
:1014A0004F7031978081807F842B8C939E5FE9CF32
:1014B000F801E60FF11DF080F801EC50FF4FF082CB
:1014C0006150F8016193CF010E94D205F801ED50FF
:1014D000FF4F808332968F1559F08081882309F45D
:1014E0004FC0A80162E0CE0101960E94720748C079
:1014F0008081882309F446C08CEF91E00E941F068A
:10150000A80160E0CE0101960E9472073BC0411025
:101510000FCFF7018081815080830ACFF70180814E
:1015200081508083511011C0E985FA85808188231C
:1015300061F00E946E06F301808191810E941F0676
:101540006C2D81E092E00E945306E985FA85808146
:10155000882329F06C2D8AEF91E00E945306539462
:10156000E7CEF801EB50FF4F8081882369F0A80196
:1015700064E0CE0101960E94720706C081E005C0BA
:1015800082E003C080E001C084E02E960FB6F8949C
:10159000DEBF0FBECDBFDF91CF911F910F91FF90A6
:1015A000EF90DF90CF90BF90AF909F908F907F9003
:1015B0006F905F904F903F902F9008959F92AF92C1
:1015C000BF92CF92DF92EF92FF920F931F93CF9330
:1015D000DF93CDB7DEB727970FB6F894DEBF0FBE07
:1015E000CDBF8C016B0187E0E8E2F2E0DE011196ED
:1015F00001900D928A95E1F7F80194AC692DC8012C
:10160000CD960E94D205A82EF801EE50FF4F8083A0
:101610007801F8E7EF0EF11CF701108282E0F60185
:101620000995F70190819F5F9083F801E90FF11D03
:10163000E858FF4F82E08083BB24B3949B1450F0A2
:10164000F801EB0DF11DA80164ADC6010E948705EC
:10165000B394F4CFA8016A2DC6010E94870583E0E8
:10166000F6010995F70180818F5F8083F801E80F0B
:10167000F11DE858FF4F83E08083F801EB50FF4FE6
:101680008081882331F0A80160E0CE0101960E949C
:10169000720727960FB6F894DEBF0FBECDBFDF915D
:1016A000CF911F910F91FF90EF90DF90CF90BF905F
:1016B000AF909F900895262FFC01A4E0B1E005961D
:1016C00031913D93E817F907D9F763E0822F90E055
:1016D0000E94AF04FC01808180930A018181809384
:1016E0000B01828180930C010895CF93DF93CDB7D6
:1016F000DEB7C259D1090FB6F894DEBF0FBECDBF19
:10170000789484B5826084BD84B5816084BD85B5DC
:10171000826085BD85B5816085BD80916E008160E8
:1017200080936E001092810080918100826080938E
:101730008100809181008160809381008091800090
:101740008160809380008091B10084608093B100BB
:101750008091B00081608093B00080917A008460B5
:1017600080937A0080917A00826080937A008091E1
:101770007A00816080937A0080917A0080688093FB
:101780007A001092C10010922A031092290310923D
:1017900028031092270310922603109225038DE947
:1017A00091E090932C0380932B0390911B0396312F
:1017B00008F057C02DEB30E030932603209325032B
:1017C0002BE931E030932803209327032CE231E00A
:1017D00030932A032093290320916800983050F019
:1017E00031E09E3008F430E081E001C0880F3A9586
:1017F000EAF701C084E0822B80936800983038F0CB
:101800009E3040F0963148F020E030E008C02DE6F0
:1018100030E005C02BE630E002C02CE630E030932B
:10182000230320932203983030F481E001C0880F15
:101830009A95EAF70EC0292F30E09E3018F4285010
:10184000310902C02E50310981E001C0880F2A956C
:10185000EAF78093240380912B0390912C03019746
:10186000F1F78091290390912A03892B21F180912E
:1018700070029091710223E08F309207E1F000979F
:1018800011F00E943E0780912D038E7F80932D03DF
:1018900010926E0210926F028FE093E090937102AB
:1018A00080937002E0912203F09123039081809154
:1018B0002403892B80838EE293E0909363028093CC
:1018C000620261E084E00E948D0360E084E00E9497
:1018D0005D03E0918202F091830282E08083E091D7
:1018E0007E02F0917F021082E0918002F0918102ED
:1018F0008FEC808310928A02E0918602F091870239
:1019000086E08083E0918402F0918502808180618D
:101910008083E0918402F0918502808188608083D9
:10192000E0918402F0918502808180688083E0915B
:101930008402F091850280818F7D808380E090E039
:101940000E94071080936D0261E08DE00E948D037C
:101950008CE1282E9DE1392E2EE0B22E38E8432E60
:1019600033E1532E612C712C60916D028091000146
:101970006B3088F58823D9F08CE491E00E945B0BF2
:101980008091620290916302FC01E750FF4F209129
:101990006D022083319621E031E031832083359739
:1019A0001082319610823196108231961082809189
:1019B000620290916302FC01E450FF4F4082518229
:1019C00062827382FC0110824CE652E06EE472E0A7
:1019D0000E944F09F9C1882309F182E591E00E9434
:1019E0005B0B8091620290916302FC01E750FF4F14
:1019F00020916D022083319621E031E031832083F4
:101A0000359721E0208331962083319610823196DC
:101A100010823496408251826282738243E553E0A1
:101A200067E573E080916202909163020E944F0922
:101A30000091620210916302F80181118CC1A180B2
:101A4000EB5BFF4FF0803196E080F801928180914E
:101A50006D029813B9C1EBE5F1E0DE01A959BF4F62
:101A600080E101900D928A95E1F7EBE6F1E0DE016D
:101A7000DA9689E101900D928A95E1F7E4E8F1E0C8
:101A8000DE015E96822D01900D928A95E1F7E0EAE3
:101A9000F1E0DE011196832D01900D928A95E1F718
:101AA000EDEBF1E0DE01AB57BF4F8B2D01900D92B6
:101AB0008A95E1F7EBECF1E0DE01A958BF4F8B2DE1
:101AC00001900D928A95E1F7F801908180E0F8018C
:101AD000E80FF11D208124AF8F5F9817C0F7F80140
:101AE0008681853009F4A8C038F4833009F4F4C045
:101AF000843009F41DC10FC1863021F0873009F40C
:101B0000EBC009C188E591E00E941F0682E191E0E7
:101B10000E941F06CE014E960E941F06F801878183
:101B2000843019F0853061F077C0CE018B579F4F1C
:101B30000E941F068F2D0E94B3068F2D90E069C072
:101B4000CE0189589F4F0E941F068F2D0E94B30619
:101B5000CE2CD12C61E08F2D0E948D038F2C912CE7
:101B6000C114D10409F448C0FFEFCF16D10409F421
:101B700045C0F401E850FF4FE491E330F9F048F438
:101B8000E130B9F0E230A1F584B5806284BDE8BCF3
:101B900039C0E730E9F0E83019F1E43049F58091D7
:101BA0008000806280938000D0928B00C0928A0077
:101BB00029C084B5806884BDE7BC24C080918000C2
:101BC000806880938000D0928900C09288001AC0FB
:101BD0008091B00080688093B000E092B30012C0A2
:101BE0008091B00080628093B000E092B4000AC09F
:101BF00020E8C216D10414F460E001C061E08F2D2A
:101C00000E945D0364EF71E080E090E00E94D501E6
:101C1000C4010E94130301C080E064968FAF6497F3
:101C200041E0BE016D5A7F4FC801CC960E94540717
:101C3000F801EF5BFF4F108288E591E00E941F06DC
:101C400082E191E00E941F06CE0101960E941F06CC
:101C5000F80187819801245C3F4F69018430C9F005
:101C6000853059F5CE0189589F4F0E941F068F2D50
:101C70000E94B3066E2D8F2D0E945D0364EF71E00C
:101C800080E090E00E94D5018F2D0E948701F82E00
:101C900015C0CE018B579F4F0E941F068F2D0E94AB
:101CA000B3068F2D0E948701F82E40E1BE016959CD
:101CB0007F4FC6010E94540701C0F12C6496FFAE0D
:101CC000649741E0BE016D5A7F4FC6010E945407E0
:101CD000F801EF5BFF4F1082F8018781823041F5F8
:101CE00088E591E00E941F0682E191E00E941F06B4
:101CF00088E690E00E94FE050E946E0640E1BE016B
:101D000069597F4FC801CC960E945407F801EF5BD8
:101D1000FF4F10820DC049E1BE01665C7F4FC801D4
:101D2000CC960E94540783E0F801EF5BFF4F80835D
:101D3000F801A6AE80916D0285AF61E084E00E945B
:101D40005D036EE473E0C8010E94DE0A60E084E097
:101D50000E945D0339C09081C82ED12CE12CF12C5A
:101D600091111FC081E091E00E941F0682EE90E079
:101D70000E94FE054AE0C701B6010E94720680EB90
:101D800090E00E94FE05E0916202F0916302E4504F
:101D9000FF4F60817181828193814AE00E947206C7
:101DA00011C081E091E00E941F0684EA90E00E9449
:101DB000FE054AE0C701B6010E94720687E890E07E
:101DC0000E94FE050E946E06109200010E94090307
:101DD000CBCD80E491E09093100380930F038FE0CC
:101DE00093E00C943E07109275021092740288EEF4
:101DF00093E0A0E0B0E08093760290937702A09306
:101E00007802B093790220E331E03093730220939B
:101E1000720225EC30E030937F0220937E0224ECA6
:101E200030E0309381022093800220EC30E0309348
:101E300083022093820221EC30E0309385022093CC
:101E4000840222EC30E0309387022093860226EC55
:101E500030E0309389022093880210928B02109216
:101E60008C0210928D0210928E0210922304109216
:101E70002404109225041092260440E157E260E009
:101E800070E040932A0450932B0460932C047093C9
:101E90002D04109212031092110380931303909358
:101EA0001403A0931503B093160380E491E090937C
:101EB000100380930F0310922603109225031092B3
:101EC00028031092270310922A03109229031092DC
:101ED0002C0310922B0360912D036E7F6D7F609316
:101EE0002D036695617081E0682782E00E945D03A2
:101EF00061E082E00E948D03E2E5F2E0E491E0938C
:101F00001F03EEE3F2E0E491F0E0EE0FFF1FE85D67
:101F1000FD4F85919491909321038093200360E07D
:101F200083E00E948D0380912D0381FD04C061E058
:101F300083E00E945D0383E080931B03E3E5F2E00E
:101F4000E491E0931C03EFE3F2E0E491F0E0EE0FA4
:101F5000FF1FEE5CFD4F8591949190931E0380933B
:101F60001D030895AA1BBB1B51E107C0AA1FBB1F7D
:101F7000A617B70710F0A61BB70B881F991F5A9515
:101F8000A9F780959095BC01CD01089597FB072E88
:101F900016F4009407D077FD09D00E94B20F07FC19
:101FA00005D03EF4909581959F4F08957095619569
:101FB0007F4F0895A1E21A2EAA1BBB1BFD010DC085
:101FC000AA1FBB1FEE1FFF1FA217B307E407F507E9
:101FD00020F0A21BB30BE40BF50B661F771F881FC5
:101FE000991F1A9469F760957095809590959B015B
:101FF000AC01BD01CF010895EE0FFF1F0590F491D4
:10200000E02D099481E090E0F8940C940F10F99978
:10201000FECF92BD81BDF89A992780B5089511E051
:10202000C3E3D1E004C0FE010E94FC0F2196C4333B
:08203000D107C9F7F894FFCFB6
:10203800010D0A5B59595959592D7878785D202D29
:1020480020000A20202020000A20202020002F0223
:1020580032023B0243024C0254025C0200000000C0
:102068009B020F0260023A025202E70200000000DF
:10207800FA040F024E056605E104F90452656C6125
:102088007900536C617665000A0A00506F6C6C69C0
:102098006E6720616E737765722100436F6D616EA4
:1020A800646F206E6F6E207269636F6E6F73636901
:1020B80075746F00576F726B696E67206F6E204181
:1020C8004E414C4F4720636F6D6D616E643A20003E
:1020D800576F726B696E67206F6E20444947495489
:1020E800414C20636F6D6D616E643A2000726561CA
:1020F80064696E672070696E3A2000777269746946
:102108006E672070696E3A200030313233343536CC
:1021180037383941424344454600784D69747465FF
:102128006420435243203078203A20000D0A0D0ADB
:10213800006C696252454356202D20756E65787093
:10214800657874656420627974652873293A20007B
:1021580052582D646174610054582D6C6962004FA7
:102168004B004F564552464C4F57004241442D4371
:102178005243004241442D434841520054494D4581
:102188004F5554005041594C4F4144004445425525
:022198004700FE
:00000001FF
