:100000000C9434010C945C010C945C010C94C707B3
:100010000C94C7070C94C7070C945C010C945C010A
:100020000C945C010C945C010C945C010C945C01DC
:100030000C945C010C945C010C945C010C945C01CC
:100040000C94F2090C945C010C94620A0C943C0A26
:100050000C945C010C945C010C945C010C945C01AC
:100060000C945C010C945C01434D44202072617738
:10007000202D202020202020005D202D20006675CE
:100080006C6C20726177202D206C656E3A5B0043AA
:100090004D442F737562434D4420203078203A2020
:1000A00000434D445F52436F646520202030782028
:1000B0003A20005345514E4F202020202020203050
:1000C00078203A2000435243205265632F43616CED
:1000D000203078203A20005D202D2000636F6D6D68
:1000E000616E644461746120617363202D206C65CE
:1000F0006E3A5B005D202D2000636F6D6D616E6454
:100100004461746120686578202D206C656E3A5BCF
:10011000005D202D200066756C6C446174612020A8
:100120002020686578202D206C656E3A5B00202DBC
:10013000205B72637664436F64653A2000202D2053
:100140005B69742773204E4F5420666F72206D6573
:100150002E2E2E5D00202D205B574F5720697427CF
:100160007320666F72206D652E2E2E5D00202D206F
:100170005365714E4F3A20002D2D3E307800202DD2
:100180002030780000000000250028002B0000002F
:1001900000002300260029000404040404040404CD
:1001A0000202020202020303030303030102040822
:1001B00010204080010204081020010204081020D1
:1001C000707265706172696E6720726573706F6EB0
:1001D0007365206D6573736167652E2E2E20002078
:1001E0002D206572726F7265206E6F6E2069646576
:1001F0006E746966696361746F3A20007263766435
:1002000052436F64653A2000202D204E657373754C
:100210006E612072696368696573746120726963D5
:10022000657675746120696E20756E2074656D70D9
:100230006F206469206D533A2000726376645243E4
:100240006F64653A200000000000240027002A00A7
:100250000000000800020100000304070000000085
:1002600000000000940A240E11241FBECFEFD8E036
:10027000DEBFCDBF12E0A0E0B1E0E0E3FDE102C0EF
:1002800005900D92AC33B107D9F724E0ACE3B2E0AE
:1002900001C01D92AC35B207E1F711E0C3E3D1E034
:1002A00004C02197FE010E94780EC233D107C9F71E
:1002B0000E94530B0C948B0E0C940000CF93DF9391
:1002C000CDB7DEB761970FB6F894DEBF0FBECDBFD6
:1002D00021E1ECE4F1E0DE01119601900D922A9506
:1002E000E1F7ABE4B4E012961C921297BC0124E053
:1002F000769567952A95E1F79C012F70332741E0A9
:1003000050E04C0F5D1F240F351FF901208111961D
:100310002C931197892F9927E4E0880F991FEA956C
:10032000E1F7FB01E81BF90BE40FF51F80818C93CB
:10033000CD0161960FB6F894DEBF0FBECDBFDF9141
:10034000CF910895CF93DF9310924A04E9E4F4E04B
:10035000262F2E1BCAE0D0E0322F3E0F009741F02F
:10036000BE010E942E0E805D8083CB013197F4CFB9
:10037000832FDF01119690E3815010F09E93FCCF04
:1003800081E090E0831B91098E0F9F1FDF91CF9139
:100390000895E0914502F09146020190F081E02D30
:1003A000682F85E492E00994BF92CF92DF92EF929A
:1003B000FF920F931F93CF93DF937C01162FEA01D7
:1003C000262F30E084E0359527958A95E1F70FE0F8
:1003D000822F802794E0220F331F9A95E1F7B82EE1
:1003E000B22A8B2DF70109956E01F8E7CF0ED11CCB
:1003F000F60180818F5F8083FE01E80FF11DE858D0
:10040000FF4FB0821F70F0E11F9FC0011124102721
:10041000182B812FF7010995F60180818F5F80836A
:10042000C80FD11DC858DF4F1883DF91CF911F919E
:100430000F91FF90EF90DF90CF90BF900895582FCD
:10044000FC0180E07CE89E2F951B961788F4419173
:1004500098E0A42FA827282F30E035952795822FE4
:10046000A0FF02C0872F82274695915091F7EBCFCE
:10047000089520913E0230913F022817390771F408
:1004800090913D0280913C02981741F0E0913D022D
:10049000F0E0EF5FFB4F808190E008958FEF9FEFDA
:1004A000089508951F93CF93DF93DC015C962D91FF
:1004B0003C915D972115310539F481E090E0139668
:1004C0009C938E9312973DC05196ED91FC9152975B
:1004D00050969C915097892F80951FB75E964C91AE
:1004E0005E9741FB772770F941FD6095F894408154
:1004F000772311F0492B01C048234083E90121975C
:10050000F1F748E0508160FF02C0592B01C0582329
:100510005083E9012197F1F76695415099F77723C8
:1005200021F090818923808303C08081982B908360
:100530001FBF5C968D919C915D970197F1F721E02B
:1005400030E0C901DF91CF911F91089520913E02C3
:1005500030913F022817390771F480913C022091B5
:100560003D0290E0805C9F4F821B910960E470E047
:100570000E94420E089580E090E0089520913E028E
:1005800030913F0228173907B9F490913D028091CC
:100590003C02981789F0E0913D02F0E0EF5FFB4FDD
:1005A000808120913D0230E02F5F3F4F2F73332732
:1005B00020933D0290E008958FEF9FEF08950097FC
:1005C00069F0FC0101900020E9F73197AF01481B69
:1005D000590BBC0185E492E00C94570880E090E050
:1005E00008950F931F93CF93DF938C01C0E0D0E069
:1005F000F801EC0FFD1F6491662371F0E091450254
:10060000F09146020190F081E02D85E492E0099599
:10061000892B11F02196ECCFCE01DF91CF911F9164
:100620000F9108950C94DF02EF92FF921F93CF93E6
:10063000DF931F92CDB7DEB7611107C0382FFC01E1
:100640006E2F631B21912111FBCF182F7C018E2D62
:10065000811B861788F4F70181917F01082E000C19
:10066000990B69830E945E010E9412038DE691E05E
:100670000E9412036981EBCF83EE91E00F90DF912E
:10068000CF911F91FF90EF900C941203CF93DF93C3
:100690001F92CDB7DEB769830E9412036981862F4E
:1006A00090E00E945E010E94120383EE91E00F90A1
:1006B000DF91CF910C94120390E00E945E010C94A4
:1006C000120381E791E00C94DF028F929F92AF9228
:1006D000BF920F931F93CF93DF93CDB7DEB7A19750
:1006E0000FB6F894DEBF0FBECDBF19A2423008F49A
:1006F0004AE08E010F5D1F4F842E912CA12CB12C4E
:10070000A50194010E94560EE62FB901CA010150BD
:100710001109EA3014F4E05D01C0E95CD801EC9302
:10072000232B242B252B61F7C8010E94DF02A19601
:100730000FB6F894DEBF0FBECDBFDF91CF911F91F2
:100740000F91BF90AF909F908F900895CF93DF93BC
:10075000DC01411107C0962FFB014E2F491B8191EF
:100760008111FBCFFB01ED012896495F97E09413BF
:1007700005C091509C93DF91CF9108959334C9F3B4
:100780009F5F81918993F3CF4F925F926F927F9297
:100790008F929F92AF92BF92CF92DF92EF92FF9291
:1007A0000F931F93CF93DF93DC01EA01FA01E85026
:1007B000FF4F7080CA018A509F4F9A012B503F4FC4
:1007C000FC019081F9018081980F7A01F7EFEF0E1B
:1007D000F11CF7012081920F970D09F4A1C18C91B2
:1007E000843529F48A01045C1F4F5CAC05C0823556
:1007F00009F096C18A015880462E6D014E01F8E736
:100800008F0E911CF4016080552009F435C1F80168
:100810008481A380B12CBA2CAA24A80EB11C0E94FA
:100820006103FE01E650FF4F808191810E94120317
:10083000C6010E9412038EE791E00E94F102F801C6
:1008400081810E945C0388E791E00E94F102F80137
:1008500082810E945C038DE691E00E94F10265E0D6
:10086000C5010E94A2010E9412032091440291E05E
:10087000F8018181281390E081E0F801328123138F
:1008800080E0890F39F085E591E00E94F102FF24B4
:10089000F39406C08DE391E00E94F102F701F0802D
:1008A000F6018081823589F48EE291E00E94F102A6
:1008B000E42DF0E0EE0FFF1FE85EFE4F8081918196
:1008C0000E9412038DE50E94C901FF2009F4D4C0E3
:1008D0000E94610382E191E00E94120386E191E0AF
:1008E0000E94F102F80181917F0163E090E00E9493
:1008F000A2010E94120381E191E00E94F102F8013D
:100900006081C7010E941403F9EF5F0E82E191E05C
:100910000E94120389EF90E00E94F102A52CB12CF5
:1009200063E0C5010E94A2010E94120384EF90E0DF
:100930000E94F10295E1F92E80E20E94C901FA9429
:10094000F110FACF780188E0E80EF11C652DC7019F
:100950000E94140382E191E00E9412038CED90E06A
:100960000E94F10263E0C5010E94A2010E941203ED
:1009700087ED90E00E94F10285E1B82E80E20E94AE
:10098000C901BA94B110FACF8BE50E94C901511088
:1009900007C09E2DF7015E2E591A81918111FBCF60
:1009A0004E2C57018A2D8419851558F4F501819133
:1009B0005F0190EE980F9F3508F080E20E94C90118
:1009C000F1CF8DE50E94C9010E946103F60180818B
:1009D0008235C9F482E191E00E94120385EC90E037
:1009E0000E94F102FE01EC50FF4F80810E945C03E7
:1009F0008DE691E00E941203FE01ED50FF4F8081D1
:100A00000E945C030CC082E191E00E941203FE018F
:100A1000EE50FF4F60818DE591E00E94460382E138
:100A200091E00E94120383EB90E00E94F10262E0E9
:100A3000C80103960E94140382E191E00E94120310
:100A400081EA90E00E94F102F80185810E945C0336
:100A500082E191E00E9412038FE890E00E94F1028F
:100A6000F80186810E945C038DE691E00E941203EA
:100A7000F80187810E945C03772009F451C0662049
:100A800009F44EC00E94610382E191E00E941203CA
:100A90008EE790E00E94F102F401808163E090E033
:100AA0000E94A2010E94120389E790E00E94F102D5
:100AB00082E191E00E941203F4016081CE01875827
:100AC0009F4F0E9414030E94610382E191E00E9403
:100AD000120388E690E00E94F102F401808163E055
:100AE00090E00E94A2010E94120382E191E00E9424
:100AF00012036EEE660DCE0188579F4FDF91CF91A6
:100B00001F910F91FF90EF90DF90CF90BF90AF902B
:100B10009F908F907F906F905F904F900C941403F4
:100B2000DF91CF911F910F91FF90EF90DF90CF90C9
:100B3000BF90AF909F908F907F906F905F904F90FD
:100B400008952F923F924F925F926F927F928F9271
:100B50009F92AF92BF92CF92DF92EF92FF920F934C
:100B60001F93CF93DF93CDB7DEB72E970FB6F894D0
:100B7000DEBF0FBECDBF8C017C876B871A0188E07A
:100B8000E3E9F1E0DE01119601900D928A95E1F71B
:100B90008FB7F8948090400290904102A09042025A
:100BA000B09043028FBF780188E7E80EF11CF7018F
:100BB0001082F8011082512C412CC80184509F4FA3
:100BC0009E878D87EB50FF4FFA87E9873801FAEF50
:100BD0006F0E711C2FB7F8948091400290914102E2
:100BE000A0914202B09143022FBF88199909AA0926
:100BF000BB09ED85FE854081518162817381841737
:100C00009507A607B70708F0FEC0F1010995181669
:100C1000190604F7EB85FC8509956C01F7018081C5
:100C20008A3708F072C08F5F8083F801E80FF11DEA
:100C3000E858FF4FC082C60199278936910509F40B
:100C4000B8C09CF58E31910509F4B3C0E4F483304B
:100C5000910509F455C08F30910509F4AAC0029797
:100C600009F0AEC081E0F70180838FB7F8948090DF
:100C7000400290904102A0904202B09043028FBF88
:100C800044244394A7CF8C33910509F492C024F4F3
:100C90008D9709F095C08DC08B34910509F489C0FA
:100CA0008A35910509F08CC084C0843B910509F414
:100CB00080C09CF48738910509F47BC02CF48837F8
:100CC000910509F07DC075C08639910509F471C0A0
:100CD000853A910509F074C06CC0823D910509F414
:100CE00068C02CF4833C910509F06AC062C0813E63
:100CF000910509F45EC0803F910509F061C059C0BB
:100D0000F701508192E060E00EC0F801EB50FF4F18
:100D10008081882309F484C0A80161E0CE01019696
:100D20000E94C4037DC09517A8F46F5FD801A60F79
:100D3000B11D9801290F311DF901E758FF4F80813E
:100D4000482F42954F7031978081807F842B8C9300
:100D50009E5FE9CFF801E60FF11DF080F801EC503D
:100D6000FF4FF0826150F8016193CF010E941F0292
:100D7000F801ED50FF4F808332968F1559F0808136
:100D8000882309F44FC0A80162E0CE0101960E94B9
:100D9000C40348C08081882309F446C08FE691E0EF
:100DA0000E941203A80160E0CE0101960E94C403D4
:100DB0003BC041100FCFF7018081815080830ACF63
:100DC000F701808181508083511011C0E985FA8537
:100DD0008081882361F00E946103F3018081918109
:100DE0000E9412036C2D84E791E00E944603E9857E
:100DF000FA858081882329F06C2D8DE691E00E9490
:100E000046035394E7CEF801EB50FF4F80818823CF
:100E100069F0A80164E0CE0101960E94C40306C0F7
:100E200081E005C082E003C080E001C084E02E962E
:100E30000FB6F894DEBF0FBECDBFDF91CF911F91EB
:100E40000F91FF90EF90DF90CF90BF90AF909F9069
:100E50008F907F906F905F904F903F902F9008956C
:100E60009F92AF92BF92CF92DF92EF92FF920F9339
:100E70001F93CF93DF93CDB7DEB727970FB6F894C4
:100E8000DEBF0FBECDBF8C016B0187E0EBE9F1E067
:100E9000DE01119601900D928A95E1F7F80194AC6C
:100EA000692DC801CD960E941F02A82EF801EE50B0
:100EB000FF4F80837801F8E7EF0EF11CF7011082F5
:100EC00082E0F6010995F70190819F5F9083F80118
:100ED000E90FF11DE858FF4F82E08083BB24B394F3
:100EE0009B1450F0F801EB0DF11DA80164ADC60193
:100EF0000E94D401B394F4CFA8016A2DC6010E94C8
:100F0000D40183E0F6010995F70180818F5F80832A
:100F1000F801E80FF11DE858FF4F83E08083F801E6
:100F2000EB50FF4F8081882331F0A80160E0CE01B3
:100F300001960E94C40327960FB6F894DEBF0FBE39
:100F4000CDBFDF91CF911F910F91FF90EF90DF9078
:100F5000CF90BF90AF909F900895262FFC01A3E003
:100F6000B1E0059631913D93E817F907D9F763E0B1
:100F7000822F90E00E94A201FC01808180930901F0
:100F8000818180930A01828180930B0108951F92D1
:100F90000F920FB60F9211242F933F934F935F93AD
:100FA0006F937F938F939F93AF93BF93EF93FF9331
:100FB000E0913E02F0913F02309709F451C0968DC6
:100FC000A685B785858591FF04C09C91892329F466
:100FD00047C09C91892309F043C0A389B4899C919F
:100FE0008589809589238C93868997890197F1F764
:100FF000608D718DA685B785558538E020E0CB01E1
:101000000197F1F7822F90E095958795282F4C91C5
:10101000452309F02068315091F7868D81FD209598
:1010200080913C0290E001968F73992730913D02A8
:10103000381749F0A0913C02B0E0AF5FBB4F2C9352
:1010400080933C0203C0868D8160868F828D938D54
:101050000197F1F7A389B4899C918589892B8C9399
:10106000FF91EF91BF91AF919F918F917F916F9180
:101070005F914F913F912F910F900FBE0F901F9056
:101080001895E0913E02F0913F02E817F90769F4E4
:10109000A389B4899C918589809589238C9310922A
:1010A0003F0210923E0281E0089580E00895CF92C1
:1010B000DF92EF92FF920F931F93CF93DF936C0118
:1010C0007A018B01C0E0D0E0CE15DF0589F0D801B0
:1010D0006D918D01D601ED91FC910190F081E02D93
:1010E000C6010995892B11F47E0102C02196ECCF2F
:1010F000C701DF91CF911F910F91FF90EF90DF908B
:10110000CF900895FC01918D828D981761F0828DAA
:10111000DF01A80FB11D5D968C91928D9F5F9F732B
:10112000928F90E008958FEF9FEF089585E492E00D
:101130000C948208FC01918D828D981731F0828D7C
:10114000E80FF11D858D90E008958FEF9FEF0895D2
:10115000FC01918D228D892F90E0805C9F4F821B36
:1011600091098F739927089585E492E00C94A8085B
:1011700085E492E00E94A80821E0892B09F420E090
:10118000822F0895FC01848DDF01A80FB11DA35AA1
:10119000BF4F2C91848D90E001968F739927848F97
:1011A000A689B7892C93A089B1898C9180648C938E
:1011B000938D848D981306C00288F389E02D808179
:1011C0008F7D80830895EF92FF920F931F93CF93AB
:1011D000DF93EC0181E0888F9B8D8C8D981305C087
:1011E000E889F989808185FD24C0F62E0B8D10E0F9
:1011F0000F5F1F4F0F731127E02E8C8DE8120CC06C
:101200000FB607FCFACFE889F989808185FFF5CF11
:10121000CE010E94C208F1CF8B8DFE01E80FF11DB7
:10122000E35AFF4FF0820B8FEA89FB89808180624D
:1012300007C0EE89FF896083E889F989808180642D
:10124000808381E090E0DF91CF911F910F91FF901B
:10125000EF900895682F85E492E00C94E308CF9313
:10126000DF93EC01888D8823C9F0EA89FB898081AE
:1012700085FD05C0A889B9898C9186FD0FC00FB680
:1012800007FCF5CF808185FFF2CFA889B9898C91C1
:1012900085FFEDCFCE010E94C208E7CFDF91CF914D
:1012A000089580E090E0892B29F00E94B808811110
:1012B0000C9400000895682F82EE92E00C94520284
:1012C00082EE92E00C94A60282EE92E00C94BE02B2
:1012D0000E947E0E90E0FC01E05BFD4F3491FC012A
:1012E000E455FE4F2491FC01E856FE4FE491EE23B5
:1012F00009F43BC0332339F1333091F038F4313005
:10130000A9F0323001F584B58F7D12C0373091F0ED
:101310003830A1F03430B9F4809180008F7D03C063
:10132000809180008F77809380000DC084B58F7787
:1013300084BD09C08091B0008F7703C08091B00058
:101340008F7D8093B000F0E0EE0FFF1FEC57FE4F53
:10135000A591B4918FB7F894EC91611103C02095D9
:101360002E2301C02E2B2C938FBF0895CF93DF9394
:1013700090E0FC01E455FE4F2491FC01E856FE4F3D
:101380008491882361F190E0880F991FFC01EA5B4A
:10139000FD4FC591D491FC01EC57FE4FA591B4913E
:1013A000611109C09FB7F8948881209582238883B2
:1013B000EC912E230BC0623061F49FB7F894388112
:1013C000822F809583238883EC912E2B2C939FBFB3
:1013D00006C08FB7F894E8812E2B28838FBFDF914A
:1013E000CF9108951F920F920FB60F9211242F9351
:1013F0003F938F939F93AF93BF93809140029091BF
:101400004102A0914202B091430230915B0423E07B
:10141000230F2D3720F40196A11DB11D05C026E82C
:10142000230F0296A11DB11D20935B0480934002FF
:1014300090934102A0934202B093430280915704DB
:1014400090915804A0915904B0915A040196A11D9D
:10145000B11D8093570490935804A0935904B093FE
:101460005A04BF91AF919F918F913F912F910F900F
:101470000FBE0F901F9018951F920F920FB60F92EC
:1014800011242F933F934F935F936F937F938F9389
:101490009F93AF93BF93EF93FF9385E492E00E94F5
:1014A000C208FF91EF91BF91AF919F918F917F9172
:1014B0006F915F914F913F912F910F900FBE0F90C1
:1014C0001F9018951F920F920FB60F9211242F9311
:1014D0008F939F93EF93FF93E0915502F091560203
:1014E0008081E0915B02F0915C0282FD12C09081EC
:1014F00080915E028F5F8F7320915F02821751F09F
:10150000E0915E02F0E0EB5BFD4F958F80935E0211
:1015100001C08081FF91EF919F918F912F910F904A
:101520000FBE0F901F90189510924802109247021C
:1015300088EE93E0A0E0B0E08093490290934A02E5
:10154000A0934B02B0934C022AE231E03093460262
:101550002093450225EC30E0309352022093510253
:1015600024EC30E0309354022093530220EC30E01E
:10157000309356022093550221EC30E0309358020C
:101580002093570222EC30E030935A022093590204
:1015900026EC30E030935C0220935B0210925E02F6
:1015A00010925F0210926002109261021092F60394
:1015B0001092F7031092F8031092F90340E157E2FA
:1015C00060E070E04093FD035093FE036093FF03DF
:1015D000709300041092E5021092E4028093E602F8
:1015E0009093E702A093E802B093E9028AE391E0C6
:1015F0009093E3028093E2021092F9021092F802B3
:101600001092FB021092FA021092FD021092FC025C
:101610001092FF021092FE02609100036E7F6D7FB8
:10162000609300036695617081E0682782E00E9404
:101630006A0961E082E00E94B609EEEAF1E0E49115
:10164000E093F202EAE9F1E0E491F0E0EE0FFF1F2F
:10165000EC57FE4F859194919093F4028093F3029E
:1016600060E083E00E94B6098091000381FD04C020
:1016700061E083E00E946A0983E08093EE02EFEA72
:10168000F1E0E491E093EF02EBE9F1E0E491F0E0C6
:10169000EE0FFF1FE257FE4F859194919093F10258
:1016A0008093F0020895CF93DF93CDB7DEB7EF9725
:1016B0000FB6F894DEBF0FBECDBF789484B58260BC
:1016C00084BD84B5816084BD85B5826085BD85B5E6
:1016D000816085BD80916E00816080936E00109264
:1016E00081008091810082608093810080918100DF
:1016F0008160809381008091800081608093800070
:101700008091B10084608093B1008091B0008160CD
:101710008093B00080917A00846080937A008091F9
:101720007A00826080937A0080917A008160809351
:101730007A0080917A00806880937A001092C100CC
:101740001092FD021092FC021092FB021092FA021B
:101750001092F9021092F8028DE991E09093FF0245
:101760008093FE029091EE02963108F057C02DEB67
:1017700030E03093F9022093F8022BE931E0309306
:10178000FB022093FA022CE231E03093FD02209319
:10179000FC0220916800983050F031E09E3008F44F
:1017A00030E081E001C0880F3A95EAF701C084E09B
:1017B000822B80936800983038F09E3040F096314C
:1017C00048F020E030E008C02DE630E005C02BE610
:1017D00030E002C02CE630E03093F6022093F502B0
:1017E000983030F481E001C0880F9A95EAF70EC076
:1017F000292F30E09E3018F42850310902C02E50B5
:10180000310981E001C0880F2A95EAF78093F70239
:101810008091FE029091FF020197F1F78091FC0206
:101820009091FD02892B21F180913E0290913F021F
:1018300022E0823E9207E1F0009711F00E944108F9
:10184000809100038E7F8093000310923C021092DF
:101850003D0282EE92E090933F0280933E02E0913F
:10186000F502F091F60290818091F702892B808336
:1018700081E093E0909356048093550461E084E006
:101880000E94B60960E084E00E946A09E091550276
:10189000F091560282E08083E0915102F091520271
:1018A0001082E0915302F09154028FEC80831092E9
:1018B0005D02E0915902F0915A0286E08083E09146
:1018C0005702F0915802808180618083E091570235
:1018D000F0915802808188608083E0915702F091F6
:1018E0005802808180688083E0915702F09158020D
:1018F00080818F7D808380E090E00E94830E8093C2
:10190000440261E08DE00E94B60995E1392E28E895
:10191000C22E23E1D22EE12CF12C30ED832E37E0C4
:10192000932EA12CB12C60914402809111016B3057
:1019300008F0A1C08823D9F085ED91E00E94AD07A1
:101940008091550490915604FC01E750FF4F20917F
:1019500044022083319620E031E0318320833597A3
:1019600010823196108231961082319610828091C9
:10197000550490915604FC01E450FF4FC082D1827F
:10198000E282F382FC01108244EB58E066E978E0E1
:101990000E94A105811153C1009155041091560474
:1019A000F8019081F801E80FF11D208124AF8F5FCD
:1019B0009817C0F761E084E00E946A096BE579E05E
:1019C000C8010E94300760E084E00E946A0900912B
:1019D000550410915604F801E450FF4F8082918223
:1019E000A282B38240E659E064E679E0C8010E9431
:1019F000A105882361F123E6F801218312829AE18F
:101A0000E4EEF1E0DE01119601900D929A95E1F776
:101A1000E82FF0E0EE0FFF1FE85EFE4F8081A82F59
:101A2000B18127E0281B922F9A0F8D91882341F0D6
:101A3000E1E0F0E0EC0FFD1FE90FF11D8083F3CF33
:101A400040E0BE016F5F7F4FC8010E94A6038091F6
:101A5000550490915604FC01308120E0FC01E20F16
:101A6000F11D408144AF2F5F3217C0F76AE279E081
:101A70000E943007E4C0882309F18BED91E00E94B9
:101A8000AD078091550490915604FC01E750FF4F3B
:101A9000209144022083319620E031E0318320837D
:101AA000359721E02083319620833196108231963C
:101AB00010823496C082D182E282F38240E659E0FD
:101AC00064E679E080915504909156040E94A10546
:101AD0000091550410915604F801811177C02180BE
:101AE0009281809144029813AAC0EEEFF1E0DE01EA
:101AF000D09680E101900D928A95E1F7EEE0F2E058
:101B0000DE015B96832D01900D928A95E1F7E3E269
:101B1000F2E0DE01119689E101900D928A95E1F7DC
:101B2000F801908180E0F801E80FF11D208124AFD9
:101B30008F5F9817C0F7F80186818531A9F086314B
:101B4000C1F0823019F58781813069F581EE91E02D
:101B50000E94120386E491E00E94120380EC91E05F
:101B60000E94F1020E94610340E1BE01605D7F4F6F
:101B700004C045E1BE01655E7F4FC801CC960E945E
:101B8000A603F801EF5BFF4F10820DC049E1BE01D3
:101B90006F5F7F4FC801CC960E94A603F801EF5BF0
:101BA000FF4F23E02083F80126AE8091440285AFE9
:101BB00061E084E00E946A096BE579E0C8010E9457
:101BC000300760E084E00E946A0939C09081482EA5
:101BD000512C612C712C91111FC080E091E00E946A
:101BE00012038AE392E00E94F1024AE0C301B201CB
:101BF0000E94650388E092E00E94F102E0915504A2
:101C0000F0915604E450FF4F60817181828193818D
:101C10004AE00E94650311C080E091E00E94120337
:101C20008CEF91E00E94F1024AE0C301B2010E94F0
:101C300065038FED91E00E94F1020E946103109212
:101C400011010E9451096FCE8AE391E09093E30263
:101C50008093E20282EE92E00C944108AA1BBB1B27
:101C600051E107C0AA1FBB1FA617B70710F0A61B9C
:101C7000B70B881F991F5A95A9F780959095BC01BD
:101C8000CD01089597FB072E16F4009407D077FD39
:101C900009D00E942E0E07FC05D03EF49095819548
:101CA0009F4F0895709561957F4F0895A1E21A2E78
:101CB000AA1BBB1BFD010DC0AA1FBB1FEE1FFF1FF0
:101CC000A217B307E407F50720F0A21BB30BE40B40
:101CD000F50B661F771F881F991F1A9469F7609587
:101CE0007095809590959B01AC01BD01CF01089541
:101CF000EE0FFF1F0590F491E02D099481E090E034
:101D0000F8940C948B0EF999FECF92BD81BDF89A90
:101D1000992780B5089511E0C3E3D1E004C0FE0126
:101D20000E94780E2196C433D107C9F7F894FFCFEB
:101D30000D0A5B59595959592D7878785D202D2015
:101D400000010A2020202000A201A501AE01B60159
:101D5000BF01C701CF0100000000E3085708A80831
:101D600082089A082F090000000052025708A602B4
:101D7000BE02390251020A202020200030313233C5
:101D800034353637383941424344454600784D6949
:101D90007474656420435243203078203A20000D4B
:101DA0000A0D0A006C696252454356202D20756E5B
:101DB0006578706578746564206279746528732924
:101DC0003A200052582D646174610054582D6C699A
:101DD00062004F4B004F564552464C4F5700424110
:101DE000442D435243004241442D43484152005444
:101DF000494D454F5554005041594C4F41440044C2
:101E0000454255470052656C617900536C617665B7
:101E1000000A0A004552524F523A202E2E2E2E2EE4
:101E20002E2E2E206F636375727265642100506FD1
:101E30006C6C696E6720616E7377657221006465F2
:101E4000766F20736372697665726520696C2070A5
:101E5000696E00436F6D616E646F206E6F6E2072ED
:0C1E600069636F6E6F73636975746F00C7
:00000001FF
