:100000000C947A000C94A2000C94A2000C94580456
:100010000C9458040C9458040C94A2000C94A20064
:100020000C94A2000C94A2000C94A2000C94A200C8
:100030000C94A2000C94A2000C94A2000C94A200B8
:100040000C94D2040C94A2000C9442050C941C0550
:100050000C94A2000C94A2000C94A2000C94A20098
:100060000C94A2000C94A200454570726F6D204163
:10007000646472657373203A200074686973205653
:10008000657273696F6E2020203A200029202D2090
:1000900000202020280000000000240027002A0063
:1000A0000000000800020100000304070000000037
:1000B0000000000000000000250028002B000000C8
:1000C000000023002600290004040404040404049E
:1000D00002020202020203030303030301020408F3
:1000E00010204080010204081020010204081020A2
:1000F00074056C0811241FBECFEFD8E0DEBFCDBF62
:1001000011E0A0E0B1E0E0ECF1E102C005900D9259
:10011000A43AB107D9F723E0A4EAB1E001C01D92E7
:10012000AB34B207E1F710E0C9E7D0E004C0219793
:10013000FE010E94C008C837D107C9F70E942706F0
:100140000C94D3080C9400000F931F93CF93DF936C
:100150008C01C0E0D0E0F801EC0FFD1F6491662334
:1001600071F0E091F301F091F4010190F081E02D44
:1001700083EF91E00995892B11F02196ECCFCE0108
:10018000DF91CF911F910F910895CF93DF93CDB75A
:10019000DEB761970FB6F894DEBF0FBECDBF21E189
:1001A000EAE3F1E0DE01119601900D922A95E1F764
:1001B000A4E1B1E012961C921297BC0124E076955E
:1001C00067952A95E1F79C012F70332741E050E0B5
:1001D0004C0F5D1F240F351FF901208111962C93C0
:1001E0001197892F9927E4E0880F991FEA95E1F785
:1001F000FB01E81BF90BE40FF51F80818C936196DE
:100200000FB6F894DEBF0FBECDBFDF91CF9108953A
:100210002091F1013091F2012817390771F4909182
:10022000F0018091EF01981741F0E091F001F0E0CA
:10023000E155FE4F808190E008958FEF9FEF089584
:1002400008951F93CF93DF93DC015C962D913C9131
:100250005D972115310539F481E090E013969C9368
:100260008E9312973DC05196ED91FC915297509606
:100270009C915097892F80951FB75E964C915E9701
:1002800041FB772770F941FD6095F8944081772311
:1002900011F0492B01C048234083E9012197F1F770
:1002A00048E0508160FF02C0592B01C058235083A1
:1002B000E9012197F1F76695415099F7772321F0ED
:1002C00090818923808303C08081982B90831FBFF6
:1002D0005C968D919C915D970197F1F721E030E05C
:1002E000C901DF91CF911F9108952091F1013091C3
:1002F000F2012817390771F48091EF012091F00184
:1003000090E0805C9F4F821B910960E470E00E9446
:100310007608089580E090E008952091F1013091F1
:10032000F20128173907B9F49091F0018091EF019B
:10033000981789F0E091F001F0E0E155FE4F8081DF
:100340002091F00130E02F5F3F4F2F733327209330
:10035000F00190E008958FEF9FEF0895E091F10193
:10036000F091F201E817F90769F4A389B4899C9127
:100370008589809589238C931092F2011092F10166
:1003800081E0089580E0089590E0FC01E056FF4F81
:100390003491FC01E452FF4F2491FC01E853FF4FDC
:1003A000E491EE2309F43BC0332339F1333091F06B
:1003B00038F43130A9F0323001F584B58F7D12C0A8
:1003C000373091F03830A1F03430B9F480918000AA
:1003D0008F7D03C0809180008F77809380000DC057
:1003E00084B58F7784BD09C08091B0008F7703C03A
:1003F0008091B0008F7D8093B000F0E0EE0FFF1F82
:10040000EC54FF4FA591B4918FB7F894EC91611122
:1004100003C020952E2301C02E2B2C938FBF08954F
:10042000CF93DF9390E0FC01E452FF4F2491FC0155
:10043000E853FF4F8491882361F190E0880F991F62
:10044000FC01EA56FF4FC591D491FC01EC54FF4FDB
:10045000A591B491611109C09FB7F8948881209546
:1004600082238883EC912E230BC0623061F49FB706
:10047000F8943881822F809583238883EC912E2BEA
:100480002C939FBF06C08FB7F894E8812E2B28834A
:100490008FBFDF91CF9108953FB7F8948091AB0162
:1004A0009091AC01A091AD01B091AE0126B5A89B91
:1004B00005C02F3F19F00196A11DB11D3FBFBA2FF6
:1004C000A92F982F8827820F911DA11DB11DBC0156
:1004D000CD0142E0660F771F881F991F4A95D1F71B
:1004E00008958F929F92AF92BF92CF92DF92EF9238
:1004F000FF926B017C010E944C024B015C01C11414
:10050000D104E104F104F1F00E944C02DC01CB01C2
:1005100088199909AA09BB09883E9340A105B1052C
:1005200070F321E0C21AD108E108F10888EE880EC4
:1005300083E0981EA11CB11CC114D104E104F10494
:1005400019F7DDCFFF90EF90DF90CF90BF90AF9085
:100550009F908F900895682F8CE293E00C94210176
:10056000FF920F931F93CF93DF93C82F282F30E074
:1005700084E0359527958A95E1F7DFE0822F8D2776
:1005800094E0220F331F9A95E1F7F82EF22A8F2D6F
:100590000E94AB0200E912E0D801D296EC91D2970A
:1005A000EF5FD296EC93F0E0E057FD4FF2AACF70E8
:1005B000B0E1CB9FC0011124CD27C82B8C2F0E9406
:1005C000AB02D801D296EC91D297EF5FD296EC9322
:1005D000F0E0E057FD4FC2ABDF91CF911F910F913B
:1005E000FF900895CF92DF92EF92FF920F931F93A7
:1005F000CF93DF936C017A018B01C0E0D0E0CE1580
:10060000DF0589F0D8016D918D01D601ED91FC9146
:100610000190F081E02DC6010995892B11F47E012E
:1006200002C02196ECCFC701DF91CF911F910F91AE
:10063000FF90EF90DF90CF900895FC01918D828D17
:10064000981761F0828DDF01A80FB11D5D968C9126
:10065000928D9F5F9F73928F90E008958FEF9FEF31
:100660000895FC01918D828D981731F0828DE80FED
:10067000F11D858D90E008958FEF9FEF0895FC01A7
:10068000918D228D892F90E0805C9F4F821B910974
:100690008F739927089583EF91E00E943F0321E033
:1006A000892B09F420E0822F0895FC01848DDF015D
:1006B000A80FB11DA35ABF4F2C91848D90E00196D5
:1006C0008F739927848FA689B7892C93A089B189C4
:1006D0008C9180648C93938D848D981306C00288CE
:1006E000F389E02D80818F7D80830895EF92FF92C2
:1006F0000F931F93CF93DF93EC0181E0888F9B8D45
:100700008C8D981305C0E889F989808185FD24C006
:10071000F62E0B8D10E00F5F1F4F0F731127E02E89
:100720008C8DE8120CC00FB607FCFACFE889F98966
:10073000808185FFF5CFCE010E945503F1CF8B8DCF
:10074000FE01E80FF11DE35AFF4FF0820B8FEA899B
:10075000FB898081806207C0EE89FF896083E88918
:10076000F98980818064808381E090E0DF91CF917E
:100770001F910F91FF90EF900895CF93DF93EC01BD
:10078000888D8823C9F0EA89FB89808185FD05C0B1
:10079000A889B9898C9186FD0FC00FB607FCF5CFEB
:1007A000808185FFF2CFA889B9898C9185FFEDCF33
:1007B000CE010E945503E7CFDF91CF91089580E0ED
:1007C00090E0892B29F00E944B0381110C940000CA
:1007D0000895009769F0FC0101900020E9F7319736
:1007E000AF01481B590BBC0183EF91E00C94F2025E
:1007F00080E090E008958F929F92AF92BF920F9306
:100800001F93CF93DF93CDB7DEB7A1970FB6F894C0
:10081000DEBF0FBECDBF19A2423008F44AE08E0100
:100820000F5D1F4F842E912CA12CB12CA50194019A
:100830000E948A08E62FB901CA0101501109EA3065
:1008400014F4E05D01C0E95CD801EC93232B242B68
:10085000252B61F7C8010E94E903A1960FB6F89411
:10086000DEBF0FBECDBFDF91CF911F910F91BF9023
:10087000AF909F908F9008950C94E903CF93DF93EE
:100880001F92CDB7DEB769830E943C046981862F31
:1008900090E00E94C50084E191E00E943C048BE45A
:1008A00091E00F90DF91CF910C943C040E94C60818
:1008B0001F920F920FB60F9211242F933F934F93D5
:1008C0005F936F937F938F939F93AF93BF93EF93B8
:1008D000FF93E091F101F091F201309709F451C0DA
:1008E000968DA685B785858591FF04C09C91892347
:1008F00029F447C09C91892309F043C0A389B48996
:100900009C918589809589238C9386899789019705
:10091000F1F7608D718DA685B785558538E020E0AB
:10092000CB010197F1F7822F90E095958795282FBD
:100930004C91452309F02068315091F7868D81FD57
:1009400020958091EF0190E001968F739927309167
:10095000F001381749F0A091EF01B0E0A155BE4F6A
:100960002C938093EF0103C0868D8160868F828DEA
:10097000938D0197F1F7A389B4899C918589892B7F
:100980008C93FF91EF91BF91AF919F918F917F9148
:100990006F915F914F913F912F910F900FBE0F90EC
:1009A0001F9018951F920F920FB60F9211242F933C
:1009B0003F938F939F93AF93BF938091A7019091A3
:1009C000A801A091A901B091AA013091A60123E04C
:1009D000230F2D3720F40196A11DB11D05C026E877
:1009E000230F0296A11DB11D2093A6018093A7019C
:1009F0009093A801A093A901B093AA018091AB01A3
:100A00009091AC01A091AD01B091AE010196A11DF4
:100A1000B11D8093AB019093AC01A093AD01B09355
:100A2000AE01BF91AF919F918F913F912F910F9008
:100A30000FBE0F901F9018951F920F920FB60F9236
:100A400011242F933F934F935F936F937F938F93D3
:100A50009F93AF93BF93EF93FF9383EF91E00E9437
:100A60005503FF91EF91BF91AF919F918F917F912E
:100A70006F915F914F913F912F910F900FBE0F900B
:100A80001F9018951F920F920FB60F9211242F935B
:100A90008F939F93EF93FF93E0910302F0910402F1
:100AA0008081E0910902F0910A0282FD12C09081DA
:100AB00080910C028F5F8F7320910D02821751F08D
:100AC000E0910C02F0E0ED50FE4F958F80930C0208
:100AD00001C08081FF91EF919F918F912F910F9095
:100AE0000FBE0F901F9018951092F6011092F5010D
:100AF00088EE93E0A0E0B0E08093F7019093F801D6
:100B0000A093F901B093FA012EE131E03093F401A2
:100B10002093F30125EC30E0309300022093FF0195
:100B200024EC30E0309302022093010220EC30E00C
:100B3000309304022093030221EC30E0309306024C
:100B40002093050222EC30E0309308022093070244
:100B500026EC30E030930A022093090210920C0236
:100B600010920D0210920E0210920F0210922F039B
:100B700010922E038093300390933103A09332039D
:100B8000B09333038EE291E090932D0380932C0376
:100B900010924303109242031092450310924403B3
:100BA0001092470310924603109249031092480393
:100BB00060914A036E7F6D7F60934A036695617012
:100BC00081E0682782E00E94C40161E082E00E9427
:100BD0001002EEEDF0E0E491E0933C03EAECF0E08B
:100BE000E491F0E0EE0FFF1FEC54FF4F85919491DC
:100BF00090933E0380933D0360E083E00E941002E7
:100C000080914A0381FD04C061E083E00E94C40139
:100C100083E080933803EFEDF0E0E491E093390353
:100C2000EBECF0E0E491F0E0EE0FFF1FE254FF4F39
:100C30008591949190933B0380933A0310922803FB
:100C40001092290310922A0310922B030895CF9338
:100C5000DF93CDB7DEB728970FB6F894DEBF0FBE8F
:100C6000CDBF789484B5826084BD84B5816084BD35
:100C700085B5826085BD85B5816085BD80916E003A
:100C8000816080936E00109281008091810082606B
:100C900080938100809181008160809381008091A8
:100CA00080008160809380008091B1008460809397
:100CB000B1008091B00081608093B00080917A0093
:100CC000846080937A0080917A00826080937A00B9
:100CD00080917A00816080937A0080917A008068A8
:100CE00080937A001092C100E0910302F091040217
:100CF00082E08083E091FF01F09100021082E09198
:100D00000102F09102028FEC808310920B02E091BD
:100D10000702F091080286E08083E0910502F091DD
:100D20000602808180618083E0910502F0910602D5
:100D3000808188608083E0910502F09106028081C5
:100D400080688083E0910502F091060280818F7DAA
:100D5000808310924703109246031092450310922D
:100D6000440310924303109242038DE991E0909363
:100D700049038093480390913803963108F057C097
:100D80002DEB30E030934303209342032BE931E015
:100D900030934503209344032CE231E03093470322
:100DA0002093460320916800983050F031E09E3047
:100DB00008F430E081E001C0880F3A95EAF701C0FD
:100DC00084E0822B80936800983038F09E3040F0A9
:100DD000963148F020E030E008C02DE630E005C054
:100DE0002BE630E002C02CE630E030934003209345
:100DF0003F03983030F481E001C0880F9A95EAF7FC
:100E00000EC0292F30E09E3018F42850310902C05E
:100E10002E50310981E001C0880F2A95EAF78093AE
:100E2000410380914803909149030197F1F7809124
:100E3000460390914703892B21F18091F101909114
:100E4000F20123E08C329207E1F0009711F00E944A
:100E5000AE0180914A038E7F80934A031092EF0186
:100E60001092F0018CE293E09093F2018093F101F3
:100E7000E0913F03F0914003908180914103892BE1
:100E8000808361E084E00E94100261E08DE00E94B6
:100E9000100262E085E10E94100262E084E10E949B
:100EA000100280E090E00E94CB088093A40168E8E3
:100EB00073E180E090E00E9471028AE790E00E9476
:100EC000A40080E091E00E94E9038BE491E00E949D
:100ED000E90388E690E00E94A4006091A40170E01C
:100EE00080E090E04AE00E94FB038BE491E00E94E6
:100EF000E90350E1652E57E2752E812C912C67E0B5
:100F0000262E8E010F5F1F4FBB24B39437E0300FA6
:100F100038877CE8572E60922803709229038092CC
:100F20002A0390922B03EDE9F1E0D801822D019084
:100F30000D928A95E1F710929102B0929202A3E984
:100F4000B2E0F80181918D9328852E13FBCF38E014
:100F50003093900261E084E00E94C401A09090026E
:100F60008EE491E00E943C046A2D70E080E090E005
:100F70004AE00E94FB038BE491E00E94E903C12C4C
:100F8000D12C7601412CCA1458F5F601E057FD4FDB
:100F9000318089E591E00E943C044AE0C701B60136
:100FA0000E94FB038BE591E00E943C04632D80E6E8
:100FB00091E00E943E0428E0342D3325842D90E0FA
:100FC00095958795482E30FF02C0452C48263694CB
:100FD000215091F78FEFC81AD80AE80AF80AD3CF40
:100FE000642D89E691E00E943E048BE491E00E942A
:100FF000E9031092C20282E00E94AB02E091C202B9
:10100000EF5FE093C202F0E0E057FD4F82E082AB79
:10101000FF24F394809190028F1548F0EF2DF0E0BB
:10102000E057FD4F80810E94B002F394F3CF842DEE
:101030000E94B00283E00E94AB02E091C202EF5F27
:10104000E093C202F0E0E057FD4F83E082AB60E046
:1010500084E00E94C401B092A501F090C202FF207A
:1010600091F18AE791E00E943C0481E990E00E94BE
:10107000A4008F2D90E0A0E0B0E04AE0BC01CD01DB
:101080000E94FB038CE890E00E94A40083ECC82E31
:1010900082E0D82E8C2D23EC32E0821B8F1578F461
:1010A000F60181916F0190E00E94C50084E191E01A
:1010B0000E943C048EE591E00E943C04EBCF8BE45F
:1010C00091E00E943C0460ED77E080E090E00E94B7
:1010D00071020E94DF031FCF8EE291E090932D03F7
:1010E00080932C038CE293E00C94AE0197FB072EC7
:1010F00016F4009407D077FD09D00E94AC0807FCD5
:1011000005D03EF4909581959F4F08957095619517
:101110007F4F0895A1E21A2EAA1BBB1BFD010DC033
:10112000AA1FBB1FEE1FFF1FA217B307E407F50797
:1011300020F0A21BB30BE40BF50B661F771F881F73
:10114000991F1A9469F760957095809590959B0109
:10115000AC01BD01CF010895AA1BBB1B51E107C023
:10116000AA1FBB1FA617B70710F0A61BB70B881F37
:10117000991F5A95A9F780959095BC01CD010895C6
:10118000EE0FFF1F0590F491E02D099481E090E0AF
:10119000F8940C94D308F999FECF92BD81BDF89ACA
:1011A000992780B5089510E0C9E7D0E004C0FE019A
:1011B0000E94C0082196CA37D107C9F7F894FFCF1B
:1011C000323031372D30332D32302030372E343518
:1011D0002E34340030302E2E2E0000000000760316
:1011E000F2023F031D033103BD0300000000210193
:1011F000F20275018D01080120013031323334359E
:1012000036373839414243444546000D0A0064618F
:101210007461206C656E3A20005B005D202D20001B
:10122000696E627974653A200063616C63756C6104
:10123000746564204352433A20005B536C617665C9
:101240005D202D205265737020786D69747465641B
:10125000202844454255472920203A20004C6F72EF
:0412600065746F0042
:00000001FF
