:100000000C9447010C946F010C946F010C949903AC
:100010000C9499030C9499030C946F010C946F0148
:100020000C946F010C946F010C946F010C946F0190
:100030000C946F010C946F010C946F010C946F0180
:100040000C947F040C946F010C94EF040C94C9047D
:100050000C946F010C946F010C946F010C946F0160
:100060000C946F010C946F0120736F6E6F20696E9A
:10007000204C4F43414C20457865637574696F6E21
:1000800000202D204E6F20646174612072656365CD
:100090006976656420696E20746865206C6173748C
:1000A000206D533A2000707265706172696E67202E
:1000B000726573706F6E7365206D657373616765CC
:1000C0002E2E2E2000202D206572726F7265206EFC
:1000D0006F6E206964656E746966696361746F3AF6
:1000E00020007263766452436F64653A2000202DCD
:1000F000204E6F2064617461207265636569766566
:100100006420696E20746865206C617374206D537F
:100110003A200000000000240027002A0000000010
:1001200008000201000003040700000000000000B6
:1001300000434D442020726177202D202020202074
:1001400020005D202D200066756C6C207261772088
:100150002D206C656E3A5B00434D442F73756243EE
:100160004D4420203078203A2000434D445F5243D4
:100170006F64652020203078203A20005345514E8E
:100180004F202020202020203078203A2000435289
:1001900043205265632F43616C203078203A200061
:1001A0005D202D2000636F6D6D616E64446174612C
:1001B00020617363202D206C656E3A5B005D202DFD
:1001C0002000636F6D6D616E6444617461206865C9
:1001D00078202D206C656E3A5B005D202D20006636
:1001E000756C6C4461746120202020686578202D36
:1001F000206C656E3A5B00202D205B726376644351
:100200006F64653A2000202D205B69742773204EAF
:100210004F5420666F72206D652E2E2E5D00202DAE
:10022000205B574F57206974277320666F72206DCB
:10023000652E2E2E5D00202D205365714E4F3A20E5
:10024000002D2D3E307800202D2030780000000059
:1002500000250028002B00000000002300260029B4
:10026000000404040404040404020202020202035F
:100270000303030303010204081020408001020469
:100280000810200102040810200096108C10112480
:100290001FBECFEFD8E0DEBFCDBF12E0A0E0B1E0DF
:1002A000EEE7F3E202C005900D92AE3AB107D9F73E
:1002B00024E0AEEAB2E001C01D92A43DB207E1F72E
:1002C00011E0C6E4D1E004C02197FE010E949F1115
:1002D000C534D107C9F70E94D90B0C94B2110C9404
:1002E0000000E091FE02F091FF02E817F90769F4BF
:1002F000A389B4899C918589809589238C931092D8
:10030000FF021092FE0281E0089580E0089583309C
:1003100081F028F4813099F08230A1F0089587307F
:10032000A9F08830B9F08430D1F4809180008F7DBD
:1003300003C0809180008F7780938000089584B5FA
:100340008F7702C084B58F7D84BD08958091B00001
:100350008F7703C08091B0008F7D8093B0000895A7
:10036000CF93DF93282F30E0F901E35EFE4F8491B5
:10037000F901EB58FD4FD491F901EF59FD4FC491AC
:10038000CC2391F081110E948701EC2FF0E0EE0F59
:10039000FF1FE95AFD4FA591B491EC91ED2381E047
:1003A00090E021F480E002C080E090E0DF91CF9106
:1003B00008953FB7F8948091B8029091B902A09146
:1003C000BA02B091BB0226B5A89B05C02F3F19F019
:1003D0000196A11DB11D3FBFBA2FA92F982F8827C5
:1003E000820F911DA11DB11DBC01CD0142E0660F20
:1003F000771F881F991F4A95D1F708958F929F9272
:10040000AF92BF92CF92DF92EF92FF926B017C018D
:100410000E94D9014B015C01C114D104E104F10433
:10042000F1F00E94D901DC01CB0188199909AA09D0
:10043000BB09883E9340A105B10570F321E0C21AC3
:10044000D108E108F10888EE880E83E0981EA11C0F
:10045000B11CC114D104E104F10419F7DDCFFF9000
:10046000EF90DF90CF90BF90AF909F908F900895C6
:10047000CF92DF92EF92FF920F931F93CF93DF9370
:100480006C017A018B01C0E0D0E0CE15DF0589F068
:10049000D8016D918D01D601ED91FC910190F08113
:1004A000E02DC6010995892B11F47E0102C0219629
:1004B000ECCFC701DF91CF911F910F91FF90EF908B
:1004C000DF90CF900895089580E090E00895FC01BA
:1004D000538D448D252F30E0842F90E0821B930BA9
:1004E000541710F0CF96089501970895FC01918D4F
:1004F000828D981761F0828DDF01A80FB11D5D9686
:100500008C91928D9F5F9F73928F90E008958FEFF3
:100510009FEF089584E093E00C947602FC01918DA6
:10052000828D981731F0828DE80FF11D858D90E056
:1005300008958FEF9FEF0895FC01918D228D892FF3
:1005400090E0805C9F4F821B91098F7399270895DB
:1005500084E093E00C949C0284E093E00E949C026F
:1005600021E0892B09F420E0822F0895FC01848D7D
:10057000DF01A80FB11DA35ABF4F2C91848D90E0CD
:1005800001968F739927848FA689B7892C93A089A8
:10059000B1898C9180648C93938D848D981306C05F
:1005A0000288F389E02D80818F7D80830895EF920A
:1005B000FF920F931F93CF93DF93EC0181E0888F1D
:1005C0009B8D8C8D981305C0E889F989808185FD04
:1005D00024C0F62E0B8D10E00F5F1F4F0F731127F5
:1005E000E02E8C8DE8120CC00FB607FCFACFE8891C
:1005F000F989808185FFF5CFCE010E94B602F1CF47
:100600008B8DFE01E80FF11DE35AFF4FF0820B8F37
:10061000EA89FB898081806207C0EE89FF89608357
:10062000E889F98980818064808381E090E0DF91AE
:10063000CF911F910F91FF90EF900895682F84E064
:1006400093E00C94D702CF93DF93EC01888D88233D
:10065000C9F0EA89FB89808185FD05C0A889B9892F
:100660008C9186FD0FC00FB607FCF5CF808185FF0A
:10067000F2CFA889B9898C9185FFEDCFCE010E9478
:10068000B602E7CFDF91CF91089580E090E0892B0B
:1006900029F00E94AC0281110C9400000895EF92A1
:1006A000FF920F931F93CF9392EF980F8E3008F025
:1006B000892F8770C82FC0648AE0E82EF12C00E0F3
:1006C00010E0C0937C0080917A00806480937A006F
:1006D00080917A0086FDFCCF20917800809179008E
:1006E00030E0382B020F131F64E670E080E090E0EA
:1006F0000E94FE0181E0E81AF10819F7C8016AE0DA
:1007000070E00E946911CB01CF911F910F91FF9072
:10071000EF900895682F81EA93E00C940A0681EA2D
:1007200093E00C945E0681EA93E00C9476060E94B6
:10073000A5111F920F920FB60F9211242F933F9382
:100740004F935F936F937F938F939F93AF93BF93D9
:10075000EF93FF93E091FE02F091FF02309709F4CE
:1007600051C0968DA685B785858591FF04C09C9163
:10077000892329F447C09C91892309F043C0A389A8
:10078000B4899C918589809589238C9386899789E2
:100790000197F1F7608D718DA685B785558538E095
:1007A00020E0CB010197F1F7822F90E09595879596
:1007B000282F4C91452309F02068315091F7868D00
:1007C00081FD20958091FC0290E001968F7399271E
:1007D0003091FD02381749F0A091FC02B0E0A4541A
:1007E000BD4F2C938093FC0203C0868D8160868F61
:1007F000828D938D0197F1F7A389B4899C918589A6
:10080000892B8C93FF91EF91BF91AF919F918F9125
:100810007F916F915F914F913F912F910F900FBEFC
:100820000F901F9018951F93CF93DF93282F30E0E0
:10083000F901E35EFE4F8491F901EB58FD4FD4912D
:10084000F901EF59FD4FC491CC23C9F0162F811146
:100850000E948701EC2FF0E0EE0FFF1FE35BFD4FDE
:10086000A591B4918FB7F894111105C09C91ED2F0B
:10087000E095E92302C0EC91ED2BEC938FBFDF9163
:10088000CF911F910895CF93DF9390E0FC01EB5837
:10089000FD4F2491FC01EF59FD4F8491882361F1B4
:1008A00090E0880F991FFC01ED5EFE4FC591D49139
:1008B000FC01E35BFD4FA591B491611109C09FB7A5
:1008C000F8948881209582238883EC912E230BC095
:1008D000623061F49FB7F8943881822F809583232A
:1008E0008883EC912E2B2C939FBF06C08FB7F89472
:1008F000E8812E2B28838FBFDF91CF9108951F921F
:100900000F920FB60F9211242F933F938F939F93C3
:10091000AF93BF938091000390910103A0910203D4
:10092000B09103033091B70223E0230F2D3720F459
:100930000196A11DB11D05C026E8230F0296A11D39
:10094000B11D2093B7028093000390930103A093FD
:100950000203B09303038091B8029091B902A09171
:10096000BA02B091BB020196A11DB11D8093B802DD
:100970009093B902A093BA02B093BB02BF91AF911A
:100980009F918F913F912F910F900FBE0F901F90CD
:1009900018951F920F920FB60F9211242F933F9329
:1009A0004F935F936F937F938F939F93AF93BF9377
:1009B000EF93FF9384E093E00E94B602FF91EF91E2
:1009C000BF91AF919F918F917F916F915F914F9167
:1009D0003F912F910F900FBE0F901F9018951F926F
:1009E0000F920FB60F9211242F938F939F93EF9333
:1009F000FF93E0911403F09115038081E0911A03B5
:100A0000F0911B0382FD12C0908180911D038F5FC6
:100A10008F7320911E03821751F0E0911D03F0E0C7
:100A2000EC5FFC4F958F80931D0301C08081FF9187
:100A3000EF919F918F912F910F900FBE0F901F906C
:100A40001895CF93DF93CDB7DEB761970FB6F894C3
:100A5000DEBF0FBECDBF21E1EEE0F2E0DE01119678
:100A600001900D922A95E1F7AAECB4E012961C923F
:100A70001297BC0124E0769567952A95E1F79C01D1
:100A80002F70332741E050E04C0F5D1F240F351FBE
:100A9000F901208111962C931197892F9927E4E071
:100AA000880F991FEA95E1F7FB01E81BF90BE40FAA
:100AB000F51F80818C93CD0161960FB6F894DEBF4F
:100AC0000FBECDBFDF91CF910895CF93DF931092EA
:100AD000C904E8ECF4E0262F2E1BCAE0D0E0322F48
:100AE0003E0F009741F0BE010E945511805D80834A
:100AF000CB013197F4CF832FDF01119690E3815022
:100B000010F09E93FCCF81E090E0831B91098E0F43
:100B10009F1FDF91CF910895BF92CF92DF92EF9206
:100B2000FF920F931F93CF93DF937C01162FEA015F
:100B3000262F30E084E0359527958A95E1F70FE080
:100B4000822F802794E0220F331F9A95E1F7B82E69
:100B5000B22A8B2DF70109956E01F8E7CF0ED11C53
:100B6000F60180818F5F8083FE01E80FF11DE85858
:100B7000FF4FB0821F70F0E11F9FC00111241027AA
:100B8000182B812FF7010995F60180818F5F8083F3
:100B9000C80FD11DC858DF4F1883DF91CF911F9127
:100BA0000F91FF90EF90DF90CF90BF900895582F56
:100BB000FC0180E07CE89E2F951B961788F44191FC
:100BC00098E0A42FA827282F30E035952795822F6D
:100BD000A0FF02C0872F82274695915091F7EBCF57
:100BE00008952091FE023091FF022817390771F411
:100BF0009091FD028091FC02981741F0E091FD0276
:100C0000F0E0E454FD4F808190E008958FEF9FEF76
:100C1000089508951F93CF93DF93DC015C962D9187
:100C20003C915D972115310539F481E090E01396F0
:100C30009C938E9312973DC05196ED91FC915297E3
:100C400050969C915097892F80951FB75E964C9136
:100C50005E9741FB772770F941FD6095F8944081DC
:100C6000772311F0492B01C048234083E9012197E4
:100C7000F1F748E0508160FF02C0592B01C05823B2
:100C80005083E9012197F1F76695415099F7772351
:100C900021F090818923808303C08081982B9083E9
:100CA0001FBF5C968D919C915D970197F1F721E0B4
:100CB00030E0C901DF91CF911F9108952091FE028C
:100CC0003091FF022817390771F48091FC022091BE
:100CD000FD0290E0805C9F4F821B910960E470E010
:100CE0000E946911089580E090E008952091FE022D
:100CF0003091FF0228173907B9F49091FD028091D5
:100D0000FC02981789F0E091FD02F0E0E454FD4FF9
:100D100080812091FD0230E02F5F3F4F2F733327FA
:100D20002093FD0290E008958FEF9FEF08950097C4
:100D300069F0FC0101900020E9F73197AF01481BF1
:100D4000590BBC0184E093E00C94380280E090E001
:100D500008950C949706EF92FF921F93CF93DF9321
:100D60001F92CDB7DEB7611107C0382FFC016E2F7F
:100D7000631B21912111FBCF182F7C018E2D811B2C
:100D8000861788F4F70181917F01082E000C990BDA
:100D900069830E9421050E94A90685E392E00E94D2
:100DA000A9066981EBCF82E791E00F90DF91CF91A7
:100DB0001F91FF90EF900C94A906CF93DF931F92A1
:100DC000CDB7DEB769830E94A9066981862F90E0BE
:100DD0000E9421050E94A90682E791E00F90DF9111
:100DE000CF910C94A90690E00E9421050C94A906CD
:100DF0000F931F93CF93DF938C01C0E0D0E0F801F5
:100E0000EC0FFD1F6491662371F0E0910403F091F3
:100E100005030190F081E02D84E093E00995892B92
:100E200011F02196ECCFCE01DF91CF911F910F9160
:100E3000089589E392E00C949706E0910403F09101
:100E400005030190F081E02D682F84E093E0099480
:100E50008F929F92AF92BF920F931F93CF93DF9386
:100E6000CDB7DEB7A1970FB6F894DEBF0FBECDBFEA
:100E700019A2423008F44AE08E010F5D1F4F842E04
:100E8000912CA12CB12CA50194010E947D11E62F7B
:100E9000B901CA0101501109EA3014F4E05D01C042
:100EA000E95CD801EC93232B242B252B61F7C80197
:100EB0000E949706A1960FB6F894DEBF0FBECDBF75
:100EC000DF91CF911F910F91BF90AF909F908F9026
:100ED00008950F931F93CF93DF938B01EA010E9434
:100EE000A906C8010E94A906CE010E94A90682E7B0
:100EF00091E00E94A90682E791E00E94A90682E79C
:100F000091E0DF91CF911F910F910C94A906CF939F
:100F1000DF93DC01FB01EC012896485F98E0941315
:100F200005C041504C93DF91CF910895943421F046
:100F30009F5F81918993F3CF44E4F3CF2F923F9247
:100F40004F925F926F927F928F929F92AF92BF92D9
:100F5000CF92DF92EF92FF920F931F93CF93DF9385
:100F600000D000D000D0CDB7DEB726E0E1E3F2E05C
:100F7000DE01119601900D922A95E1F7FA01E450F5
:100F8000FF4F4080DA01A650BF4F33973C9120813C
:100F9000230F6A013BEFC30ED11CF6013081230FF2
:100FA000240D09F496C1FC012081243539F47A011D
:100FB000FCE3EF0EF11CFA0154AC06C0223509F037
:100FC00088C17A01FA0150808A01262E5C013A011B
:100FD000F8E76F0E711CF3013080552009F436C11B
:100FE000F70184818380912C982C8824880E911C91
:100FF0000E941907F801E250FF4F808191810E9401
:10100000A906C5010E94A90687E492E00E94F8069D
:10101000F70181810E94F30681E492E00E94F806C4
:10102000F70182810E94F30686E392E00E94F806AF
:1010300065E0C4010E9465050E94A906F801E3501D
:10104000FF4F208191E0F7018181281390E081E03A
:10105000F7013281231380E0890F39F08EE192E0AD
:101060000E94F806DD24D39406C086E092E00E9438
:10107000F806F601D080F5018081823589F487EF8A
:1010800091E00E94F806E22DF0E0EE0FFF1FE95E0E
:10109000FE4F808191810E94A9068DE50E941D0767
:1010A000DD2009F4D3C00E941907CE0101960E94E9
:1010B000A9068FED91E00E94F80663E0852D90E08F
:1010C0000E9465050E94A9068AED91E00E94F8063B
:1010D000F7016081C70101960E94AB06F9EF5F0E30
:1010E000CE0101960E94A90682EC91E00E94F806CA
:1010F000852C912C63E0C4010E9465050E94A9061D
:101100008DEB91E00E94F80695E1D92E80E20E94D5
:101110001D07DA94D110FACF670128E0C20ED11C66
:10112000652DC6010E94AB06CE0101960E94A9065C
:1011300085EA91E00E94F80663E0C4010E9465051B
:101140000E94A90680EA91E00E94F80685E1982EA7
:1011500080E20E941D079A949110FACF8BE50E94BD
:101160001D07511007C09C2DF6015E2E591A819162
:101170008111FBCF2C2C4601882D8219851558F43E
:10118000F40181914F0190EE980F9F3508F080E2B5
:101190000E941D07F1CF8DE50E941D070E941907CF
:1011A000F50180818235C9F4CE0101960E94A9061D
:1011B0008EE891E00E94F806F801EC50FF4F808124
:1011C0000E94F30685E392E00E94A906F801ED5023
:1011D000FF4F80810E94F3060CC0CE0101960E9451
:1011E000A906F801EE50FF4F60818FE192E00E9466
:1011F000DD06CE0101960E94A9068CE791E00E94CF
:10120000F80662E0C70103960E94AB06CE01019684
:101210000E94A9068AE691E00E94F806F7018581FE
:101220000E94F306CE0101960E94A90688E591E08E
:101230000E94F806F70186810E94F30685E392E09A
:101240000E94A906F70187810E94F306442009F451
:1012500040C03320F1F10E941907CE0101960E948F
:10126000A90687E491E00E94F806F301808163E01B
:1012700090E00E9465050E94A90682E491E00E9428
:10128000F806CE0101960E94A906F3016081C8010B
:1012900087589F4F0E94AB060E941907CE01019606
:1012A0000E94A90681E391E00E94F806F301808183
:1012B00063E090E00E9465050E94A906CE010196B8
:1012C0000E94A9066EEE630DC80188579F4F0E94C9
:1012D000AB0626960FB6F894DEBF0FBECDBFDF91EA
:1012E000CF911F910F91FF90EF90DF90CF90BF9023
:1012F000AF909F908F907F906F905F904F903F90B6
:101300002F900895DC018C9190E0FD01E90FF11D13
:10131000208124AF9F5F8917C0F708952F923F92D5
:101320004F925F926F927F928F929F92AF92BF92F5
:10133000CF92DF92EF92FF920F931F93CF93DF93A1
:10134000CDB7DEB72E970FB6F894DEBF0FBECDBF78
:101350008C017C876B871A0188E0EBE5F2E0DE0107
:10136000119601900D928A95E1F78FB7F8948090CD
:10137000000390900103A0900203B09003038FBF7D
:10138000780188E7E80EF11CF7011082F80110825D
:10139000512C412CC8018B509F4F9E878D87E75061
:1013A000FF4FFA87E9873801FEEF6F0E711C2FB7E8
:1013B000F8948091000390910103A0910203B091F1
:1013C00003032FBF88199909AA09BB09ED85FE857A
:1013D000408151816281738184179507A607B70701
:1013E00008F0FEC0F10109951816190604F7EB85FF
:1013F000FC8509956C01F70180818A3708F072C07D
:101400008F5F8083F801E80FF11DE858FF4FC0821D
:10141000C60199278936910509F4B8C09CF58E312B
:10142000910509F4B3C0E4F48330910509F455C083
:101430008F30910509F4AAC0029709F0AEC081E08F
:10144000F70180838FB7F894809000039090010398
:10145000A0900203B09003038FBF44244394A7CF0E
:101460008C33910509F492C024F48D9709F095C04E
:101470008DC08B34910509F489C08A35910509F036
:101480008CC084C0843B910509F480C09CF48738EB
:10149000910509F47BC02CF48837910509F07DC0D3
:1014A00075C08639910509F471C0853A910509F036
:1014B00074C06CC0823D910509F468C02CF4833C73
:1014C000910509F06AC062C0813E910509F45EC0D1
:1014D000803F910509F061C059C0F701508192E049
:1014E00060E00EC0F801E750FF4F8081882309F4C7
:1014F00084C0A80161E0CE0101960E949E077DC0D4
:101500009517A8F46F5FD801A60FB11D9801290F98
:10151000311DF901E758FF4F8081482F42954F70E8
:1015200031978081807F842B8C939E5FE9CFF80177
:10153000E60FF11DF080F801EC50FF4FF082615092
:10154000F8016193CF010E94D705F801ED50FF4FDC
:10155000808336968F1559F08081882309F44FC017
:10156000A80162E0CE0101960E949E0748C08081DA
:10157000882309F446C087E392E00E94A906A801E7
:1015800060E0CE0101960E949E073BC041100FCF44
:10159000F7018081815080830ACFF70180818150DB
:1015A0008083511011C0E985FA858081882361F01C
:1015B0000E941907F301808191810E94A9066C2D78
:1015C0008CE392E00E94DD06E985FA85808188231C
:1015D00029F06C2D85E392E00E94DD065394E7CE5E
:1015E000F801E750FF4F8081882369F0A80164E08B
:1015F000CE0101960E949E0706C081E005C082E0F0
:1016000003C080E001C084E02E960FB6F894DEBFE0
:101610000FBECDBFDF91CF911F910F91FF90EF9043
:10162000DF90CF90BF90AF909F908F907F906F9002
:101630005F904F903F902F9008959F92AF92BF92EE
:10164000CF92DF92EF92FF920F931F93CF93DF938E
:10165000CDB7DEB727970FB6F894DEBF0FBECDBF6C
:101660008C016B0187E0E3E6F2E0DE011196019068
:101670000D928A95E1F7F80194AC692DC801CD96D9
:101680000E94D705A82EF801EE50FF4F8083780105
:10169000F8E7EF0EF11CF701108282E0F6010995E0
:1016A000F70190819F5F9083F801E90FF11DE858E1
:1016B000FF4F82E08083BB24B3949B1450F0F80169
:1016C000EB0DF11DA80164ADC6010E948C05B39419
:1016D000F4CFA8016A2DC6010E948C0583E0F601B3
:1016E0000995F70180818F5F8083F801E80FF11D74
:1016F000E858FF4F83E08083F801E750FF4F808177
:10170000882331F0A80160E0CE0101960E949E0777
:1017100027960FB6F894DEBF0FBECDBFDF91CF91F5
:101720001F910F91FF90EF90DF90CF90BF90AF90FF
:101730009F900895262FFC01A3E0B1E0059631911A
:101740003D93E817F907D9F763E0822F90E00E94F4
:101750006505FC01808180930901818180930A01E4
:10176000828180930B010895EF92FF920F931F9354
:10177000CF93DF937A018C01C62FD0E0209791F0B0
:10178000F80181918F01082E000C990B0E94210510
:101790000E94A906C130D10519F0C7010E94A9060F
:1017A0002197ECCFDF91CF911F910F91FF90EF9098
:1017B0000895CF93DF93CDB7DEB7C757D1090FB6E2
:1017C000F894DEBF0FBECDBF789484B5826084BD2F
:1017D00084B5816084BD85B5826085BD85B5816035
:1017E00085BD80916E00816080936E0010928100B3
:1017F000809181008260809381008091810081606E
:10180000809381008091800081608093800080912E
:10181000B10084608093B1008091B00081608093BA
:10182000B00080917A00846080937A0080917A0081
:10183000826080937A0080917A00816080937A0040
:1018400080917A00806880937A001092C10060E0F5
:1018500081E00E94430460E087E00E94430460E06E
:1018600088E00E94430461E08AE00E94430461E052
:101870008BE00E94430461E08CE00E94430461E03D
:101880008DE00E9443041092BC031092BB0310929F
:10189000BA031092B9031092B8031092B7038DE9FE
:1018A00091E09093BE038093BD039091AD03963178
:1018B00008F057C02DEB30E03093B8032093B70306
:1018C0002BE931E03093BA032093B9032CE231E0E5
:1018D0003093BC032093BB0320916800983050F0F4
:1018E00031E09E3008F430E081E001C0880F3A9585
:1018F000EAF701C084E0822B80936800983038F0CA
:101900009E3040F0963148F020E030E008C02DE6EF
:1019100030E005C02BE630E002C02CE630E030932A
:10192000B5032093B403983030F481E001C0880FF0
:101930009A95EAF70EC0292F30E09E3018F428500F
:10194000310902C02E50310981E001C0880F2A956B
:10195000EAF78093B6038091BD039091BE0301978F
:10196000F1F78091BB039091BC03892B21F1809109
:10197000FE029091FF0223E0813A9207E1F0009786
:1019800011F00E9471018091BF038E7F8093BF038D
:101990001092FC021092FD0281EA93E09093FF0204
:1019A0008093FE02E091B403F091B50390818091A1
:1019B000B603892B808300EC13E01093B6020093EA
:1019C000B50261E084E00E94430460E084E00E948C
:1019D0001304E0911403F091150382E08083E091F9
:1019E0001003F09111031082E0911203F0911303A0
:1019F0008FEC808310921C03E0911803F09119037F
:101A000086E08083E0911603F09117038081806166
:101A10008083E0911603F0911703808188608083B2
:101A2000E0911603F0911703808180688083E09134
:101A30001603F091170380818F7D808380E090E012
:101A40000E94AA11682F8093B0021093B4020093F1
:101A5000B3028CEF93E09093B2028093B102609353
:101A6000BD046B3008F0DCC08BE491E00E949A0B5F
:101A700080E091E09093BF048093BE041092B9047B
:101A80001092BA041092BB041092BC0480EA96E84B
:101A9000A1E0B0E08093B5049093B604A093B7049E
:101AA000B093B80481E08093AE021092AF0240ED93
:101AB000C42E47E0D42EE12CF12C1AE107E0E0918E
:101AC000B302F091B402108248EA52E06AE872E090
:101AD0008091B5029091B6020E948E09B82E84E0E2
:101AE000B81216C080E091E00E94A90681E890E05B
:101AF0000E94F806E091B502F091B602EB50FF4F5C
:101B000060817181828193814AE00E9428071FC011
:101B10008090B5029090B602C4010E9482096EE1E5
:101B200073E0C4010E941D0BB110C9CFE091B30254
:101B3000F091B40292818091B00298130BC080E0C2
:101B400091E00E94A90688E690E00E94F8060E94B3
:101B50001907B5CFA090B502B090B602C5010E949A
:101B6000820961E084E00E9413046AE873E0C50121
:101B70000E941D0B60E084E00E9413048091B50276
:101B80009091B602FC01EB50FF4FC082D182E282FD
:101B9000F3824FE853E063E973E00E948E09B82EA8
:101BA000882381F18091B3029091B402FC012281DB
:101BB000218321E02283E7E9F1E0DE011196212F64
:101BC00001900D922A95E1F7EB2DF0E0EE0FFF1F4B
:101BD000E95EFE4F2081A22FB181402F421B342F9E
:101BE0003A0F2D91222341F0E1E0F0E0EC0FFD1FD0
:101BF000E30FF11D2083F3CF4AE1BE016F5F7F4FFA
:101C00000E9487078090B5029090B602C4010E949E
:101C10008209A4016B2D81E591E00E949E074FCFC0
:101C200089E591E00E949A0B80E091E09093BF04D7
:101C30008093BE0481E08093B9048093BA0410922B
:101C4000BB041092BC048093AF0298E8892E93E104
:101C5000992EA12CB12C10E127E0622E08E0809192
:101C6000B5029091B602FC01EB50FF4F8082918249
:101C7000A282B3824FE853E063E973E00E948E09C9
:101C8000F82EC090B302D090B402811115C2E0903A
:101C9000B502F090B602F6017180508441849281C1
:101CA0008091B0029813DBCFE1EBF1E0DE01DB962F
:101CB000812F01900D928A95E1F7E1ECF1E0DE01D0
:101CC0009B96812F01900D928A95E1F7E1EDF1E06D
:101CD000DE01AF58BF4F862D01900D928A95E1F736
:101CE000E8EDF1E0DE01A759BF4F802F01900D9282
:101CF0008A95E1F78FE0E0EEF1E0DE01A65ABF4FF2
:101D000001900D928A95E1F78FE0EFEEF1E0DE01B0
:101D1000A55BBF4F01900D928A95E1F7EEEFF1E0E0
:101D2000DE015B96812F01900D928A95E1F7C70144
:101D30000E948209F6018681813379F038F483307C
:101D400009F467C1813209F491C183C1823309F476
:101D5000A7C0833309F48AC17CC1F601878185302D
:101D600071F1863009F46CC0843009F08AC080912A
:101D7000AF02882399F0AE01465A5F4FBE01675902
:101D80007F4F81E191E00E946907852D90E0A0E0FE
:101D9000B0E04AE0BC01CD010E942807852D0E94D9
:101DA000B00189834FE0BE01665A7F4F8091B10236
:101DB0009091B2020E9487075524539463C080918A
:101DC000AF02882399F0AE01455B5F4FBE016759B2
:101DD0007F4F81E191E00E946907852D90E0A0E0AE
:101DE000B0E04AE0BC01CD010E942807852D0E9489
:101DF000B001D82E481621F0642D852D0E941304C1
:101E00006AE070E080E090E00E94FE01852D0E9473
:101E1000B001D9828A838091AF02882371F042E7B2
:101E200051E0BA018FE591E00E9469074EE651E06A
:101E300062E0CE0101960E94B40B82E0582E22C0CF
:101E40008091AF02882399F0AE01455E5F4FBE01DD
:101E500067597F4F81E191E00E946907852D90E0ED
:101E6000A0E0B0E04AE0BC01CD010E942807852D2A
:101E70000E94B001D82E811102C061E0BECF60E0A7
:101E8000BCCF512CC090B102D090B202452DBE0102
:101E90006F5F7F4FC6010E948707F6011582E7C07A
:101EA00080E791E00E94A90681E191E00E94A906E5
:101EB000CE018F589F4F0E94A90683E791E00E94B0
:101EC000A90661E070E080E090E022EF250D283067
:101ED00018F060E070E0CB014AE00E942807E09132
:101EE000B302F091B4028781843019F0853091F00B
:101EF00085C0CE01865A9F4F0E94A906652D70E0CD
:101F000080E090E04AE00E9428070E941907852D92
:101F100090E071C0CE01855B9F4F0E94A906852D80
:101F200090E0A0E0B0E04AE0BC01CD010E942807AB
:101F30000E941907242C312C61E0852D0E94430456
:101F4000C52CD12C2114310409F448C0FFEF2F1601
:101F5000310409F445C0F601E35EFE4FE491E3303D
:101F6000F9F048F4E130B9F0E230A1F584B58062CF
:101F700084BD48BC39C0E730E9F0E83019F1E430FD
:101F800049F58091800080628093800030928B00C0
:101F900020928A0029C084B5806884BD47BC24C0D3
:101FA0008091800080688093800030928900209228
:101FB00088001AC08091B00080688093B000409281
:101FC000B30012C08091B00080628093B000409254
:101FD000B4000AC020E82216310414F460E001C005
:101FE00061E0852D0E94130464EF71E080E090E0D1
:101FF0000E94FE01C6010E944F0301C080E0898358
:10200000C090B102D090B20241E0BE016F5F7F4F3D
:102010001AC0F6018781823049F581E791E00E947C
:10202000A90681E191E00E94A90686EA90E00E945B
:10203000F8060E941907C090B102D090B20240E1A8
:10204000BE01655C7F4FC6010E948707F6011582BD
:102050000DC0C090B102D090B20240E1BE01655DFA
:102060007F4FC6010E948707F6010583512CE0913E
:10207000B102F091B20272828091B002818342E794
:1020800051E066E871E081E191E00E94690745E373
:1020900052E0652DCE0101960E94B40B61E084E010
:1020A0000E9413046AE873E0C7010E941D0B60E000
:1020B00084E00E941304D3CDF6018081811116C003
:1020C00080E091E00E94A9068EEE90E00E94F80662
:1020D000E091B502F091B602EB50FF4F6081718143
:1020E000828193814AE00E94280713C080E091E03A
:1020F0000E94A90682EE90E00E94F8066F2D70E023
:1021000080E090E04AE00E94280785EC90E00E9481
:10211000F8060E941907A3CD8DE391E09093A203E6
:102120008093A10381EA93E00C947101109207035C
:102130001092060388EE93E0A0E0B0E080930803DD
:1021400090930903A0930A03B0930B032BE231E0B1
:10215000309305032093040325EC30E03093110302
:102160002093100324EC30E03093130320931203E8
:1021700020EC30E0309315032093140321EC30E081
:10218000309317032093160322EC30E030931903A9
:102190002093180326EC30E030931B0320931A039E
:1021A00010921D0310921E0310921F031092200321
:1021B00040EA56E861E070E04093B5045093B604FD
:1021C0006093B7047093B8041092B9041092BA04E3
:1021D0001092BB041092BC041092A4031092A303AB
:1021E0008093A5039093A603A093A703B093A8039D
:1021F0008DE391E09093A2038093A1031092B80322
:102200001092B7031092BA031092B9031092BC0354
:102210001092BB031092BE031092BD036091BF03E6
:102220006E7F6D7F6093BF036695617081E0682764
:1022300082E00E94130461E082E00E944304E7E729
:10224000F2E0E491E093B103E3E6F2E0E491F0E040
:10225000EE0FFF1FE35BFD4F859194919093B303C5
:102260008093B20360E083E00E9443048091BF0347
:1022700081FD04C061E083E00E94130483E0809349
:10228000AD03E8E7F2E0E491E093AE03E4E6F2E0C8
:10229000E491F0E0EE0FFF1FE95AFD4F8591949114
:1022A0009093B0038093AF030895AA1BBB1B51E129
:1022B00007C0AA1FBB1FA617B70710F0A61BB70BB6
:1022C000881F991F5A95A9F780959095BC01CD015B
:1022D000089597FB072E16F4009407D077FD09D0D8
:1022E0000E94551107FC05D03EF4909581959F4FB3
:1022F0000895709561957F4F0895A1E21A2EAA1B4B
:10230000BB1BFD010DC0AA1FBB1FEE1FFF1FA217A5
:10231000B307E407F50720F0A21BB30BE40BF50BA2
:10232000661F771F881F991F1A9469F7609570952B
:10233000809590959B01AC01BD01CF010895EE0FF2
:10234000FF1F0590F491E02D099481E090E0F8944E
:102350000C94B211F999FECF92BD81BDF89A9927DC
:1023600080B5089511E0C6E4D1E004C0FE010E94EA
:0E2370009F112196C734D107C9F7F894FFCF0B
:10237E000D0A5B59595959592D7878785D202D20C1
:10238E00000A20202020006A026D0276027E02875B
:10239E00028F029702A80200000000D702380267DF
:1023AE000223039C0276028E02000000000A063809
:1023BE0002640209065E067606F10552656C6179C5
:1023CE000052582D7878787800536C61766500202D
:1023DE006265666F72652F616674657220002F00EC
:1023EE000A0A002069732070696E20416E616C6F5D
:1023FE00673F202D3E0072657475726E696E6720A0
:10240E00446174613A20004552524F523A202E2EAA
:10241E002E2E2E2E2E2E206F636375727265642102
:10242E0000506F6C6C696E6720616E7377657221F8
:10243E0000554E4B4E4F574E20636F6D6D616E645F
:10244E0000414E414C4F47004449474954414C00CE
:10245E00202D2072656164202070696E3A20002064
:10246E002D2077726974652070696E3A2000202DD8
:10247E0020746F67676C652070696E3A200030318A
:10248E003233343536373839414243444546007885
:10249E004D697474656420435243203078203A208D
:1024AE00000A20202020000D0A0D0A006C696252DD
:1024BE00454356202D20756E657870657874656479
:1024CE0020627974652873293A200052582D646170
:1024DE0074610054582D6C6962004F4B004F564585
:1024EE0052464C4F57004241442D43524300424105
:1024FE00442D434841520054494D454F55540050C8
:10250E0041594C4F41440057414954494E475F464B
:0E251E004F525F44415441004445425547002E
:00000001FF
