:100000000C9424010C944C010C944C010C949B070F
:100010000C949B070C949B070C944C010C944C0182
:100020000C944C010C944C010C944C010C944C011C
:100030000C944C010C944C010C944C010C944C010C
:100040000C941E0B0C944C010C948E0B0C94680BAE
:100050000C944C010C944C010C944C010C944C01EC
:100060000C944C010C944C01434D44202072617758
:10007000202D202020202020005D202D20006675CE
:100080006C6C20726177202D206C656E3A5B0043AA
:100090004D442F737562434D4420203078203A2020
:1000A00000434D445F52436F646520202030782028
:1000B0003A20005345514E4F202020202020203050
:1000C00078203A2000435243205265632F43616CED
:1000D000203078203A20005D202D2000636F6D6D68
:1000E000616E644461746120617363202D206C65CE
:1000F0006E3A5B005D202D2000636F6D6D616E6454
:100100004461746120686578202D206C656E3A5BCF
:10011000005D202D200066756C6C446174612020A8
:100120002020686578202D206C656E3A5B00202DBC
:10013000205B72637664436F64653A2000202D2053
:100140005B69742773204E4F5420666F72206D6573
:100150002E2E2E5D00202D205B574F5720697427CF
:100160007320666F72206D652E2E2E5D00202D206F
:100170005365714E4F3A20005D002F00202D2D3E1B
:10018000205B005D002F00202D205B0000000000A0
:10019000250028002B000000000023002600290075
:1001A000040404040404040402020202020203031D
:1001B0000303030301020408102040800102040825
:1001C0001020010204081020707265706172696E5F
:1001D0006720726573706F6E7365206D65737361F0
:1001E00067652E2E2E2000202D204E657373756EB0
:1001F00061207269636869657374612072696365FF
:100200007675746120696E20756E2074656D706FEF
:10021000206469206D533A20007263766452436F04
:1002200064653A200000000000240027002A000036
:1002300000000800020100000304070000000000A5
:1002400000000000C00BC20E11241FBECFEFD8E08B
:10025000DEBFCDBF12E0A0E0B1E0ECE6FEE102C0FF
:1002600005900D92A835B107D9F724E0A8E5B2E0D2
:1002700001C01D92A937B207E1F711E0C3E2D1E056
:1002800004C02197FE010E94160FC232D107C9F7A0
:100290000E947D0C0C94290F0C940000CF93DF93E7
:1002A000CDB7DEB761970FB6F894DEBF0FBECDBFF6
:1002B00021E1E2E5F1E0DE01119601900D922A952F
:1002C000E1F7A6E6B4E012961C921297BC0124E076
:1002D000769567952A95E1F79C012F70332741E0C9
:1002E00050E04C0F5D1F240F351FF901208111963E
:1002F0002C931197892F9927E4E0880F991FEA958D
:10030000E1F7FB01E81BF90BE40FF51F80818C93EB
:10031000CD0161960FB6F894DEBF0FBECDBFDF9161
:10032000CF910895CF93DF9310926504E4E6F4E053
:10033000262F2E1BCAE0D0E0322F3E0F009741F04F
:10034000BE010E94CC0E805D8083CB013197F4CF3B
:10035000832FDF01119690E3815010F09E93FCCF24
:1003600081E090E0831B91098E0F9F1FDF91CF9159
:100370000895E0916102F09162020190F081E02D18
:10038000682F81E692E00994BF92CF92DF92EF92BC
:10039000FF920F931F93CF93DF937C01162FEA01F7
:1003A000262F30E084E0359527958A95E1F70FE018
:1003B000822F802794E0220F331F9A95E1F7B82E01
:1003C000B22A8B2DF70109956E01F8E7CF0ED11CEB
:1003D000F60180818F5F8083FE01E80FF11DE858F0
:1003E000FF4FB0821F70F0E11F9FC0011124102742
:1003F000182B812FF7010995F60180818F5F80838B
:10040000C80FD11DC858DF4F1883DF91CF911F91BE
:100410000F91FF90EF90DF90CF90BF900895582FED
:10042000FC0180E07CE89E2F951B961788F4419193
:1004300098E0A42FA827282F30E035952795822F04
:10044000A0FF02C0872F82274695915091F7EBCFEE
:10045000089520915A0230915B022817390771F4F0
:100460009091590280915802981741F0E0915902F9
:10047000F0E0E45EFB4F808190E008958FEF9FEF06
:10048000089508951F93CF93DF93DC015C962D911F
:100490003C915D972115310539F481E090E0139688
:1004A0009C938E9312973DC05196ED91FC9152977B
:1004B00050969C915097892F80951FB75E964C91CE
:1004C0005E9741FB772770F941FD6095F894408174
:1004D000772311F0492B01C048234083E90121977C
:1004E000F1F748E0508160FF02C0592B01C058234A
:1004F0005083E9012197F1F76695415099F77723E9
:1005000021F090818923808303C08081982B908380
:100510001FBF5C968D919C915D970197F1F721E04B
:1005200030E0C901DF91CF911F91089520915A02C7
:1005300030915B022817390771F48091580220919D
:10054000590290E0805C9F4F821B910960E470E04B
:100550000E94E00E089580E090E0089520915A02F4
:1005600030915B0228173907B9F4909159028091B4
:100570005802981789F0E0915902F0E0E45EFB4FD1
:1005800080812091590230E02F5F3F4F2F73332736
:100590002093590290E008958FEF9FEF0895009700
:1005A00069F0FC0101900020E9F73197AF01481B89
:1005B000590BBC0181E692E00C94A40880E090E025
:1005C000089587E791E00C94CF020C94CF02EF924C
:1005D000FF921F93CF93DF931F92CDB7DEB76111C8
:1005E00007C0382FFC016E2F631B21912111FBCF17
:1005F000182F7C018E2D811B861788F4F7018191BD
:100600007F01082E000C990B69830E944E010E9405
:10061000E50283E791E00E94E5026981EBCF88E182
:1006200092E00F90DF91CF911F91FF90EF900C948B
:10063000E502CF93DF931F92CDB7DEB769830E94A7
:10064000E5026981862F90E00E944E010E94E5023A
:1006500088E192E00F90DF91CF910C94E50290E059
:100660000E944E010C94E5020F931F93CF93DF93EA
:100670008C01C0E0D0E0F801EC0FFD1F649166230F
:1006800071F0E0916102F09162020190F081E02D41
:1006900081E692E00995892B11F02196ECCFCE01ED
:1006A000DF91CF911F910F9108958F929F92AF92FA
:1006B000BF920F931F93CF93DF93CDB7DEB7A19770
:1006C0000FB6F894DEBF0FBECDBF19A2423008F4BA
:1006D0004AE08E010F5D1F4F842E912CA12CB12C6E
:1006E000A50194010E94F40EE62FB901CA01015040
:1006F0001109EA3014F4E05D01C0E95CD801EC9323
:10070000232B242B252B61F7C8010E94CF02A19631
:100710000FB6F894DEBF0FBECDBFDF91CF911F9112
:100720000F91BF90AF909F908F900895CF93DF93DC
:10073000DC01411107C0962FFB014E2F491B81910F
:100740008111FBCFFB01ED012896495F97E09413DF
:1007500005C091509C93DF91CF9108959334C9F3D4
:100760009F5F81918993F3CF5F926F927F928F9277
:100770009F92AF92BF92CF92DF92EF92FF920F9330
:100780001F93CF93DF93FA01EB50FF4F2081222379
:1007900009F4BCC1FC012081243519F4EA01EC966E
:1007A00004C0223509F0B2C1EA0170915C0231E067
:1007B0002981721330E021E0EA817E1320E0632E6C
:1007C000620EFA01EA50FF4F2081211103C066201A
:1007D00009F49CC18A01F62E6C01E8805A01F8E701
:1007E000AF0EB11CF5017080EE2009F438C18C8188
:1007F0008B80912C982C8824880E911C0E94E102F9
:10080000F801E750FF4F808191810E94E502C60107
:100810000E94E50287E891E00E94340389810E94EA
:100820002F0385E891E00E943403898163E090E022
:100830000E9492010E94E50283E891E00E94340345
:100840008CE791E00E9434038A810E942F038AE79B
:1008500091E00E9434038A8163E090E00E9492015B
:100860000E94E50288E791E00E9434038DE691E062
:100870000E94340365E0C4010E9492010E94E502D7
:10088000662019F085E591E002C08DE391E00E94B9
:100890003403F6018081823589F48EE291E00E9472
:1008A0003403EF2DF0E0EE0FFF1FE85EFE4F808176
:1008B00091810E94E5028DE50E94B9010E94E1024A
:1008C00082E191E00E94E50286E191E00E9434031A
:1008D000FE0181914F0163E090E00E9492010E942D
:1008E000E50281E191E00E9434036881C4010E9425
:1008F000E70299EF692E6E0C82E191E00E94E50219
:1009000089EF90E00E943403862C912C63E0C401AF
:100910000E9492010E94E50284EF90E00E9434035D
:1009200025E1F22E80E20E94B901FA94F110FACF8B
:100930007E01F8E0EF0EF11C662DC7010E94E70270
:1009400082E191E00E94E5028CED90E00E94340388
:1009500063E0C4010E9492010E94E50287ED90E0ED
:100960000E94340385E1982E80E20E94B9019A9496
:100970009110FACF8BE50E94B901611007C09E2D3E
:10098000F7016E2E691A81918111FBCF5E2C470110
:10099000882D8519861558F4F40181914F0190EE48
:1009A000980F9F3508F080E20E94B901F1CF8DE5E4
:1009B0000E94B9010E94E102F60180818235C9F4EA
:1009C00082E191E00E94E50285EC90E00E94340310
:1009D000F801EC50FF4F80810E942F0383E791E0E4
:1009E0000E94E502F801ED50FF4F80810E942F0325
:1009F0000CC082E191E00E94E502F801EE50FF4F49
:100A0000608183E691E00E94190382E191E00E94F7
:100A1000E50283EB90E00E94340362E0CE0103968E
:100A20000E94E70282E191E00E94E50281EA90E003
:100A30000E9434038D810E942F0382E191E00E9485
:100A4000E5028FE890E00E9434038E810E942F031C
:100A500083E791E00E94E5028F810E942F037720B7
:100A600009F454C0F801E950FF4F8081882309F44C
:100A70004DC00E94E10282E191E00E94E5028EE712
:100A800090E00E943403F501808163E090E00E94D1
:100A900092010E94E50289E790E00E94340382E11E
:100AA00091E00E94E502F5016081C80187589F4FDF
:100AB0000E94E7020E94E10282E191E00E94E502C9
:100AC00088E690E00E943403F501808163E090E0C5
:100AD0000E9492010E94E50282E191E00E94E502FB
:100AE0006EEE670DC80188579F4FDF91CF911F9120
:100AF0000F91FF90EF90DF90CF90BF90AF909F90BD
:100B00008F907F906F905F900C94E702DF91CF9170
:100B10001F910F91FF90EF90DF90CF90BF90AF901B
:100B20009F908F907F906F905F9008952F923F924B
:100B30004F925F926F927F928F929F92AF92BF92ED
:100B4000CF92DF92EF92FF920F931F93CF93DF9399
:100B5000CDB7DEB72A970FB6F894DEBF0FBECDBF74
:100B60008C0188E0E9E9F1E0DE01119601900D9237
:100B70008A95E1F78FB7F89420905D0230905E027D
:100B800040905F02509060028FBF780188E7E80EC6
:100B9000F11CF7011082F8011082B12CA12CC801C0
:100BA00085509F4F9A878987EB50FF4F4F0138013F
:100BB000F9EF6F0E711C2FB7F89480915D02909140
:100BC0005E02A0915F02B09160022FBF821993096B
:100BD000A409B509E985FA85408151816281738153
:100BE00084179507A607B70708F0FBC00E94A50960
:100BF0001816190604F70E94A9096C01F7018081F3
:100C00008A3708F072C08F5F8083F801E80FF11D0A
:100C1000E858FF4FC082C60199278936910509F42B
:100C2000B8C09CF58E31910509F4B3C0E4F483306B
:100C3000910509F455C08F30910509F4AAC00297B7
:100C400009F0AEC081E0F70180838FB7F89420905F
:100C50005D0230905E0240905F02509060028FBF54
:100C6000AA24A394A8CF8C33910509F492C024F44C
:100C70008D9709F095C08DC08B34910509F489C01A
:100C80008A35910509F08CC084C0843B910509F434
:100C900080C09CF48738910509F47BC02CF4883718
:100CA000910509F07DC075C08639910509F471C0C0
:100CB000853A910509F074C06CC0823D910509F434
:100CC00068C02CF4833C910509F06AC062C0813E83
:100CD000910509F45EC0803F910509F061C059C0DB
:100CE000F701508192E060E00EC0F801EB50FF4F39
:100CF0008081882309F482C0A80161E0CE010196B9
:100D00000E94B4037BC09517A8F46F5FD801A60FAB
:100D1000B11D9801290F311DF901E758FF4F80815E
:100D2000482F42954F7031978081807F842B8C9320
:100D30009E5FE9CFF801E60FF11DF080F801EC505D
:100D4000FF4FF0826150F8016193CF010E940F02C2
:100D5000F801ED50FF4F808332968F1559F0808156
:100D6000882309F44DC0A80162E0CE0101960E94DB
:100D7000B40346C08081882309F444C085E791E02C
:100D80000E94E502A80160E0CE0101960E94B40332
:100D900039C0A11010CFF7018081815080830BCF23
:100DA000F701808181508083B11010C0F4018081EF
:100DB000882361F00E94E102F301808191810E9409
:100DC000E5026C2D8AE791E00E941903F40180810D
:100DD000882329F06C2D83E791E00E941903B394D6
:100DE000EACEF801EB50FF4F8081882369F0A8011B
:100DF00064E0CE0101960E94B40306C081E005C004
:100E000082E003C080E001C084E02A960FB6F89427
:100E1000DEBF0FBECDBFDF91CF911F910F91FF902D
:100E2000EF90DF90CF90BF90AF909F908F907F908A
:100E30006F905F904F903F902F9008959F92AF9248
:100E4000BF92CF92DF92EF92FF920F931F93CF93B7
:100E5000DF93CDB7DEB727970FB6F894DEBF0FBE8E
:100E6000CDBF8C016B0187E0E1EAF1E0DE01119674
:100E700001900D928A95E1F7F80194AC692DC801B3
:100E8000CD960E940F02A82EF801EE50FF4F8083EE
:100E90007801F8E7EF0EF11CF701108282E0F6010D
:100EA0000995F70190819F5F9083F801E90FF11D8B
:100EB000E858FF4F82E08083BB24B3949B1450F02A
:100EC000F801EB0DF11DA80164ADC6010E94C4013B
:100ED000B394F4CFA8016A2DC6010E94C40183E037
:100EE000F6010995F70180818F5F8083F801E80F93
:100EF000F11DE858FF4F83E08083F801EB50FF4F6E
:100F00008081882331F0A80160E0CE0101960E9423
:100F1000B40327960FB6F894DEBF0FBECDBFDF91A6
:100F2000CF911F910F91FF90EF90DF90CF90BF90E6
:100F3000AF909F9008951F920F920FB60F921124B9
:100F40002F933F934F935F936F937F938F939F93D1
:100F5000AF93BF93EF93FF93E0915A02F0915B023E
:100F6000309709F451C0968DA685B785858591FF88
:100F700004C09C91892329F447C09C91892309F0DE
:100F800043C0A389B4899C918589809589238C93DA
:100F9000868997890197F1F7608D718DA685B78550
:100FA000558538E020E0CB010197F1F7822F90E0E2
:100FB00095958795282F4C91452309F0206831504D
:100FC00091F7868D81FD20958091580290E00196E1
:100FD0008F73992730915902381749F0A091580220
:100FE000B0E0A45EBB4F2C938093580203C0868D63
:100FF0008160868F828D938D0197F1F7A389B489E3
:101000009C918589892B8C93FF91EF91BF91AF9132
:101010009F918F917F916F915F914F913F912F9110
:101020000F900FBE0F901F901895E0915A02F0910B
:101030005B02E817F90769F4A389B4899C91858953
:10104000809589238C9310925B0210925A0281E062
:10105000089580E00895262FFC01A3E0B1E00596F5
:1010600031913D93E817F907D9F763E0822F90E0BB
:101070000E949201FC01808180930901818180930B
:101080000A01828180930B0108953FB7F894809103
:10109000750490917604A0917704B091780426B5F8
:1010A000A89B05C02F3F19F00196A11DB11D3FBFA0
:1010B000BA2FA92F982F8827820F911DA11DB11D2E
:1010C000BC01CD0142E0660F771F881F991F4A952A
:1010D000D1F708958F929F92AF92BF92CF92DF92F5
:1010E000EF92FF926B017C010E9445084B015C016D
:1010F000C114D104E104F104F1F00E944508DC01BF
:10110000CB0188199909AA09BB09883E9340A1051A
:10111000B10570F321E0C21AD108E108F10888EEA8
:10112000880E83E0981EA11CB11CC114D104E104F7
:10113000F10419F7DDCFFF90EF90DF90CF90BF90D3
:10114000AF909F908F900895CF92DF92EF92FF9291
:101150000F931F93CF93DF936C017A018B01C0E053
:10116000D0E0CE15DF0589F0D8016D918D01D60153
:10117000ED91FC910190F081E02DC6010995892B3C
:1011800011F47E0102C02196ECCFC701DF91CF910F
:101190001F910F91FF90EF90DF90CF900895FC0189
:1011A000918D828D981761F0828DDF01A80FB11D9E
:1011B0005D968C91928D9F5F9F73928F90E00895C2
:1011C0008FEF9FEF0895FC01918D828D981731F07C
:1011D000828DE80FF11D858D90E008958FEF9FEFD0
:1011E0000895FC01918D228D892F90E0805C9F4FA6
:1011F000821B91098F739927089581E692E00E94DE
:10120000F10821E0892B09F420E0822F0895FC01E8
:10121000848DDF01A80FB11DA35ABF4F2C91848D7F
:1012200090E001968F739927848FA689B7892C93B4
:10123000A089B1898C9180648C93938D848D98134F
:1012400006C00288F389E02D80818F7D8083089518
:10125000EF92FF920F931F93CF93DF93EC0181E006
:10126000888F9B8D8C8D981305C0E889F9898081C2
:1012700085FD24C0F62E0B8D10E00F5F1F4F0F73FE
:101280001127E02E8C8DE8120CC00FB607FCFACFA8
:10129000E889F989808185FFF5CFCE010E94070991
:1012A000F1CF8B8DFE01E80FF11DE35AFF4FF08265
:1012B0000B8FEA89FB898081806207C0EE89FF89F4
:1012C0006083E889F98980818064808381E090E08F
:1012D000DF91CF911F910F91FF90EF900895CF93E1
:1012E000DF93EC01888D8823C9F0EA89FB8980812E
:1012F00085FD05C0A889B9898C9186FD0FC00FB600
:1013000007FCF5CF808185FFF2CFA889B9898C9140
:1013100085FFEDCFCE010E940709E7CFDF91CF9186
:10132000089580E090E0892B29F00E94FD0881114A
:101330000C9400000895682F81E692E00C9428092F
:10134000682F8EEF92E00C9442028EEF92E00C94A4
:1013500096028EEF92E00C94AE020E941C0F90E079
:10136000FC01E15DFD4F3491FC01EC54FE4F2491F2
:10137000FC01E056FE4FE491EE2309F43BC0332319
:1013800039F1333091F038F43130A9F0323001F5D1
:1013900084B58F7D12C0373091F03830A1F03430F1
:1013A000B9F4809180008F7D03C0809180008F7799
:1013B000809380000DC084B58F7784BD09C0809173
:1013C000B0008F7703C08091B0008F7D8093B00014
:1013D000F0E0EE0FFF1FE457FE4FA591B4918FB7D9
:1013E000F894EC91611103C020952E2301C02E2B9F
:1013F0002C938FBF08954F925F926F927F929F922E
:10140000AF92BF92CF92DF92EF92FF920F931F9312
:10141000CF93DF93CDB7DEB7E6970FB6F894DEBF74
:101420000FBECDBF8C0186E0E6E4F1E0DE01D09690
:1014300001900D928A95E1F71EAA92E0992EEE2472
:10144000E39427E0F22E31E1D32E58018BEFA80E62
:10145000B11C40ED442E47E0542E612C712C5EE10E
:10146000C52E8EA9833008F08EC0F80111828EA996
:10147000FE013196E80FF11DE80FF11D87A5F80177
:101480008283809170049091710493838483158288
:101490009682E782F082EBEDF1E0DE015F968D2D22
:1014A00001900D928A95E1F740E0BE01615E7F4FA9
:1014B000C8010E949603F801908180E0F801E80FCE
:1014C000F11D208124AF8F5F9817C0F761E084E0A1
:1014D0000E94AF0960EA79E0C8010E941E0760E03F
:1014E00084E00E94AF09F5014082518262827382DA
:1014F000C8010E949605882361F1F80192819183C9
:101500001282ECEEF1E0DE0111969C2D01900D921D
:101510009A95E1F7E82FF0E0EE0FFF1FE85EFE4F2F
:101520008081A82FB1812F2D281B922F9A0F8D918A
:10153000882341F0E1E0F0E0EC0FFD1FE90FF11D21
:101540008083F3CF40E0BE016F5F7F4FC8010E94F0
:101550009603F801908180E0F801E80FF11D2081E9
:1015600024AF8F5F9817C0F76BE979E0C8010E943C
:101570001E0760E177E280E090E00E946A088EA991
:101580008F5F8EAB6ECF8091700490917104019645
:101590009093710480937004E6960FB6F894DEBFC2
:1015A0000FBECDBFDF91CF911F910F91FF90EF90B4
:1015B000DF90CF90BF90AF909F907F906F905F90A3
:1015C0004F900895CF93DF9390E0FC01EC54FE4FD1
:1015D0002491FC01E056FE4F8491882361F190E054
:1015E000880F991FFC01EB5DFD4FC591D491FC0163
:1015F000E457FE4FA591B491611109C09FB7F894CB
:101600008881209582238883EC912E230BC0623041
:1016100061F49FB7F8943881822F80958323888363
:10162000EC912E2B2C939FBF06C08FB7F894E881C6
:101630002E2B28838FBFDF91CF9108951F920F9299
:101640000FB60F9211242F933F938F939F93AF93D5
:10165000BF9380915D0290915E02A0915F02B09174
:1016600060023091740423E0230F2D3720F401969B
:10167000A11DB11D05C026E8230F0296A11DB11DB5
:101680002093740480935D0290935E02A0935F02A6
:10169000B09360028091750490917604A0917704D4
:1016A000B09178040196A11DB11D809375049093AB
:1016B0007604A0937704B0937804BF91AF919F9183
:1016C0008F913F912F910F900FBE0F901F90189503
:1016D0001F920F920FB60F9211242F933F934F93A7
:1016E0005F936F937F938F939F93AF93BF93EF938A
:1016F000FF9381E692E00E940709FF91EF91BF916D
:10170000AF919F918F917F916F915F914F913F9199
:101710002F910F900FBE0F901F9018951F920F9250
:101720000FB60F9211242F938F939F93EF93FF93F4
:10173000E0917102F09172028081E0917702F09164
:10174000780282FD12C0908180917A028F5F8F7340
:1017500020917B02821751F0E0917A02F0E0EF597C
:10176000FD4F958F80937A0201C08081FF91EF91A8
:101770009F918F912F910F900FBE0F901F901895F2
:10178000109264021092630288EE93E0A0E0B0E051
:101790008093650290936602A0936702B0936802FB
:1017A0002AE231E0309362022093610225EC30E0BE
:1017B00030936E0220936D0224EC30E0309370027F
:1017C00020936F0220EC30E030937202209371027C
:1017D00021EC30E0309374022093730222EC30E06D
:1017E000309376022093750226EC30E03093780235
:1017F0002093770210927A0210927B0210927C0260
:1018000010927D021092120410921304109214048C
:1018100040E157E260E070E04093180450931904EF
:1018200060931A0470931B0410920103109200033A
:101830008093020390930303A0930403B0930503E2
:101840008AE391E09093FF028093FE0210921503C9
:10185000109214031092170310921603109219039A
:101860001092180310921B0310921A0360911C032C
:101870006E7F6D7F60931C036695617081E06827C1
:1018800082E00E94AF0961E082E00E94E20AE6EB9A
:10189000F1E0E491E0930E03E2EAF1E0E491F0E09C
:1018A000EE0FFF1FE457FE4F859194919093100324
:1018B00080930F0360E083E00E94E20A80911C03A2
:1018C00081FD04C061E083E00E94AF0983E0809362
:1018D0000A03E7EBF1E0E491E0930B03E3EAF1E0C4
:1018E000E491F0E0EE0FFF1FEA56FE4F85919491D0
:1018F00090930D0380930C030895CF93DF93CDB79E
:10190000DEB7EE970FB6F894DEBF0FBECDBF78946A
:1019100084B5826084BD84B5816084BD85B58260F4
:1019200085BD85B5816085BD80916E0081608093A5
:101930006E0010928100809181008260809381000E
:10194000809181008160809381008091800081601E
:10195000809380008091B10084608093B100809179
:10196000B00081608093B00080917A0084608093A1
:101970007A0080917A00826080937A0080917A0068
:10198000816080937A0080917A00806880937A00E9
:101990001092C100109219031092180310921703AD
:1019A0001092160310921503109214038DE991E022
:1019B00090931B0380931A0390910A03963108F0C9
:1019C00057C02DEB30E030931503209314032BE91F
:1019D00031E030931703209316032CE231E030936B
:1019E00019032093180320916800983050F031E0DB
:1019F0009E3008F430E081E001C0880F3A95EAF7A4
:101A000001C084E0822B80936800983038F09E30CB
:101A100040F0963148F020E030E008C02DE630E09C
:101A200005C02BE630E002C02CE630E03093120314
:101A300020931103983030F481E001C0880F9A950B
:101A4000EAF70EC0292F30E09E3018F428503109F3
:101A500002C02E50310981E001C0880F2A95EAF7B3
:101A60008093130380911A0390911B030197F1F760
:101A70008091180390911903892B21F180915A02CA
:101A800090915B0222E08E3F9207E1F0009711F007
:101A90000E94150880911C038E7F80931C03109276
:101AA0005802109259028EEF92E090935B0280935D
:101AB0005A02E0911103F091120390818091130377
:101AC000892B80838DE193E090937304809372045B
:101AD00061E084E00E94E20A60E084E00E94AF09D5
:101AE000E0917102F091720282E08083E0916D02D8
:101AF000F0916E021082E0916F02F09170028FEC13
:101B0000808310927902E0917502F091760286E06E
:101B10008083E0917302F091740280818061808300
:101B2000E0917302F0917402808188608083E0917B
:101B30007302F0917402808180688083E091730267
:101B4000F091740280818F7D808380E090E00E941C
:101B5000210F80935C0261E08DE00E94E20A80E147
:101B6000F82E95E1E92E29E1D22E33E0C32E48E884
:101B7000842E43E1942EA12CB12C60915C028091C3
:101B800011016B3080F5882399F08AE092E00E9481
:101B90002B088091720490917304FC01E850FF4F70
:101BA00020915C022083319680E091E091838083D4
:101BB0008091720490917304FC01EB50FF4F1082EE
:101BC00031961082319610820E94FB0960E177E223
:101BD00080E090E00E946A0868EE73E080E090E0A8
:101BE0000E946A08CAC08823F9F080E192E00E944E
:101BF0002B088091720490917304FC01E850FF4F10
:101C000020915C022083319620E031E031832083F3
:101C1000349721E0208331961082319610823496D9
:101C200080829182A282B382809172049091730427
:101C30000E949605782E0091720410917304F801A9
:101C4000811176C07180928180915C02981395C059
:101C5000E9E1F2E0DE019F968F2D01900D928A95C9
:101C6000E1F7E9E2F2E0DE015A968E2D01900D9245
:101C70008A95E1F7EEE3F2E0DE0111968D2D0190F9
:101C80000D928A95E1F7F801908180E0F801E80F64
:101C9000F11D208124AF8F5F9817C0F7F80186816E
:101CA0008531A9F08631C1F0823019F58781813004
:101CB00061F586E192E00E94E5028CE491E00E94E9
:101CC000E50288EC91E00E9434030E94E10240E1C9
:101CD000BE01615D7F4F04C045E1BE01665E7F4F7E
:101CE000C801CC960E949603F801EF5BFF4F10826B
:101CF0000CC049E1BE016F5F7F4FC801CC960E94C6
:101D00009603F801EF5BFF4FC082F80176AE809139
:101D10005C0285AF61E084E00E94AF0960EA79E08F
:101D2000C8010E941E0760E084E00E94AF0925C040
:101D30008081811122C080E091E00E94E50289E16A
:101D400092E00E943403672D70E080E090E04AE06A
:101D50000E94550387EE91E00E943403E0917204E3
:101D6000F0917304E550FF4F60817181828193810E
:101D70004AE00E9455030E94E102109211010E9464
:101D80009109FBCE8AE391E09093FF028093FE02DB
:101D90008EEF92E00C941508AA1BBB1B51E107C003
:101DA000AA1FBB1FA617B70710F0A61BB70B881FEB
:101DB000991F5A95A9F780959095BC01CD0108957A
:101DC00097FB072E16F4009407D077FD09D00E94E8
:101DD000CC0E07FC05D03EF4909581959F4F089559
:101DE000709561957F4F0895A1E21A2EAA1BBB1B27
:101DF000FD010DC0AA1FBB1FEE1FFF1FA217B307D7
:101E0000E407F50720F0A21BB30BE40BF50B661FEC
:101E1000771F881F991F1A9469F7609570958095B0
:101E200090959B01AC01BD01CF010895EE0FFF1FFE
:101E30000590F491E02D099481E090E0F8940C94E1
:101E4000290FF999FECF92BD81BDF89A992780B5E7
:101E5000089511E0C3E2D1E004C0FE010E94160F14
:0C1E60002196C432D107C9F7F894FFCFD7
:101E6C000D0A5B59595959592D7878785D202D20D8
:101E7C0000010A2020202000A801AB01B401BC0104
:101E8C00C501CD01D501000000002809A408F10806
:101E9C00CF08E3086F09000000004202A408960274
:101EAC00AE02290241020B000C000D000A2020207A
:101EBC0020003031323334353637383941424344DF
:101ECC00454600784D697474656420435243203054
:101EDC0078203A20000D0A0D0A006C6962524543C5
:101EEC0056202D20756E6578706578746564206257
:101EFC007974652873293A200052582D64617461F5
:101F0C000054582D6C6962004F4B004F5645524699
:101F1C004C4F57004241442D435243004241442D03
:101F2C00434841520054494D454F55540050415976
:101F3C004C4F414400444542554700506F6C6C690E
:101F4C006E67207265717565737421004552524F2E
:101F5C0052205B2E2E2E2E2E2E2E2E5D206F636386
:101F6C0075727265642E2E2E2100456D756C6100A4
:101F7C00536C617665000A0A00506F6C6C696E6771
:101F8C0020616E7377657221006465766F207363D0
:101F9C0072697665726520696C2070696E00436F9A
:101FAC006D616E646F206E6F6E207269636F6E6F01
:081FBC0073636975746F000086
:00000001FF
