:100000000C9427010C944F010C944F010C9496030F
:100010000C9496030C9496030C944F010C944F018E
:100020000C944F010C944F010C944F010C944F0110
:100030000C944F010C944F010C944F010C944F0100
:100040000C94120A0C944F010C94C10A0C949B0A54
:100050000C944F010C944F010C944F010C944F01E0
:100060000C944F010C944F01000000002400270065
:100070002A0000000008000201000003040700003D
:10008000000000000000434D442020726177202DC5
:10009000202020202020005D202D200066756C6C23
:1000A00020726177202D206C656E3A5B00434D44D1
:1000B0005F52436F64652020203078203A2000434F
:1000C0004D442F737562434D4420203078203A20F0
:1000D000005345514E4F20202020202020307820F2
:1000E0003A2000536F757263652F44657374203036
:1000F00078203A2000435243205265632F43616CBD
:10010000203078203A20005D202D2000636F6D6D37
:10011000616E644461746120617363202D206C659D
:100120006E3A5B005D202D2000636F6D6D616E6423
:100130004461746120686578202D206C656E3A5B9F
:10014000005D202D200066756C6C44617461202078
:100150002020686578202D206C656E3A5B00207247
:10016000637664436F64653A2000205365714E4F97
:100170003A200000000000250028002B00000000AD
:1001800000230026002900040404040404040402DB
:100190000202020202030303030303010204081024
:1001A000204080010204081020010204081020539E
:1001B0006F6E6F20696E20506F6C6C696E67207374
:1001C000696D756C6174696F6E206D6F6465002078
:1001D0002020285265717565737420697320666FDD
:1001E00072206D6529202E2E2E20616E7377657228
:1001F000696E670A0A0A0052657175657374206931
:1002000073204E4F5420666F72206D650A0A0A00F3
:10021000202D204E657373756E6120726963686965
:100220006573746120726963657675746120696EA7
:1002300020756E2074656D706F206469206D533A6F
:10024000200072436F64653A2000F30A8E0E112479
:100250001FBECFEFD8E0DEBFCDBF12E0A0E0B1E01F
:10026000E4E0FEE102C005900D92A037B107D9F796
:1002700024E0A0E7B2E001C01D92AD30B207E1F783
:1002800011E0C6E2D1E004C02197FE010E94E20E17
:10029000C532D107C9F70E94AE0B0C94F50E0C9431
:1002A0000000CF93DF93CDB7DEB761970FB6F89418
:1002B000DEBF0FBECDBF21E1E6E4F1E0DE01119625
:1002C00001900D922A95E1F7ADEFB3E012961C92E2
:1002D0001297BC0124E0769567952A95E1F79C0179
:1002E0002F70332741E050E04C0F5D1F240F351F66
:1002F000F901208111962C931197892F9927E4E019
:10030000880F991FEA95E1F7FB01E81BF90BE40F51
:10031000F51F80818C9361960FB6F894DEBF0FBEF7
:10032000CDBFDF91CF910895E0917C02F0917D02E5
:100330000190F081E02D682F8CE792E00994FF9204
:100340000F931F93CF93DF93182FEB01282F30E0EB
:1003500084E0359527958A95E1F70FE0822F802775
:1003600094E0220F331F9A95E1F7F82EF22A8F2D91
:100370000E94DC098CAD8F5F8CAFFE01E80FF11D90
:10038000F4AE1F7020E1129FC00111241027182B1A
:10039000812F0E94DC098CAD8F5F8CAFC80FD11DFF
:1003A0001CAFDF91CF911F910F91FF9008950F9394
:1003B0001F93CF93DF931F92CDB7DEB7082F10E0C6
:1003C000161739F0802F69830E9494011F5F69819D
:1003D000F7CF0F90DF91CF911F910F91089520914A
:1003E0007602309177022817390771F490917502DF
:1003F00080917402981741F0E0917502F0E0E354A7
:10040000FC4F808190E008958FEF9FEF089508954D
:100410001F93CF93DF93DC015C962D913C915D9708
:100420002115310539F481E090E013969C938E9369
:1004300012973DC05196ED91FC91529750969C9128
:100440005097892F80951FB75E964C915E9741FB20
:10045000772770F941FD6095F8944081772311F07A
:10046000492B01C048234083E9012197F1F748E077
:10047000508160FF02C0592B01C058235083E9010D
:100480002197F1F76695415099F7772321F09081F4
:100490008923808303C08081982B90831FBF5C9643
:1004A0008D919C915D970197F1F721E030E0C901B2
:1004B000DF91CF911F9108952091760230917702BC
:1004C0002817390771F4809174022091750290E029
:1004D000805C9F4F821B910960E470E00E94AC0E2B
:1004E000089580E090E0089520917602309177029F
:1004F00028173907B9F49091750280917402981702
:1005000089F0E0917502F0E0E354FC4F8081209186
:10051000750230E02F5F3F4F2F7333272093750212
:1005200090E008958FEF9FEF0895582FFC0180E031
:100530007CE89E2F951B961788F4419198E0A42F94
:10054000A827282F30E035952795822FA0FF02C0DD
:10055000872F82274695915091F7EBCF08953FB7AB
:10056000F8948091700290917102A0917202B09102
:10057000730226B5A89B05C02F3F19F00196A11D57
:10058000B11D3FBFBA2FA92F982F8827820F911D29
:10059000A11DB11DBC01CD0142E0660F771F881F70
:1005A000991F4A95D1F708950F931F93CF93DF9327
:1005B000162F082FEC018C2F801B811788F489914E
:1005C00090E00E9451016DEF73E08CE792E00E9491
:1005D000990A64E072E08CE792E00E94990AEBCFFE
:1005E00060EE71E08CE792E0DF91CF911F910F9167
:1005F0000C94990ACF93C62FBC018CE792E00E941D
:10060000990A8C2F90E00E9451016DEF73E08CE706
:1006100092E00E94990A60EE71E08CE792E0CF913F
:100620000C94990A90E00E9451016DEF73E08CE701
:1006300092E00C94990ACF93DF9310920604E5E0C0
:10064000F4E0262F2E1BCAE0D0E0322F3E0F009799
:1006500041F0BE010E94980E805D8083CB013197EE
:10066000F4CF832FDF01119690E3815010F09E9319
:10067000FCCF81E090E0831B91098E0F9F1FDF91DB
:10068000CF910895CF93DF93BC018CE792E00E9455
:10069000800AEC018CE792E00E94950A8C0F9D1F66
:1006A000DF91CF9108958F929F92AF92BF920F9357
:1006B0001F93CF93DF93CDB7DEB7A1970FB6F89412
:1006C000DEBF0FBECDBF19A2423008F44AE08E0152
:1006D0000F5D1F4F842E912CA12CB12CA5019401EC
:1006E0000E94C00EE62FB901CA0101501109EA307B
:1006F00014F4E05D01C0E95CD801EC93232B242BBA
:10070000252B61F7B8018CE792E00E94800AA19640
:100710000FB6F894DEBF0FBECDBFDF91CF911F9112
:100720000F91BF90AF909F908F9008951F920F925E
:100730000FB60F9211242F933F934F935F936F93B4
:100740007F938F939F93AF93BF93EF93FF93E0912A
:100750007602F0917702309709F451C0968DA68504
:10076000B785858591FF04C09C91892329F447C0F2
:100770009C91892309F043C0A389B4899C91858900
:10078000809589238C93868997890197F1F7608DED
:10079000718DA685B785558538E020E0CB0101979E
:1007A000F1F7822F90E095958795282F4C9145235E
:1007B00009F02068315091F7868D81FD2095809158
:1007C000740290E001968F73992730917502381763
:1007D00049F0A0917402B0E0A354BC4F2C938093D5
:1007E000740203C0868D8160868F828D938D019700
:1007F000F1F7A389B4899C918589892B8C93FF910A
:10080000EF91BF91AF919F918F917F916F915F9188
:100810004F913F912F910F900FBE0F901F90189501
:10082000E0917602F0917702E817F90769F4A3895D
:10083000B4899C918589809589238C931092770245
:100840001092760281E0089580E008956F927F9281
:100850009F92AF92BF92CF92DF92EF92FF920F934F
:100860001F93CF93DF93EA01FC012081243529F403
:100870008A01025E1F4FCE8C05C0223509F0D8C117
:100880008A01C880D62E7C019CACCC2009F467C1BB
:10089000F8018481A380B12CBA2CAA24A80EB11C23
:1008A0008CE792E00E94950AFE01E058FF4F6081BC
:1008B00071818CE792E00E94990A6AE08DE20E94C1
:1008C000D70164E072E08CE792E00E94990AB701D8
:1008D0008CE792E00E94990A66E08DE20E94D701BF
:1008E0006AE671E08CE792E00E945C0A65E0C5016F
:1008F0000E941B03BC018CE792E00E94990A80E2EF
:100900000E94940166E08DE20E94D701F701808188
:10091000843531F46EE571E08CE792E00E945C0A68
:10092000ED2DF0E0EE0FFF1FE85EFE4F608171815C
:100930008CE792E00E94990A80E20E94940164E1AF
:100940008DE20E94D70162E171E08CE792E00E94A3
:10095000990A66E471E08CE792E00E945C0AF80173
:1009600081915F0163E090E00E941B03BC018CE772
:1009700092E00E94990A61E471E08CE792E00E94A3
:100980005C0AF8016081C5010E94D402F9EFCF0E24
:1009900062E171E08CE792E00E94990A69E271E0FD
:1009A0008CE792E00E945C0A6C2C712C63E0C3011E
:1009B0000E941B03BC018CE792E00E94990A64E24A
:1009C00071E08CE792E00E945C0A65E180E20E949F
:1009D000D7016C2D580188E0A80EB11CC5010E94FA
:1009E000D40262E171E08CE792E00E94990A6CE027
:1009F00071E08CE792E00E945C0A63E0C3010E9410
:100A00001B03BC018CE792E00E94990A67E071E049
:100A10008CE792E00E945C0A65E180E20E94D701C7
:100A20008BE50E949401DA2C3501862D8D198C15E9
:100A300058F4F30181913F0190EE980F9F3508F033
:100A400080E20E949401F1CF8DE50E9494018CE731
:100A500092E00E94950AF701808162E171E082359F
:100A6000E9F48CE792E00E94990A65EF70E08CE768
:100A700092E00E945C0AFE01EC57FF4F80810E94C9
:100A8000120364E072E08CE792E00E94990AFE0192
:100A9000ED57FF4F80810E9412030CC08CE792E05B
:100AA0000E94990AFE01EE57FF4F608187E591E0B1
:100AB0000E94FA0262E171E08CE792E00E94990ADA
:100AC00063EE70E08CE792E00E945C0AF80181819D
:100AD0000E94120364E072E08CE792E00E94990A9F
:100AE000F80182810E94120362E171E08CE792E0DA
:100AF0000E94990A61ED70E08CE792E00E945C0A26
:100B000062E0C80103960E94D40262E171E08CE7C2
:100B100092E00E94990A6FEB70E08CE792E00E94ED
:100B20005C0AF80186810E94120364E072E08CE79F
:100B300092E00E94990AF80187810E94120362E103
:100B400071E08CE792E00E94990A6DEA70E08CE710
:100B500092E00E945C0AF80185810E9412039920AC
:100B600009F466C0FE01E158FF4F8081882309F433
:100B70005FC08CE792E00E94950A62E171E08CE729
:100B800092E00E94990A6CE970E08CE792E00E9482
:100B90005C0A8CAD63E090E00E941B03BC018CE713
:100BA00092E00E94990A67E970E08CE792E00E9467
:100BB0005C0A62E171E08CE792E00E94990A6CADF8
:100BC000CE01CD960E94D4028CE792E00E94950A55
:100BD00062E171E08CE792E00E94990A66E870E0B9
:100BE0008CE792E00E945C0A8CAD63E090E00E948A
:100BF0001B03BC018CE792E00E94990A62E171E05C
:100C00008CE792E00E94990A6EEE690DCE01845B3A
:100C10009F4FDF91CF911F910F91FF90EF90DF9049
:100C2000CF90BF90AF909F907F906F900C94D40224
:100C3000DF91CF911F910F91FF90EF90DF90CF90B8
:100C4000BF90AF909F907F906F900895DF92EF924A
:100C5000FF920F931F93CF93DF93CDB7DEB7279704
:100C60000FB6F894DEBF0FBECDBF8C0187E0E9E67A
:100C7000F1E0DE01119601900D928A95E1F7F801FD
:100C8000D68C6D2DC8014F960E949502E82EF80172
:100C9000EE57FF4F8083F80114AE82E00E94DC091A
:100CA000F80194AD9F5F94AFE90FF11D82E084AF2E
:100CB000FF24F394DF1448F0F801EF0DF11DB801A3
:100CC000868D0E949F01F394F5CFB8018E2D0E946E
:100CD0009F0183E00E94DC09F80184AD8F5F84AF3F
:100CE000E80FF11D83E084AFF801E258FF4F8081E7
:100CF000882331F0A80160E0CE0101960E9426040D
:100D000027960FB6F894DEBF0FBECDBFDF91CF910F
:100D10001F910F91FF90EF90DF9008953F924F92B7
:100D20005F926F927F928F929F92AF92BF92CF927B
:100D3000DF92EF92FF920F931F93CF93DF93CDB784
:100D4000DEB728970FB6F894DEBF0FBECDBF8C017B
:100D500088E0E4E9F1E0DE01119601900D928A95B8
:100D6000E1F78FB7F8944090780250907902609044
:100D70007A0270907B028FBFF80114AE1082D12CE2
:100D8000C12C5801FAE7AF0EB11C480120E8820ED1
:100D9000911C332433942FB7F8948091780290916A
:100DA0007902A0917A02B0917B022FBF8419950934
:100DB000A609B709F50140815181628173818417C9
:100DC0009507A607B70708F0F9C00E94E1091816B1
:100DD00019060CF70E94E5097C01F80184AD8E33F9
:100DE00008F06EC08F5F84AFE80FF11DE4AEC7015D
:100DF00099278936910509F4BDC094F58E31910586
:100E000009F4B8C0DCF48330910509F454C08F3084
:100E1000910509F4AFC0029709F0B3C0F80134AEF0
:100E20008FB7F894409078025090790260907A02DF
:100E300070907B028FBFCC24C394ADCF8C339105CF
:100E400009F498C024F48D9709F09BC093C08B34AB
:100E5000910509F48FC08A35910509F092C08AC0C6
:100E6000843B910509F486C09CF48738910509F408
:100E700081C02CF48837910509F083C07BC0863986
:100E8000910509F477C0853A910509F07AC072C0DE
:100E9000823D910509F46EC02CF4833C910509F064
:100EA00070C068C0813E910509F464C0803F91051F
:100EB00009F067C05FC0F80134AD92E060E00EC099
:100EC000F801E258FF4F8081882309F484C0A8010B
:100ED00061E0CE0101960E9426047DC0931788F43C
:100EE0006F5FD801A60FB11DF801E90FF11D85ADA7
:100EF000282F22952F7084AD807F822B8C939E5F4C
:100F0000EDCFF801E60FF11DD080F801EC57FF4F4F
:100F1000D0826150F8016193CF010E949502F801DF
:100F2000ED57FF4F8083980122583F4F7901F90117
:100F30008D1559F08081882309F44FC0A80162E023
:100F4000CE0101960E94260448C08081882381F04A
:100F500060E771E08CE792E00E94990AF7018081D6
:100F6000882331F0A80160E0CE0101960E9426049A
:100F700080E036C0C1100FCFF80184AD815084AF3E
:100F80000ACFF80184AD815084AFD11010C08CE736
:100F900092E00E94950AF401608171818CE792E0F1
:100FA0000E94990A6E2D85E791E00E94FA026E2D4B
:100FB00084E092E00E94FA02D394EDCEF801E25868
:100FC000FF4F8081882359F0A80164E0CE0101968B
:100FD0000E94260404C081E003C082E001C084E0D6
:100FE00028960FB6F894DEBF0FBECDBFDF91CF912C
:100FF0001F910F91FF90EF90DF90CF90BF90AF9037
:101000009F908F907F906F905F904F903F9008954A
:1010100090E0FC01EE58FF4F3491FC01E556FE4F85
:101020002491FC01E957FE4FE491EE2309F43BC003
:10103000332339F1333091F038F43130A9F03230C4
:1010400001F584B58F7D12C0373091F03830A1F0B2
:101050003430B9F4809180008F7D03C0809180008E
:101060008F77809380000DC084B58F7784BD09C0D1
:101070008091B0008F7703C08091B0008F7D809306
:10108000B000F0E0EE0FFF1FED58FE4FA591B491B8
:101090008FB7F894EC91611103C020952E2301C005
:1010A0002E2B2C938FBF0895CF93DF9390E0FC01FC
:1010B000E556FE4F2491FC01E957FE4F84918823A9
:1010C00061F190E0880F991FFC01E859FF4FC5912D
:1010D000D491FC01ED58FE4FA591B491611109C066
:1010E0009FB7F8948881209582238883EC912E23E2
:1010F0000BC0623061F49FB7F8943881822F8095DD
:1011000083238883EC912E2B2C939FBF06C08FB72F
:10111000F894E8812E2B28838FBFDF91CF9108951B
:101120008F929F92AF92BF92CF92DF92EF92FF92F7
:101130006B017C010E94AF024B015C01C114D10420
:10114000E104F104F1F00E94AF02DC01CB01881947
:101150009909AA09BB09883E9340A105B10570F31E
:1011600021E0C21AD108E108F10888EE880E83E078
:10117000981EA11CB11CC114D104E104F10419F79B
:10118000DDCFFF90EF90DF90CF90BF90AF909F901A
:101190008F900895CF92DF92EF92FF920F931F935B
:1011A000CF93DF936C017A018B01C0E0D0E0CE15C4
:1011B000DF0589F0D8016D918D01D601ED91FC918B
:1011C0000190F081E02DC6010995892B11F47E0173
:1011D00002C02196ECCFC701DF91CF911F910F91F3
:1011E000FF90EF90DF90CF900895FC01918D828D5C
:1011F000981761F0828DDF01A80FB11D5D968C916B
:10120000928D9F5F9F73928F90E008958FEF9FEF75
:101210000895FC01918D828D981731F0828DE80F31
:10122000F11D858D90E008958FEF9FEF0895FC01EB
:10123000918D228D892F90E0805C9F4F821B9109B8
:101240008F73992708958CE792E00E94170921E097
:10125000892B09F420E0822F0895FC01848DDF01A1
:10126000A80FB11DA35ABF4F2C91848D90E0019619
:101270008F739927848FA689B7892C93A089B18908
:101280008C9180648C93938D848D981306C0028812
:10129000F389E02D80818F7D80830895EF92FF9206
:1012A0000F931F93CF93DF93EC0181E0888F9B8D89
:1012B0008C8D981305C0E889F989808185FD24C04B
:1012C000F62E0B8D10E00F5F1F4F0F731127E02ECE
:1012D0008C8DE8120CC00FB607FCFACFE889F989AB
:1012E000808185FFF5CFCE010E942D09F1CF8B8D36
:1012F000FE01E80FF11DE35AFF4FF0820B8FEA89E0
:10130000FB898081806207C0EE89FF896083E8895C
:10131000F98980818064808381E090E0DF91CF91C2
:101320001F910F91FF90EF900895CF93DF93EC0101
:10133000888D8823C9F0EA89FB89808185FD05C0F5
:10134000A889B9898C9186FD0FC00FB607FCF5CF2F
:10135000808185FFF2CFA889B9898C9185FFEDCF77
:10136000CE010E942D09E7CFDF91CF91089580E053
:1013700090E0892B29F00E94230981110C94000030
:101380000895FC01308120E0FC01E20FF11D508145
:10139000568F2F5F3217C0F7FB019C012A5D3F4F2C
:1013A000D9015A2F521B541718F451915D93F9CF5C
:1013B0004A5FFC01468F0895682F89E193E00C9401
:1013C000080289E193E00C945C0289E193E00C94BB
:1013D00074020E94E80EE3E0F1E09C012B5F3F4FB6
:1013E000DC014D91CD014193A217B307C9F780915C
:1013F0000B0463E090E00E941B03FC01808180935A
:101400000901818180930A01828180930B01E0911F
:101410000904F0910A04E058FF4F80E091E09183C5
:10142000808308951F920F920FB60F9211242F936D
:101430003F938F939F93AF93BF9380917802909146
:101440007902A0917A02B0917B0230910C0423E0E2
:10145000230F2D3720F40196A11DB11D05C026E8EC
:10146000230F0296A11DB11D20930C0480937802D6
:1014700090937902A0937A02B0937B0280917002DC
:1014800090917102A0917202B09173020196A11D18
:10149000B11D8093700290937102A0937202B09379
:1014A0007302BF91AF919F918F913F912F910F90B8
:1014B0000FBE0F901F901895EF92FF920F931F93FE
:1014C000CF93DF938C017B01C0E0D0E0F701EC0FFC
:1014D000FD1F6491662361F0D801ED91FC910190AC
:1014E000F081E02DC8010995892B11F02196EECFEE
:1014F000CE01DF91CF911F910F91FF90EF90089552
:101500006115710579F0FB0101900020E9F7319731
:10151000AF01461B570BDC01ED91FC910280F3817A
:10152000E02D099480E090E0089562E771E00C946A
:10153000800A0C94800A1F920F920FB60F9211240A
:101540002F933F934F935F936F937F938F939F93CB
:10155000AF93BF93EF93FF938CE792E00E942D0926
:10156000FF91EF91BF91AF919F918F917F916F917B
:101570005F914F913F912F910F900FBE0F901F9051
:1015800018951F920F920FB60F9211242F938F93DD
:101590009F93EF93FF93E0918C02F0918D028081F5
:1015A000E0919202F091930282FD12C090818091AD
:1015B00095028F5F8F7320919602821751F0E09110
:1015C0009502F0E0E458FD4F958F8093950201C09D
:1015D0008081FF91EF919F918F912F910F900FBE7E
:1015E0000F901F90189510927F0210927E0288EE45
:1015F00093E0A0E0B0E08093800290938102A093FA
:101600008202B09383022AE231E030937D0220937C
:101610007C0225EC30E0309389022093880224EC90
:1016200030E030938B0220938A0220EC30E030933C
:101630008D0220938C0221EC30E030938F022093B6
:101640008E0222EC30E0309391022093900226EC3F
:1016500030E0309393022093920210929502109200
:101660009602109297021092980240E157E260E0D1
:1016700070E04093B2035093B3036093B40370934C
:10168000B5031092B6031092B70310921C03109288
:101690001B0380931D0390931E03A0931F03B0931D
:1016A00020038AE391E090931A0380931903109228
:1016B000300310922F0310923203109231031092D4
:1016C0003403109233031092360310923503609165
:1016D00037036E7F6D7F609337036695617081E09D
:1016E000682782E00E94080861E082E00E945408B6
:1016F000EDE9F1E0E491E0932903E9E8F1E0E49118
:10170000F0E0EE0FFF1FED58FE4F859194919093FE
:101710002B0380932A0360E083E00E9454088091A9
:10172000370381FD04C061E083E00E94080883E084
:1017300080932503EEE9F1E0E491E0932603EAE8E3
:10174000F1E0E491F0E0EE0FFF1FE358FE4F8591CA
:10175000949190932803809327030895CF93DF9368
:10176000CDB7DEB7C354D1090FB6F894DEBF0FBEB4
:10177000CDBF789484B5826084BD84B5816084BD1A
:1017800085B5826085BD85B5816085BD80916E001F
:10179000816080936E001092810080918100826050
:1017A000809381008091810081608093810080918D
:1017B00080008160809380008091B100846080937C
:1017C000B1008091B00081608093B00080917A0078
:1017D000846080937A0080917A00826080937A009E
:1017E00080917A00816080937A0080917A0080688D
:1017F00080937A001092C100109234031092330348
:1018000010923203109231031092300310922F0382
:101810008DE991E0909336038093350390912503F1
:10182000963108F057C02DEB30E030933003209311
:101830002F032BE931E030933203209331032CE264
:1018400031E03093340320933303209168009830C3
:1018500050F031E09E3008F430E081E001C0880FA4
:101860003A95EAF701C084E0822B809368009830B3
:1018700038F09E3040F0963148F020E030E008C06B
:101880002DE630E005C02BE630E002C02CE630E06B
:1018900030932D0320932C03983030F481E001C065
:1018A000880F9A95EAF70EC0292F30E09E3018F481
:1018B0002850310902C02E50310981E001C0880F43
:1018C0002A95EAF780932E03809135039091360391
:1018D0000197F1F78091330390913403892B21F123
:1018E000809176029091770223E089319207E1F0AE
:1018F000009711F00E941004809137038E7F80932F
:101900003703109274021092750289E193E090936C
:10191000770280937602E0912C03F0912D03908161
:1019200080912E03892B808388E393E090930A04AF
:101930008093090461E084E00E94540860E084E040
:101940000E940808E0918C02F0918D0282E0808371
:10195000E0918802F09189021082E0918A02F09170
:101960008B028FEC808310929402E0919002F091B0
:10197000910286E08083E0918E02F0918F02808157
:1019800080618083E0918E02F0918F028081886077
:101990008083E0918E02F0918F0280818068808345
:1019A000E0918E02F0918F0280818F7D808380E0B4
:1019B00090E00E94ED0E80930B0460E071E08CE7F4
:1019C00092E00E94990A61E08DE00E945408FF2491
:1019D000F39480E2882E8EE4982EA12CB12C94E111
:1019E000E92E22E0322E30E1432E37E2532E612CD5
:1019F000712C90910B04809111019B3008F0B5C0BF
:101A0000882321F08FEC91E00E94EB09809109047A
:101A100090910A04FC01E258FF4FF0823196108247
:101A200060E071E08CE792E00E94990A6FEA71E051
:101A30008CE792E00E945C0A8CE792E00E94950A93
:101A40000091090410910A0424961FAE249768019E
:101A50008AE7C80ED11C24968FAD249781116BC0E4
:101A600080910B04F801818324968FAD24972BE09D
:101A700022838091070490910804938384831582C4
:101A80003682F78287E08083E6E0F2E0DE015A9654
:101A90008E2D01900D928A95E1F744E1BE01665EBC
:101AA0007F4FC8010E94C10961E084E00E940808DC
:101AB000C8010E94260660E084E00E940808F60142
:101AC0004082518262827382C8010E948E06282E53
:101AD000F801908180E0F801E80FF11D3081368F28
:101AE0008F5F9817C0F7911112C0F80133A2EAE195
:101AF000F2E0DE0111968E2D01900D928A95E1F7AC
:101B000044E1BE016F5F7F4FC8010E94C109A80177
:101B1000622D85ED91E00E94260460ED77E080E083
:101B200090E00E94900824968FAD24978F5F2496B2
:101B30008FAF249790CF6DED71E08CE792E00E941B
:101B4000990A8091070490910804019690930804E3
:101B5000809307048CE792E00E94950A60E177E2A7
:101B600080E090E00E949008D4C0882321F081EEAC
:101B700091E00E94EB098091090490910A04FC0114
:101B8000E258FF4FF0823196108235978082918221
:101B9000A282B3828CE792E00E94950A80910904A8
:101BA00090910A040E948E06D82E0091090410918B
:101BB0000A04F801811180C0D180928180910B04C8
:101BC000981789F08EED91E00E94420362E171E086
:101BD0008CE792E00E94990A67EF71E08CE792E04F
:101BE0000E945C0A92C08EED91E00E94420362E185
:101BF00071E08CE792E00E94990A6FEC71E08CE74B
:101C000092E00E945C0AEEE2F2E0DE019F968E2DE9
:101C100001900D928A95E1F785E1E2E4F2E0DE01C0
:101C20005A9601900D928A95E1F789E1E7E5F2E095
:101C3000DE01119601900D928A95E1F7F8018681F7
:101C4000853189F08631B1F08230D9F487818130D5
:101C500011F562E171E08CE792E00E94990A87EE4B
:101C600091E00E944203F80113A244E1BE01615DCC
:101C70007F4F0EC0F80113A245E1BE01665E7F4FA3
:101C800007C083E0F80183A349E1BE016F5F7F4F86
:101C9000C8010E94C109F801D0A280910B04878F6E
:101CA00061E084E00E940808C8010E94260660E006
:101CB00084E00E94080829C08081811126C060E06C
:101CC00071E08CE792E00E94990A62E472E08CE78E
:101CD00092E00E945C0A6D2D70E080E090E04AE0A6
:101CE0000E94530360E172E08CE792E00E945C0A7C
:101CF000E0910904F0910A04E658FF4F6081718178
:101D0000828193814AE00E9453038CE792E00E9413
:101D1000950A109211010E94B7096BCE8AE391E0F7
:101D200090931A038093190389E193E00C941004B3
:101D3000AA1BBB1B51E107C0AA1FBB1FA617B707F1
:101D400010F0A61BB70B881F991F5A95A9F780950D
:101D50009095BC01CD01089597FB072E16F40094D1
:101D600007D077FD09D00E94980E07FC05D03EF4FD
:101D7000909581959F4F0895709561957F4F089537
:101D8000A1E21A2EAA1BBB1BFD010DC0AA1FBB1F7F
:101D9000EE1FFF1FA217B307E407F50720F0A21BF1
:101DA000B30BE40BF50B661F771F881F991F1A945E
:101DB00069F760957095809590959B01AC01BD0188
:101DC000CF010895EE0FFF1F0590F491E02D0994C7
:101DD00081E090E0F8940C94F50EF999FECF92BD55
:101DE00081BDF89A992780B5089511E0C6E2D1E047
:101DF00004C0FE010E94E20E2196C732D107C9F746
:041E0000F894FFCF84
:101E04000D0A5B536C6176652D7878785D202D2002
:101E140000010A20202020009C019F01A801B0019C
:101E2400B901C101C901000000004E09CA0817091F
:101E3400F50809099509000000000802CA085C02B7
:101E44007402EF0107023031323334353637383912
:101E540041424344454600784D69747465642043A7
:101E64005243203078203A200054582D6C69620087
:101E74000D0A0D0A006C696252454356202D2075E7
:101E84006E6578706578746564206279746528730A
:101E9400293A200052582D64617461004F4B004F61
:101EA400564552464C4F57004241442D435243003D
:101EB4004241442D434841520054494D454F5554E5
:101EC400005041594C4F4144004445425547004558
:101ED4006D756C610054582D706F6C6C000A0A0AA1
:101EE40000536C61766500707265706172696E672B
:101EF40020726573706F6E6365206D6573736167BF
:101F0400652E2E2E2000706F6C6C696E67207369CD
:101F14006D756C6174696F6E2E0054494D454F5553
:101F240054206F636375727265642E2E2E0072697D
:101F340073706F73746120616C20706F6C6C696E68
:101F440067006465766F20736372697665726520D5
:101F5400696C2070696E00436F6D616E646F206EF2
:101F64006F6E207269636F6E6F73636975746F004F
:00000001FF
