:100000000C9452010C947A010C947A010C945C07C4
:100010000C945C070C945C070C947A010C947A01A4
:100020000C947A010C947A010C947A010C947A0164
:100030000C947A010C947A010C947A010C947A0154
:100040000C94BA020C947A010C947B030C94550323
:100050000C947A010C947A010C947A010C947A0134
:100060000C947A010C947A01536F6E6F20696E20A4
:1000700073696D756C6174696F6E206D6F64650076
:10008000536F6E6F20696E2073696D756C61746556
:10009000206D6F64652E00202020285265717565E3
:1000A000737420697320666F72206D6529202E2E6F
:1000B0002E20616E73776572696E6700202020289C
:1000C000526963657675746F204543484F20434FEE
:1000D0004D4D414E44290020202028526571756500
:1000E0007374206973204E4F5420666F72206D65C3
:1000F00029005D00205B0020434D44203A20002071
:10010000746F20203A2000696E6F52454356206676
:10011000726F6D3A2000202D204E657373756E61ED
:1001200020726963686965737461207269636576BA
:1001300075746120696E20756E2074656D706F2016
:100140006469206D533A200072436F64653A200061
:1001500000000000240027002A0000000008000220
:1001600001000003040700000000000000005D2003
:100170002D200066756C6C2072617720202D206C1C
:10018000656E3A5B007573657220726177203A2064
:100190000075736572206461746120202020203A0C
:1001A00020002020202020207C200072436F6465E6
:1001B0002020202020203078203A200020202020DD
:1001C00020207C2000436F6D6D616E642020202014
:1001D0003078203A200020207C20005345514E4F9B
:1001E0002020202020203078203A200020202020AD
:1001F00020207C20004465737441646472202020B8
:100200003078203A20002020202020207C2000531D
:100210006F7572636541646472203078203A200003
:100220005D202D200066756C6C2064617461202D4A
:10023000206C656E3A5B00202D20726574436F64FC
:10024000653A2000202D205365714E4F3A20002042
:100250002D20646174614C656E3A20005D202D2074
:1002600000205B0000000000250028002B0000009B
:1002700000002300260029000404040404040404EC
:100280000202020202020303030303030102040841
:1002900010204080010204081020010204081020F0
:1002A0000E0D040D11241FBECFEFD8E0DEBFCDBF71
:1002B00012E0A0E0B1E0E2E6FCE102C005900D92A0
:1002C000AE31B107D9F723E0AEE1B2E001C01D9233
:1002D000A93BB207E1F711E0C1E5D1E004C02197E5
:1002E000FE010E94110EC035D107C9F70E94E20835
:1002F0000C94240E0C9400003FB7F89480912802CF
:1003000090912902A0912A02B0912B0226B5A89BB8
:1003100005C02F3F19F00196A11DB11D3FBFBA2F97
:10032000A92F982F8827820F911DA11DB11DBC01F7
:10033000CD0142E0660F771F881F991F4A95D1F7BC
:100340000895CF92DF92EF92FF920F931F93CF9376
:10035000DF936C017A018B01C0E0D0E0CE15DF05A0
:1003600089F0D8016D918D01D601ED91FC9101903C
:10037000F081E02DC6010995892B11F47E0102C0A0
:100380002196ECCFC701DF91CF911F910F91FF9084
:10039000EF90DF90CF900895FC01918D828D98179A
:1003A00061F0828DDF01A80FB11D5D968C91928D59
:1003B0009F5F9F73928F90E008958FEF9FEF089556
:1003C000FC01918D828D981731F0828DE80FF11D1F
:1003D000858D90E008958FEF9FEF0895FC01918D3A
:1003E000228D892F90E0805C9F4F821B91098F7333
:1003F0009927089582E392E00E94EE0121E0892B83
:1004000009F420E0822F0895FC01848DDF01A80FFC
:10041000B11DA35ABF4F2C91848D90E001968F732C
:100420009927848FA689B7892C93A089B1898C914B
:1004300080648C93938D848D981306C00288F38911
:10044000E02D80818F7D80830895EF92FF920F933E
:100450001F93CF93DF93EC0181E0888F9B8D8C8D70
:10046000981305C0E889F989808185FD24C0F62E9E
:100470000B8D10E00F5F1F4F0F731127E02E8C8D37
:10048000E8120CC00FB607FCFACFE889F989808121
:1004900085FFF5CFCE010E940402F1CF8B8DFE01C6
:1004A000E80FF11DE35AFF4FF0820B8FEA89FB89B9
:1004B0008081806207C0EE89FF896083E889F989BD
:1004C00080818064808381E090E0DF91CF911F91F3
:1004D0000F91FF90EF900895CF93DF93EC01888DFB
:1004E0008823C9F0EA89FB89808185FD05C0A88938
:1004F000B9898C9186FD0FC00FB607FCF5CF8081BE
:1005000085FFF2CFA889B9898C9185FFEDCFCE0107
:100510000E940402E7CFDF91CF91089580E090E040
:10052000892B29F00E94FA0181110C940000089592
:10053000FC01308120E0FC01E20FF11D5081568F5B
:100540002F5F3217C0F7FB019C012B5D3F4FD90194
:100550005A2F521B541718F451915D93F9CF495FEC
:10056000FC01468F0895682F8FEC92E00C944104B3
:100570000E94170E1F920F920FB60F9211242F9305
:100580003F938F939F93AF93BF9380912402909159
:100590002502A0912602B09127023091230223E088
:1005A000230F2D3720F40196A11DB11D05C026E8AB
:1005B000230F0296A11DB11D2093230280932402D4
:1005C00090932502A0932602B093270280912802DF
:1005D00090912902A0912A02B0912B020196A11DAF
:1005E000B11D8093280290932902A0932A02B09310
:1005F0002B02BF91AF919F918F913F912F910F90BF
:100600000FBE0F901F901895EF92FF920F931F93BC
:10061000CF93DF938C017B01C0E0D0E0F701EC0FBA
:10062000FD1F6491662361F0D801ED91FC9101906A
:10063000F081E02DC8010995892B11F02196EECFAC
:10064000CE01DF91CF911F910F91FF90EF90089510
:100650006115710579F0FB0101900020E9F73197F0
:10066000AF01461B570BDC01ED91FC910280F38139
:10067000E02D099480E090E008956CE371E00C9423
:1006800028030F931F93CF93DF93EC010E94040381
:100690008C01CE010E943D03800F911FDF91CF910D
:1006A0001F910F9108950C9428031F920F920FB67B
:1006B0000F9211242F933F934F935F936F937F93E8
:1006C0008F939F93AF93BF93EF93FF9382E392E057
:1006D0000E940402FF91EF91BF91AF919F918F9182
:1006E0007F916F915F914F913F912F910F900FBE2E
:1006F0000F901F9018951F920F920FB60F92112412
:100700002F938F939F93EF93FF93E0914202F09189
:1007100043028081E0914802F091490282FD12C0BB
:10072000908180914B028F5F8F7320914C028217D2
:1007300051F0E0914B02F0E0EE5CFD4F958F80931D
:100740004B0201C08081FF91EF919F918F912F917A
:100750000F900FBE0F901F901895CF93DF93CDB7DA
:10076000DEB761970FB6F894DEBF0FBECDBF21E1B3
:10077000E1EDF1E0DE01119601900D922A95E1F78D
:10078000AFEAB3E012961C921297BC0124E0769572
:1007900067952A95E1F79C012F70332741E050E0DF
:1007A0004C0F5D1F240F351FF901208111962C93EA
:1007B0001197892F9927E4E0880F991FEA95E1F7AF
:1007C000FB01E81BF90BE40FF51F80818C93619608
:1007D0000FB6F894DEBF0FBECDBFDF91CF91089565
:1007E000FF920F931F93CF93DF93182FEB01282FC6
:1007F00030E084E0359527958A95E1F70FE0822F68
:10080000802794E0220F331F9A95E1F7F82EF22A01
:100810008F2D0E94B3028CAD8F5F8CAFFE01E80F6D
:10082000F11DF4AE1F7020E1129FC00111241027AA
:10083000182B812F0E94B3028CAD8F5F8CAFC80F35
:10084000D11D1CAFDF91CF911F910F91FF900895A3
:1008500020912E0230912F022817390771F49091C0
:100860002D0280912C02981741F0E0912D02F0E0CA
:10087000E159FC4F808190E008958FEF9FEF08953C
:1008800008951F93CF93DF93DC015C962D913C91EB
:100890005D972115310539F481E090E013969C9322
:1008A0008E9312973DC05196ED91FC9152975096C0
:1008B0009C915097892F80951FB75E964C915E97BB
:1008C00041FB772770F941FD6095F89440817723CB
:1008D00011F0492B01C048234083E9012197F1F72A
:1008E00048E0508160FF02C0592B01C0582350835B
:1008F000E9012197F1F76695415099F7772321F0A7
:1009000090818923808303C08081982B90831FBFAF
:100910005C968D919C915D970197F1F721E030E015
:10092000C901DF91CF911F91089520912E0230913E
:100930002F022817390771F480912C0220912D0283
:1009400090E0805C9F4F821B910960E470E00E9400
:10095000DB0D089580E090E0089520912E02309103
:100960002F0228173907B9F490912D0280912C029B
:10097000981789F0E0912D02F0E0E159FC4F808159
:1009800020912D0230E02F5F3F4F2F7333272093AC
:100990002D0290E008958FEF9FEF08950F931F931E
:1009A000CF93DF93162F082FEC018C2F801B81171C
:1009B00088F4899190E00E94AD036FEA73E082E3CE
:1009C00092E00E9453036CE571E082E392E00E94A2
:1009D0005303EBCF6EE371E082E392E0DF91CF91BE
:1009E0001F910F910C94530390E00E94AD036FEAA6
:1009F00073E082E392E00C9453038F929F92AF9244
:100A0000BF920F931F93CF93DF93CDB7DEB7A1971C
:100A10000FB6F894DEBF0FBECDBF19A2423008F466
:100A20004AE08E010F5D1F4F842E912CA12CB12C1A
:100A3000A50194010E94EF0DE62FB901CA010150F2
:100A40001109EA3014F4E05D01C0E95CD801EC93CF
:100A5000232B242B252B61F7B80182E392E00E941F
:100A60002803A1960FB6F894DEBF0FBECDBFDF916D
:100A7000CF911F910F91BF90AF909F908F9008954D
:100A8000CF93C62FBC0182E392E00E9453038C2FC8
:100A900090E00E94AD036FEA73E082E392E00E946F
:100AA00053036EE371E082E392E0CF910C94530321
:100AB000582FFC0180E07CE89E2F951B961788F448
:100AC000419198E0A42FA827282F30E0359527954D
:100AD000822FA0FF02C0872F82274695915091F761
:100AE000EBCF0895CF93DF931092B803E7EBF3E0D9
:100AF000262F2E1BCAE0D0E0322F3E0F009741F088
:100B0000BE010E94C70D805D8083CB013197F4CF79
:100B1000832FDF011196815010F04E93FCCF81E0BE
:100B200090E0831B91098E0F9F1FDF91CF91089555
:100B3000EF92FF920F931F93CF937C018B01FB01E8
:100B4000C081609130027091310282E392E00E9494
:100B50005303B70182E392E00E94530362EE71E017
:100B600082E392E00E945303CC2309F161E672E034
:100B700082E392E00E94040340E263E08C2F90E065
:100B80000E947205BC0182E392E00E9453036CE56F
:100B900072E082E392E00E9404036C2FC801019688
:100BA000CF911F910F91FF90EF900C94CE04CF91B5
:100BB0001F910F91FF90EF9008959F92AF92BF9277
:100BC000CF92DF92EF92FF920F931F93CF93DF9319
:100BD000EA01FA01E258FF4F2081222309F460C1A3
:100BE000FC012081243529F48A01025E1F4FEE8C1E
:100BF00005C0223509F054C18A01E880F62E5C0157
:100C0000F8018481C380D12CDC2CCC24C80ED11CEB
:100C10009CAC609130027091310282E392E00E94BC
:100C20005303B50182E392E00E9453036FE472E044
:100C300082E392E00E94040340E263E08E2D90E0A4
:100C40000E947205BC0182E392E00E94530364E4B7
:100C500072E082E392E00E94040340E365E0C60193
:100C60000E947205BC0182E392E00E94530367E395
:100C700072E082E392E00E940403EF2DF0E0EE0FB9
:100C8000FF1FE45FFE4F6081718182E392E00E946A
:100C9000280382E392E00E943D03EE2009F400C1A4
:100CA00065E272E082E392E00E940403F801819120
:100CB0006F0140E263E090E00E947205BC0182E3B4
:100CC00092E00E94530360E272E082E392E00E94AD
:100CD0000403F8016081C6010E94CE0482E392E021
:100CE0000E943D0382E392E00E943D036FE072E0C8
:100CF00082E392E00E940403F80181810E94F404DF
:100D000066E072E082E392E00E94040362E0CE01BA
:100D1000CE960E94CE0482E392E00E943D0365EFEE
:100D200071E082E392E00E940403F80182810E9454
:100D3000F4046CEE71E082E392E00E94040362E04E
:100D4000CE01805C9F4F0E94CE0482E392E00E941D
:100D50003D036BED71E082E392E00E94040362E0E8
:100D6000C80103960E94CE0466ED71E082E392E032
:100D70000E94040364E0CE018E5B9F4F0E94CE046C
:100D800082E392E00E943D0365EC71E082E392E031
:100D90000E940403F80185810E94F4046CEB71E069
:100DA00082E392E00E94040362E0CE018A5B9F4FDF
:100DB0000E94CE0482E392E00E943D036BEA71E060
:100DC00082E392E00E940403F80186810E94F40409
:100DD00062EA71E082E392E00E94040362E0CE01E5
:100DE000885B9F4F0E94CE0482E392E00E943D0305
:100DF00061E971E082E392E00E94040368EF6E0D06
:100E0000C80107960E94CE0482E392E00E943D034F
:100E100082E392E00E943D0365E871E082E392E0A4
:100E20000E94410360EF690DCE01865B9F4F0E94D7
:100E3000CE0482E392E00E943D0382E392E00E94AE
:100E40003D0382E392E00E943D0363E771E082E3A9
:100E500092E00E9404038CAD40E263E090E00E94C7
:100E60007205BC0182E392E00E9453036EE671E0DA
:100E700082E392E00E9441036CADCE01CD960E94C8
:100E8000CE0482E392E0DF91CF911F910F91FF900A
:100E9000EF90DF90CF90BF90AF909F900C943D0368
:100EA000DF91CF911F910F91FF90EF90DF90CF9046
:100EB000BF90AF909F9008951F920F920FB60F9220
:100EC00011242F933F934F935F936F937F938F934F
:100ED0009F93AF93BF93EF93FF93E0912E02F09116
:100EE0002F02309709F451C0968DA685B785858568
:100EF00091FF04C09C91892329F447C09C918923C8
:100F000009F043C0A389B4899C9185898095892380
:100F10008C93868997890197F1F7608D718DA685ED
:100F2000B785558538E020E0CB010197F1F7822F96
:100F300090E095958795282F4C91452309F02068DE
:100F4000315091F7868D81FD209580912C0290E0A3
:100F500001968F73992730912D02381749F0A0918F
:100F60002C02B0E0A159BC4F2C9380932C0203C0FB
:100F7000868D8160868F828D938D0197F1F7A3898D
:100F8000B4899C918589892B8C93FF91EF91BF91B6
:100F9000AF919F918F917F916F915F914F913F9111
:100FA0002F910F900FBE0F901F901895E0912E0279
:100FB000F0912F02E817F90769F4A389B4899C918D
:100FC0008589809589238C9310922F0210922E028E
:100FD00081E0089580E0089590E0FC01E65AFE4F1C
:100FE0003491FC01E457FD4F2491FC01E858FD4F7A
:100FF000E491EE2309F43BC0332339F1333091F00F
:1010000038F43130A9F0323001F584B58F7D12C04B
:10101000373091F03830A1F03430B9F4809180004D
:101020008F7D03C0809180008F77809380000DC0FA
:1010300084B58F7784BD09C08091B0008F7703C0DD
:101040008091B0008F7D8093B000F0E0EE0FFF1F25
:10105000EC59FD4FA591B4918FB7F894EC916111C3
:1010600003C020952E2301C02E2B2C938FBF0895F3
:10107000DF92EF92FF920F931F93CF93DF93CDB741
:10108000DEB728970FB6F894DEBF0FBECDBF8C0138
:1010900061E084E00E94EC0788E0E5EEF1E0DE012B
:1010A000119601900D928A95E1F7F801E68C6E2D6C
:1010B000C8014F960E945805D82EF80114AEE15889
:1010C000FF4F80819181909331028093300282E0C2
:1010D0000E94B302F80194AD9F5F94AFE90FF11D38
:1010E00082E084AFFF24F394EF1448F0F801EF0D91
:1010F000F11DB801868D0E94F003F394F5CFB8017D
:101100008D2D0E94F00383E00E94B302F80184ADAC
:101110008F5F84AFE80FF11D83E084AFA80160E02A
:10112000CE0101960E94DD0560E084E00E94EC079C
:1011300028960FB6F894DEBF0FBECDBFDF91CF91DA
:101140001F910F91FF90EF90DF900895CF93DF9361
:1011500090E0FC01E457FD4F2491FC01E858FD4F5D
:101160008491882361F190E0880F991FFC01E05B76
:10117000FE4FC591D491FC01EC59FD4FA591B4915E
:10118000611109C09FB7F8948881209582238883D4
:10119000EC912E230BC0623061F49FB7F894388134
:1011A000822F809583238883EC912E2B2C939FBFD5
:1011B00006C08FB7F894E8812E2B28838FBFDF916C
:1011C000CF910895CF93DF93CDB7DEB7C354D10944
:1011D0000FB6F894DEBF0FBECDBF789484B58260A1
:1011E00084BD84B5816084BD85B5826085BD85B5CB
:1011F000816085BD80916E00816080936E00109249
:1012000081008091810082608093810080918100C3
:101210008160809381008091800081608093800054
:101220008091B10084608093B1008091B0008160B2
:101230008093B00080917A00846080937A008091DE
:101240007A00826080937A0080917A008160809336
:101250007A0080917A00806880937A001092C100B1
:101260001092EA021092E9021092E8021092E7024C
:101270001092E6021092E5028DE991E09093EC0263
:101280008093EB029091DB02963108F057C02DEB72
:1012900030E03093E6022093E5022BE931E0309311
:1012A000E8022093E7022CE231E03093EA02209337
:1012B000E90220916800983050F031E09E3008F447
:1012C00030E081E001C0880F3A95EAF701C084E080
:1012D000822B80936800983038F09E3040F0963131
:1012E00048F020E030E008C02DE630E005C02BE6F5
:1012F00030E002C02CE630E03093E3022093E202BB
:10130000983030F481E001C0880F9A95EAF70EC05A
:10131000292F30E09E3018F42850310902C02E5099
:10132000310981E001C0880F2A95EAF78093E40231
:101330008091EB029091EC020197F1F78091E90224
:101340009091EA02892B21F180912E0290912F0237
:1013500022E08F3C9207E1F0009711F00E94D6073F
:101360008091ED028E7F8093ED0210922C021092FC
:101370002D028FEC92E090932F0280932E02E09149
:10138000E202F091E30290818091E402892B808354
:101390008EEE92E0909321028093200261E084E03F
:1013A0000E94A60860E084E00E94EC07E0914202FF
:1013B000F091430282E08083E0913E02F0913F028F
:1013C0001082E0914002F09141028FEC80831092F4
:1013D0004A02E0914602F091470286E08083E09164
:1013E0004402F0914502808180618083E091440253
:1013F000F0914502808188608083E0914402F09101
:101400004502808180688083E0914402F09145022A
:1014100080818F7D808380E090E00E941C0E80930D
:10142000220240E363E090E00E947205FC018081AB
:10143000809304018181809305018281809306015C
:1014400080E091E090936E0380936D03BC0182E392
:1014500092E00E94530361E08DE00E94A608FF2401
:10146000F39425E1222E809122028B3008F086C071
:1014700085E48093020160E071E082E392E00E94E3
:10148000530368E670E082E392E00E94410300911A
:10149000200210912102F801E258FF4FF082809162
:1014A0002202D80111968C93119712968C93129761
:1014B00080911E0290911F0213969C93139714968D
:1014C0008C9314971596FC92159716961C92169766
:1014D00086E08C938FE0E8E7F1E0DE011196019061
:1014E0000D928A95E1F74FE0BE016F5F7F4FC80113
:1014F0000E949802C8010E94380880911E029091B3
:101500001F02019690931F0280931E0282E392E0D5
:101510000E943D030E947C012B013C0190E7892E33
:1015200097E1992EA12CB12C0E947C01DC01CB010A
:1015300084199509A609B709883E9340A105B1050C
:1015400058F0B1E08B1A9108A108B108E8EE4E0EF0
:10155000E3E05E1E611C711C81149104A104B104BE
:1015600019F760E071E082E392E00E94530360E8C3
:1015700070E082E392E00E94410343C223E520939E
:101580000201009120021091210258018EE7A80E5D
:10159000B11CD501FC924801BAE78B0E911C80E189
:1015A00097E2A0E0B0E0F40180839183A283B3834B
:1015B000E7E8F1E0DE01119688E001900D928A954E
:1015C000E1F7F801E158FF4F80819181909331025A
:1015D000809330028FB7F8944090240250902502F7
:1015E00060902602709027028FBFD801DC961C9273
:1015F000DC971C92E12C312C2FB7F89480912402B7
:1016000090912502A0912602B09127022FBF841944
:101610009509A609B709F40140815181628173815E
:1016200084179507A607B70708F0E6C08FEC92E08D
:101630000E94950418161906FCF68FEC92E00E94A1
:10164000AD046C01F80184AD8E3308F06FC08F5F7C
:1016500084AFE80FF11DC4AEC60199278936910504
:1016600009F4A2C094F58E31910509F49DC0DCF413
:101670008330910509F454C08F30910509F494C06A
:10168000029709F098C0F801F4AE8FB7F894409033
:1016900024025090250260902602709027028FBF8E
:1016A00033243394A9CF8C33910509F47DC024F4FD
:1016B0008D9709F080C078C08B34910509F474C00F
:1016C0008A35910509F077C06FC0843B910509F414
:1016D0006BC09CF48738910509F466C02CF48837F8
:1016E000910509F068C060C08639910509F45CC0B5
:1016F000853A910509F05FC057C0823D910509F414
:1017000053C02CF4833C910509F055C04DC0813E77
:10171000910509F449C0803F910509F04CC044C0CF
:10172000D801DC963C9192E060E008C0A80161E03D
:10173000CE0101960E94DD0521E02CC1931788F4AB
:101740006F5FD801A60FB11DF801E90FF11D85AD3E
:10175000282F22952F7084AD807F822B8C939E5FE3
:10176000EDCFD801EC906150FD016193CF010E9453
:1017700058058E1541F0A80162E0CE0101960E9445
:10178000DD0522E007C1D5012C912223E9F16AE3AE
:1017900071E082E392E00E945303A80160E0CE0171
:1017A00001960E94DD0530C0311026CFF80184ADCE
:1017B000815084AF21CFD801DC968C91DC97815089
:1017C000DC968C93E11011C082E392E00E943D030D
:1017D000609130027091310282E392E00E945303E3
:1017E0006C2D8FE391E00E9440056C2D8CE591E01B
:1017F0000E944005E39400CFA80164E0CE01019669
:101800000E94DD0524E0C6C0009120021091210253
:10181000D8011196EC9011971296BC9012971596DC
:10182000AC9015971396CC901397D12CDC2CCC242C
:1018300014968C91C80ED11C60E071E082E392E0B6
:101840000E94530367E071E082E392E00E94040388
:101850006E2D70E080E090E04AE00E94FD046FEFA2
:1018600070E082E392E00E9404036B2D70E080E060
:1018700090E04AE00E94FD0467EF70E082E392E0AE
:101880000E9404036A2D70E080E090E04AE00E942C
:10189000FD0464EF70E082E392E00E94040340E301
:1018A00065E0C6010E947205BC0182E392E00E94DD
:1018B000530362EF70E082E392E00E9404038091A0
:1018C0002202B816D1F0F8018581813019F467ED54
:1018D00070E002C06CEB70E082E392E00E940403CF
:1018E000B801645C7F4F8EE591E00E949805B801D5
:1018F0008BE691E00E94980580C0EFE8F1E0DE0100
:101900009F9684E101900D928A95E1F7E3EAF1E078
:10191000DE015A96822D01900D928A95E1F789E1B8
:10192000E8EBF1E0DE01119601900D928A95E1F766
:1019300067E970E082E392E00E940403D801159603
:101940008C91853151F0863179F4D80194961C92AE
:1019500045E1BE01665E7F4F0EC0F80114A244E16E
:10196000BE01615D7F4F07C083E0F80184A349E1B8
:10197000BE016F5F7F4FC8010E949802D801909608
:10198000EC929097809122025F968C93C8010E94FE
:10199000380833C0E0912002F0912102808181114A
:1019A0002CC060E071E082E392E024962FAF249790
:1019B0000E94530368E471E082E392E00E94040312
:1019C00024962FAD2497622F70E080E090E04AE0EB
:1019D0000E94FD0466E171E082E392E00E9404034C
:1019E000E0912002F0912102E658FF4F6081718161
:1019F000828193814AE00E94FD0482E392E00E948A
:101A00003D030E948E022FCD8EE291E09093D00292
:101A10008093CF028FEC92E00C94D607109235029F
:101A20001092340288EE93E0A0E0B0E0809336029A
:101A300090933702A0933802B09339022EE131E03F
:101A4000309333022093320225EC30E030933F0292
:101A500020933E0224EC30E0309341022093400278
:101A600020EC30E0309343022093420221EC30E03E
:101A7000309345022093440222EC30E03093470239
:101A80002093460226EC30E030934902209348022E
:101A900010924B0210924C0210924D0210924E0284
:101AA00040E157E260E070E04093680350936903BF
:101AB00060936A0370936B0310926C031092D202CE
:101AC0001092D1028093D3029093D402A093D502B6
:101AD000B093D6028EE291E09093D0028093CF0231
:101AE0001092E6021092E5021092E8021092E702CC
:101AF0001092EA021092E9021092EC021092EB02AC
:101B00006091ED026E7F6D7F6093ED02669561706E
:101B100081E0682782E00E94EC0761E082E00E9499
:101B2000A608EEE8F2E0E491E093DF02EAE7F2E0F3
:101B3000E491F0E0EE0FFF1FEC59FD4F8591949179
:101B40009093E1028093E00260E083E00E94A608A7
:101B50008091ED0281FD04C061E083E00E94EC070A
:101B600083E08093DB02EFE8F2E0E491E093DC02B3
:101B7000EBE7F2E0E491F0E0EE0FFF1FE259FD4FDA
:101B8000859194919093DE028093DD020895AA1BC3
:101B9000BB1B51E107C0AA1FBB1FA617B70710F058
:101BA000A61BB70B881F991F5A95A9F7809590958A
:101BB000BC01CD01089597FB072E16F4009407D0C1
:101BC00077FD09D00E94C70D07FC05D03EF4909523
:101BD00081959F4F0895709561957F4F0895A1E27B
:101BE0001A2EAA1BBB1BFD010DC0AA1FBB1FEE1F97
:101BF000FF1FA217B307E407F50720F0A21BB30BE2
:101C0000E40BF50B661F771F881F991F1A9469F75D
:101C100060957095809590959B01AC01BD01CF01B9
:101C20000895EE0FFF1F0590F491E02D099481E0D7
:101C300090E0F8940C94240EF999FECF92BD81BDEA
:101C4000F89A992780B5089511E0C1E5D1E004C064
:101C5000FE010E94110E2196C235D107C9F7F894F2
:021C6000FFCFB4
:101C62000D0A3F5B7878785D202D2000E201ED01BE
:101C7200F601FE0107020F02170200000000250212
:101C8200A101EE01CC01E0016C0200000000410460
:101C9200A1019504AD04280440040D0A0D0A006C4C
:101CA200696252454356202D20756E6578706578BD
:101CB20074656420627974652873293A2000696E1C
:101CC2006F524543562D7261772000696E6F5245FF
:101CD20043562D646174610073696D756C6174653E
:101CE20064206563686F0052582D646174610064FA
:101CF20065766F206C65676765726520696C207018
:101D0200696E006465766F207363726976657265C9
:101D120020696C2070696E00436F6D616E646F2084
:101D22006E6F6E207269636F6E6F73636975746F25
:101D32000030313233343536373839414243444545
:101D420046004F4B0054582D64617461004F564554
:101D520052464C4F57004241442D435243004241A8
:101D6200442D434841520054494D454F555400506B
:0E1D720041594C4F4144004445425547000042
:00000001FF
