:100000000C9432010C945A010C945A010C948B03F9
:100010000C948B030C948B030C945A010C945A018E
:100020000C945A010C945A010C945A010C945A01E4
:100030000C945A010C945A010C945A010C945A01D4
:100040000C94FF090C945A010C946F0A0C94490A01
:100050000C945A010C945A010C945A010C945A01B4
:100060000C945A010C945A01434D4420207261773C
:10007000202D202020202020005D202D20006675CE
:100080006C6C20726177202D206C656E3A5B0043AA
:100090004D445F52436F64652020203078203A2021
:1000A00000434D442F737562434D44202030782027
:1000B0003A20005345514E4F202020202020203050
:1000C00078203A2000435243205265632F43616CED
:1000D000203078203A20005D202D2000636F6D6D68
:1000E000616E644461746120617363202D206C65CE
:1000F0006E3A5B005D202D2000636F6D6D616E6454
:100100004461746120686578202D206C656E3A5BCF
:10011000005D202D200066756C6C446174612020A8
:100120002020686578202D206C656E3A5B00202DBC
:10013000205B72637664436F64653A2000202D2053
:100140005B69742773204E4F5420666F72206D6573
:100150002E2E2E5D00202D205B574F5720697427CF
:100160007320666F72206D652E2E2E5D00202D206F
:100170005365714E4F3A20005D002F00202D2D3E1B
:10018000205B005D002F00202D205B0000000000A0
:10019000250028002B000000000023002600290075
:1001A000040404040404040402020202020203031D
:1001B0000303030301020408102040800102040825
:1001C0001020010204081020536F6E6F20696E200A
:1001D000506F6C6C696E672073696D756C617469C2
:1001E0006F6E206D6F646500707265706172696E0C
:1001F0006720726573706F6E7365206D65737361D0
:1002000067652E2E2E2000202D204E657373756E8F
:1002100061207269636869657374612072696365DE
:100220007675746120696E20756E2074656D706FCF
:10023000206469206D533A200072436F64653A2050
:100240000000000000240027002A00000000080031
:10025000020100000304070000000000000000008D
:10026000A10A180E11241FBECFEFD8E0DEBFCDBF0C
:1002700012E0A0E0B1E0E8E1FDE102C005900D92DE
:10028000A035B107D9F723E0A0E5B2E001C01D9287
:10029000AE3EB207E1F711E0C1E3D1E004C021971F
:1002A000FE010E946C0EC033D107C9F70E945E0B9D
:1002B0000C947F0E0C940000CF93DF93CDB7DEB784
:1002C00061970FB6F894DEBF0FBECDBF21E1ECE41D
:1002D000F1E0DE01119601900D922A95E1F7ABED68
:1002E000B3E012961C921297BC0124E076956795B4
:1002F0002A95E1F79C012F70332741E050E04C0F25
:100300005D1F240F351FF901208111962C93119741
:10031000892F9927E4E0880F991FEA95E1F7FB01FF
:10032000E81BF90BE40FF51F80818C9361960FB6E3
:10033000F894DEBF0FBECDBFDF91CF910895E0915D
:100340005902F0915A020190F081E02D682F89E561
:1003500092E00994FF920F931F93CF93DF93182F8E
:10036000EB01282F30E084E0359527958A95E1F759
:100370000FE0822F802794E0220F331F9A95E1F738
:10038000F82EF22A8F2D0E9441098CAD8F5F8CAF21
:10039000FE01E80FF11DF4AE1F7020E1129FC001B5
:1003A00011241027182B812F0E9441098CAD8F5FDB
:1003B0008CAFC80FD11D1CAFDF91CF911F910F9152
:1003C000FF90089520915302309154022817390765
:1003D00071F49091520280915102981741F0E0918E
:1003E0005202F0E0E556FC4F808190E008958FEFD7
:1003F0009FEF089508951F93CF93DF93DC015C96E0
:100400002D913C915D972115310539F481E090E003
:1004100013969C938E9312973DC05196ED91FC914B
:10042000529750969C915097892F80951FB75E9652
:100430004C915E9741FB772770F941FD6095F894E8
:100440004081772311F0492B01C048234083E90103
:100450002197F1F748E0508160FF02C0592B01C09D
:1004600058235083E9012197F1F76695415099F798
:10047000772321F090818923808303C08081982B8A
:1004800090831FBF5C968D919C915D970197F1F7CA
:1004900021E030E0C901DF91CF911F9108952091B3
:1004A0005302309154022817390771F48091510298
:1004B0002091520290E0805C9F4F821B910960E482
:1004C00070E00E94360E089580E090E0089520913B
:1004D00053023091540228173907B9F4909152020F
:1004E00080915102981789F0E0915202F0E0E556B0
:1004F000FC4F80812091520230E02F5F3F4F2F73DD
:1005000033272093520290E008958FEF9FEF0895D4
:10051000582FFC0180E07CE89E2F951B961788F4ED
:10052000419198E0A42FA827282F30E035952795F2
:10053000822FA0FF02C0872F82274695915091F706
:10054000EBCF0895009769F0FC0101900020E9F7D6
:100550003197AF01481B590BBC0189E592E00C941F
:100560002F0880E090E008950C94A202EF92FF9291
:100570001F93CF93DF931F92CDB7DEB7182F7C0167
:100580008E2D811B861788F4F70181917F0190E001
:1005900069830E945C018BED93E00E94B4028DE6BA
:1005A00091E00E94B4026981EBCF86EE91E00F905A
:1005B000DF91CF911F91FF90EF900C94B402CF93F5
:1005C000DF931F92CDB7DEB769830E94B4026981C1
:1005D000862F90E00E945C018BED93E00E94B402B4
:1005E00086EE91E00F90DF91CF910C94B40290E0F1
:1005F0000E945C018BED93E00C94B402CF93DF93E7
:100600001092E403E3EEF3E0262F2E1BCAE0D0E0C5
:10061000322F3E0F009741F0BE010E94220E805DF6
:100620008083CB013197F4CF832FDF01119690E3C4
:10063000815010F09E93FCCF81E090E0831B9109E4
:100640008E0F9F1FDF91CF9108950F931F93CF932C
:10065000DF938C01C0E0D0E0F801EC0FFD1F649146
:10066000662371F0E0915902F0915A020190F081F5
:10067000E02D89E592E00995892B11F02196ECCFC8
:10068000CE01DF91CF911F910F91089588E791E0FE
:100690000C94A2028F929F92AF92BF920F931F93DE
:1006A000CF93DF93CDB7DEB7A1970FB6F894DEBF37
:1006B0000FBECDBF19A2423008F44AE08E010F5D93
:1006C0001F4F842E912CA12CB12CA50194010E94C6
:1006D0004A0EE62FB901CA0101501109EA3014F49B
:1006E000E05D01C0E95CD801EC93232B242B252B82
:1006F00061F7C8010E94A202A1960FB6F894DEBF6E
:100700000FBECDBFDF91CF911F910F91BF90AF90E2
:100710009F908F9008951F920F920FB60F92112401
:100720002F933F934F935F936F937F938F939F93F9
:10073000AF93BF93EF93FF93E0915302F091540274
:10074000309709F451C0968DA685B785858591FFB0
:1007500004C09C91892329F447C09C91892309F006
:1007600043C0A389B4899C918589809589238C9302
:10077000868997890197F1F7608D718DA685B78578
:10078000558538E020E0CB010197F1F7822F90E00A
:1007900095958795282F4C91452309F02068315075
:1007A00091F7868D81FD20958091510290E0019610
:1007B0008F73992730915202381749F0A091510256
:1007C000B0E0A556BC4F2C938093510203C0868D98
:1007D0008160868F828D938D0197F1F7A389B4890B
:1007E0009C918589892B8C93FF91EF91BF91AF915B
:1007F0009F918F917F916F915F914F913F912F9139
:100800000F900FBE0F901F901895E0915302F0913A
:100810005402E817F90769F4A389B4899C91858982
:10082000809589238C93109254021092530281E098
:10083000089580E008956F927F928F929F92AF9279
:10084000BF92CF92DF92EF92FF920F931F93CF93BD
:10085000DF93EA01FC012081243529F48A01025E3C
:100860001F4FCE8C05C0223509F0ADC18A01C8806A
:100870004091500231E0F8012181421330E021E043
:10088000F8015281451320E0732E720EFE01E158EB
:10089000FF4F208199249394211103C0711001C04E
:1008A000912CD62E7C018CACCC2009F43AC1F801F5
:1008B0008481A380B12CBA2CAA24A80EB11C0E945A
:1008C0004603FE01E058FF4F808191810E94B402EF
:1008D000C7010E94B40287E891E00E942503F80155
:1008E00081810E94F70285E891E00E942503F801CA
:1008F000818163E090E00E94FE020E94B40283E8DE
:1009000091E00E9425038CE791E00E942503F80105
:1009100082810E94F7028AE791E00E942503F80194
:10092000828163E090E00E94FE020E94B40288E7A8
:1009300091E00E9425038DE691E00E94250365E089
:10094000C5010E94FE020E94B402772019F085E5DD
:1009500091E002C08DE391E00E942503F7018081C0
:10096000823589F48EE291E00E942503ED2DF0E0BE
:10097000EE0FFF1FE85EFE4F808191810E94B4025E
:100980008DE50E949F01992009F41DC10E94460334
:1009900082E191E00E94B40286E191E00E94250389
:1009A000F80181915F0163E090E00E94FE020E94E5
:1009B000B40281E191E00E942503F8016081C50144
:1009C0000E94B602F9EFCF0E82E191E00E94B402DC
:1009D00089EF90E00E942503AC2CB12C63E0C501A7
:1009E0000E94FE020E94B40284EF90E00E94250360
:1009F00095E1D92E80E20E949F01DA94D110FACFBE
:100A0000380188E0680E711C6C2DC3010E94B6028B
:100A100082E191E00E94B4028CED90E00E942503F7
:100A200063E0C5010E94FE020E94B40287ED90E0DF
:100A30000E94250385E1D82E80E20E949F01DA946E
:100A4000D110FACF8BE50E949F01D62C53018A2D3D
:100A50008D198C1558F4F50181915F0190EE980F76
:100A60009F3508F080E20E949F01F1CF8DE50E9442
:100A70009F010E944603F70180818235C9F482E11B
:100A800091E00E94B40285EC90E00E942503FE01F3
:100A9000E458FF4F80810E94F7028DE691E00E94AA
:100AA000B402FE01E558FF4F80810E94F7020CC09E
:100AB00082E191E00E94B402FE01E658FF4F60819E
:100AC0008DE591E00E94DF0282E191E00E94B40294
:100AD00083EB90E00E94250362E0C80103960E9428
:100AE000B60282E191E00E94B40281EA90E00E94A5
:100AF0002503F80186810E94F7028DE691E00E94AD
:100B0000B402F80187810E94F70282E191E00E941D
:100B1000B4028FE890E00E942503F80185810E94CD
:100B2000F702882009F44FC0FE01E258FF4F808190
:100B3000882309F448C00E94460382E191E00E94A4
:100B4000B4028EE790E00E9425038CAD63E090E054
:100B50000E94FE020E94B40289E790E00E942503F1
:100B600082E191E00E94B4026CADCE01CD960E946C
:100B7000B6020E94460382E191E00E94B40288E638
:100B800090E00E9425038CAD63E090E00E94FE029D
:100B90000E94B40282E191E00E94B4026EEE680D00
:100BA000CE01845B9F4FDF91CF911F910F91FF90FA
:100BB000EF90DF90CF90BF90AF909F908F907F90FD
:100BC0006F900C94B602DF91CF911F910F91FF901F
:100BD000EF90DF90CF90BF90AF909F908F907F90DD
:100BE0006F900895DF92EF92FF920F931F93CF9330
:100BF000DF93CDB7DEB727970FB6F894DEBF0FBEF1
:100C0000CDBF8C0187E0EFE6F1E0DE0111960190A7
:100C10000D928A95E1F7F801D68C6D2DC8014F969B
:100C20000E948802E82EF801E658FF4F8083F80101
:100C300014AE82E00E944109F80194AD9F5F94AF29
:100C4000E90FF11D82E084AFFF24F394DF1448F034
:100C5000F801EF0DF11DB801868D0E94AA01F394F1
:100C6000F5CFB8018E2D0E94AA0183E00E944109B0
:100C7000F80184AD8F5F84AFE80FF11D83E084AF8E
:100C8000F801E358FF4F8081882331F0A80160E02C
:100C9000CE0101960E941B0427960FB6F894DEBF82
:100CA0000FBECDBFDF91CF911F910F91FF90EF90BD
:100CB000DF9008953F924F925F926F927F928F9252
:100CC0009F92AF92BF92CF92DF92EF92FF920F93DB
:100CD0001F93CF93DF93CDB7DEB728970FB6F89465
:100CE000DEBF0FBECDBF8C0188E0EAE9F1E0DE0196
:100CF000119601900D928A95E1F78FB7F894409084
:100D000055025090560260905702709058028FBF63
:100D1000F80114AE1082D12CC12C5801F2E8AF0EAC
:100D2000B11C480120E8820E911C332433942FB764
:100D3000F8948091550290915602A0915702B0917B
:100D400058022FBF84199509A609B709F5014081FA
:100D500051816281738184179507A607B70708F050
:100D6000F5C00E944609181619060CF70E944A0998
:100D70007C01F80184AD8E3308F070C08F5F84AFC2
:100D8000E80FF11DE4AE970133272936310509F448
:100D9000BDC0A4F52E31310509F4B8C0E4F4233008
:100DA000310509F456C02F30310509F4AFC02230A7
:100DB000310509F0B2C0F80134AE8FB7F894409015
:100DC00055025090560260905702709058028FBFA3
:100DD000CC24C394ACCF2C33310509F497C02CF448
:100DE0002D32310509F099C091C02B34310509F439
:100DF0008DC02A35310509F090C088C0243B3105EB
:100E000009F484C09CF42738310509F47FC02CF420
:100E10002837310509F081C079C02639310509F438
:100E200075C0253A310509F078C070C0223D310502
:100E300009F46CC02CF4233C310509F06EC066C087
:100E4000213E310509F462C0203F310509F065C03B
:100E50005DC0F80134AD92E060E00EC0F801E358E7
:100E6000FF4F8081882309F47EC0A80161E0CE0194
:100E700001960E941B0477C0931788F46F5FD80116
:100E8000A60FB11DF801E90FF11D85AD282F2295A0
:100E90002F7084AD807F822B8C939E5FEDCFF80105
:100EA000E60FF11DD080F801E458FF4FD082615069
:100EB000F8016193CF010E948802F801E558FF4FC5
:100EC0008083980123583F4F7901F9018D1559F01E
:100ED0008081882309F449C0A80162E0CE0101960F
:100EE0000E941B0442C08081882371F086E791E054
:100EF0000E94B402F7018081882331F0A80160E0EC
:100F0000CE0101960E941B0480E032C0C1100FCFB9
:100F1000F80184AD815084AF0ACFF80184AD8150CF
:100F200084AFD1100CC00E944603F40180819181EE
:100F30000E94B4026E2D8BE791E00E94DF026E2DBD
:100F40008DE691E00E94DF02D394F1CEF801E358E0
:100F5000FF4F8081882359F0A80164E0CE010196FB
:100F60000E941B0404C081E003C082E001C084E051
:100F700028960FB6F894DEBF0FBECDBFDF91CF919C
:100F80001F910F91FF90EF90DF90CF90BF90AF90A7
:100F90009F908F907F906F905F904F903F900895BB
:100FA0003FB7F8948091EA039091EB03A091EC0392
:100FB000B091ED0326B5A89B05C02F3F19F001960F
:100FC000A11DB11D3FBFBA2FA92F982F8827820FCF
:100FD000911DA11DB11DBC01CD0142E0660F771F1F
:100FE000881F991F4A95D1F708958F929F92AF92CB
:100FF000BF92CF92DF92EF92FF926B017C010E9431
:10100000D0074B015C01C114D104E104F104F1F0FB
:101010000E94D007DC01CB0188199909AA09BB09F4
:10102000883E9340A105B10570F321E0C21AD108B2
:10103000E108F10888EE880E83E0981EA11CB11C1F
:10104000C114D104E104F10419F7DDCFFF90EF9052
:10105000DF90CF90BF90AF909F908F900895CF92E8
:10106000DF92EF92FF920F931F93CF93DF936C0168
:101070007A018B01C0E0D0E0CE15DF0589F0D80100
:101080006D918D01D601ED91FC910190F081E02DE3
:10109000C6010995892B11F47E0102C02196ECCF7F
:1010A000C701DF91CF911F910F91FF90EF90DF90DB
:1010B000CF900895FC01918D828D981761F0828DFB
:1010C000DF01A80FB11D5D968C91928D9F5F9F737C
:1010D000928F90E008958FEF9FEF0895FC01918D1E
:1010E000828D981731F0828DE80FF11D858D90E08B
:1010F00008958FEF9FEF0895FC01918D228D892F28
:1011000090E0805C9F4F821B91098F73992708950F
:1011100089E592E00E947C0821E0892B09F420E017
:10112000822F0895FC01848DDF01A80FB11DA35A01
:10113000BF4F2C91848D90E001968F739927848FF7
:10114000A689B7892C93A089B1898C9180648C93EE
:10115000938D848D981306C00288F389E02D8081D9
:101160008F7D80830895EF92FF920F931F93CF930B
:10117000DF93EC0181E0888F9B8D8C8D981305C0E7
:10118000E889F989808185FD24C0F62E0B8D10E059
:101190000F5F1F4F0F731127E02E8C8DE8120CC0CC
:1011A0000FB607FCFACFE889F989808185FFF5CF72
:1011B000CE010E949208F1CF8B8DFE01E80FF11D48
:1011C000E35AFF4FF0820B8FEA89FB8980818062AE
:1011D00007C0EE89FF896083E889F989808180648E
:1011E000808381E090E0DF91CF911F910F91FF907C
:1011F000EF900895CF93DF93EC01888D8823C9F099
:10120000EA89FB89808185FD05C0A889B9898C910F
:1012100086FD0FC00FB607FCF5CF808185FFF2CFAA
:10122000A889B9898C9185FFEDCFCE010E949208E3
:10123000E7CFDF91CF91089580E090E0892B29F0EE
:101240000E94880881110C9400000895FC013081EF
:1012500020E0FC01E20FF11D5081568F2F5F321705
:10126000C0F7FB019C012A5D3F4FD9015A2F521B49
:10127000541718F451915D93F9CF4A5FFC01468FE2
:101280000895682F86EF92E00C94FB0186EF92E0C0
:101290000C944F0286EF92E00C9467020E94720E4B
:1012A000E3E0F1E09C012B5F3F4FDC014D91CD016C
:1012B0004193A217B307C9F78091500263E090E011
:1012C0000E94FE02FC01808180930901818180934C
:1012D0000A01828180930B01E091E703F091E8031A
:1012E000E058FF4F80E091E091838083089590E083
:1012F000FC01E55BFD4F3491FC01EC54FE4F249161
:10130000FC01E056FE4FE491EE2309F43BC0332389
:1013100039F1333091F038F43130A9F0323001F541
:1013200084B58F7D12C0373091F03830A1F0343061
:10133000B9F4809180008F7D03C0809180008F7709
:10134000809380000DC084B58F7784BD09C08091E3
:10135000B0008F7703C08091B0008F7D8093B00084
:10136000F0E0EE0FFF1FE457FE4FA591B4918FB749
:10137000F894EC91611103C020952E2301C02E2B0F
:101380002C938FBF0895CF93DF9390E0FC01EC5432
:10139000FE4F2491FC01E056FE4F8491882361F1B9
:1013A00090E0880F991FFC01EF5BFD4FC591D49130
:1013B000FC01E457FE4FA591B491611109C09FB79C
:1013C000F8948881209582238883EC912E230BC08A
:1013D000623061F49FB7F8943881822F809583231F
:1013E0008883EC912E2B2C939FBF06C08FB7F89467
:1013F000E8812E2B28838FBFDF91CF9108951F9214
:101400000F920FB60F9211242F933F938F939F93B8
:10141000AF93BF938091550290915602A0915702CD
:10142000B09158023091E90323E0230F2D3720F4C7
:101430000196A11DB11D05C026E8230F0296A11D2E
:10144000B11D2093E9038093550290935602A09317
:101450005702B09358028091EA039091EB03A09158
:10146000EC03B091ED030196A11DB11D8093EA0339
:101470009093EB03A093EC03B093ED03BF91AF9176
:101480009F918F913F912F910F900FBE0F901F90C2
:1014900018951F920F920FB60F9211242F933F931E
:1014A0004F935F936F937F938F939F93AF93BF936C
:1014B000EF93FF9389E592E00E949208FF91EF91EC
:1014C000BF91AF919F918F917F916F915F914F915C
:1014D0003F912F910F900FBE0F901F9018951F9264
:1014E0000F920FB60F9211242F938F939F93EF9328
:1014F000FF93E0916902F0916A028081E0916F02AE
:10150000F091700282FD12C09081809172028F5F13
:101510008F7320917302821751F0E0917202F0E014
:10152000E75AFD4F958F8093720201C08081FF9131
:10153000EF919F918F912F910F900FBE0F901F9061
:10154000189510925C0210925B0288EE93E0A0E086
:10155000B0E080935D0290935E02A0935F02B0932F
:1015600060022AE231E030935A022093590225ECBE
:1015700030E0309366022093650224EC30E0309333
:1015800068022093670220EC30E030936A022093D7
:10159000690221EC30E030936C0220936B0222EC64
:1015A00030E030936E0220936D0226EC30E03093F1
:1015B000700220936F0210927202109273021092C6
:1015C000740210927502109292031092930310927B
:1015D000940340E157E260E070E04093970350933A
:1015E00098036093990370939A031092F9021092F2
:1015F000F8028093FA029093FB02A093FC02B0934E
:10160000FD028AE391E09093F7028093F602109234
:101610000D0310920C0310920F0310920E03109200
:101620001103109210031092130310921203609191
:1016300014036E7F6D7F609314036695617081E083
:10164000682782E00E94770961E082E00E94C30976
:10165000E6EBF1E0E491E0930603E2EAF1E0E491E5
:10166000F0E0EE0FFF1FE457FE4F859194919093A9
:1016700008038093070360E083E00E94C309809120
:10168000140381FD04C061E083E00E94770983E0D8
:1016900080930203E7EBF1E0E491E0930303E3EAD4
:1016A000F1E0E491F0E0EE0FFF1FEA56FE4F859166
:1016B000949190930503809304030895CF93DF934F
:1016C000CDB7DEB7EF970FB6F894DEBF0FBECDBF34
:1016D000789484B5826084BD84B5816084BD85B50D
:1016E000826085BD85B5816085BD80916E00816019
:1016F00080936E00109281008091810082608093BF
:1017000081008091810081608093810080918000C0
:101710008160809380008091B10084608093B100EB
:101720008091B00081608093B00080917A008460E5
:1017300080937A0080917A00826080937A00809111
:101740007A00816080937A0080917A00806880932B
:101750007A001092C100109211031092100310929F
:101760000F0310920E0310920D0310920C038DE9DB
:1017700091E09093130380931203909102039631AA
:1017800008F057C02DEB30E030930D0320930C038D
:101790002BE931E030930F0320930E032CE231E06C
:1017A000309311032093100320916800983050F07B
:1017B00031E09E3008F430E081E001C0880F3A95B6
:1017C000EAF701C084E0822B80936800983038F0FB
:1017D0009E3040F0963148F020E030E008C02DE621
:1017E00030E005C02BE630E002C02CE630E030935C
:1017F0000A0320930903983030F481E001C0880F78
:101800009A95EAF70EC0292F30E09E3018F4285040
:10181000310902C02E50310981E001C0880F2A959C
:10182000EAF780930B0380911203909113030197C1
:10183000F1F78091100390911103892B21F1809190
:1018400053029091540222E0863F9207E1F0009704
:1018500011F00E940504809114038E7F809314037D
:10186000109251021092520286EF92E0909354022D
:1018700080935302E0910903F0910A0390818091D3
:101880000B03892B808385E193E09093E803809399
:10189000E70361E084E00E94C30960E084E00E9405
:1018A0007709E0916902F0916A0282E08083E09119
:1018B0006502F09166021082E0916702F091680281
:1018C0008FEC808310927102E0916D02F0916E02B4
:1018D00086E08083E0916B02F0916C0280818061F0
:1018E0008083E0916B02F0916C028081886080833C
:1018F000E0916B02F0916C02808180688083E091BE
:101900006B02F0916C0280818F7D808380E090E09B
:101910000E94770E8093500280E091E00E94B40212
:1019200061E08DE00E94C30990E2892E9EE4992E29
:10193000A12CB12C22E0F22E30E1432E37E2532EBF
:10194000612C712C90915002809111019B3008F014
:10195000B9C0882389F085ED91E00E9450098091FB
:10196000E7039091E803FC01E358FF4F21E0208357
:10197000319610823196108280E091E00E94B4028C
:1019800088EC91E00E9425030E9446030091E70342
:101990001091E80386E0E6E4F1E0DE019F96019015
:1019A0000D928A95E1F71FAE33243394680182E8E3
:1019B000C80ED11C84E1282E8FAD833008F06CC096
:1019C00080915002F80181838FADFE013196E80FBE
:1019D000F11DE80FF11D86A5F80182838091E503D2
:1019E0009091E603938384831582F682378227E001
:1019F0002083EDEEF1E0DE015A9681E101900D9237
:101A00008A95E1F741E1BE01665E7F4FC8010E9401
:101A1000260961E084E00E947709C8010E94F2056E
:101A200060E084E00E947709F60140825182628280
:101A30007382C8010E945A06E82EF801908180E066
:101A4000F801E80FF11D3081368F8F5F9817C0F7CE
:101A5000911112C0F801F3A2EEEFF1E0DE01119650
:101A6000822D01900D928A95E1F744E1BE016F5FEE
:101A70007F4FC8010E942609A8016E2D8BED91E0D1
:101A80000E941B0460ED77E080E090E00E94F50783
:101A90008FAD8F5F8FAF90CF83EE91E00E94B40245
:101AA0008091E5039091E60301969093E60380937D
:101AB000E5030E94460360E177E280E090E00E9447
:101AC000F507B1C08823B1F087EE91E00E9450097C
:101AD0008091E7039091E803FC01E358FF4F21E078
:101AE00020833196108231961082339680829182C3
:101AF000A282B3820E9446038091E7039091E8039B
:101B00000E945A06D82E0091E7031091E803F801CD
:101B1000811164C0D180928180915002981381C05C
:101B2000E2E1F2E0DE019F9680E101900D928A955C
:101B3000E1F785E1E2E2F2E0DE015A9601900D92D2
:101B40008A95E1F789E1E7E3F2E0DE011196019081
:101B50000D928A95E1F7F80186818531A9F08631E9
:101B6000C1F0823001F58781813039F584EE91E052
:101B70000E94B40282E191E00E94B40288EE91E0FA
:101B80000E9425030E94460340E1BE01615D7F4F34
:101B900004C045E1BE01665E7F4FC8010E94260970
:101BA000F80113A20AC049E1BE016F5F7F4FC8016F
:101BB0000E94260983E0F80183A3F801D0A2809156
:101BC0005002878F61E084E00E947709C8010E947B
:101BD000F20560E084E00E94770923C080818111D2
:101BE00020C080E091E00E94B40289E392E00E946C
:101BF00025036D2D70E080E090E04AE00E944A03EA
:101C000087E092E00E942503E091E703F091E8036A
:101C1000EE57FF4F60817181828193814AE00E947B
:101C20004A030E944603109211010E941C098ACEA9
:101C30008AE391E09093F7028093F60286EF92E0B8
:101C40000C940504AA1BBB1B51E107C0AA1FBB1FB4
:101C5000A617B70710F0A61BB70B881F991F5A9538
:101C6000A9F780959095BC01CD01089597FB072EAB
:101C700016F4009407D077FD09D00E94220E07FCCD
:101C800005D03EF4909581959F4F0895709561958C
:101C90007F4F0895A1E21A2EAA1BBB1BFD010DC0A8
:101CA000AA1FBB1FEE1FFF1FA217B307E407F5070C
:101CB00020F0A21BB30BE40BF50B661F771F881FE8
:101CC000991F1A9469F760957095809590959B017E
:101CD000AC01BD01CF010895EE0FFF1F0590F491F7
:101CE000E02D099481E090E0F8940C947F0EF9992E
:101CF000FECF92BD81BDF89A992780B5089511E075
:101D0000C1E3D1E004C0FE010E946C0E2196C233F3
:081D1000D107C9F7F894FFCFD9
:101D18000D0A5B536C6176652D7878785D202D20EF
:101D280000010A2020202000A201A501AE01B60171
:101D3800BF01C701CF0100000000B3082F087C08CD
:101D48005A086E08FA0800000000FB012F084F022D
:101D58006702E201FA010B000C000D00303132334A
:101D680034353637383941424344454600784D6961
:101D78007474656420435243203078203A2000541C
:101D8800582D6C6962000D0A0D0A006C6962524593
:101D98004356202D20756E657870657874656420CB
:101DA800627974652873293A200052582D64617449
:101DB80061004F4B004F564552464C4F5700424129
:101DC800442D435243004241442D4348415200545C
:101DD800494D454F5554005041594C4F41440044DA
:101DE8004542554700456D756C610054582D706F1C
:101DF8006C6C000A0A0A00536C61766500706F6C9F
:101E08006C696E6720726571756573742100544939
:101E18004D454F5554206F636375727265642E2E5D
:101E28002E00506F6C6C696E6720616E73776572F7
:101E380021006465766F2073637269766572652028
:101E4800696C2070696E00436F6D616E646F206EFF
:101E58006F6E207269636F6E6F73636975746F005C
:00000001FF
