:100000000C9435010C945D010C945D010C94C907AE
:100010000C94C9070C94C9070C945D010C945D0104
:100020000C945D010C945D010C945D010C945D01D8
:100030000C945D010C945D010C945D010C945D01C8
:100040000C941C050C945D010C948C050C946605B5
:100050000C945D010C945D010C945D010C945D01A8
:100060000C945D010C945D010A0A00536F6E6F20C1
:10007000696E20506F6C6C696E672073696D756C6A
:100080006174696F6E206D6F646500707265706178
:1000900072696E6720726573706F6E7365206D652F
:1000A00073736167652E2E2E2000202D204E657300
:1000B00073756E612072696368696573746120721B
:1000C0006963657675746120696E20756E2074654C
:1000D0006D706F206469206D533A200072637664FE
:1000E00052436F64653A200000000000240027009E
:1000F0002A000000000800020100000304070000BD
:10010000000000000000434D442020726177202D44
:10011000202020202020005D202D200066756C6CA2
:1001200020726177202D206C656E3A5B00434D4450
:100130002F737562434D4420203078203A200043CD
:100140004D445F52436F64652020203078203A2070
:10015000005345514E4F2020202020202030782071
:100160003A2000435243205265632F43616C203094
:1001700078203A20005D202D2000636F6D6D616E48
:10018000644461746120617363202D206C656E3A54
:100190005B005D202D2000636F6D6D616E644461B6
:1001A000746120686578202D206C656E3A5B005D77
:1001B000202D200066756C6C446174612020202025
:1001C000686578202D206C656E3A5B00202D205BE1
:1001D00072637664436F64653A2000202D205B696A
:1001E000742773204E4F5420666F72206D652E2E3B
:1001F0002E5D00202D205B574F57206974277320F8
:10020000666F72206D652E2E2E5D00202D205365A9
:10021000714E4F3A20005D002F00202D2D3E205BB7
:10022000005D002F00202D205B0000000000250055
:1002300028002B00000000002300260029000404F1
:10024000040404040404020202020202030303037E
:10025000030301020408102040800102040810205A
:10026000010204081020740E6A0E11241FBECFEF85
:10027000D8E0DEBFCDBF12E0A0E0B1E0E6E3FFE1F1
:1002800002C005900D92A637B107D9F724E0A6E782
:10029000B2E001C01D92A43BB207E1F711E0C4E354
:1002A000D1E004C02197FE010E947B0FC333D10728
:1002B000C9F70E94400C0C948E0F0C940000CF9252
:1002C000DF92EF92FF920F931F93CF93DF936C0116
:1002D0007A018B01C0E0D0E0CE15DF0589F0D801AE
:1002E0006D918D01D601ED91FC910190F081E02D91
:1002F000C6010995892B11F47E0102C02196ECCF2D
:10030000C701DF91CF911F910F91FF90EF90DF9088
:10031000CF900895FC01918D828D981761F0828DA8
:10032000DF01A80FB11D5D968C91928D9F5F9F7329
:10033000928F90E008958FEF9FEF0895FC01918DCB
:10034000828D981731F0828DE80FF11D858D90E038
:1003500008958FEF9FEF0895FC01918D228D892FD5
:1003600090E0805C9F4F821B91098F7399270895BD
:100370008AEB92E00E94AC0121E0892B09F420E095
:10038000822F0895FC01848DDF01A80FB11DA35AAF
:10039000BF4F2C91848D90E001968F739927848FA5
:1003A000A689B7892C93A089B1898C9180648C939C
:1003B000938D848D981306C00288F389E02D808187
:1003C0008F7D80830895EF92FF920F931F93CF93B9
:1003D000DF93EC0181E0888F9B8D8C8D981305C095
:1003E000E889F989808185FD24C0F62E0B8D10E007
:1003F0000F5F1F4F0F731127E02E8C8DE8120CC07A
:100400000FB607FCFACFE889F989808185FFF5CF1F
:10041000CE010E94C201F1CF8B8DFE01E80FF11DCC
:10042000E35AFF4FF0820B8FEA89FB89808180625B
:1004300007C0EE89FF896083E889F989808180643B
:10044000808381E090E0DF91CF911F910F91FF9029
:10045000EF900895CF93DF93EC01888D8823C9F046
:10046000EA89FB89808185FD05C0A889B9898C91BD
:1004700086FD0FC00FB607FCF5CF808185FFF2CF58
:10048000A889B9898C9185FFEDCFCE010E94C20168
:10049000E7CFDF91CF91089580E090E0892B29F09C
:1004A0000E94B80181110C9400000895682F8AEB16
:1004B00092E00C94E301411107C0362FFB014E2F4F
:1004C000431B21912111FBCF362FDC01AC5BBF4FC9
:1004D000FB012E2F231B241718F421912D93F9CF04
:1004E0004A5FFC0144AF0895DC018C9190E0FD016E
:1004F000E90FF11D208124AF9F5F8917C0F7089590
:10050000682F87E593E00C94E20587E593E00C946F
:10051000360687E593E00C944E060E94810FE3E0D7
:10052000F1E09C012B5F3F4FDC014D91CD014193E8
:10053000A217B307C9F780917F0263E090E00E94A1
:100540002907FC01808180930901818180930A0140
:10055000828180930B018091780290917902FC0155
:10056000EB50FF4F2081222329F0339680E091E069
:10057000918380830895BF92CF92DF92EF92FF9292
:100580000F931F93CF93DF937C01162FEA01262F41
:1005900030E084E0359527958A95E1F70FE0822FCA
:1005A000802794E0220F331F9A95E1F7B82EB22AE4
:1005B0008B2DF70109956E01F8E7CF0ED11CF601DE
:1005C00080818F5F8083FE01E80FF11DE858FF4FA7
:1005D000B0821F70F0E11F9FC00111241027182B5B
:1005E000812FF7010995F60180818F5F8083C80F05
:1005F000D11DC858DF4F1883DF91CF911F910F9104
:10060000FF90EF90DF90CF90BF900895582FFC019E
:1006100080E07CE89E2F951B961788F4419198E026
:10062000A42FA827282F30E035952795822FA0FFEB
:1006300002C0872F82274695915091F7EBCF0895FE
:1006400090E00E94A8060C94850690E0FC01EE5014
:10065000FF4F3491FC01EE5AFD4F2491FC01E25C06
:10066000FD4FE491EE2309F43BC0332339F13330DD
:1006700091F038F43130A9F0323001F584B58F7D36
:1006800012C0373091F03830A1F03430B9F4809195
:1006900080008F7D03C0809180008F7780938000E1
:1006A0000DC084B58F7784BD09C08091B0008F776D
:1006B00003C08091B0008F7D8093B000F0E0EE0F1A
:1006C000FF1FE65DFD4FA591B4918FB7F894EC91B3
:1006D000611103C020952E2301C02E2B2C938FBFB8
:1006E00008952F923F924F925F926F927F928F92D6
:1006F0009F92AF92BF92CF92DF92EF92FF920F93B1
:100700001F93CF93DF93CDB7DEB7C154D1090FB696
:10071000F894DEBF0FBECDBF8C0186E0E2E1F1E0D0
:10072000DE01D79601900D928A95E1F71DAE480142
:100730008CE3880E911C5E0190E3A90EB11C27E0AA
:10074000C22ECA0CF801E650FF4FFFAFEEAF30EDFE
:10075000432E37E0532E612C712CC8018F5B9F4FC5
:1007600022969FAF8EAF22978DAD833008F0E0C008
:1007700080917F02F80181838DADFE013196E80FF3
:10078000F11DE80FF11D86A9F801828380917602A0
:100790009091770293838483158282E0868381E03F
:1007A000878387E08083C8010E94740281E1ECE5C1
:1007B000F1E0DE015F9601900D928A95E1F740E04D
:1007C000BE01615E7F4FC8010E945B0261E084E070
:1007D0000E94250360E872E0C8010E94C30B60E03C
:1007E00084E00E94250314017501F501D4018D9167
:1007F0008193CE12FCCFEEADFFAD4082518262827A
:100800007382C8010E943B0AD82E811104C0C8011E
:100810000E94740237C0F70181917F01F101819339
:100820001F01CE10F8CFC8010E9474028EE1E5E7E7
:10083000F1E0DE01119601900D928A95E1F7ED2C21
:10084000F12CD701AA0FBB1FA25EBE4F8C91E82FDF
:100850001196FC9127E0281B922F9E0F81918823EF
:1008600041F0A1E0B0E0AC0FBD1FA90FB11D8C930A
:10087000F3CF4EE1BE016F5F7F4FC8010E945B0264
:10088000D11004C0C8010E94740242C0F701EE0FEB
:10089000FF1FE25EFE4F20814181ACE4B1E0E8E859
:1008A000F2E0CF01885892403D91332311F031930B
:1008B000F8CFA22FB42F8E1B9F0B9C012E0F3F1F32
:1008C0004D91442311F04193F8CFAEE4B1E02E54A2
:1008D0003140C9018A0F9B1F4D91442311F0419370
:1008E000F8CFA0E5B1E080559140AC014A0F5B1F05
:1008F0002D91222311F02193F8CF108268E872E045
:10090000C8010E945B022296EEADFFAD2297D08215
:1009100088E690E00E948706A8016D2D8DE691E0A3
:100920000E9459080E9450078DAD8F5F8DAF1CCF7C
:10093000809176029091770201969093770280934E
:100940007602CF5BDF4F0FB6F894DEBF0FBECDBF90
:10095000DF91CF911F910F91FF90EF90DF90CF909B
:10096000BF90AF909F908F907F906F905F904F90CF
:100970003F902F900895CF93DF9390E0FC01EE5AC3
:10098000FD4F2491FC01E25CFD4F8491882361F1CD
:1009900090E0880F991FFC01E851FF4FC591D49159
:1009A000FC01E65DFD4FA591B491611109C09FB7AF
:1009B000F8948881209582238883EC912E230BC0A4
:1009C000623061F49FB7F8943881822F8095832339
:1009D0008883EC912E2B2C939FBF06C08FB7F89481
:1009E000E8812E2B28838FBFDF91CF9108953FB7E9
:1009F000F89480917B0290917C02A0917D02B0914D
:100A00007E0226B5A89B05C02F3F19F00196A11DB7
:100A1000B11D3FBFBA2FA92F982F8827820F911D94
:100A2000A11DB11DBC01CD0142E0660F771F881FDB
:100A3000991F4A95D1F708951F920F920FB60F9202
:100A400011242F933F938F939F93AF93BF938091E4
:100A5000840290918502A0918602B0918702309124
:100A60007A0223E0230F2D3720F40196A11DB11D3A
:100A700005C026E8230F0296A11DB11D20937A021E
:100A80008093840290938502A0938602B09387029C
:100A900080917B0290917C02A0917D02B0917E02B8
:100AA0000196A11DB11D80937B0290937C02A093BF
:100AB0007D02B0937E02BF91AF919F918F913F9144
:100AC0002F910F900FBE0F901F9018951F920F92AD
:100AD0000FB60F9211242F933F934F935F936F9311
:100AE0007F938F939F93AF93BF93EF93FF938AEB83
:100AF00092E00E94C201FF91EF91BF91AF919F914F
:100B00008F917F916F915F914F913F912F910F90B6
:100B10000FBE0F901F9018951F920F920FB60F9255
:100B200011242F938F939F93EF93FF93E091CA0229
:100B3000F091CB028081E091D002F091D10282FD50
:100B400012C090818091D3028F5F8F732091D40265
:100B5000821751F0E091D302F0E0E654FD4F958FFB
:100B60008093D30201C08081FF91EF919F918F917B
:100B70002F910F900FBE0F901F901895E091BA0221
:100B8000F091BB020190F081E02D682F8AEB92E09A
:100B9000099420918202309183022817390771F459
:100BA0009091810280918002981741F0E09181023A
:100BB000F0E0EC58FB4F808190E008958FEF9FEFBD
:100BC000089508951F93CF93DF93DC015C962D91D8
:100BD0003C915D972115310539F481E090E0139641
:100BE0009C938E9312973DC05196ED91FC91529734
:100BF00050969C915097892F80951FB75E964C9187
:100C00005E9741FB772770F941FD6095F89440812C
:100C1000772311F0492B01C048234083E901219734
:100C2000F1F748E0508160FF02C0592B01C0582302
:100C30005083E9012197F1F76695415099F77723A1
:100C400021F090818923808303C08081982B908339
:100C50001FBF5C968D919C915D970197F1F721E004
:100C600030E0C901DF91CF911F9108952091820258
:100C7000309183022817390771F480918002209106
:100C8000810290E0805C9F4F821B910960E470E0DC
:100C90000E94450F089580E090E00895209182021F
:100CA0003091830228173907B9F49091810280911D
:100CB0008002981789F0E0918102F0E0EC58FB4F38
:100CC00080812091810230E02F5F3F4F2F733327C7
:100CD0002093810290E008958FEF9FEF0895009791
:100CE00069F0FC0101900020E9F73197AF01481B42
:100CF000590BBC018AEB92E00C945F0180E090E01C
:100D0000089585E092E00C946F060C946F060F93A3
:100D10001F93CF93DF938C01C0E0D0E0F801EC0F7C
:100D2000FD1F6491662371F0E091BA02F091BB025D
:100D30000190F081E02D8AEB92E00995892B11F06A
:100D40002196ECCFCE01DF91CF911F910F910895A5
:100D5000CF93DF93CDB7DEB761970FB6F894DEBFC0
:100D60000FBECDBF21E1E0EEF1E0DE011196019072
:100D70000D922A95E1F7A8E8B2E012961C9212971C
:100D8000BC0124E0769567952A95E1F79C012F70C8
:100D9000332741E050E04C0F5D1F240F351FF90150
:100DA000208111962C931197892F9927E4E0880FC1
:100DB000991FEA95E1F7FB01E81BF90BE40FF51F1A
:100DC00080818C93CD0161960FB6F894DEBF0FBE83
:100DD000CDBFDF91CF910895EF92FF921F93CF93F4
:100DE000DF931F92CDB7DEB7182F7C018E2D811BAC
:100DF000861778F4F70181917F0190E069830E9462
:100E0000A8060E9485068DE392E00E94850669810E
:100E1000EDCF81EA91E00F90DF91CF911F91FF908C
:100E2000EF900C948506CF93DF931F92CDB7DEB77A
:100E300069830E9485066981862F90E00E94A8063A
:100E40000E94850681EA91E00F90DF91CF910C948A
:100E50008506CF93DF9310929102E0E9F2E0262F0E
:100E60002E1BCAE0D0E0322F3E0F009741F0BE01AA
:100E70000E94310F805D8083CB013197F4CF832FA7
:100E8000DF01119690E3815010F09E93FCCF81E03A
:100E900090E0831B91098E0F9F1FDF91CF910895E2
:100EA0008F929F92AF92BF92CF92DF92EF92FF927A
:100EB0000E94F7044B015C0180E1C82E87E2D82E26
:100EC000E12CF12C0E94F704DC01CB01881999096F
:100ED000AA09BB09883E9340A105B10558F021E05D
:100EE000C21AD108E108F10888EE880E83E0981E46
:100EF000A11CB11CC114D104E104F10419F7FF9045
:100F0000EF90DF90CF90BF90AF909F908F9008951B
:100F10008F929F92AF92BF920F931F93CF93DF93C5
:100F2000CDB7DEB7A1970FB6F894DEBF0FBECDBF29
:100F300019A2423008F44AE08E010F5D1F4F842E43
:100F4000912CA12CB12CA50194010E94590FE62FE0
:100F5000B901CA0101501109EA3014F4E05D01C081
:100F6000E95CD801EC93232B242B252B61F7C801D6
:100F70000E946F06A1960FB6F894DEBF0FBECDBFDC
:100F8000DF91CF911F910F91BF90AF909F908F9065
:100F900008951F920F920FB60F9211242F933F9333
:100FA0004F935F936F937F938F939F93AF93BF9371
:100FB000EF93FF93E0918202F0918302309709F45E
:100FC00051C0968DA685B785858591FF04C09C91FB
:100FD000892329F447C09C91892309F043C0A38940
:100FE000B4899C918589809589238C93868997897A
:100FF0000197F1F7608D718DA685B785558538E02D
:1010000020E0CB010197F1F7822F90E0959587952D
:10101000282F4C91452309F02068315091F7868D97
:1010200081FD20958091800290E001968F73992731
:1010300030918102381749F0A0918002B0E0AC589D
:10104000BB4F2C938093800203C0868D8160868F76
:10105000828D938D0197F1F7A389B4899C9185893D
:10106000892B8C93FF91EF91BF91AF919F918F91BD
:101070007F916F915F914F913F912F910F900FBE94
:101080000F901F901895E0918202F0918302E8176B
:10109000F90769F4A389B4899C918589809589238E
:1010A0008C93109283021092820281E0089580E076
:1010B00008955F926F927F928F929F92AF92BF92AC
:1010C000CF92DF92EF92FF920F931F93CF93DF9314
:1010D000FA01EB50FF4F2081222309F4BCC1FC012F
:1010E0002081243519F4EA01EC9604C0223509F078
:1010F000B2C1EA0170917F0231E02981721330E0C0
:1011000021E0EA817E1320E0632E620EFA01EA50AC
:10111000FF4F2081211103C0662009F49CC18A0180
:10112000F62E6C01E8805A01F8E7AF0EB11CF5010C
:101130007080EE2009F438C18C818B80912C982C22
:101140008824880E911C0E948106F801E850FF4F08
:10115000808191810E948506C6010E94850685E2F4
:1011600092E00E94870689810E94200383E292E038
:101170000E948706898163E090E00E9429070E940F
:10118000850681E292E00E9487068AE192E00E9451
:1011900087068A810E94200388E192E00E948706E8
:1011A0008A8163E090E00E9429070E94850686E11B
:1011B00092E00E9487068BE092E00E94870665E03D
:1011C000C4010E9429070E948506662019F083EF5A
:1011D00091E002C08BED91E00E948706F6018081CC
:1011E000823589F48CEC91E00E948706EF2DF0E0C7
:1011F000EE0FFF1FE25EFE4F808191810E94850607
:101200008DE50E94BE050E94810688E191E00E9462
:10121000850684EB91E00E948706FE0181914F01D3
:1012200063E090E00E9429070E9485068FEA91E022
:101230000E9487066881C4010E94EC0699EF692E1E
:101240006E0C88E191E00E94850687E991E00E949A
:101250008706862C912C63E0C4010E9429070E9416
:10126000850682E991E00E94870625E1F22E80E260
:101270000E94BE05FA94F110FACF7E01F8E0EF0E5D
:10128000F11C662DC7010E94EC0688E191E00E94E6
:1012900085068AE791E00E94870663E0C4010E9408
:1012A00029070E94850685E791E00E94870685E16F
:1012B000982E80E20E94BE059A949110FACF8BE599
:1012C0000E94BE05611007C09E2DF7016E2E691A9F
:1012D00081918111FBCF5E2C4701882D85198615E0
:1012E00058F4F40181914F0190EE980F9F3508F06A
:1012F00080E20E94BE05F1CF8DE50E94BE050E94EE
:101300008106F60180818235C9F488E191E00E946E
:10131000850683E691E00E948706F801EC50FF4FB6
:1013200080810E9420038DE392E00E948506F801EF
:10133000ED50FF4F80810E9420030CC088E191E0B6
:101340000E948506F801EE50FF4F608181EF91E029
:101350000E94130788E191E00E94850681E591E0F3
:101360000E94870662E0CE0103960E94EC0688E1A7
:1013700091E00E9485068FE391E00E9487068D81AF
:101380000E94200388E191E00E9485068DE291E0B1
:101390000E9487068E810E9420038DE392E00E94C6
:1013A00085068F810E942003772009F454C0F8013C
:1013B000E950FF4F8081882309F44DC00E948106C7
:1013C00088E191E00E9485068CE191E00E94870609
:1013D000F501808163E090E00E9429070E94850664
:1013E00087E191E00E94870688E191E00E948506EE
:1013F000F5016081C80187589F4F0E94EC060E944A
:10140000810688E191E00E94850686E091E00E94D5
:101410008706F501808163E090E00E9429070E9421
:10142000850688E191E00E9485066EEE670DC80191
:1014300088579F4FDF91CF911F910F91FF90EF90B1
:10144000DF90CF90BF90AF909F908F907F906F90E4
:101450005F900C94EC06DF91CF911F910F91FF905C
:10146000EF90DF90CF90BF90AF909F908F907F9044
:101470006F905F9008952F923F924F925F926F927C
:101480007F928F929F92AF92BF92CF92DF92EF9214
:10149000FF920F931F93CF93DF93CDB7DEB72A97B9
:1014A0000FB6F894DEBF0FBECDBF8C0188E0E7E237
:1014B000F2E0DE01119601900D928A95E1F78FB767
:1014C000F8942090840230908502409086025090DB
:1014D00087028FBF780188E7E80EF11CF7011082C0
:1014E000F8011082B12CA12CC80186509F4F9A8719
:1014F0008987EB50FF4F4F013801F8EF6F0E711CD9
:101500002FB7F8948091840290918502A091860271
:10151000B09187022FBF82199309A409B509E98503
:10152000FA85408151816281738184179507A607EE
:10153000B70708F0FBC00E9485021816190604F7C9
:101540000E9489026C01F70180818A3708F072C01D
:101550008F5F8083F801E80FF11DE858FF4FC082CC
:10156000C60199278936910509F4B8C09CF58E31DA
:10157000910509F4B3C0E4F48330910509F455C032
:101580008F30910509F4AAC0029709F0AEC081E03E
:10159000F70180838FB7F894209084023090850201
:1015A00040908602509087028FBFAA24A394A8CFB0
:1015B0008C33910509F492C024F48D9709F095C0FD
:1015C0008DC08B34910509F489C08A35910509F0E5
:1015D0008CC084C0843B910509F480C09CF487389A
:1015E000910509F47BC02CF48837910509F07DC082
:1015F00075C08639910509F471C0853A910509F0E5
:1016000074C06CC0823D910509F468C02CF4833C21
:10161000910509F06AC062C0813E910509F45EC07F
:10162000803F910509F061C059C0F701508192E0F7
:1016300060E00EC0F801EB50FF4F8081882309F471
:1016400082C0A80161E0CE0101960E9459087BC0CA
:101650009517A8F46F5FD801A60FB11D9801290F47
:10166000311DF901E758FF4F8081482F42954F7097
:1016700031978081807F842B8C939E5FE9CFF80126
:10168000E60FF11DF080F801EC50FF4FF082615041
:10169000F8016193CF010E940603F801ED50FF4F5E
:1016A000808332968F1559F08081882309F44DC0CC
:1016B000A80162E0CE0101960E94590846C08081CF
:1016C000882309F444C083E092E00E948506A801C3
:1016D00060E0CE0101960E94590839C0A11010CFD8
:1016E000F7018081815080830BCFF7018081815089
:1016F0008083B11010C0F4018081882361F00E94C2
:101700008106F301808191810E9485066C2D88E01D
:1017100092E00E941307F4018081882329F06C2D48
:101720008DE392E00E941307B394EACEF801EB50E8
:10173000FF4F8081882369F0A80164E0CE01019603
:101740000E94590806C081E005C082E003C080E025
:1017500001C084E02A960FB6F894DEBF0FBECDBF5D
:10176000DF91CF911F910F91FF90EF90DF90CF907D
:10177000BF90AF909F908F907F906F905F904F90B1
:101780003F902F9008959F92AF92BF92CF92DF9299
:10179000EF92FF920F931F93CF93DF93CDB7DEB7F6
:1017A00027970FB6F894DEBF0FBECDBF8C016B013B
:1017B00087E0EFE2F2E0DE01119601900D928A954A
:1017C000E1F7F80194AC692DC801CD960E9406039B
:1017D000A82EF801EE50FF4F80837801F8E7EF0E56
:1017E000F11CF701108282E0F6010995F701908162
:1017F0009F5F9083F801E90FF11DE858FF4F82E0E9
:101800008083BB24B3949B1450F0F801EB0DF11DC1
:10181000A80164ADC6010E94BB02B394F4CFA80135
:101820006A2DC6010E94BB0283E0F6010995F7010B
:1018300080818F5F8083F801E80FF11DE858FF4F2A
:1018400083E08083F801EB50FF4F8081882331F0E3
:10185000A80160E0CE0101960E94590827960FB6B4
:10186000F894DEBF0FBECDBFDF91CF911F910F91D6
:10187000FF90EF90DF90CF90BF90AF909F90089532
:10188000CF93DF93CDB7DEB7EE970FB6F894DEBFF8
:101890000FBECDBF789484B5826084BD84B581606D
:1018A00084BD85B5826085BD85B5816085BD80912B
:1018B0006E00816080936E001092810080918100A3
:1018C000826080938100809181008160809381009B
:1018D000809180008160809380008091B10084605D
:1018E0008093B1008091B00081608093B0008091BE
:1018F0007A00846080937A0080917A00826080937D
:101900007A0080917A00816080937A0080917A00D9
:10191000806880937A001092C10010927203109236
:1019200071031092700310926F0310926E03109265
:101930006D038DE991E0909374038093730390910C
:101940006303963108F057C02DEB30E030936E03FF
:1019500020936D032BE931E03093700320936F03E4
:101960002CE231E0309372032093710320916800E0
:10197000983050F031E09E3008F430E081E001C052
:10198000880F3A95EAF701C084E0822B80936800C3
:10199000983038F09E3040F0963148F020E030E04A
:1019A00008C02DE630E005C02BE630E002C02CE692
:1019B00030E030936B0320936A03983030F481E079
:1019C00001C0880F9A95EAF70EC0292F30E09E30AB
:1019D00018F42850310902C02E50310981E001C0AD
:1019E000880F2A95EAF780936C0380917303909196
:1019F00074030197F1F78091710390917203892B21
:101A000021F1809182029091830223E08735920731
:101A1000E1F0009711F00E944308809175038E7FDA
:101A200080937503109280021092810287E593E003
:101A30009093830280938202E0916A03F0916B039A
:101A4000908180916C03892B808386E793E090934B
:101A500079028093780261E084E00E94BB0460E038
:101A600084E00E942503E091CA02F091CB0282E05B
:101A70008083E091C602F091C7021082E091C80213
:101A8000F091C9028FEC80831092D202E091CE02D5
:101A9000F091CF0286E08083E091CC02F091CD02FC
:101AA000808180618083E091CC02F091CD028081C1
:101AB00088608083E091CC02F091CD0280818068C3
:101AC0008083E091CC02F091CD0280818F7D808374
:101AD00080E090E00E94860F80937F0261E08DE0BD
:101AE0000E94BB0480E1F82E95E1E92E29E1D22E77
:101AF00033E0C32E48E8842E43E1942EA12CB12C70
:101B000090917F02809111019B3040F5882321F054
:101B100083E991E00E948F0280917802909179028E
:101B2000FC01EB50FF4F21E020833196108231966B
:101B3000108280E091E00E9485068BE690E00E9492
:101B400087060E94810680917802909179020E9416
:101B500071030E9481060E945007B7C08823B1F02C
:101B60008091780290917902FC01EB50FF4F21E0C7
:101B70002083319610823196108233968082918232
:101B8000A282B38289E991E00E948F02809178025B
:101B9000909179020E943B0A782E00917802109170
:101BA0007902F80181116CC07180928180917F026D
:101BB00098138BC0E2EAF1E0DE019F968F2D019031
:101BC0000D928A95E1F7E2EBF1E0DE015A968E2D57
:101BD00001900D928A95E1F7E7ECF1E0DE011196B4
:101BE0008D2D01900D928A95E1F7C8010E94740233
:101BF000F80186818531A9F08631C1F0823011F576
:101C00008781813051F58FE991E00E94850688E156
:101C100091E00E9485068BE890E00E9487060E9472
:101C2000810640E1BE01615D7F4F04C045E1BE0118
:101C3000665E7F4FC8010E945B02F801EF5BFF4FB9
:101C400010820BC049E1BE016F5F7F4FC8010E9447
:101C50005B02F801EF5BFF4FC082F80176AE809126
:101C60007F0285AF61E084E00E94250360E872E0B6
:101C7000C8010E94C30B60E084E00E94250325C0D8
:101C80008081811122C080E091E00E9485068CED68
:101C900090E00E948706672D70E080E090E04AE0C7
:101CA0000E9488078AEA90E00E948706E091780205
:101CB000F0917902E650FF4F6081718182819381BA
:101CC0004AE00E9488070E948106109211010E943A
:101CD0004C0216CF80E491E0909358038093570311
:101CE00087E593E00C9443081092BD021092BC0269
:101CF00088EE93E0A0E0B0E08093BE029093BF0234
:101D0000A093C002B093C10220E331E03093BB0244
:101D10002093BA0225EC30E03093C7022093C6022C
:101D200024EC30E03093C9022093C80220EC30E06C
:101D30003093CB022093CA0221EC30E03093CD02E5
:101D40002093CC0222EC30E03093CF022093CE02DD
:101D500026EC30E03093D1022093D0021092D302CF
:101D60001092D4021092D5021092D60210926B04F7
:101D700010926C0410926D0440E157E260E070E054
:101D800040937004509371046093720470937304D1
:101D900010925A031092590380935B0390935C0353
:101DA000A0935D03B0935E0380E491E090935803A9
:101DB0008093570310926E0310926D03109270037C
:101DC00010926F03109272031092710310927403B9
:101DD00010927303609175036E7F6D7F609375033E
:101DE0006695617081E0682782E00E94250361E0CA
:101DF00082E00E94BB04E4E5F2E0E491E093670333
:101E0000E0E4F2E0E491F0E0EE0FFF1FE65DFD4F4D
:101E100085919491909369038093680360E083E0D7
:101E20000E94BB048091750381FD04C061E083E0E2
:101E30000E94250383E080936303E5E5F2E0E491EB
:101E4000E0936403E1E4F2E0E491F0E0EE0FFF1FC1
:101E5000EC5CFD4F859194919093660380936503AC
:101E60000895AA1BBB1B51E107C0AA1FBB1FA617E1
:101E7000B70710F0A61BB70B881F991F5A95A9F733
:101E800080959095BC01CD01089597FB072E16F41F
:101E9000009407D077FD09D00E94310F07FC05D0D0
:101EA0003EF4909581959F4F0895709561957F4F71
:101EB0000895A1E21A2EAA1BBB1BFD010DC0AA1F8B
:101EC000BB1FEE1FFF1FA217B307E407F50720F0A3
:101ED000A21BB30BE40BF50B661F771F881F991F1E
:101EE0001A9469F760957095809590959B01AC0167
:101EF000BD01CF010895EE0FFF1F0590F491E02D75
:101F0000099481E090E0F8940C948E0FF999FECF3B
:101F100092BD81BDF89A992780B5089511E0C4E378
:101F2000D1E004C0FE010E947B0F2196C533D1078A
:061F3000C9F7F894FFCF91
:101F36000D0A5B59595959592D7878785D202D200D
:101F460000010B000C000D000A20202020003602A4
:101F56003F02480251025A0263026C02000000006E
:101F6600E3015F01AC018A019E012A020000000024
:101F7600E2055F0136064E06C905E1055B005D0018
:101F86006F63637572726564206F6E20506F6C6C40
:101F9600696E672072657175657374210054582DDA
:101FA600706F6C6C004552524F52205B2E2E2E2EB7
:101FB6002E2E2E2E5D206F636375727265642E2E33
:101FC6002E2100456D756C6100536C617665000AC3
:101FD6000A00506F6C6C696E6720616E737765726C
:101FE60021006465766F2073637269766572652079
:101FF600696C2070696E00436F6D616E646F206E50
:102006006F6E207269636F6E6F73636975746F00AC
:102016003031323334353637383941424344454618
:1020260000784D69747465642043524320307820EB
:102036003A20000D0A0D0A006C696252454356208B
:102046002D20756E65787065787465642062797484
:10205600652873293A200052582D64617461005432
:10206600582D6C6962004F4B202020202020004F05
:10207600564552464C4F57004241442D4352432049
:10208600004241442D434841520054494D454F5565
:102096005420005041594C4F41442000444542557C
:0620A6004720202000008D
:00000001FF
