:100000000C9427010C944F010C944F010C948C0517
:100010000C948C050C948C050C944F010C944F019E
:100020000C944F010C944F010C944F010C944F0110
:100030000C944F010C944F010C944F010C944F0100
:100040000C9491020C944F010C9440030C941A03ED
:100050000C944F010C944F010C944F010C944F01E0
:100060000C944F010C944F01536F6E6F20696E20FA
:10007000506F6C6C696E672073696D756C61746923
:100080006F6E206D6F6465002020202852657175A9
:1000900065737420697320666F72206D6529202E48
:1000A0002E2E20616E73776572696E670A0A0A00E8
:1000B00052657175657374206973204E4F542066C4
:1000C0006F72206D650A0A0A00202D204E65737339
:1000D000756E612072696368696573746120726905
:1000E00063657675746120696E20756E2074656D28
:1000F000706F206469206D533A200072436F64650D
:100100003A200000000000240027002A0000000020
:1001100008000201000003040700000000000000C6
:1001200000434D442020726177202D202020202084
:1001300020005D202D200066756C6C207261772098
:100140002D206C656E3A5B00434D445F52436F64F3
:10015000652020203078203A2000434D442F7375CD
:1001600062434D4420203078203A20005345514EC0
:100170004F202020202020203078203A2000536F6C
:10018000757263652F44657374203078203A2000BF
:10019000435243205265632F43616C203078203AEC
:1001A00020005D202D2000636F6D6D616E644461E1
:1001B000746120617363202D206C656E3A5B005D75
:1001C000202D2000636F6D6D616E64446174612049
:1001D000686578202D206C656E3A5B005D202D20CF
:1001E0000066756C6C44617461202020206865781D
:1001F000202D206C656E3A5B002072637664436F3D
:1002000064653A2000205365714E4F3A200000008B
:100210000000250028002B0000000000230026001D
:100220002900040404040404040402020202020279
:1002300003030303030301020408102040800102AA
:10024000040810200102040810207F0D750D1124F0
:100250001FBECFEFD8E0DEBFCDBF12E0A0E0B1E01F
:10026000E8E4FDE102C005900D92AC33B107D9F787
:1002700023E0ACE3B2E001C01D92AB3DB207E1F771
:1002800011E0C6E2D1E004C02197FE010E94840E75
:10029000C532D107C9F70E9467090C94970E0C94D8
:1002A0000000CF92DF92EF92FF920F931F93CF93B4
:1002B000DF936C017A018B01C0E0D0E0CE15DF0541
:1002C00089F0D8016D918D01D601ED91FC910190DD
:1002D000F081E02DC6010995892B11F47E0102C041
:1002E0002196ECCFC701DF91CF911F910F91FF9025
:1002F000EF90DF90CF900895FC01918D828D98173B
:1003000061F0828DDF01A80FB11D5D968C91928DF9
:100310009F5F9F73928F90E008958FEF9FEF0895F6
:10032000FC01918D828D981731F0828DE80FF11DBF
:10033000858D90E008958FEF9FEF0895FC01918DDA
:10034000228D892F90E0805C9F4F821B91098F73D3
:100350009927089580E592E00E949E0121E0892B73
:1003600009F420E0822F0895FC01848DDF01A80F9D
:10037000B11DA35ABF4F2C91848D90E001968F73CD
:100380009927848FA689B7892C93A089B1898C91EC
:1003900080648C93938D848D981306C00288F389B2
:1003A000E02D80818F7D80830895EF92FF920F93DF
:1003B0001F93CF93DF93EC0181E0888F9B8D8C8D11
:1003C000981305C0E889F989808185FD24C0F62E3F
:1003D0000B8D10E00F5F1F4F0F731127E02E8C8DD8
:1003E000E8120CC00FB607FCFACFE889F9898081C2
:1003F00085FFF5CFCE010E94B401F1CF8B8DFE01B8
:10040000E80FF11DE35AFF4FF0820B8FEA89FB8959
:100410008081806207C0EE89FF896083E889F9895D
:1004200080818064808381E090E0DF91CF911F9193
:100430000F91FF90EF900895CF93DF93EC01888D9B
:100440008823C9F0EA89FB89808185FD05C0A889D8
:10045000B9898C9186FD0FC00FB607FCF5CF80815E
:1004600085FFF2CFA889B9898C9185FFEDCFCE01A8
:100470000E94B401E7CFDF91CF91089580E090E032
:10048000892B29F00E94AA0181110C940000089583
:10049000FC01308120E0FC01E20FF11D5081568FFC
:1004A0002F5F3217C0F7FB019C012A5D3F4FD90136
:1004B0005A2F521B541718F451915D93F9CF4A5F8C
:1004C000FC01468F0895682F8DEE92E00C9429046C
:1004D0000E948A0EE3E0F1E09C012B5F3F4FDC01BC
:1004E0004D91CD014193A217B307C9F78091400206
:1004F00063E090E00E940A05FC018081809309017D
:10050000818180930A01828180930B01E0913E02F8
:10051000F0913F02E058FF4F80E091E091838083AB
:1005200008951F920F920FB60F9211242F933F93AD
:100530008F939F93AF93BF93809142029091430218
:10054000A0914402B09145023091410223E0230F73
:100550002D3720F40196A11DB11D05C026E8230FFB
:100560000296A11DB11D20934102809342029093F7
:100570004302A0934402B0934502809146029091B9
:100580004702A0914802B09149020196A11DB11DF8
:100590008093460290934702A0934802B093490289
:1005A000BF91AF919F918F913F912F910F900FBE6F
:1005B0000F901F901895EF92FF920F931F93CF9378
:1005C000DF938C017B01C0E0D0E0F701EC0FFD1F51
:1005D0006491662361F0D801ED91FC910190F08166
:1005E000E02DC8010995892B11F02196EECFCE019F
:1005F000DF91CF911F910F91FF90EF9008956115BA
:10060000710579F0FB0101900020E9F73197AF0106
:10061000461B570BDC01ED91FC910280F381E02D2C
:10062000099480E090E008956EE571E00C94FF027B
:100630000C94FF021F920F920FB60F9211242F936A
:100640003F934F935F936F937F938F939F93AF935A
:10065000BF93EF93FF9380E592E00E94B401FF9176
:10066000EF91BF91AF919F918F917F916F915F912A
:100670004F913F912F910F900FBE0F901F901895A3
:100680001F920F920FB60F9211242F938F939F9367
:10069000EF93FF93E0916002F09161028081E0911D
:1006A0006602F091670282FD12C09081809169021A
:1006B0008F5F8F7320916A02821751F0E091690277
:1006C000F0E0E05BFD4F958F8093690201C080816F
:1006D000FF91EF919F918F912F910F900FBE0F90EF
:1006E0001F901895CF93DF93CDB7DEB761970FB604
:1006F000F894DEBF0FBECDBF21E1EEEDF1E0DE01EB
:10070000119601900D922A95E1F7A1EDB3E01296B2
:100710001C921297BC0124E0769567952A95E1F723
:100720009C012F70332741E050E04C0F5D1F240FD8
:10073000351FF901208111962C931197892F992744
:10074000E4E0880F991FEA95E1F7FB01E81BF90B3C
:10075000E40FF51F80818C9361960FB6F894DEBF8D
:100760000FBECDBFDF91CF910895E0915002F0917F
:1007700051020190F081E02D682F80E592E009940C
:10078000FF920F931F93CF93DF93182FEB01282F26
:1007900030E084E0359527958A95E1F70FE0822FC8
:1007A000802794E0220F331F9A95E1F7F82EF22A62
:1007B0008F2D0E9463028CAD8F5F8CAFFE01E80F1E
:1007C000F11DF4AE1F7020E1129FC001112410270B
:1007D000182B812F0E9463028CAD8F5F8CAFC80FE6
:1007E000D11D1CAFDF91CF911F910F91FF90089504
:1007F0000F931F93CF93DF931F92CDB7DEB7082FD0
:1008000010E0161739F0802F69830E94B5031F5F2F
:100810006981F7CF0F90DF91CF911F910F910895CC
:1008200020914C0230914D022817390771F49091B4
:100830004B0280914A02981741F0E0914B02F0E0A0
:10084000EF56FC4F808190E008958FEF9FEF089561
:1008500008951F93CF93DF93DC015C962D913C911B
:100860005D972115310539F481E090E013969C9352
:100870008E9312973DC05196ED91FC9152975096F0
:100880009C915097892F80951FB75E964C915E97EB
:1008900041FB772770F941FD6095F89440817723FB
:1008A00011F0492B01C048234083E9012197F1F75A
:1008B00048E0508160FF02C0592B01C0582350838B
:1008C000E9012197F1F76695415099F7772321F0D7
:1008D00090818923808303C08081982B90831FBFE0
:1008E0005C968D919C915D970197F1F721E030E046
:1008F000C901DF91CF911F91089520914C02309151
:100900004D022817390771F480914A0220914B0259
:1009100090E0805C9F4F821B910960E470E00E9430
:100920004E0E089580E090E0089520914C023091A1
:100930004D0228173907B9F490914B0280914A0271
:10094000981789F0E0914B02F0E0EF56FC4F808160
:1009500020914B0230E02F5F3F4F2F7333272093BE
:100960004B0290E008958FEF9FEF08953FB7F89402
:100970008091460290914702A0914802B0914902AD
:1009800026B5A89B05C02F3F19F00196A11DB11DEA
:100990003FBFBA2FA92F982F8827820F911DA11D25
:1009A000B11DBC01CD0142E0660F771F881F991F62
:1009B0004A95D1F708950F931F93CF93DF93162F86
:1009C000082FEC018C2F801B811788F4899190E00F
:1009D0000E94720361ED73E080E592E00E941803CB
:1009E0006FEF71E080E592E00E941803EBCF65E5C0
:1009F00071E080E592E0DF91CF911F910F910C940F
:100A0000180390E00E94720361ED73E080E592E0CC
:100A10000C941803CF93DF931092DA03E9EDF3E01F
:100A2000262F2E1BCAE0D0E0322F3E0F009741F058
:100A3000BE010E943A0E805D8083CB013197F4CFD6
:100A4000832FDF01119690E3815010F09E93FCCF2D
:100A500081E090E0831B91098E0F9F1FDF91CF9162
:100A60000895CF93C62FBC0180E592E00E94180341
:100A70008C2F90E00E94720361ED73E080E592E0BC
:100A80000E94180365E571E080E592E0CF910C9437
:100A900018038F929F92AF92BF920F931F93CF93A1
:100AA000DF93CDB7DEB7A1970FB6F894DEBF0FBEC8
:100AB000CDBF19A2423008F44AE08E010F5D1F4FEE
:100AC000842E912CA12CB12CA50194010E94620EC0
:100AD000E62FB901CA0101501109EA3014F4E05DB2
:100AE00001C0E95CD801EC93232B242B252B61F763
:100AF000B80180E592E00E94FF02A1960FB6F8943B
:100B0000DEBF0FBECDBFDF91CF911F910F91BF9080
:100B1000AF909F908F9008951F920F920FB60F92F3
:100B200011242F933F934F935F936F937F938F93F2
:100B30009F93AF93BF93EF93FF93E0914C02F0919B
:100B40004D02309709F451C0968DA685B7858585ED
:100B500091FF04C09C91892329F447C09C9189236B
:100B600009F043C0A389B4899C9185898095892324
:100B70008C93868997890197F1F7608D718DA68591
:100B8000B785558538E020E0CB010197F1F7822F3A
:100B900090E095958795282F4C91452309F0206882
:100BA000315091F7868D81FD209580914A0290E029
:100BB00001968F73992730914B02381749F0A09115
:100BC0004A02B0E0AF56BC4F2C9380934A0203C058
:100BD000868D8160868F828D938D0197F1F7A38931
:100BE000B4899C918589892B8C93FF91EF91BF915A
:100BF000AF919F918F917F916F915F914F913F91B5
:100C00002F910F900FBE0F901F901895E0914C02FE
:100C1000F0914D02E817F90769F4A389B4899C9112
:100C20008589809589238C9310924D0210924C02F5
:100C300081E0089580E008956F927F929F92AF9235
:100C4000BF92CF92DF92EF92FF920F931F93CF93B9
:100C5000DF93EA01FC012081243529F48A01025E38
:100C60001F4FCE8C05C0223509F0D7C18A01C8803C
:100C7000D62E7C019CACCC2009F466C1F80184819D
:100C8000A380B12CBA2CAA24A80EB11C80E592E056
:100C90000E94140360914E0270914F0280E592E031
:100CA0000E9418036AE08DE20E94F8036FEF71E082
:100CB00080E592E00E941803B70180E592E00E946F
:100CC000180366E08DE20E94F80365E072E080E5BB
:100CD00092E00E94DB0265E0C5010E940A05BC01AA
:100CE00080E592E00E94180380E20E94B50366E06E
:100CF0008DE20E94F803F7018081843531F469EFB9
:100D000071E080E592E00E94DB02ED2DF0E0EE0F55
:100D1000FF1FE25EFE4F6081718180E592E00E94DC
:100D2000180380E20E94B50364E18DE20E94F8039B
:100D300068E171E080E592E00E94180361EE71E0E5
:100D400080E592E00E94DB02F80181915F0163E09F
:100D500090E00E940A05BC0180E592E00E94180321
:100D60006CED71E080E592E00E94DB02F8016081A9
:100D7000C5010E94DB04F9EFCF0E68E171E080E568
:100D800092E00E94180364EC71E080E592E00E941A
:100D9000DB026C2C712C63E0C3010E940A05BC01CC
:100DA00080E592E00E9418036FEB71E080E592E02D
:100DB0000E94DB0265E180E20E94F8036C2D58017D
:100DC00088E0A80EB11CC5010E94DB0468E171E057
:100DD00080E592E00E94180367EA71E080E592E006
:100DE0000E94DB0263E0C3010E940A05BC0180E5AA
:100DF00092E00E94180362EA71E080E592E00E94AE
:100E0000DB0265E180E20E94F8038BE50E94B503F6
:100E1000DA2C3501862D8D198C1558F4F30181914A
:100E20003F0190EE980F9F3508F080E20E94B503D5
:100E3000F1CF8DE50E94B50380E592E00E94140396
:100E4000F701808168E171E08235E9F480E592E0A4
:100E50000E94180360E971E080E592E00E94DB02E5
:100E6000FE01EC57FF4F80810E9401056FEF71E09A
:100E700080E592E00E941803FE01ED57FF4F80814C
:100E80000E9401050CC080E592E00E941803FE015B
:100E9000EE57FF4F60818FEE91E00E94310568E1CF
:100EA00071E080E592E00E9418036EE771E080E552
:100EB00092E00E94DB02F80181810E9401056FEF40
:100EC00071E080E592E00E941803F80182810E949F
:100ED000010568E171E080E592E00E9418036CE68C
:100EE00071E080E592E00E94DB0262E0C8010396B7
:100EF0000E94DB0468E171E080E592E00E94180343
:100F00006AE571E080E592E00E94DB02F8018681EB
:100F10000E9401056FEF71E080E592E00E941803E6
:100F2000F80187810E94010568E171E080E592E0A7
:100F30000E94180368E471E080E592E00E94DB0201
:100F4000F80185810E940105992009F466C0FE011F
:100F5000E158FF4F8081882309F45FC080E592E06B
:100F60000E94140368E171E080E592E00E9418039A
:100F700067E371E080E592E00E94DB028CAD63E004
:100F800090E00E940A05BC0180E592E00E941803EF
:100F900062E371E080E592E00E94DB0268E171E0CB
:100FA00080E592E00E9418036CADCE01CD960E94C0
:100FB000DB0480E592E00E94140368E171E080E5C3
:100FC00092E00E94180361E271E080E592E00E94E5
:100FD000DB028CAD63E090E00E940A05BC0180E575
:100FE00092E00E94180368E171E080E592E00E94BF
:100FF00018036EEE690DCE01845B9F4FDF91CF9198
:101000001F910F91FF90EF90DF90CF90BF90AF9026
:101010009F907F906F900C94DB04DF91CF911F9194
:101020000F91FF90EF90DF90CF90BF90AF909F9087
:101030007F906F900895582FFC0180E07CE89E2FF0
:10104000951B961788F4419198E0A42FA827282F84
:1010500030E035952795822FA0FF02C0872F822789
:101060004695915091F7EBCF0895DF92EF92FF9262
:101070000F931F93CF93DF93CDB7DEB727970FB6AC
:10108000F894DEBF0FBECDBF8C0187E0E1E0F2E057
:10109000DE01119601900D928A95E1F7F801D68C48
:1010A0006D2DC8014F960E941B08E82EF801EE57DF
:1010B000FF4F8083F80114AEE058FF4F808191818B
:1010C00090934F0280934E0282E00E946302F801E7
:1010D00094AD9F5F94AFE90FF11D82E084AFFF24D0
:1010E000F394DF1448F0F801EF0DF11DB801868D7F
:1010F0000E94C003F394F5CFB8018E2D0E94C00367
:1011000083E00E946302F80184AD8F5F84AFE80F33
:10111000F11D83E084AFF801E258FF4F80818823FE
:1011200031F0A80160E0CE0101960E941C062796CE
:101130000FB6F894DEBF0FBECDBFDF91CF911F91E8
:101140000F91FF90EF90DF90089590E0FC01E35F36
:10115000FE4F3491FC01EA5CFD4F2491FC01EE5DF1
:10116000FD4FE491EE2309F43BC0332339F13330D2
:1011700091F038F43130A9F0323001F584B58F7D2B
:1011800012C0373091F03830A1F03430B9F480918A
:1011900080008F7D03C0809180008F7780938000D6
:1011A0000DC084B58F7784BD09C08091B0008F7762
:1011B00003C08091B0008F7D8093B000F0E0EE0F0F
:1011C000FF1FE25FFD4FA591B4918FB7F894EC91AA
:1011D000611103C020952E2301C02E2B2C938FBFAD
:1011E0000895CF93DF9390E0FC01EA5CFD4F2491DA
:1011F000FC01EE5DFD4F8491882361F190E0880F42
:10120000991FFC01ED5FFE4FC591D491FC01E25F97
:10121000FD4FA591B491611109C09FB7F8948881E1
:10122000209582238883EC912E230BC0623061F4D9
:101230009FB7F8943881822F809583238883EC911F
:101240002E2B2C939FBF06C08FB7F894E8812E2BCE
:1012500028838FBFDF91CF9108958F929F92AF9295
:10126000BF92CF92DF92EF92FF926B017C010E94BE
:10127000B6044B015C01C114D104E104F104F1F0A6
:101280000E94B604DC01CB0188199909AA09BB099F
:10129000883E9340A105B10570F321E0C21AD10840
:1012A000E108F10888EE880E83E0981EA11CB11CAD
:1012B000C114D104E104F10419F7DDCFFF90EF90E0
:1012C000DF90CF90BF90AF909F908F900895CF9375
:1012D000DF93CDB7DEB7C554D1090FB6F894DEBFA2
:1012E0000FBECDBF789484B5826084BD84B5816023
:1012F00084BD85B5826085BD85B5816085BD8091E1
:101300006E00816080936E00109281008091810058
:101310008260809381008091810081608093810050
:10132000809180008160809380008091B100846012
:101330008093B1008091B00081608093B000809173
:101340007A00846080937A0080917A008260809332
:101350007A0080917A00816080937A0080917A008F
:10136000806880937A001092C10010920803109256
:1013700007031092060310920503109204031092C3
:1013800003038DE991E090930A0380930903909100
:10139000F902963108F057C02DEB30E0309304038A
:1013A000209303032BE931E03093060320930503D8
:1013B0002CE231E03093080320930703209168006A
:1013C000983050F031E09E3008F430E081E001C008
:1013D000880F3A95EAF701C084E0822B8093680079
:1013E000983038F09E3040F0963148F020E030E000
:1013F00008C02DE630E005C02BE630E002C02CE648
:1014000030E03093010320930003983030F481E002
:1014100001C0880F9A95EAF70EC0292F30E09E3060
:1014200018F42850310902C02E50310981E001C062
:10143000880F2A95EAF7809302038091090390911F
:101440000A030197F1F78091070390910803892B14
:1014500021F180914C0290914D0222E08D3E920745
:10146000E1F0009711F00E94060680910B038E7F39
:1014700080930B0310924A0210924B028DEE92E081
:1014800090934D0280934C02E0910003F091010390
:10149000908180910203892B80838CE093E090936C
:1014A0003F0280933E0261E084E00E94F10860E028
:1014B00084E00E94A508E0916002F091610282E060
:1014C0008083E0915C02F0915D021082E0915E0207
:1014D000F0915F028FEC808310926802E0916402C9
:1014E000F091650286E08083E0916202F0916302F0
:1014F000808180618083E0916202F091630280814B
:1015000088608083E0916202F0916302808180684C
:101510008083E0916202F091630280818F7D8083FD
:1015200080E090E00E948F0E8093400260E071E0C6
:1015300080E592E00E94180361E08DE00E94F108CE
:10154000DD24D39480E2282E8EE4382E412C512CB9
:1015500096E0692E90914002809111019B3008F035
:101560008EC0882321F08CE491E00E946A0260E042
:1015700071E080E592E00E94180368E670E080E583
:1015800092E00E94DB0280E592E00E941403009149
:101590003E0210913F02F801E258FF4FD082E2E193
:1015A000F1E0DE015A96862D01900D928A95E1F7C1
:1015B00024961FAE249724968FAD2497833008F08D
:1015C00044C080914002F801818324968FAD249716
:1015D000FE013196E80FF11DE80FF11D818DF80134
:1015E000828380913C0290913D0293838483158293
:1015F00022E0268317826082E0E8F1E0DE011196A6
:1016000084E101900D928A95E1F744E1BE016F5F9C
:101610007F4FC8010E94480261E084E00E94A50853
:10162000C8010E94350860E084E00E94A50860EDD2
:1016300077E080E090E00E942D0924968FAD2497FA
:101640008F5F24968FAF2497B6CF62E571E080E577
:1016500092E00E94180380913C0290913D02019615
:1016600090933D0280933C0280E592E00E94140337
:1016700060E177E280E090E00E942D0931C288238A
:1016800021F086E591E00E946A0280913E029091ED
:101690003F02FC01E258FF4FD0823196108235970D
:1016A000208231824282538280E592E00E941403BC
:1016B00000913E0210913F02E4E9F1E0DE01119653
:1016C00088E001900D928A95E1F7F801E058FF4F0C
:1016D0008081918190934F0280934E028FB7F8944E
:1016E0008090420290904302A0904402B090450244
:1016F0008FBFF80114AE1082C12C712C98012658AE
:101700003F4F26963FAF2EAF26972FB7F894809184
:10171000420290914302A0914402B09145022FBF32
:1017200088199909AA09BB092696EEADFFAD26973F
:10173000408151816281738184179507A607B7079D
:1017400008F002C18DEE92E00E947D041816190681
:10175000E4F68DEE92E00E9495047C01F80184ADE0
:101760008E3308F06EC08F5F84AFE80FF11DE4AEDA
:10177000C70199278936910509F4C1C094F58E31C6
:10178000910509F4BCC0DCF48330910509F454C020
:101790008F30910509F4B3C0029709F0B7C0F80182
:1017A000D4AE8FB7F8948090420290904302A090FC
:1017B0004402B09045028FBF77247394A6CF8C3338
:1017C000910509F49CC024F48D9709F09FC097C03F
:1017D0008B34910509F493C08A35910509F096C0C0
:1017E0008EC0843B910509F48AC09CF4873891052A
:1017F00009F485C02CF48837910509F087C07FC0B3
:101800008639910509F47BC0853A910509F07EC0BF
:1018100076C0823D910509F472C02CF4833C910599
:1018200009F074C06CC0813E910509F468C0803F26
:10183000910509F06BC063C0F80134AD92E060E03F
:101840000EC0F801E258FF4F8081882309F489C057
:10185000A80161E0CE0101960E941C0682C0931788
:10186000A0F46F5FF801E60FF11DD801A90FB11DBB
:10187000DD968C91DD97282F22952F70DC968C9128
:10188000807F822B80839E5FEACFF801E60FF11DF7
:10189000C080F801EC57FF4FC0826150F80161939E
:1018A000CF010E941B08F801ED57FF4F808398017C
:1018B00022583F4F7901F9018C1559F08081882316
:1018C00009F451C0A80162E0CE0101960E941C06F5
:1018D0004AC08081882309F44AC06CE571E080E544
:1018E00092E00E941803F7018081882309F43FC029
:1018F000A80160E0CE0101960E941C0638C071105C
:1019000004CFF80184AD815084AFFFCEF80184ADDF
:10191000815084AFC11011C080E592E00E94140391
:1019200060914E0270914F0280E592E00E94180390
:101930006E2D81E691E00E9431056E2D8FEF91E0D2
:101940000E943105C394E1CEF801E258FF4F808137
:10195000882359F0A80164E0CE0101960E941C067C
:1019600004C011E08CC012E08AC014E088C000916D
:101970003E0210913F02F801F18092818091400275
:101980009817B9F063E571E080E592E00E94FF02EC
:1019900080E592E00E94140368E171E080E592E046
:1019A0000E94180360EB70E080E592E00E94DB0289
:1019B00093C0ECE9F1E0DE019F9684E101900D9285
:1019C0008A95E1F785E1E0EBF1E0DE015A960190BE
:1019D0000D928A95E1F789E1E5ECF1E0DE011196DF
:1019E00001900D928A95E1F763E571E080E592E060
:1019F0000E94FF0280E592E00E94140368E171E01A
:101A000080E592E00E94180368E870E080E592E0CB
:101A10000E94DB02F8018681853141F0863169F050
:101A2000823091F487818130C9F401C0F80113A29A
:101A300044E1BE01615D7F4F0EC0F80113A245E194
:101A4000BE01665E7F4F07C083E0F80183A349E1D2
:101A5000BE016F5F7F4FC8010E944802F801F0A2EB
:101A600080914002878F61E084E00E94A508C80150
:101A70000E94350860E084E00E94A5082DC0E09136
:101A80003E02F0913F028081811126C060E071E04A
:101A900080E592E00E9418036BEF70E080E592E031
:101AA0000E94DB02612F70E080E090E04AE00E943B
:101AB000490569EC70E080E592E00E94DB02E0916C
:101AC0003E02F0913F02E658FF4F608171818281B2
:101AD00093814AE00E94490580E592E00E94140348
:101AE000109211010E943E0235CD80E491E0909366
:101AF000EE028093ED028DEE92E00C9406061092B9
:101B000053021092520288EE93E0A0E0B0E080937E
:101B1000540290935502A0935602B093570220E3CB
:101B200031E0309351022093500225EC30E03093A5
:101B30005D0220935C0224EC30E030935F0220933E
:101B40005E0220EC30E0309361022093600221ECD1
:101B500030E0309363022093620222EC30E0309355
:101B600065022093640226EC30E0309367022093F4
:101B700066021092690210926A0210926B02109231
:101B80006C0240E157E260E070E0409386035093BE
:101B90008703609388037093890310928A031092DD
:101BA0008B031092F0021092EF028093F102909357
:101BB000F202A093F302B093F40280E491E09093D8
:101BC000EE028093ED021092040310920303109230
:101BD0000603109205031092080310920703109257
:101BE0000A031092090360910B036E7F6D7F60936F
:101BF0000B036695617081E0682782E00E94A5086A
:101C000061E082E00E94F108E8E3F2E0E491E09311
:101C1000FD02E4E2F2E0E491F0E0EE0FFF1FE25F8C
:101C2000FD4F859194919093FF028093FE0260E0B6
:101C300083E00E94F10880910B0381FD04C061E004
:101C400083E00E94A50883E08093F902E9E3F2E0D3
:101C5000E491E093FA02E5E2F2E0E491F0E0EE0FC5
:101C6000FF1FE85EFD4F859194919093FC02809355
:101C7000FB020895AA1BBB1B51E107C0AA1FBB1F93
:101C8000A617B70710F0A61BB70B881F991F5A9508
:101C9000A9F780959095BC01CD01089597FB072E7B
:101CA00016F4009407D077FD09D00E943A0E07FC85
:101CB00005D03EF4909581959F4F0895709561955C
:101CC0007F4F0895A1E21A2EAA1BBB1BFD010DC078
:101CD000AA1FBB1FEE1FFF1FA217B307E407F507DC
:101CE00020F0A21BB30BE40BF50B661F771F881FB8
:101CF000991F1A9469F760957095809590959B014E
:101D0000AC01BD01CF010895EE0FFF1F0590F491C6
:101D1000E02D099481E090E0F8940C94970EF999E5
:101D2000FECF92BD81BDF89A992780B5089511E044
:101D3000C6E2D1E004C0FE010E94840E2196C732A3
:081D4000D107C9F7F894FFCFA9
:101D48000D0A5B536C6176652D7878785D202D20BF
:101D580000010B000C000D000A20202020000802C2
:101D68000B0214021C0225022D023502000000009D
:101D7800D50151019E017C0190011C020000000068
:101D8800290451017D04950410042804456D756CDF
:101D980061000A0A0A00536C617665000D0A0D0A93
:101DA800006C696252454356202D20756E65787027
:101DB800657874656420627974652873293A20000F
:101DC800706F6C6C696E672073696D756C6174698E
:101DD8006F6E2E0052582D64617461006465766FD1
:101DE800206C65676765726520696C2070696E0094
:101DF8006465766F20736372697665726520696CB5
:101E08002070696E00436F6D616E646F206E6F6E37
:101E1800207269636F6E6F73636975746F00303118
:101E280032333435363738394142434445460078F1
:101E38004D697474656420435243203078203A20F9
:101E48000054582D6C6962004F4B004F564552465E
:101E58004C4F57004241442D435243004241442DC8
:101E6800434841520054494D454F5554005041593B
:0C1E78004C4F41440044454255470000D7
:00000001FF
