:100000000C94B2000C94DA000C94DA000C94F6060E
:100010000C94F6060C94F6060C94DA000C94DA00B4
:100020000C94DA000C94DA000C94DA000C94DA00E8
:100030000C94DA000C94DA000C94DA000C94DA00D8
:100040000C9470070C94DA000C94E0070C94BA0737
:100050000C94DA000C94DA000C94DA000C94DA00B8
:100060000C94DA000C94DA00202020285265717577
:10007000657374206973204E4F5420666F72206D33
:1000800065290020202028526571756573742069E8
:100090007320666F72206D6529202E2E2E20616ED2
:1000A00073776572696E67005D00205B0020746F76
:1000B00020203A2000696E6F524543562066726FC9
:1000C0006D3A2000202D204E657373756E6120728D
:1000D00069636869657374612072696365767574B4
:1000E0006120696E20756E2074656D706F20646983
:1000F000206D533A200072436F64653A200000007F
:100100000000240027002A0000000008000201006F
:100110000003040700000000000000005D202D2007
:1001200000205B0000000000250028002B000000DC
:10013000000023002600290004040404040404042D
:100140000202020202020303030303030102040882
:100150001020408001020408102001020408102031
:100160001208760B11241FBECFEFD8E0DEBFCDBF43
:1001700012E0A0E0B1E0E4EDF7E102C005900D92DD
:10018000AA34B107D9F723E0AAE4B2E001C01D9276
:10019000A73EB207E1F710E0C1EBD0E004C0219721
:1001A000FE010E94CA0BC03BD107C9F70E94CB08D1
:1001B0000C94DD0B0C940000CF93DF93CDB7DEB72A
:1001C00061970FB6F894DEBF0FBECDBF21E1EAE321
:1001D000F1E0DE01119601900D922A95E1F7A0EA77
:1001E000B2E012961C921297BC0124E076956795B6
:1001F0002A95E1F79C012F70332741E050E04C0F26
:100200005D1F240F351FF901208111962C93119742
:10021000892F9927E4E0880F991FEA95E1F7FB0100
:10022000E81BF90BE40FF51F80818C9361960FB6E4
:10023000F894DEBF0FBECDBFDF91CF91089520911E
:100240009E0230919F022817390771F490919D0208
:1002500080919C02981741F0E0919D02F0E0E45AF1
:10026000FD4F808190E008958FEF9FEF08950895EE
:100270001F93CF93DF93DC015C962D913C915D97AA
:100280002115310539F481E090E013969C938E930B
:1002900012973DC05196ED91FC91529750969C91CA
:1002A0005097892F80951FB75E964C915E9741FBC2
:1002B000772770F941FD6095F8944081772311F01C
:1002C000492B01C048234083E9012197F1F748E019
:1002D000508160FF02C0592B01C058235083E901AF
:1002E0002197F1F76695415099F7772321F0908196
:1002F0008923808303C08081982B90831FBF5C96E5
:100300008D919C915D970197F1F721E030E0C90153
:10031000DF91CF911F91089520919E0230919F020D
:100320002817390771F480919C0220919D0290E07A
:10033000805C9F4F821B910960E470E00E94940BE7
:10034000089580E090E0089520919E0230919F02F0
:1003500028173907B9F490919D0280919C02981753
:1003600089F0E0919D02F0E0E45AFD4F80812091F8
:100370009D0230E02F5F3F4F2F73332720939D0264
:1003800090E008958FEF9FEF0895E0919E02F09125
:100390009F02E817F90769F4A389B4899C918589BC
:1003A000809589238C9310929F0210929E0281E087
:1003B000089580E00895DF92EF92FF920F931F93CC
:1003C000CF93DF937C01162FEA01262F30E084E0E3
:1003D000359527958A95E1F70FE0822F802794E0E5
:1003E000220F331F9A95E1F7D82ED22A8D2DF701CF
:1003F00009958CAD8F5F8CAFFE01E80FF11DD4AE77
:100400001F70F0E11F9FC00111241027182B812FAE
:10041000F70109958CAD8F5F8CAFC80FD11D1CAF54
:10042000DF91CF911F910F91FF90EF90DF90089592
:10043000582FFC0180E07CE89E2F951B961788F4CE
:10044000419198E0A42FA827282F30E035952795D3
:10045000822FA0FF02C0872F82274695915091F7E7
:10046000EBCF0895CF93DF931092A902E8EAF2E070
:10047000262F2E1BCAE0D0E0322F3E0F009741F00E
:10048000BE010E94800B805D8083CB013197F4CF49
:10049000832FDF011196815010F04E93FCCF81E045
:1004A00090E0831B91098E0F9F1FDF91CF910895DC
:1004B00090E0FC01E85FFE4F3491FC01E45BFE4FED
:1004C0002491FC01E85CFE4FE491EE2309F43BC06B
:1004D000332339F1333091F038F43130A9F0323030
:1004E00001F584B58F7D12C0373091F03830A1F01E
:1004F0003430B9F4809180008F7D03C080918000FA
:100500008F77809380000DC084B58F7784BD09C03C
:100510008091B0008F7703C08091B0008F7D809371
:10052000B000F0E0EE0FFF1FEC5DFE4FA591B4911F
:100530008FB7F894EC91611103C020952E2301C070
:100540002E2B2C938FBF0895CF93DF9390E0FC0167
:10055000E45BFE4F2491FC01E85CFE4F849188230C
:1005600061F190E0880F991FFC01E250FF4FC591A7
:10057000D491FC01EC5DFE4FA591B491611109C0CD
:100580009FB7F8948881209582238883EC912E234D
:100590000BC0623061F49FB7F8943881822F809548
:1005A00083238883EC912E2B2C939FBF06C08FB79B
:1005B000F894E8812E2B28838FBFDF91CF91089587
:1005C00087E493E00C94A40187E493E00C948C01FD
:1005D000682F87E493E00C943801EF92FF920F9319
:1005E0001F93CF93DF938C017B01C0E0D0E0F70134
:1005F000EC0FFD1F6491662361F0D801ED91FC9131
:100600000190F081E02DC8010995892B11F0219608
:10061000EECFCE01DF91CF911F910F91FF90EF9020
:100620000895CF92DF92EF92FF920F931F93CF9393
:10063000DF936C017A018B01C0E0D0E0CE15DF05BD
:1006400089F0D8016D918D01D601ED91FC91019059
:10065000F081E02DC6010995892B11F47E0102C0BD
:100660002196ECCFC701DF91CF911F910F91FF90A1
:10067000EF90DF90CF900895FC01918D828D9817B7
:1006800061F0828DDF01A80FB11D5D968C91928D76
:100690009F5F9F73928F90E008958FEF9FEF089573
:1006A0008AEA92E00C943C03FC01918D828D9817AC
:1006B00031F0828DE80FF11D858D90E008958FEF68
:1006C0009FEF0895FC01918D228D892F90E0805C31
:1006D0009F4F821B91098F73992708958AEA92E0B0
:1006E0000C9462038AEA92E00E94620321E0892B63
:1006F00009F420E0822F0895FC01848DDF01A80F0A
:10070000B11DA35ABF4F2C91848D90E001968F7339
:100710009927848FA689B7892C93A089B1898C9158
:1007200080648C93938D848D981306C00288F3891E
:10073000E02D80818F7D80830895EF92FF920F934B
:100740001F93CF93DF93EC0181E0888F9B8D8C8D7D
:10075000981305C0E889F989808185FD24C0F62EAB
:100760000B8D10E00F5F1F4F0F731127E02E8C8D44
:10077000E8120CC00FB607FCFACFE889F98980812E
:1007800085FFF5CFCE010E947C03F1CF8B8DFE015A
:10079000E80FF11DE35AFF4FF0820B8FEA89FB89C6
:1007A0008081806207C0EE89FF896083E889F989CA
:1007B00080818064808381E090E0DF91CF911F9100
:1007C0000F91FF90EF900895682F8AEA92E00C94C1
:1007D0009D03CF93DF93EC01888D8823C9F0EA89CC
:1007E000FB89808185FD05C0A889B9898C9186FD2A
:1007F0000FC00FB607FCF5CF808185FFF2CFA88927
:10080000B9898C9185FFEDCFCE010E947C03E7CFA3
:10081000DF91CF91089580E090E0892B29F00E942C
:10082000720381110C94000008950E94D00B611591
:10083000710579F0FB0101900020E9F73197AF01D4
:10084000461B570BDC01ED91FC910280F381E02DFA
:10085000099480E090E008958F929F92AF92BF92AA
:100860000F931F93CF93DF93CDB7DEB7A1970FB64A
:10087000F894DEBF0FBECDBF19A2423008F44AE0A3
:100880008E010F5D1F4F842E912CA12CB12CA50140
:1008900094010E94A80BE62FB901CA010150110969
:1008A000EA3014F4E05D01C0E95CD801EC93232B3D
:1008B000242B252B61F7B8018AEA92E00E941704E5
:1008C000A1960FB6F894DEBF0FBECDBFDF91CF91DA
:1008D0001F910F91BF90AF909F908F90089567E602
:1008E00071E00C9417040C941704CF93C62FBC012D
:1008F0008AEA92E00E9473048C2F90E00E94DC0050
:1009000060EA72E08AEA92E00E94730469E671E0AC
:100910008AEA92E0CF910C947304EF92FF920F93C6
:100920001F93CF93DF937C01C62F8A01FA01D081F8
:1009300060915A0270915B028AEA92E00E9473040D
:10094000B7018AEA92E00E947304EC2FF0E0EE0F08
:10095000FF1FE45FFE4F608171818AEA92E00E948E
:100960007304DD23E9F161E271E08AEA92E00E941A
:10097000ED0240E263E08D2F90E00E943202BC0164
:100980008AEA92E00E9473046CE171E08AEA92E0E4
:100990000E94ED020F5F1F4F78018E2D801B8D1777
:1009A00098F4F70181917F0190E00E94DC0060EAF9
:1009B00072E08AEA92E00E94730467E871E08AEAD2
:1009C00092E00E947304E9CF69E671E08AEA92E05E
:1009D000DF91CF911F910F91FF90EF900C947304D2
:1009E000DF91CF911F910F91FF90EF900895BF92EB
:1009F000CF92DF92EF92FF920F931F93CF93DF93EB
:100A0000CDB7DEB76A970FB6F894DEBF0FBECDBF85
:100A10008C017B018DE0EBE4F1E0DE011E9601909C
:100A20000D928A95E1F78DE0E8E5F1E0DE0111969F
:100A300001900D928A95E1F7F801C68C6C2DC801E2
:100A40004F960E941802B82EF80114AEE158FF4FDD
:100A50008081918190935B0280935A0282E0F7013A
:100A60000995F80194AD9F5F94AFE90FF11D82E005
:100A700084AFDD24D394CD1450F0F801ED0DF11DB9
:100A8000A801668DC7010E94DB01D394F4CFA801B1
:100A90006B2DC7010E94DB0183E0F7010995F80186
:100AA00084AD8F5F84AFE80FF11D83E084AFF80160
:100AB000E258FF4F8081882381F0A801445C5F4F9A
:100AC00060E0CE0101960E948D04A801425E5F4F56
:100AD00060E0CE010E960E948D046A960FB6F894DF
:100AE000DEBF0FBECDBFDF91CF911F910F91FF9061
:100AF000EF90DF90CF90BF9008952F923F924F924A
:100B00005F926F927F928F929F92AF92BF92CF929D
:100B1000DF92EF92FF920F931F93CF93DF93CDB7A6
:100B2000DEB76A970FB6F894DEBF0FBECDBF8C015B
:100B30004B013A018DE0E9E8F1E0DE011E960190FB
:100B40000D928A95E1F78DE0E6E9F1E0DE0111967C
:100B500001900D928A95E1F7F801E158FF4F8081ED
:100B6000918190935B0280935A028FB7F894209002
:100B700056023090570240905802509059028FBF51
:100B8000F80114AE1082D12CC12C5801FAE7AF0E37
:100B9000B11C2FB7F8948091560290915702A09102
:100BA0005802B09159022FBF82199309A409B509BF
:100BB000F501408151816281738184179507A607F1
:100BC000B70708F0F1C0F3010995181619060CF7DC
:100BD000F40109957C01F80184AD8E3308F06FC0F3
:100BE0008F5F84AFE80FF11DE4AEC7019927893606
:100BF000910509F4B4C09CF58E31910509F4AFC09C
:100C0000E4F48330910509F455C08F30910509F45F
:100C1000A6C0029709F0AAC081E0F80184AF8FB79F
:100C2000F89420905602309057024090580250900D
:100C300059028FBFCC24C394ACCF8C33910509F4F7
:100C40008EC024F48D9709F091C089C08B34910532
:100C500009F485C08A35910509F088C080C0843BBD
:100C6000910509F47CC09CF48738910509F477C09C
:100C70002CF48837910509F079C071C08639910547
:100C800009F46DC0853A910509F070C068C0823DD5
:100C9000910509F464C02CF4833C910509F066C009
:100CA0005EC0813E910509F45AC0803F910509F06C
:100CB0005DC055C0F80134AD92E060E00AC0A80103
:100CC000445C5F4F61E0CE010E960E948D0481E08E
:100CD00074C0931788F46F5FD801A60FB11DF80197
:100CE000E90FF11D85AD282F22952F7084AD807FEF
:100CF000822B8C939E5FEDCFF801E60FF11DF08003
:100D00006150F8016193CF010E9418028F1551F0D4
:100D1000A801445C5F4F62E0CE010E960E948D04F4
:100D200082E04BC0F801E258FF4F8081882309F42C
:100D300044C065E671E08AEA92E00E947304A8016B
:100D4000445C5F4F60E0CE010E960E948D04A801C6
:100D500060E0CE0101960E948D0480E02EC0C1109B
:100D600018CFF80184AD815084AF13CFF80184AD62
:100D7000815084AFD11011C08AEA92E00E946F04C2
:100D800060915A0270915B028AEA92E00E947304B9
:100D90006E2D8AE691E00E9475046E2D87E891E041
:100DA0000E947504D394F5CEA801445C5F4F64E0C3
:100DB000CE010E960E948D0484E06A960FB6F894D8
:100DC000DEBF0FBECDBFDF91CF911F910F91FF907E
:100DD000EF90DF90CF90BF90AF909F908F907F90DB
:100DE0006F905F904F903F902F9008951F920F92B9
:100DF0000FB60F9211242F933F934F935F936F93EE
:100E00007F938F939F93AF93BF93EF93FF93E09163
:100E10009E02F0919F02309709F451C0968DA685ED
:100E2000B785858591FF04C09C91892329F447C02B
:100E30009C91892309F043C0A389B4899C91858939
:100E4000809589238C93868997890197F1F7608D26
:100E5000718DA685B785558538E020E0CB010197D7
:100E6000F1F7822F90E095958795282F4C91452397
:100E700009F02068315091F7868D81FD2095809191
:100E80009C0290E001968F73992730919D0238174C
:100E900049F0A0919C02B0E0A45ABD4F2C938093DE
:100EA0009C0203C0868D8160868F828D938D019711
:100EB000F1F7A389B4899C918589892B8C93FF9143
:100EC000EF91BF91AF919F918F917F916F915F91C2
:100ED0004F913F912F910F900FBE0F901F9018953B
:100EE0001F920F920FB60F9211242F933F938F935F
:100EF0009F93AF93BF938091560290915702A09118
:100F00005802B09159023091550223E0230F2D373A
:100F100020F40196A11DB11D05C026E8230F0296FD
:100F2000A11DB11D20935502809356029093570244
:100F3000A0935802B09359028091510290915202AD
:100F4000A0915302B09154020196A11DB11D80934E
:100F5000510290935202A0935302B0935402BF9156
:100F6000AF919F918F913F912F910F900FBE0F9056
:100F70001F9018951F920F920FB60F9211242F9366
:100F80003F934F935F936F937F938F939F93AF9311
:100F9000BF93EF93FF938AEA92E00E947C03FF9154
:100FA000EF91BF91AF919F918F917F916F915F91E1
:100FB0004F913F912F910F900FBE0F901F9018955A
:100FC0001F920F920FB60F9211242F938F939F931E
:100FD000EF93FF93E091BA02F091BB028081E09120
:100FE000C002F091C10282FD12C090818091C302C3
:100FF0008F5F8F732091C402821751F0E091C3027A
:10100000F0E0E655FD4F958F8093C30201C08081CB
:10101000FF91EF919F918F912F910F900FBE0F90A5
:101020001F9018951092AD021092AC0288EE93E0DA
:10103000A0E0B0E08093AE029093AF02A093B00224
:10104000B093B1022EE131E03093AB022093AA02BB
:1010500025EC30E03093B7022093B60224EC30E068
:101060003093B9022093B80220EC30E03093BB02F9
:101070002093BA0221EC30E03093BD022093BC02F1
:1010800022EC30E03093BF022093BE0226EC30E029
:101090003093C1022093C0021092C3021092C40286
:1010A0001092C5021092C60240E157E260E070E083
:1010B0004093E0035093E1036093E2037093E303F2
:1010C0001092E40310924A031092490380934B0359
:1010D00090934C03A0934D03B0934E038EE291E0A6
:1010E000909348038093470310925E0310925D0330
:1010F0001092600310925F031092620310926103DA
:101100001092640310926303609165036E7F6D7F9C
:10111000609365036695617081E0682782E00E94B4
:10112000580261E082E00E94A402EEE4F1E0E49162
:10113000E0935703EAE3F1E0E491F0E0EE0FFF1FE4
:10114000EC5DFE4F859194919093590380935803E1
:1011500060E083E00E94A4028091650381FD04C0E9
:1011600061E083E00E94580283E080935303EFE440
:10117000F1E0E491E0935403EBE3F1E0E491F0E07B
:10118000EE0FFF1FE25DFE4F859194919093560301
:10119000809355030895CF93DF93CDB7DEB7E297E1
:1011A0000FB6F894DEBF0FBECDBF789484B58260D1
:1011B00084BD84B5816084BD85B5826085BD85B5FB
:1011C000816085BD80916E00816080936E00109279
:1011D00081008091810082608093810080918100F4
:1011E0008160809381008091800081608093800085
:1011F0008091B10084608093B1008091B0008160E3
:101200008093B00080917A00846080937A0080910E
:101210007A00826080937A0080917A008160809366
:101220007A0080917A00806880937A001092C100E1
:1012300010926203109261031092600310925F0398
:1012400010925E0310925D038DE991E09093640328
:101250008093630390915303963108F057C02DEBB0
:1012600030E030935E0320935D032BE931E030934F
:10127000600320935F032CE231E0309362032093FC
:10128000610320916800983050F031E09E3008F4FE
:1012900030E081E001C0880F3A95EAF701C084E0B0
:1012A000822B80936800983038F09E3040F0963161
:1012B00048F020E030E008C02DE630E005C02BE625
:1012C00030E002C02CE630E030935B0320935A03F9
:1012D000983030F481E001C0880F9A95EAF70EC08B
:1012E000292F30E09E3018F42850310902C02E50CA
:1012F000310981E001C0880F2A95EAF780935C03E9
:1013000080916303909164030197F1F780916103E9
:1013100090916203892B21F180919E0290919F020E
:1013200023E087349207E1F0009711F00E94C50195
:10133000809165038E7F8093650310929C021092CA
:101340009D0287E493E090939F0280939E02E09138
:101350005A03F0915B03908180915C03892B808319
:1013600086E693E090934F0280934E0261E084E022
:101370000E94A40260E084E00E945802E091BA0258
:10138000F091BB0282E08083E091B602F091B70257
:101390001082E091B802F091B9028FEC8083109234
:1013A000C202E091BE02F091BF0286E08083E0912C
:1013B000BC02F091BD02808180618083E091BC021B
:1013C000F091BD02808188608083E091BC02F09141
:1013D000BD02808180688083E091BC02F091BD02F3
:1013E00080818F7D808380E090E00E94D50B809388
:1013F000500240E363E090E00E943202FC018081F1
:10140000809304018181809305018281809306018C
:1014100080E091E09093E6038093E503BC018AEAC3
:1014200092E00E9473048091500290E00A9744EF8A
:1014300051E0849F9001859F300D949F300D1124C1
:10144000C901330FAA0BBB0B80934A0290934B0246
:10145000A0934C02B0934D0261E08DE00E94A40283
:1014600093E5392E20E1822E27E2922EA12CB12C79
:1014700032E5C32E48E8442E43E1542E612C712CF2
:101480002091500280914E0290914F022B3008F033
:101490007FC0C0920201FC01E258FF4F10823497D6
:1014A0004082518262827382FC0110824EE653E0D8
:1014B00060E573E00E947D05811115C100914E0227
:1014C00010914F02F8019081F801E80FF11D208181
:1014D000268F8F5F9817C0F761E084E00E94580262
:1014E00068EE72E0C8010E94F70460E084E00E94A8
:1014F000580200914E0210914F02F801858181300F
:1015000071F4908180E0F801E80FF11D2081268FB1
:101510008F5F9817C0F764EE73E0C80136C0F8011A
:10152000E658FF4F80829182A282B38244EE52E05D
:1015300060EE72E0C8010E947D05F801208190E014
:10154000F801E90FF11D3081368F9F5F2917C0F731
:101550008823A9F0211113C088E0F80184A382E355
:10156000EDEBF1E0DE01119601900D928A95E1F725
:10157000DE011196F801B5968D918193FDCF64EE51
:1015800073E080914E0290914F020E94F704ABC02D
:1015900030920201FC01E258FF4F21E02083349792
:1015A00080829182A282B38244EE52E060EE72E0C9
:1015B0000E947D05F82E00914E0210914F02F80115
:1015C000811164C0D1802280E380F12CFE2CEE24B6
:1015D0008481E80EF11C60E071E08AEA92E00E94EA
:1015E000730465EB70E08AEA92E00E94ED026D2DD3
:1015F00070E080E090E04AE00E942C046DEA70E028
:101600008AEA92E00E94ED02622D70E080E090E0B4
:101610004AE00E942C046AEA70E08AEA92E00E94A2
:10162000ED0240E365E0C7010E943202BC018AEA94
:1016300092E00E94730468EA70E08AEA92E00E94F5
:10164000ED028091500228120CC063E870E08AEA33
:1016500092E00E94ED0264EE73E0C8010E94F7047C
:101660003EC068E670E08AEA92E00E94ED02A801BE
:1016700060E083EA91E00E948D04A801445C5F4F22
:1016800060E080EB91E00E948D0429C0808181118F
:1016900026C060E071E08AEA92E00E94730466EF7F
:1016A00070E08AEA92E00E94ED026F2D70E080E027
:1016B00090E04AE00E942C0464EC70E08AEA92E038
:1016C0000E94ED02E0914E02F0914F02E658FF4F6A
:1016D00060817181828193814AE00E942C048AEAB0
:1016E00092E00E946F040E940B04CACE8EE291E049
:1016F000909348038093470387E493E00C94C501DB
:10170000AA1BBB1B51E107C0AA1FBB1FA617B70727
:1017100010F0A61BB70B881F991F5A95A9F7809543
:101720009095BC01CD01089597FB072E16F4009407
:1017300007D077FD09D00E94800B07FC05D03EF44E
:10174000909581959F4F0895709561957F4F08956D
:10175000A1E21A2EAA1BBB1BFD010DC0AA1FBB1FB5
:10176000EE1FFF1FA217B307E407F50720F0A21B27
:10177000B30BE40BF50B661F771F881F991F1A9494
:1017800069F760957095809590959B01AC01BD01BE
:10179000CF010895EE0FFF1F0590F491E02D0994FD
:1017A00081E090E0F8940C94DD0BF999FECF92BDA6
:1017B00081BDF89A992780B5089510E0C1EBD0E07B
:1017C00004C0FE010E94CA0B2196C23BD107C9F793
:0417D000F894FFCFBB
:1017D4000D0A3F5B7878785D202D2000EF01FC0135
:1017E40009021602230230023D02000000009D039C
:1017F400110362033C035403E903000000003801B1
:1018040011038C01A4011F01370130313233343507
:1018140036373839414243444546006C6962534582
:101824004E442D64617461006C696253454E442DCD
:1018340072617720000D0A0D0A006C6962524543FB
:1018440056202D20756E6578706578746564206205
:101854007974652873293A20006C696252454356AD
:101864002D72617720006C6962524543562D646184
:10187400746100696E6F524543562D646174610052
:10188400696E6F524543562D72617720004E657321
:1018940073756E612072696368696573746120721F
:1018A4006963657675746120696E20756E20746550
:1018B4006D706F206469203130207365632E0020C1
:1018C4002D204F4B2E2E2E2E2E2E3A00202D204F23
:1018D400564552464C4F573A00202D204241442D44
:1018E4004352432E3A00202D204241442D43484187
:1018F400523A00202D2054494D454F55542E3A005C
:10190400202D205041594C4F41442E3A00202D2087
:0A19140044454255472E2E2E3A009E
:00000001FF
