:100000000C9467000C948F000C948F000C94CA041D
:100010000C94CA040C94CA040C948F000C948F00A6
:100020000C948F000C948F000C948F000C948F0014
:100030000C948F000C948F000C948F000C948F0004
:100040000C9444050C948F000C94B4050C948E050C
:100050000C948F000C948F000C948F000C948F00E4
:100060000C948F000C948F000000000024002700E7
:100070002A0000000008000201000003040700003D
:100080000000000000005D202D2000205B0000002B
:100090000000250028002B0000000000230026009F
:1000A00029000404040404040404020202020202FB
:1000B000030303030303010204081020408001022C
:1000C00004081020010204081020E6057D0911240F
:1000D0001FBECFEFD8E0DEBFCDBF11E0A0E0B1E0A2
:1000E000EEE9F3E102C005900D92AE3FB107D9F7FA
:1000F00023E0AEEFB1E001C01D92AB39B207E1F7EA
:1001000010E0C6E6D0E004C02197FE010E94AF09CE
:10011000C536D107C9F70E949F060C94C2090C94FA
:100120000000CF93DF93462F10925D02ECE5F2E0E2
:1001300033E03E1BCAE0D0E0232F2E0F009741F0A2
:10014000BE010E948709805D8083CB013197F4CF87
:10015000322FDF011196215010F04E93FCCF81E039
:1001600090E0831B91098E0F9F1FDF91CF9108951F
:10017000CF93DF93CDB7DEB761970FB6F894DEBFAC
:100180000FBECDBF21E1E9E3F1E0DE011196019060
:100190000D922A95E1F7A4E5B2E012961C9212970F
:1001A000BC0124E0769567952A95E1F79C012F70B4
:1001B000332741E050E04C0F5D1F240F351FF9013C
:1001C000208111962C931197892F9927E4E0880FAD
:1001D000991FEA95E1F7FB01E81BF90BE40FF51F06
:1001E00080818C9361960FB6F894DEBF0FBECDBFB1
:1001F000DF91CF9108950F931F93CF93DF938C01DD
:10020000C0E0D0E0F801EC0FFD1F6491662371F0AF
:10021000E0915E02F0915F020190F081E02D8EE5A9
:1002200092E00995892B11F02196ECCFCE01DF9158
:10023000CF911F910F910895DF92EF92FF920F934C
:100240001F93CF93DF937C01162FEA01262F30E016
:1002500084E0359527958A95E1F70FE0822F802776
:1002600094E0220F331F9A95E1F7D82ED22A8D2DD4
:10027000F70109958CAD8F5F8CAFFE01E80FF11D82
:10028000D4AE1F70F0E11F9FC00111241027182B5E
:10029000812FF70109958CAD8F5F8CAFC80FD11DF1
:1002A0001CAFDF91CF911F910F91FF90EF90DF90E6
:1002B0000895582FFC0180E07CE89E2F951B96172F
:1002C00088F4419198E0A42FA827282F30E0359595
:1002D0002795822FA0FF02C0872F82274695915035
:1002E00091F7EBCF089520915002309151022817D9
:1002F000390771F490914F0280914E02981741F0A6
:10030000E0914F02F0E0E25FFD4F808190E00895C0
:100310008FEF9FEF089508951F93CF93DF93DC0134
:100320005C962D913C915D972115310539F481E062
:1003300090E013969C938E9312973DC05196ED9149
:10034000FC91529750969C915097892F80951FB79A
:100350005E964C915E9741FB772770F941FD609561
:10036000F8944081772311F0492B01C04823408342
:10037000E9012197F1F748E0508160FF02C0592B55
:1003800001C058235083E9012197F1F76695415048
:1003900099F7772321F090818923808303C080819E
:1003A000982B90831FBF5C968D919C915D970197D0
:1003B000F1F721E030E0C901DF91CF911F9108955D
:1003C00020915002309151022817390771F4809121
:1003D0004E0220914F0290E0805C9F4F821B91095A
:1003E00060E470E00E949B09089580E090E0089529
:1003F000209150023091510228173907B9F4909199
:100400004F0280914E02981789F0E0914F02F0E080
:10041000E25FFD4F808120914F0230E02F5F3F4F20
:100420002F73332720934F0290E008958FEF9FEFB3
:100430000895E0915002F0915102E817F90769F42C
:10044000A389B4899C918589809589238C93109286
:1004500051021092500281E0089580E0089590E0EA
:10046000FC01EE58FF4F3491FC01EA54FF4F2491F8
:10047000FC01EE55FF4FE491EE2309F43BC033231A
:1004800039F1333091F038F43130A9F0323001F5E0
:1004900084B58F7D12C0373091F03830A1F0343000
:1004A000B9F4809180008F7D03C0809180008F77A8
:1004B000809380000DC084B58F7784BD09C0809182
:1004C000B0008F7703C08091B0008F7D8093B00023
:1004D000F0E0EE0FFF1FE257FF4FA591B4918FB7E9
:1004E000F894EC91611103C020952E2301C02E2BAE
:1004F0002C938FBF0895CF93DF9390E0FC01EA54D3
:10050000FF4F2491FC01EE55FF4F8491882361F148
:1005100090E0880F991FFC01E859FF4FC591D491D5
:10052000FC01E257FF4FA591B491611109C09FB73B
:10053000F8948881209582238883EC912E230BC028
:10054000623061F49FB7F8943881822F80958323BD
:100550008883EC912E2B2C939FBF06C08FB7F89405
:10056000E8812E2B28838FBFDF91CF910895682FCC
:100570008CE793E00C948C01CF92DF92EF92FF9284
:100580000F931F93CF93DF936C017A018B01C0E02F
:10059000D0E0CE15DF0589F0D8016D918D01D6012F
:1005A000ED91FC910190F081E02DC6010995892B18
:1005B00011F47E0102C02196ECCFC701DF91CF91EB
:1005C0001F910F91FF90EF90DF90CF900895FC0165
:1005D000918D828D981761F0828DDF01A80FB11D7A
:1005E0005D968C91928D9F5F9F73928F90E008959E
:1005F0008FEF9FEF0895FC01918D828D981731F058
:10060000828DE80FF11D858D90E008958FEF9FEFAB
:100610000895FC01918D228D892F90E0805C9F4F81
:10062000821B91098F73992708958EE592E00E94AD
:10063000090321E0892B09F420E0822F0895FC01B1
:10064000848DDF01A80FB11DA35ABF4F2C91848D5B
:1006500090E001968F739927848FA689B7892C9390
:10066000A089B1898C9180648C93938D848D98132B
:1006700006C00288F389E02D80818F7D80830895F4
:10068000EF92FF920F931F93CF93DF93EC0181E0E2
:10069000888F9B8D8C8D981305C0E889F98980819E
:1006A00085FD24C0F62E0B8D10E00F5F1F4F0F73DA
:1006B0001127E02E8C8DE8120CC00FB607FCFACF84
:1006C000E889F989808185FFF5CFCE010E941F035B
:1006D000F1CF8B8DFE01E80FF11DE35AFF4FF08241
:1006E0000B8FEA89FB898081806207C0EE89FF89D0
:1006F0006083E889F98980818064808381E090E06B
:10070000DF91CF911F910F91FF90EF900895682F87
:100710008EE592E00C944003CF93DF93EC01888D3B
:100720008823C9F0EA89FB89808185FD05C0A889F5
:10073000B9898C9186FD0FC00FB607FCF5CF80817B
:1007400085FFF2CFA889B9898C9185FFEDCFCE01C5
:100750000E941F03E7CFDF91CF91089580E090E0E2
:10076000892B29F00E94150381110C940000089533
:10077000009769F0FC0101900020E9F73197AF0183
:10078000481B590BBC018EE592E00C94BC0280E042
:1007900090E00895CF93DF931F92CDB7DEB76983C2
:1007A0000E94B8036981862F90E00E94B80084E51A
:1007B00092E00E94B80388E691E00F90DF91CF911C
:1007C0000C94B803CF92DF92EF92FF921F93CF93D6
:1007D000DF931F92CDB7DEB77C016A01FA01108169
:1007E000809152029091530269830E94B803C7011D
:1007F0000E94B8036981E62FF0E0EE0FFF1FE55F6E
:10080000FE4F808191810E94B803112391F18BE802
:1008100090E00E94FB0060E2812F90E00E94910036
:100820000E94B80386E890E00E94FB00FFEFCF1A19
:10083000DF0A76018E2D8C19811778F4F7018191EA
:100840007F0190E00E94B80084E592E00E94B80326
:1008500086E891E00E94B803EDCF88E691E00F9022
:10086000DF91CF911F91FF90EF90DF90CF900C948C
:10087000B8030F90DF91CF911F91FF90EF90DF9021
:10088000CF900895BF92CF92DF92EF92FF920F9395
:100890001F93CF93DF93CDB7DEB76A970FB6F89467
:1008A000DEBF0FBECDBF8C017B018DE0EAE4F1E03D
:1008B000DE011E9601900D928A95E1F78DE0E7E545
:1008C000F1E0DE01119601900D928A95E1F7F801B1
:1008D000C68C6C2DC8014F960E945901B82EF801A4
:1008E00014AEE158FF4F8081918190935302809321
:1008F000520282E0F7010995F80194AD9F5F94AF31
:10090000E90FF11D82E084AFDD24D394CD1450F0C3
:10091000F801ED0DF11DA801668DC7010E941C01B3
:10092000D394F4CFA8016B2DC7010E941C0183E072
:10093000F7010995F80184AD8F5F84AFE80FF11DD1
:1009400083E084AFF801E258FF4F8081882381F073
:10095000A801445C5F4F60E0CE0101960E94E20373
:10096000A801425E5F4F60E0CE010E960E94E20356
:100970006A960FB6F894DEBF0FBECDBFDF91CF9160
:100980001F910F91FF90EF90DF90CF90BF9008954F
:100990000E94B5091F920F920FB60F9211242F9348
:1009A0003F934F935F936F937F938F939F93AF93F7
:1009B000BF93EF93FF93E0915002F0915102309773
:1009C00009F451C0968DA685B785858591FF04C031
:1009D0009C91892329F447C09C91892309F043C045
:1009E000A389B4899C918589809589238C93868974
:1009F00097890197F1F7608D718DA685B78555852B
:100A000038E020E0CB010197F1F7822F90E0959537
:100A10008795282F4C91452309F02068315091F794
:100A2000868D81FD209580914E0290E001968F7316
:100A3000992730914F02381749F0A0914E02B0E04B
:100A4000A25FBD4F2C9380934E0203C0868D8160C0
:100A5000868F828D938D0197F1F7A389B4899C913C
:100A60008589892B8C93FF91EF91BF91AF919F91D5
:100A70008F917F916F915F914F913F912F910F9047
:100A80000FBE0F901F9018951F920F920FB60F92E6
:100A900011242F933F938F939F93AF93BF93809194
:100AA0000A0290910B02A0910C02B0910D023091BC
:100AB000090223E0230F2D3720F40196A11DB11D5B
:100AC00005C026E8230F0296A11DB11D209309023F
:100AD00080930A0290930B02A0930C02B0930D0234
:100AE0008091050290910602A0910702B091080240
:100AF0000196A11DB11D8093050290930602A0935B
:100B00000702B0930802BF91AF919F918F913F91DF
:100B10002F910F900FBE0F901F9018951F920F925C
:100B20000FB60F9211242F933F934F935F936F93C0
:100B30007F938F939F93AF93BF93EF93FF938EE534
:100B400092E00E941F03FF91EF91BF91AF919F919F
:100B50008F917F916F915F914F913F912F910F9066
:100B60000FBE0F901F9018951F920F920FB60F9205
:100B700011242F938F939F93EF93FF93E0916E0235
:100B8000F0916F028081E0917402F091750282FD14
:100B900012C09081809177028F5F8F7320917802CD
:100BA000821751F0E0917702F0E0E25AFD4F958F05
:100BB0008093770201C08081FF91EF919F918F9187
:100BC0002F910F900FBE0F901F90189510926102F9
:100BD0001092600288EE93E0A0E0B0E080936202A1
:100BE00090936302A0936402B09365022DE131E01B
:100BF00030935F0220935E0225EC30E030936B026D
:100C000020936A0224EC30E030936D0220936C0252
:100C100020EC30E030936F0220936E0221EC30E044
:100C2000309371022093700222EC30E03093730213
:100C30002093720226EC30E0309375022093740208
:100C400010927702109278021092790210927A0232
:100C500010927F0310927E03809380039093810310
:100C6000A0938203B09383038DE291E090937D0380
:100C700080937C0310929303109292031092950339
:100C80001092940310929703109296031092990376
:100C90001092980360919A036E7F6D7F60939A0320
:100CA0006695617081E0682782E00E942F0261E012
:100CB00082E00E947B02E8EBF0E0E491E0938C0399
:100CC000E4EAF0E0E491F0E0EE0FFF1FE257FF4F9F
:100CD0008591949190938E0380938D0360E083E0DF
:100CE0000E947B0280919A0381FD04C061E083E051
:100CF0000E942F0283E080938803E9EBF0E0E49107
:100D0000E0938903E5EAF0E0E491F0E0EE0FFF1FE5
:100D1000E856FF4F8591949190938B0380938A03BB
:100D200080E197E2A0E0B0E08093750390937603B2
:100D3000A0937703B0937803109279030895CF932B
:100D4000DF93CDB7DEB76A970FB6F894DEBF0FBE5C
:100D5000CDBF789484B5826084BD84B5816084BD44
:100D600085B5826085BD85B5816085BD80916E0049
:100D7000816080936E00109281008091810082607A
:100D800080938100809181008160809381008091B7
:100D900080008160809380008091B10084608093A6
:100DA000B1008091B00081608093B00080917A00A2
:100DB000846080937A0080917A00826080937A00C8
:100DC00080917A00816080937A0080917A008068B7
:100DD00080937A001092C1001092970310929603AC
:100DE0001092950310929403109293031092920321
:100DF0008DE991E0909399038093980390918803F3
:100E0000963108F057C02DEB30E0309393032093D8
:100E100092032BE931E030939503209394032CE265
:100E200031E0309397032093960320916800983027
:100E300050F031E09E3008F430E081E001C0880FCE
:100E40003A95EAF701C084E0822B809368009830DD
:100E500038F09E3040F0963148F020E030E008C095
:100E60002DE630E005C02BE630E002C02CE630E095
:100E70003093900320938F03983030F481E001C0C9
:100E8000880F9A95EAF70EC0292F30E09E3018F4AB
:100E90002850310902C02E50310981E001C0880F6D
:100EA0002A95EAF780939103809198039091990392
:100EB0000197F1F78091960390919703892B21F187
:100EC000809150029091510223E08C379207E1F01B
:100ED000009711F00E94190280919A038E7F8093EF
:100EE0009A0310924E0210924F028CE793E0909377
:100EF000510280935002E0918F03F0919003908112
:100F000080919103892B80838BEF92E09093040270
:100F1000809303021092790361E084E00E947B02D7
:100F200060E084E00E942F02E0916E02F0916F0277
:100F300082E08083E0916A02F0916B021082E0917E
:100F40006C02F0916D028FEC808310927602E0913A
:100F50007202F091730286E08083E0917002F0915A
:100F60007102808180618083E0917002F091710252
:100F7000808188608083E0917002F09171028081AD
:100F800080688083E0917002F091710280818F7D92
:100F9000808380E090E00E94BA0980930202082FCB
:100FA00010E060E3C8010E949100FC018081809301
:100FB000030181818093040182818093050180E097
:100FC00091E090937B0380937A030A50110924EFF8
:100FD00031E0029FC001039F900D129F900D1124DC
:100FE000092E000CAA0BBB0B8093FE019093FF010E
:100FF000A0930002B093010261E08DE00E947B02A9
:1010000088E8882E83E1982EA12CB12C0091030250
:101010001091040218018AE7280E311CF101808228
:101020009182A282B382F8011082E8E8F1E0DE0149
:101030001E968DE001900D928A95E1F7E5E9F1E0C9
:10104000DE0111968DE001900D928A95E1F7F8018D
:10105000E158FF4F80819181909353028093520217
:101060008FB7F89440900A0250900B0260900C02E7
:1010700070900D028FBFF80114AE1082D12CC12CDC
:101080002FB7F89480910A0290910B02A0910C0264
:10109000B0910D022FBF84199509A609B709F10176
:1010A000408151816281738184179507A607B70734
:1010B00008F0F1C08EE592E00E94090318161906A7
:1010C000FCF68EE592E00E94E7027C01F80184AD17
:1010D0008E3308F06FC08F5F84AFE80FF11DE4AE70
:1010E000C70199278936910509F4AEC09CF58E3168
:1010F000910509F4A9C0E4F48330910509F455C0C1
:101100008F30910509F4A0C0029709F0A4C021E036
:10111000F80124AF8FB7F89440900A0250900B0268
:1011200060900C0270900D028FBFCC24C394A8CFA6
:101130008C33910509F488C024F48D9709F08BC095
:1011400083C08B34910509F47FC08A35910509F07D
:1011500082C07AC0843B910509F476C09CF487383C
:10116000910509F471C02CF48837910509F073C01A
:101170006BC08639910509F467C0853A910509F07D
:101180006AC062C0823D910509F45EC02CF4833CC4
:10119000910509F060C058C0813E910509F454C022
:1011A000803F910509F057C04FC0F80134AD92E07F
:1011B00060E005C0A801445C5F4F61E026C0931762
:1011C000A0F46F5FF801E60FF11DD801A90FB11D62
:1011D000DD968C91DD97282F22952F70DC968C91CF
:1011E000807F822B80839E5FEACFF801E60FF11D9E
:1011F000F0806150F8016193CF010E9459018F1571
:1012000049F0A801445C5F4F62E0CE010E960E9457
:10121000E20370C0F801E258FF4F8081882309F48F
:101220003FC084E691E00E94B803A801445C5F4F90
:1012300060E0CE010E960E94E203A80160E0CE01BC
:1012400001960E94E2032CC0C1101ACFF80184ADB0
:10125000815084AF15CFF80184AD815084AFD11097
:1012600013C042E050E066E671E08EE592E00E9435
:10127000BC0280915202909153020E94B8036E2DDD
:1012800089E691E00E94CA036E2D86E891E00E94F3
:10129000CA03D394F5CEA801445C5F4F64E0B5CF98
:1012A0000091030210910402F801908180E0F8019E
:1012B000E80FF11D2081268F8F5F9817C0F7F80186
:1012C000818180A380910202878F8581813029F4FA
:1012D00067E873E0C8010E94420461E084E00E9474
:1012E0002F0267EB72E0C8010E94420460E084E0D4
:1012F0000E942F020E94AE0389CE8DE291E090936E
:101300007D0380937C038CE793E00C941902AA1B65
:10131000BB1B51E107C0AA1FBB1FA617B70710F0E0
:10132000A61BB70B881F991F5A95A9F78095909512
:10133000BC01CD01089597FB072E16F4009407D049
:1013400077FD09D00E94870907FC05D03EF49095EF
:1013500081959F4F0895709561957F4F0895EE0F89
:10136000FF1F0590F491E02D099481E090E0F8943E
:101370000C94C209F999FECF92BD81BDF89A9927C4
:1013800080B5089510E0C6E6D0E004C0FE010E94DA
:0E139000AF092196C736D107C9F7F894FFCFF1
:10139E000D0A5B7878785D202D2000A201AF01BC8C
:1013AE0001C901D601E301F001000000004003BCB9
:1013BE00020903E702FB028C03000000008C01BC53
:1013CE0002E001F80173018B0130313233343536CE
:1013DE00373839414243444546006C696253454EA5
:1013EE00442D64617461006C696253454E442D72E4
:1013FE00617720000D0A0D0A006C69625245435652
:10140E00202D20756E65787065787465642062791C
:10141E0074652873293A20006C6962524543562D33
:10142E0072617720006C6962524543562D64617477
:10143E006100202D204F4B2E2E2E2E2E2E3A0020C8
:10144E002D204F564552464C4F573A00202D2042E4
:10145E0041442D4352432E3A00202D204241442D2B
:10146E00434841523A00202D2054494D454F555482
:10147E002E3A00202D205041594C4F41442E3A0017
:0E148E00202D2044454255472E2E2E3A0000B8
:00000001FF
