:100000000C947A000C94A2000C94A2000C946D0441
:100010000C946D040C946D040C94A2000C94A2003A
:100020000C94A2000C94A2000C94A2000C94A200C8
:100030000C94A2000C94A2000C94A2000C94A200B8
:100040000C94E7040C94A2000C9457050C94310511
:100050000C94A2000C94A2000C94A2000C94A20098
:100060000C94A2000C94A2002020202852657175E7
:1000700065737420697320666F72206D6529202E68
:100080002E2E20616E73776572696E670000000026
:1000900000240027002A00000000080002010000E0
:1000A00003040700000000000000005D202D200078
:1000B000205B0000000000250028002B000000004D
:1000C000002300260029000404040404040404029C
:1000D00002020202020303030303030102040810E5
:1000E00020408001020408102001020408102000B2
:1000F0008905790811241FBECFEFD8E0DEBFCDBF40
:1001000011E0A0E0B1E0E6E9F1E102C005900D9256
:10011000A838B107D9F722E0A8E8B1E001C01D92E4
:10012000AD3FB207E1F710E0C9E7D0E004C0219786
:10013000FE010E94AB08C837D107C9F70E944206EA
:100140000C94BE080C940000CF93DF93462F1092BE
:10015000E701E6EEF1E033E03E1BCAE0D0E0232FFA
:100160002E0F009741F0BE010E948308805D8083BE
:10017000CB013197F4CF322FDF011196215010F0CF
:100180004E93FCCF81E090E0831B91098E0F9F1F5F
:10019000DF91CF9108952091DA013091DB0128178A
:1001A000390771F49091D9018091D801981741F0E5
:1001B000E091D901F0E0E856FE4F808190E008958B
:1001C0008FEF9FEF089508951F93CF93DF93DC0186
:1001D0005C962D913C915D972115310539F481E0B4
:1001E00090E013969C938E9312973DC05196ED919B
:1001F000FC91529750969C915097892F80951FB7EC
:100200005E964C915E9741FB772770F941FD6095B2
:10021000F8944081772311F0492B01C04823408393
:10022000E9012197F1F748E0508160FF02C0592BA6
:1002300001C058235083E9012197F1F76695415099
:1002400099F7772321F090818923808303C08081EF
:10025000982B90831FBF5C968D919C915D97019721
:10026000F1F721E030E0C901DF91CF911F910895AE
:100270002091DA013091DB012817390771F4809160
:10028000D8012091D90190E0805C9F4F821B910999
:1002900060E470E00E949708089580E090E008957F
:1002A0002091DA013091DB0128173907B9F49091D8
:1002B000D9018091D801981789F0E091D901F0E037
:1002C000E856FE4F80812091D90130E02F5F3F4FEB
:1002D0002F7333272093D90190E008958FEF9FEF7C
:1002E0000895E091DA01F091DB01E817F90769F46C
:1002F000A389B4899C918589809589238C931092D8
:10030000DB011092DA0181E0089580E0089590E029
:10031000FC01E956FF4F3491FC01E552FF4F249157
:10032000FC01E953FF4FE491EE2309F43BC0332372
:1003300039F1333091F038F43130A9F0323001F531
:1003400084B58F7D12C0373091F03830A1F0343051
:10035000B9F4809180008F7D03C0809180008F77F9
:10036000809380000DC084B58F7784BD09C08091D3
:10037000B0008F7703C08091B0008F7D8093B00074
:10038000F0E0EE0FFF1FED54FF4FA591B4918FB732
:10039000F894EC91611103C020952E2301C02E2BFF
:1003A0002C938FBF0895CF93DF9390E0FC01E5522B
:1003B000FF4F2491FC01E953FF4F8491882361F1A1
:1003C00090E0880F991FFC01E357FF4FC591D4912E
:1003D000FC01ED54FF4FA591B491611109C09FB785
:1003E000F8948881209582238883EC912E230BC07A
:1003F000623061F49FB7F8943881822F809583230F
:100400008883EC912E2B2C939FBF06C08FB7F89456
:10041000E8812E2B28838FBFDF91CF9108953FB7BE
:10042000F8948091940190919501A0919601B091DA
:10043000970126B5A89B05C02F3F19F00196A11D75
:10044000B11D3FBFBA2FA92F982F8827820F911D6A
:10045000A11DB11DBC01CD0142E0660F771F881FB1
:10046000991F4A95D1F708958F929F92AF92BF92AC
:10047000CF92DF92EF92FF926B017C010E940F02FC
:100480004B015C01C114D104E104F104F1F00E94BC
:100490000F02DC01CB0188199909AA09BB09883E22
:1004A0009340A105B10570F321E0C21AD108E1081B
:1004B000F10888EE880E83E0981EA11CB11CC114BF
:1004C000D104E104F10419F7DDCFFF90EF90DF9044
:1004D000CF90BF90AF909F908F900895682F8EED32
:1004E00092E00C94E400FF920F931F93CF93DF935D
:1004F000182FEB01282F30E084E0359527958A9559
:10050000E1F70FE0822F802794E0220F331F9A95A6
:10051000E1F7F82EF22A8F2D0E946E0288A58F5FD8
:1005200088A7FE01E80FF11DF0A61F7020E1129FC1
:10053000C00111241027182B812F0E946E0288A55C
:100540008F5F88A7C80FD11D18A7DF91CF911F918A
:100550000F91FF900895EF92FF920F931F93CF9307
:10056000DF938C017B01C0E0D0E0F701EC0FFD1FB1
:100570006491662361F0D801ED91FC910190F081C6
:10058000E02DC8010995892B11F02196EECFCE01FF
:10059000DF91CF911F910F91FF90EF900895CF922F
:1005A000DF92EF92FF920F931F93CF93DF936C0133
:1005B0007A018B01C0E0D0E0CE15DF0589F0D801CB
:1005C0006D918D01D601ED91FC910190F081E02DAE
:1005D000C6010995892B11F47E0102C02196ECCF4A
:1005E000C701DF91CF911F910F91FF90EF90DF90A6
:1005F000CF900895FC01918D828D981761F0828DC6
:10060000DF01A80FB11D5D968C91928D9F5F9F7346
:10061000928F90E008958FEF9FEF0895FC01918DE8
:10062000828D981731F0828DE80FF11D858D90E055
:1006300008958FEF9FEF0895FC01918D228D892FF2
:1006400090E0805C9F4F821B91098F7399270895DA
:1006500088EE91E00E941C0321E0892B09F420E040
:10066000822F0895FC01848DDF01A80FB11DA35ACC
:10067000BF4F2C91848D90E001968F739927848FC2
:10068000A689B7892C93A089B1898C9180648C93B9
:10069000938D848D981306C00288F389E02D8081A4
:1006A0008F7D80830895EF92FF920F931F93CF93D6
:1006B000DF93EC0181E0888F9B8D8C8D981305C0B2
:1006C000E889F989808185FD24C0F62E0B8D10E024
:1006D0000F5F1F4F0F731127E02E8C8DE8120CC097
:1006E0000FB607FCFACFE889F989808185FFF5CF3D
:1006F000CE010E943203F1CF8B8DFE01E80FF11D78
:10070000E35AFF4FF0820B8FEA89FB898081806278
:1007100007C0EE89FF896083E889F9898081806458
:10072000808381E090E0DF91CF911F910F91FF9046
:10073000EF900895CF93DF93EC01888D8823C9F063
:10074000EA89FB89808185FD05C0A889B9898C91DA
:1007500086FD0FC00FB607FCF5CF808185FFF2CF75
:10076000A889B9898C9185FFEDCFCE010E94320313
:10077000E7CFDF91CF91089580E090E0892B29F0B9
:100780000E94280381110C9400000895009769F0DD
:10079000FC0101900020E9F73197AF01481B590B8C
:1007A000BC0188EE91E00C94CF0280E090E00895C7
:1007B000CF92DF92EF92FF920F931F93CF93DF932D
:1007C000CDB7DEB761970FB6F894DEBF0FBECDBFD1
:1007D0006C018B01FB01F0808091DC019091DD01C7
:1007E0000E94C603C6010E94C6038BE291E00E94EC
:1007F000C603FF2009F460C060EB70E088EE91E072
:100800000E94AB0260E28F2D90E00E94A4000E9443
:10081000C6036BEA70E088EE91E00E94AB020F5FC6
:100820001F4F680151E1E52E8C2D801B8F1590F52F
:10083000F60181916F0190E0E8E3F1E0DE011196AD
:100840002E2D01900D922A95E1F71092E0019C0166
:1008500044E0369527954A95E1F78F709927E1E0B6
:10086000F0E0EC0FFD1FE80FF91F80818093DF019E
:10087000E1E0F0E0EC0FFD1FE20FF31F80818093B9
:10088000DE018EED91E00E94C60386E891E00E94B1
:10089000C603CACF87E891E061960FB6F894DEBF31
:1008A0000FBECDBFDF91CF911F910F91FF90EF90C1
:1008B000DF90CF900C94C60361960FB6F894DEBF1C
:1008C0000FBECDBFDF91CF911F910F91FF90EF90A1
:1008D000DF90CF9008950E94B1081F920F920FB63B
:1008E0000F9211242F933F934F935F936F937F93B6
:1008F0008F939F93AF93BF93EF93FF93E091DA01B0
:10090000F091DB01309709F451C0968DA685B7852B
:10091000858591FF04C09C91892329F447C09C914F
:10092000892309F043C0A389B4899C918589809566
:1009300089238C93868997890197F1F7608D718D52
:10094000A685B785558538E020E0CB010197F1F702
:10095000822F90E095958795282F4C91452309F09B
:100960002068315091F7868D81FD20958091D801C6
:1009700090E001968F7399273091D901381749F08B
:10098000A091D801B0E0A856BE4F2C938093D80117
:1009900003C0868D8160868F828D938D0197F1F7DC
:1009A000A389B4899C918589892B8C93FF91EF91C0
:1009B000BF91AF919F918F917F916F915F914F9177
:1009C0003F912F910F900FBE0F901F9018951F927F
:1009D0000F920FB60F9211242F933F938F939F93F3
:1009E000AF93BF938091900190919101A09192015A
:1009F000B091930130918F0123E0230F2D3720F424
:100A00000196A11DB11D05C026E8230F0296A11D68
:100A1000B11D20938F018093900190939101A09339
:100A20009201B09393018091940190919501A091CE
:100A30009601B09197010196A11DB11D809394017B
:100A400090939501A0939601B0939701BF91AF91B8
:100A50009F918F913F912F910F900FBE0F901F90FC
:100A600018951F920F920FB60F9211242F933F9358
:100A70004F935F936F937F938F939F93AF93BF93A6
:100A8000EF93FF9388EE91E00E943203FF91EF9184
:100A9000BF91AF919F918F917F916F915F914F9196
:100AA0003F912F910F900FBE0F901F9018951F929E
:100AB0000F920FB60F9211242F938F939F93EF9362
:100AC000FF93E091F801F091F9018081E091FE013E
:100AD000F091FF0182FD12C09081809101028F5F31
:100AE0008F7320910202821751F0E0910102F0E031
:100AF000E851FE4F958F8093010201C08081FF91E4
:100B0000EF919F918F912F910F900FBE0F901F909B
:100B100018951092EB011092EA0188EE93E0A0E0A4
:100B2000B0E08093EC019093ED01A093EE01B093BF
:100B3000EF012FE031E03093E9012093E80125EC4B
:100B400030E03093F5012093F40124EC30E0309351
:100B5000F7012093F60120EC30E03093F901209367
:100B6000F80121EC30E03093FB012093FA0122ECF4
:100B700030E03093FD012093FC0126EC30E030930F
:100B8000FF012093FE0110920102109202021092C6
:100B90000302109204021092E1021092E00280938C
:100BA000E2029093E302A093E402B093E5028FE1A6
:100BB00091E09093DF028093DE021092F502109292
:100BC000F4021092F7021092F6021092F9021092BB
:100BD000F8021092FB021092FA026091FC026E7F02
:100BE0006D7F6093FC026695617081E0682782E00A
:100BF0000E94870161E082E00E94D301EDEDF0E008
:100C0000E491E093EE02E9ECF0E0E491F0E0EE0F25
:100C1000FF1FED54FF4F859194919093F0028093C4
:100C2000EF0260E083E00E94D3018091FC0281FD2D
:100C300004C061E083E00E94870183E08093EA02C0
:100C4000EEEDF0E0E491E093EB02EAECF0E0E49109
:100C5000F0E0EE0FFF1FE354FF4F859194919093C6
:100C6000ED028093EC0280E197E2A0E0B0E0809397
:100C7000D7029093D802A093D902B093DA021092CF
:100C8000DB020895CF93DF93CDB7DEB7A5970FB6FC
:100C9000F894DEBF0FBECDBF789484B5826084BD6A
:100CA00084B5816084BD85B5826085BD85B5816070
:100CB00085BD80916E00816080936E0010928100EE
:100CC00080918100826080938100809181008160A9
:100CD000809381008091800081608093800080916A
:100CE000B10084608093B1008091B00081608093F6
:100CF000B00080917A00846080937A0080917A00BD
:100D0000826080937A0080917A00816080937A007B
:100D100080917A00806880937A001092C1001092CE
:100D2000F9021092F8021092F7021092F602109255
:100D3000F5021092F4028DE991E09093FB0280930A
:100D4000FA029091EA02963108F057C02DEB30E09C
:100D50003093F5022093F4022BE931E03093F7024F
:100D60002093F6022CE231E03093F9022093F8024E
:100D700020916800983050F031E09E3008F430E067
:100D800081E001C0880F3A95EAF701C084E0822B28
:100D900080936800983038F09E3040F0963148F0EB
:100DA00020E030E008C02DE630E005C02BE630E062
:100DB00002C02CE630E03093F2022093F10298302A
:100DC00030F481E001C0880F9A95EAF70EC0292F10
:100DD00030E09E3018F42850310902C02E503109FD
:100DE00081E001C0880F2A95EAF78093F302809191
:100DF000FA029091FB020197F1F78091F80290912D
:100E0000F902892B21F18091DA019091DB0122E036
:100E10008E3D9207E1F0009711F00E9471018091E0
:100E2000FC028E7F8093FC021092D8011092D901AF
:100E30008EED92E09093DB018093DA01E091F10274
:100E4000F091F20290818091F302892B808385E8F2
:100E500092E090938E0180938D011092DB0261E00D
:100E600084E00E94D30160E084E00E948701E09169
:100E7000F801F091F90182E08083E091F401F091B2
:100E8000F5011082E091F601F091F7018FEC80837B
:100E900010920002E091FC01F091FD0186E0808358
:100EA000E091FA01F091FB01808180618083E09103
:100EB000FA01F091FB01808188608083E091FA0162
:100EC000F091FB01808180688083E091FA01F091CC
:100ED000FB0180818F7D808380E090E00E94B608D6
:100EE00080938C01082F10E060E3C8010E94A400E9
:100EF000FC018081809303018181809304018281C0
:100F00008093050180E091E09093DD028093DC0204
:100F10000A50110924EF31E0029FC001039F900D98
:100F2000129F900D1124092E000CAA0BBB0B80936D
:100F3000880190938901A0938A01B0938B0161E0AD
:100F40008DE00E94D301992493944BE0B42ECE01FE
:100F50004B967C015BE0852E880E60E1762E7DE06D
:100F6000A72EECE86E2EE0918D01F0918E01138298
:100F7000948268E670E088EE91E00E94AB02E3E6BE
:100F8000F1E0D7018B2D01900D928A95E1F7009148
:100F90008D0110918E0180918C01F801858BB68AAC
:100FA0008381878B8481808FD8015996F701819145
:100FB0008D938E12FCCFF801748A60918801709134
:100FC000890180918A0190918B010E94340261E035
:100FD00084E00E948701EEE6F1E0DE011E968A2D94
:100FE00001900D928A95E1F7EBE7F1E0DE011196B1
:100FF0008A2D01900D928A95E1F7F8016489980194
:101000002B5E3F4FF901D12C8E2F821B861788F45F
:10101000519148E07D2D75278D2D90E09595879510
:10102000D82E70FF02C0D62CD8265695415091F785
:10103000EBCFF80110A6E95AFF4F80819181909380
:10104000DD018093DC0182E00E946E02F80180A540
:101050008F5F80A7E80FF11D82E080A7CC24C394A6
:10106000F80184898C1548F0F801EC0DF11DB801E8
:1010700084890E947302C394F3CFB8018D2D0E941E
:10108000730283E00E946E02F80180A58F5F80A743
:10109000E80FF11D83E080A7F801EA5AFF4F808135
:1010A0009801285D3F4F69010C5E1F4F882351F066
:1010B000B901CE0101960E94D803B801CE010E9667
:1010C0000E94D80360E084E00E948701B80189E4AF
:1010D00091E00E94D803B60186E591E00E94D80312
:1010E00068E873E180E090E00E9434020E94BC0353
:1010F0003ACF8FE191E09093DF028093DE028EED94
:1011000092E00C947101AA1BBB1B51E107C0AA1FFE
:10111000BB1FA617B70710F0A61BB70B881F991F98
:101120005A95A9F780959095BC01CD01089597FB3C
:10113000072E16F4009407D077FD09D00E9483088B
:1011400007FC05D03EF4909581959F4F08957095CA
:1011500061957F4F0895EE0FFF1F0590F491E02DEC
:10116000099481E090E0F8940C94BE08F999FECFC0
:1011700092BD81BDF89A992780B5089510E0C9E71E
:10118000D0E004C0FE010E94AB082196CA37D10707
:06119000C9F7F894FFCF3F
:101196000D0A5B7878785D202D2000000000005352
:1011A60003CF021C03FA020E039A0300000000E4B8
:1011B60000CF0238015001CB00E300202D204F4B19
:1011C6002E2E2E2E2E2E3A0030313233343536372F
:1011D600383941424344454600696E6F53454E4493
:1011E6002D6461746100696E6F53454E442D7261C2
:1011F6007720004C6F7265746F2E2E2E2E006C6950
:101206006253454E442D64617461006C69625345B6
:081216004E442D7261772000A7
:00000001FF
