:100000000C9467000C948F000C948F000C94D20415
:100010000C94D2040C94D2040C948F000C948F0096
:100020000C948F000C948F000C948F000C948F0014
:100030000C948F000C948F000C948F000C948F0004
:100040000C944C050C948F000C94BC050C949605F4
:100050000C948F000C948F000C948F000C948F00E4
:100060000C948F000C948F000000000024002700E7
:100070002A0000000008000201000003040700003D
:100080000000000000005D202D2000205B0000002B
:100090000000250028002B0000000000230026009F
:1000A00029000404040404040404020202020202FB
:1000B000030303030303010204081020408001022C
:1000C00004081020010204081020EE059F081124E6
:1000D0001FBECFEFD8E0DEBFCDBF11E0A0E0B1E0A2
:1000E000E2EEF1E102C005900D92A039B107D9F717
:1000F00023E0A0E9B1E001C01D92AF32B207E1F701
:1001000010E0C6E6D0E004C02197FE010E94D108AD
:10011000C536D107C9F70E94A7060C94E4080C94D1
:100120000000CF93DF93462F1092F101E0EFF1E052
:1001300033E03E1BCAE0D0E0232F2E0F009741F0A2
:10014000BE010E94A908805D8083CB013197F4CF66
:10015000322FDF011196215010F04E93FCCF81E039
:1001600090E0831B91098E0F9F1FDF91CF9108951F
:10017000CF93DF93CDB7DEB761970FB6F894DEBFAC
:100180000FBECDBF21E1EBE2F1E0DE01119601905F
:100190000D922A95E1F7A8EEB1E012961C92129703
:1001A000BC0124E0769567952A95E1F79C012F70B4
:1001B000332741E050E04C0F5D1F240F351FF9013C
:1001C000208111962C931197892F9927E4E0880FAD
:1001D000991FEA95E1F7FB01E81BF90BE40FF51F06
:1001E00080818C9361960FB6F894DEBF0FBECDBFB1
:1001F000DF91CF9108950F931F93CF93DF938C01DD
:10020000C0E0D0E0F801EC0FFD1F6491662371F0AF
:10021000E091F201F091F3010190F081E02D82EF85
:1002200091E00995892B11F02196ECCFCE01DF9159
:10023000CF911F910F910895DF92EF92FF920F934C
:100240001F93CF93DF937C01162FEA01262F30E016
:1002500084E0359527958A95E1F70FE0822F802776
:1002600094E0220F331F9A95E1F7D82ED22A8D2DD4
:10027000F70109958CAD8F5F8CAFFE01E80FF11D82
:10028000D4AE1F70F0E11F9FC00111241027182B5E
:10029000812FF70109958CAD8F5F8CAFC80FD11DF1
:1002A0001CAFDF91CF911F910F91FF90EF90DF90E6
:1002B00008952091E4013091E5012817390771F480
:1002C0009091E3018091E201981741F0E091E30100
:1002D000F0E0EE55FE4F808190E008958FEF9FEFA4
:1002E000089508951F93CF93DF93DC015C962D91C1
:1002F0003C915D972115310539F481E090E013962A
:100300009C938E9312973DC05196ED91FC9152971C
:1003100050969C915097892F80951FB75E964C916F
:100320005E9741FB772770F941FD6095F894408115
:10033000772311F0492B01C048234083E90121971D
:10034000F1F748E0508160FF02C0592B01C05823EB
:100350005083E9012197F1F76695415099F777238A
:1003600021F090818923808303C08081982B908322
:100370001FBF5C968D919C915D970197F1F721E0ED
:1003800030E0C901DF91CF911F9108952091E401E0
:100390003091E5012817390771F48091E20120912D
:1003A000E30190E0805C9F4F821B910960E470E064
:1003B0000E94BD08089580E090E008952091E40136
:1003C0003091E50128173907B9F49091E301809144
:1003D000E201981789F0E091E301F0E0EE55FE4F5D
:1003E00080812091E30130E02F5F3F4F2F7333274F
:1003F0002093E30190E008958FEF9FEF0895E0913F
:10040000E401F091E501E817F90769F4A389B489DB
:100410009C918589809589238C931092E501109297
:10042000E40181E0089580E0089590E0FC01EE5839
:10043000FF4F3491FC01EA54FF4F2491FC01EE552B
:10044000FF4FE491EE2309F43BC0332339F13330FD
:1004500091F038F43130A9F0323001F584B58F7D58
:1004600012C0373091F03830A1F03430B9F48091B7
:1004700080008F7D03C0809180008F778093800003
:100480000DC084B58F7784BD09C08091B0008F778F
:1004900003C08091B0008F7D8093B000F0E0EE0F3C
:1004A000FF1FE257FF4FA591B4918FB7F894EC91DD
:1004B000611103C020952E2301C02E2B2C938FBFDA
:1004C0000895CF93DF9390E0FC01EA54FF4F24910D
:1004D000FC01EE55FF4F8491882361F190E0880F75
:1004E000991FFC01E859FF4FC591D491FC01E257D7
:1004F000FF4FA591B491611109C09FB7F89488810D
:10050000209582238883EC912E230BC0623061F406
:100510009FB7F8943881822F809583238883EC914C
:100520002E2B2C939FBF06C08FB7F894E8812E2BFB
:1005300028838FBFDF91CF9108953FB7F8948091C2
:100540009E0190919F01A091A001B091A10126B5BB
:10055000A89B05C02F3F19F00196A11DB11D3FBFFB
:10056000BA2FA92F982F8827820F911DA11DB11D89
:10057000BC01CD0142E0660F771F881F991F4A9585
:10058000D1F70895682F80E193E00C947201CF9227
:10059000DF92EF92FF920F931F93CF93DF936C0143
:1005A0007A018B01C0E0D0E0CE15DF0589F0D801DB
:1005B0006D918D01D601ED91FC910190F081E02DBE
:1005C000C6010995892B11F47E0102C02196ECCF5A
:1005D000C701DF91CF911F910F91FF90EF90DF90B6
:1005E000CF900895FC01918D828D981761F0828DD6
:1005F000DF01A80FB11D5D968C91928D9F5F9F7357
:10060000928F90E008958FEF9FEF0895FC01918DF8
:10061000828D981731F0828DE80FF11D858D90E065
:1006200008958FEF9FEF0895FC01918D228D892F02
:1006300090E0805C9F4F821B91098F7399270895EA
:1006400082EF91E00E94140321E0892B09F420E05D
:10065000822F0895FC01848DDF01A80FB11DA35ADC
:10066000BF4F2C91848D90E001968F739927848FD2
:10067000A689B7892C93A089B1898C9180648C93C9
:10068000938D848D981306C00288F389E02D8081B4
:100690008F7D80830895EF92FF920F931F93CF93E6
:1006A000DF93EC0181E0888F9B8D8C8D981305C0C2
:1006B000E889F989808185FD24C0F62E0B8D10E034
:1006C0000F5F1F4F0F731127E02E8C8DE8120CC0A7
:1006D0000FB607FCFACFE889F989808185FFF5CF4D
:1006E000CE010E942A03F1CF8B8DFE01E80FF11D90
:1006F000E35AFF4FF0820B8FEA89FB898081806289
:1007000007C0EE89FF896083E889F9898081806468
:10071000808381E090E0DF91CF911F910F91FF9056
:10072000EF900895682F82EF91E00C944B03CF93E4
:10073000DF93EC01888D8823C9F0EA89FB898081E9
:1007400085FD05C0A889B9898C9186FD0FC00FB6BB
:1007500007FCF5CF808185FFF2CFA889B9898C91FC
:1007600085FFEDCFCE010E942A03E7CFDF91CF9125
:10077000089580E090E0892B29F00E9420038111E8
:100780000C9400000895009769F0FC01019000208E
:10079000E9F73197AF01481B590BBC0182EF91E09B
:1007A0000C94C70280E090E00895EF92FF921F93AF
:1007B000CF93DF937C01EB0118818091E60190914A
:1007C000E7010E94C303C7010E94C3038CE391E0C9
:1007D0000E94C303112369F18BE890E00E94FB00A3
:1007E00060E2812F90E00E9491000E94C30386E89E
:1007F00090E00E94FB0021967E018E2D8C1B8117BC
:1008000078F4F70181917F0190E00E94B80088EEB2
:1008100091E00E94C3038DE691E00E94C303EDCFF7
:1008200080E891E0DF91CF911F91FF90EF900C94C1
:10083000C303DF91CF911F91FF90EF900895BF9276
:10084000CF92DF92EF92FF920F931F93CF93DF939C
:10085000CDB7DEB76A970FB6F894DEBF0FBECDBF37
:100860008C016B018DE0E9E4F1E0DE011E96019060
:100870000D928A95E1F78DE0E6E5F1E0DE01119653
:1008800001900D928A95E1F7F801B68CA801415EBE
:100890005F4FFA01F12C6CE88E2F841B8B1588F4C6
:1008A000319128E0732F7F258F2D90E095958795C6
:1008B000F82E70FF02C0F62EF8263695215091F7DB
:1008C000EBCFF80114AEE158FF4F808191819093F6
:1008D000E7018093E60182E0F6010995F80184AD15
:1008E0008F5F84AFE80FF11D82E084AFEE24E394C4
:1008F000BE1450F0F801EE0DF11DA801668DC60181
:100900000E941C01E394F4CFA8016F2DC6010E9440
:100910001C0183E0F6010995F80184AD8F5F84AF77
:10092000E80FF11D83E084AFF801E258FF4F8081AA
:10093000882371F0B801645C7F4FCE0101960E945C
:10094000D503B801625E7F4FCE010E960E94D5039B
:100950006A960FB6F894DEBF0FBECDBFDF91CF9180
:100960001F910F91FF90EF90DF90CF90BF9008956F
:10097000CF93DF931F92CDB7DEB769830E94C30385
:100980006981862F90E00E94B80088EE91E00E9475
:10099000C30380E891E00F90DF91CF910C94C303E3
:1009A0000E94D7081F920F920FB60F9211242F9317
:1009B0003F934F935F936F937F938F939F93AF93E7
:1009C000BF93EF93FF93E091E401F091E50130973D
:1009D00009F451C0968DA685B785858591FF04C021
:1009E0009C91892329F447C09C91892309F043C035
:1009F000A389B4899C918589809589238C93868964
:100A000097890197F1F7608D718DA685B78555851A
:100A100038E020E0CB010197F1F7822F90E0959527
:100A20008795282F4C91452309F02068315091F784
:100A3000868D81FD20958091E20190E001968F7373
:100A400099273091E301381749F0A091E201B0E015
:100A5000AE55BE4F2C938093E20103C0868D81601A
:100A6000868F828D938D0197F1F7A389B4899C912C
:100A70008589892B8C93FF91EF91BF91AF919F91C5
:100A80008F917F916F915F914F913F912F910F9037
:100A90000FBE0F901F9018951F920F920FB60F92D6
:100AA00011242F933F938F939F93AF93BF93809184
:100AB0009A0190919B01A0919C01B0919D01309170
:100AC000990123E0230F2D3720F40196A11DB11DBC
:100AD00005C026E8230F0296A11DB11D20939901A0
:100AE00080939A0190939B01A0939C01B0939D01E8
:100AF00080919E0190919F01A091A001B091A101D0
:100B00000196A11DB11D80939E0190939F01A0931A
:100B1000A001B093A101BF91AF919F918F913F919F
:100B20002F910F900FBE0F901F9018951F920F924C
:100B30000FB60F9211242F933F934F935F936F93B0
:100B40007F938F939F93AF93BF93EF93FF9382EF26
:100B500091E00E942A03FF91EF91BF91AF919F9185
:100B60008F917F916F915F914F913F912F910F9056
:100B70000FBE0F901F9018951F920F920FB60F92F5
:100B800011242F938F939F93EF93FF93E091020291
:100B9000F09103028081E0910802F091090282FD48
:100BA00012C0908180910B028F5F8F7320910C0295
:100BB000821751F0E0910B02F0E0EE50FE4F958F5E
:100BC00080930B0201C08081FF91EF919F918F91E3
:100BD0002F910F900FBE0F901F9018951092F50156
:100BE0001092F40188EE93E0A0E0B0E08093F6016B
:100BF0009093F701A093F801B093F9012FE031E051
:100C00003093F3012093F20125EC30E03093FF01A3
:100C10002093FE0124EC30E0309301022093000287
:100C200020EC30E0309303022093020221EC30E00C
:100C3000309305022093040222EC30E03093070247
:100C40002093060226EC30E030930902209308023C
:100C500010920B0210920C0210920D0210920E02D2
:100C600010921303109212038093140390931503B0
:100C7000A0931603B09317038FE191E090931103B3
:100C800080931003109227031092260310922903D9
:100C90001092280310922B0310922A0310922D0316
:100CA00010922C0360912E036E7F6D7F60932E0354
:100CB0006695617081E0682782E00E94150261E01C
:100CC00082E00E946102E8EBF0E0E491E09320030F
:100CD000E4EAF0E0E491F0E0EE0FFF1FE257FF4F8F
:100CE00085919491909322038093210360E083E0A7
:100CF0000E94610280912E0381FD04C061E083E0C7
:100D00000E94150283E080931C03E9EBF0E0E4917C
:100D1000E0931D03E5EAF0E0E491F0E0EE0FFF1F41
:100D2000E856FF4F8591949190931F0380931E0383
:100D300080E197E2A0E0B0E08093090390930A037A
:100D4000A0930B03B0930C0310920D030895CF935F
:100D5000DF93CDB7DEB72F970FB6F894DEBF0FBE87
:100D6000CDBF789484B5826084BD84B5816084BD34
:100D700085B5826085BD85B5816085BD80916E0039
:100D8000816080936E00109281008091810082606A
:100D900080938100809181008160809381008091A7
:100DA00080008160809380008091B1008460809396
:100DB000B1008091B00081608093B00080917A0092
:100DC000846080937A0080917A00826080937A00B8
:100DD00080917A00816080937A0080917A008068A7
:100DE00080937A001092C10010922B0310922A0374
:100DF00010922903109228031092270310922603C1
:100E00008DE991E090932D0380932C0390911C0326
:100E1000963108F057C02DEB30E030932703209334
:100E200026032BE931E030932903209328032CE299
:100E300031E030932B0320932A03209168009830EF
:100E400050F031E09E3008F430E081E001C0880FBE
:100E50003A95EAF701C084E0822B809368009830CD
:100E600038F09E3040F0963148F020E030E008C085
:100E70002DE630E005C02BE630E002C02CE630E085
:100E80003093240320932303983030F481E001C091
:100E9000880F9A95EAF70EC0292F30E09E3018F49B
:100EA0002850310902C02E50310981E001C0880F5D
:100EB0002A95EAF78093250380912C0390912D03C6
:100EC0000197F1F780912A0390912B03892B21F14F
:100ED0008091E4019091E50123E080319207E1F0F7
:100EE000009711F00E94FF0180912E038E7F809366
:100EF0002E031092E2011092E30180E193E09093BF
:100F0000E5018093E401E0912303F09124039081B3
:100F100080912503892B80838FE892E0909398013C
:100F20008093970110920D0361E084E00E946102BA
:100F300060E084E00E941502E0910202F091030259
:100F400082E08083E091FE01F091FF011082E09148
:100F50000002F09101028FEC808310920A02E0916E
:100F60000602F091070286E08083E0910402F0918E
:100F70000502808180618083E0910402F091050286
:100F8000808188608083E0910402F0910502808175
:100F900080688083E0910402F091050280818F7D5A
:100FA000808380E090E00E94DC0880939601082F07
:100FB00010E060E3C8010E949100FC0180818093F1
:100FC000030181818093040182818093050180E087
:100FD00091E090930F0380930E030A50110924EFC0
:100FE00031E0029FC001039F900D129F900D1124CC
:100FF000092E000CAA0BBB0B8093900190939101DA
:10100000A0939201B093930161E08DE00E94610290
:10101000992493949FE0892ECE0101965C012FE0E4
:10102000322E380E35E1232E009197011091980150
:10103000F801118280919601828390919401209110
:101040009501238394839582E1E8F1E0D501982D01
:1010500001900D929A95E1F7D8011696F5019191BC
:101060009D933E12FCCFF8012082D8015E96980134
:101070002A5E3F4F91919D93E217F307D9F7F8014C
:10108000918190A3878F61E083E691E00E94B8048C
:10109000F80165818FE691E00E94B80442E050E0DB
:1010A0006EE771E082EF91E00E94C702F80185814E
:1010B000813029F462E973E0C8010E941F0461E0F5
:1010C00084E00E94150262EC72E0C8010E941F04D5
:1010D00060E084E00E941502809194019091950156
:1010E000019690939501809394010E949D022B019B
:1010F0003C0188EEC82E83E0D82EE12CF12C0E9412
:101100009D02DC01CB0184199509A609B709883E27
:101110009340A105B10558F0F1E0CF1AD108E108DC
:10112000F10828EE420E23E0521E611C711CC1140E
:10113000D104E104F10419F70E94B90375CF8FE1DE
:1011400091E0909311038093100380E193E00C945D
:10115000FF01AA1BBB1B51E107C0AA1FBB1FA6179B
:10116000B70710F0A61BB70B881F991F5A95A9F750
:1011700080959095BC01CD01089597FB072E16F43C
:10118000009407D077FD09D00E94A90807FC05D07C
:101190003EF4909581959F4F0895709561957F4F8E
:1011A0000895EE0FFF1F0590F491E02D099481E062
:1011B00090E0F8940C94E408F999FECF92BD81BDBB
:1011C000F89A992780B5089510E0C6E6D0E004C0EB
:1011D000FE010E94D1082196C736D107C9F7F894BD
:0211E000FFCF3F
:1011E2000D0A5B7878785D202D2000000000004B0E
:1011F20003C7021403F20206039703000000007201
:1012020001C702C601DE01590171013031323334A6
:10121200353637383941424344454600202D204F68
:101222004B2E2E2E2E2E2E3A006C696253454E44C2
:101232002D64617461006C696253454E442D726184
:101242007720004543484F5F434D44203A20002019
:101252002D205278436F6D6D616E643A20000D0A45
:101262000073696D756C61746564206563686F00F5
:00000001FF
