:100000000C94AC000C94D4000C94D4000C943603E3
:100010000C945A030C947E030C94D4000C94D400DA
:100020000C94D4000C94D4000C94D4000C94D40000
:100030000C94D4000C94D4000C94D4000C94D400F0
:100040000C948F060C94D4000C9406090C9442096D
:100050000C94D4000C94D4000C94D4000C94D400D0
:100060000C94D4000C94D40000C2010001001100D3
:1000700011000C0000E100000A002500250021000D
:10008000009600001900390039003600127A00008D
:100090001F004600460044008070000022004D0012
:1000A0004D004A00004B00003600750075007200DC
:1000B000403800004A009C009C0099008025000008
:1000C0007200EC00EC00E900C0120000E900DA0167
:1000D000DA01D70160090000D701B603B603B30304
:1000E000B0040000B3036E076E076B072C0100001D
:1000F000DC0EC11DC11DBE1D000000070002010075
:1001000000030406000000000000000001020408D3
:100110001020408001020408102001020408102071
:10012000040404040404040402020202020203039D
:100130000303030300000000230026002900000041
:100140000000250028002B000000000024002700EC
:100150002A00BC01FD09C30111241FBECFEFD8E066
:10016000DEBFCDBF11E0A0E0B1E0EEE6F5E102C0F8
:1001700005900D92A23AB107D9F712E0A2EAB1E0D8
:1001800001C01D92A23BB107E1F711E0C6E5D1E045
:1001900004C02297FE010E94A60AC235D107C9F702
:1001A0000E944D0A0C94AA0A0C94000082EA91E085
:1001B0000C94C70182EA91E00C941402682F82EA41
:1001C00091E00C94C70240E855E260E070E082EAFA
:1001D00091E00E94200440E855E260E070E08BE08E
:1001E00092E00E947D0961E083E00E94200661E0C8
:1001F0008DE00C942006FF920F931F93CF93DF9313
:10020000082FF92E162F60E071E08BE092E00E943B
:10021000AE074AE050E0612F8BE092E00E944A086E
:1002200065E071E08BE092E00E94AE07C02FDF2D09
:100230000DC0699140E150E08BE092E00E944A08D5
:1002400069E071E08BE092E00E94AE078C2F801B8A
:10025000811778F36AE071E08BE092E0DF91CF9153
:100260001F910F91FF900C94CD07EF92FF920F9387
:100270001F93CF93DF93CDB7DEB760970FB6F89497
:10028000DEBF0FBECDBF10E1E12E17E2F12E00E080
:1002900010E02AE0AE014F5F5F4F66ED70E08AED3F
:1002A00090E00E945E05182F882309F458C06BE087
:1002B00071E08BE092E00E94AE07612FCE010196C3
:1002C0000E94FB00F9808A8191E0F91651F068E202
:1002D00071E08BE092E00E94AE074AE050E06F2DA3
:1002E0000BC0823071F068E471E08BE092E00E9414
:1002F000AE074AE050E06A818BE092E00E9451082C
:100300002EC08E01055F1F4F96E0F80111929A955D
:10031000E9F7FC8693E09E8794E09F8795E0988BB1
:100320008D8768EE73E080E090E00E94150761E041
:1003300083E00E94580646E0B8018EED90E00E94EE
:10034000320564E671E08BE092E00E94AE0766E061
:10035000C8010E94FB0060E083E00E94580660969E
:100360000FB6F894DEBF0FBECDBFDF91CF911F91C6
:100370000F91FF90EF90089520E04BE06AE082EA51
:1003800091E00C94F00382EA91E00C94EA0420914D
:1003900000023091010228173907C1F49091BE0183
:1003A0008091BF01981791F0E091BE01F0E0E05418
:1003B000FE4F80812091BE0130E02F5F3F4F2F73B1
:1003C00033272093BE01282F30E002C02FEF3FEFEC
:1003D000C9010895209100023091010228173907C0
:1003E00081F49091BE018091BF01981751F0E09186
:1003F000BE01F0E0E054FE4F2081332727FD309509
:1004000002C02FEF3FEFC901089520910002309103
:1004100001022817390739F48FB7F8941092BF01F9
:100420001092BE018FBF0895209100023091010209
:100430002817390779F48091BF012091BE0190E01F
:10044000805C9F4F821B910960E470E00E945A0A11
:100450009C0102C020E030E0C9010895DC01519602
:10046000ED91FC915297208150968C91809582233A
:100470008083089520E001972FEF8F3F9207D9F7EF
:10048000089520910002309101022817390789F060
:10049000FC01238D2E7F238F2FB7F8941092BF017C
:1004A0001092BE0190930102809300022FBF81E061
:1004B000089580E00895EF92FF920F931F93CF93DA
:1004C000DF93EC018B8DEE85FF859D8581FF04C058
:1004D0008081892329F445C08081892309F041C0A6
:1004E0008B899C890E943A0208E010E0EE24E39494
:1004F000F12C8D899E890E943A02EE85FF858081CC
:100500009D85892311F0FE2803C08E2D8095F82249
:10051000EE0C0150110969F78F89988D0E943A02FB
:100520008B8D81FDF0948091BF012091BE0190E000
:1005300001968F73992730E08217930779F0E09145
:10054000BF01F0E0E054FE4FF0828091BF0190E0E7
:1005500001968F7399278093BF0103C08B8D8160B3
:100560008B8FDF91CF911F910F91FF90EF900895A6
:10057000611102C00C942E02DC015196ED91FC91A8
:100580005297208150968C91282B20830895DF92DA
:10059000EF92FF920F931F93CF93DF93EC01E62E20
:1005A000898D9A8D892B39F481E090E09B838A8331
:1005B00020E030E049C0DFB6F8946B8D669561703D
:1005C000CE010E94B802898D9A8D05960E943A024A
:1005D0008B8D08E010E0FF24F39481FF17C08F2D6E
:1005E0008E2121F0CE010E942E0204C061E0CE01D6
:1005F0000E94B802898D9A8D0E943A02FF0C015028
:10060000110969F7CE010E942E0217C08F2D8E218D
:1006100029F061E0CE010E94B80203C0CE010E9421
:100620002E02898D9A8D0E943A02FF0C0150110909
:1006300069F761E0CE010E94B802DFBE898D9A8D14
:100640000E943A0221E030E0C901DF91CF911F9171
:100650000F91FF90EF90DF900895809100029091AC
:100660000102009711F00C945B0208951F920F9203
:100670000FB60F9211242F933F934F935F936F9375
:100680007F938F939F93AF93BF93EF93FF930E94BA
:100690002D03FF91EF91BF91AF919F918F917F912A
:1006A0006F915F914F913F912F910F900FBE0F90DF
:1006B0001F9018951F920F920FB60F9211242F932F
:1006C0003F934F935F936F937F938F939F93AF93DA
:1006D000BF93EF93FF930E942D03FF91EF91BF9182
:1006E000AF919F918F917F916F915F914F913F91CA
:1006F0002F910F900FBE0F901F9018951F920F9281
:100700000FB60F9211242F933F934F935F936F93E4
:100710007F938F939F93AF93BF93EF93FF930E9429
:100720002D03FF91EF91BF91AF919F918F917F9199
:100730006F915F914F913F912F910F900FBE0F904E
:100740001F9018951F93CF93DF93EC01162F61E054
:10075000812F0E94200661E0812F0E945806812F80
:1007600090E0FC01E45FFE4FE491E88BFC01E05E69
:10077000FE4FE491F0E0EE0FFF1FE25CFE4F85912B
:100780009491898B9A8BDF91CF911F9108951F933C
:10079000CF93DF93EC01162F60E0812F0E9420069B
:1007A0008B8D81FD04C061E0812F0E9458061C875B
:1007B000812F90E0FC01E45FFE4FE491ED87FC01A6
:1007C000E05EFE4FE491F0E0EE0FFF1FEC5CFE4FA9
:1007D000859194918E879F87DF91CF911F91089586
:1007E000FF920F931F93CF93DF93EC01F62E522FBE
:1007F0001B821A8208EE13E020E030E00C831D8398
:100800002E833F8385E891E0998388831C8A1B8A25
:100810001E8A1D8A188E1F8A1A8E198E8B8D8E7FC6
:1008200050FB81F98B8F642FCE010E94A2036F2DA4
:10083000CE01DF91CF911F910F91FF900C94C703D0
:10084000FF920F931F93CF93DF93EC011A8E198EB3
:10085000188E1F8A1E8A1D8A1C8A1B8AA0E0B0E09F
:100860002CE0F22EFA9EC001FB9E900D1124FC019B
:10087000E859FF4F059115912591349104171507FB
:1008800026073707E9F4FC01E459FF4F259134911D
:100890002B8B3C8BFC01E259FF4F259134912D8B22
:1008A0003E8BFC01E059FF4F259134912F8B388FFF
:1008B0008E589F4FFC0185919491898F9A8F05C026
:1008C0001196AC30B10509F0CDCF8F89988D892B69
:1008D00009F449C03C85363108F041C040916800B8
:1008E000383068F081E090E03E3010F480E090E035
:1008F00021E030E001C0220F8A95EAF701C024E030
:10090000242B209368003C85383038F03E3040F08E
:10091000363148F0E0E0F0E008C0EDE6F0E005C078
:10092000EBE6F0E002C0ECE6F0E04081383040F465
:1009300081E090E0282F01C0220F3A95EAF70DC020
:10094000832F90E03E3010F4089701C00E9721E00D
:1009500030E001C0220F8A95EAF7242B2083898D8D
:100960009A8D0E943A02CE01DF91CF911F910F9193
:10097000FF900C944102FC014485463150F548300B
:1009800028F04E3030F4EBE6F0E005C0EDE6F0E0A4
:1009900002C0ECE6F0E05081483040F481E090E0A5
:1009A000042E01C0880F0A94EAF710C0242F30E00B
:1009B0004E3018F42850310902C02E50310981E020
:1009C00090E0022E01C0880F0A94EAF780958523F3
:1009D0008083089525E831E0FC01318320830C9465
:1009E000BB04FC0180E00FC0419198E0282F30E06B
:1009F00035952795842780FF02C08CE82827822F11
:100A00004695915099F7615078F708950F931F9389
:100A1000CF93DF931F92CDB7DEB78C01262F30E046
:100A200074E0359527957A95E1F78FE090E082277D
:100A30009327E4E0220F331FEA95E1F7822B6983C5
:100A4000F801099569816F70F0E16F9FC001112471
:100A50009FE09627892BF8010F90DF91CF911F918E
:100A60000F910994DF92EF92FF920F931F93CF9310
:100A7000DF938C01F62EE72ED42E82E0F801099543
:100A8000CF2DDE2D04C06991C8010E9406058C2F70
:100A90008F198D15C0F383E0F80109956D2D8F2D09
:100AA0009E2D0E94F104682FC801DF91CF911F9104
:100AB0000F91FF90EF90DF900C9406052F923F92DC
:100AC0004F925F926F927F928F929F92AF92BF925E
:100AD000CF92DF92EF92FF920F931F93CF93DF930A
:100AE00000D000D01F92CDB7DEB79A8389835B0117
:100AF0005D834C832B83670178010E94D9062B010B
:100B00003C0110E04DC0E981FA81099518161906DB
:100B10000CF046C0F501099599278230910521F026
:100B20008330910559F437C00E94D9062B013C014E
:100B300033243394912C212C11E032C0112381F104
:100B40009C01A4E035952795AA95E1F780959095AD
:100B50008F7099272817390711F0912C2EC031106A
:100B60001DC08294F0EF8F22822A222041F0692D4D
:100B70008C819D810E94F1048811EFCF1EC0FB8102
:100B80009F1658F7EC81FD81E90DF11D8082939449
:100B90003324339405C02224239402C0822E312CA6
:100BA0000E94D90664197509860997096C157D0597
:100BB0008E059F0508F4A7CFD0CF892D0F900F90F9
:100BC0000F900F900F90DF91CF911F910F91FF9099
:100BD000EF90DF90CF90BF90AF909F908F907F90DD
:100BE0006F905F904F903F902F900895833069F001
:100BF00028F48130A1F0823011F514C08630B1F0B4
:100C00008730C1F08430D9F404C0809180008F77A0
:100C100003C0809180008F7D80938000089584B50B
:100C20008F7702C084B58F7D84BD08958091B00018
:100C30008F7703C08091B0008F7D8093B0000895BE
:100C4000CF93DF9390E0FC01E45FFE4F4491FC0101
:100C5000E05EFE4F8491882341F190E0880F991F58
:100C6000FC01E85BFE4F25913491D901825C9E4FD7
:100C7000FC0185919491C82FD92F9FB7F8948C913E
:100C8000611106C0409584238C938881842308C019
:100C9000623041F4242F209582238C938881842B09
:100CA000888302C0842B8C939FBFDF91CF910895DE
:100CB0000F931F93CF93DF931F92CDB7DEB7282FEB
:100CC00030E0F901E850FF4F8491F901E45FFE4FF5
:100CD0001491F901E05EFE4F04910023D1F08823C6
:100CE00021F069830E94F6056981E02FF0E0EE0FA4
:100CF000FF1FE25CFE4F85919491DC019FB7F89451
:100D00008C91611103C01095812301C0812B8C93BC
:100D10009FBF0F90DF91CF911F910F9108951F9268
:100D20000F920FB60F9211242F933F938F939F939F
:100D3000AF93BF938091020290910302A0910402AD
:100D4000B091050230910A02232F2D5F2D3720F438
:100D50000196A11DB11D05C0232F2A570296A11D82
:100D6000B11D20930A028093020290930302A09384
:100D70000402B09305028091060290910702A091AF
:100D80000802B09109020196A11DB11D80930602CF
:100D900090930702A0930802B0930902BF91AF910C
:100DA0009F918F913F912F910F900FBE0F901F90A9
:100DB00018950F931F938FB7F8940091020210912A
:100DC000030220910402309105028FBFB801C901CE
:100DD0001F910F9108950F931F939FB7F89400915F
:100DE000060210910702209108023091090286B58F
:100DF000A89B06C08F3F21F00F5F1F4F2F4F3F4F23
:100E00009FBF322F212F102F0027080F111D211DEA
:100E1000311D42E0000F111F221F331F4A95D1F7E9
:100E2000B801C9011F910F910895CF92DF92EF92FF
:100E3000FF92CF93DF936B017C010E94EB06EB01E5
:100E40000EC00E94EB066C1B7D0B683E734038F0B1
:100E500081E0C81AD108E108F108C851DC4FC1147B
:100E6000D104E104F10469F7DF91CF91FF90EF9095
:100E7000DF90CF900895789484B5826084BD84B566
:100E8000816084BD85B5826085BD85B5816085BD85
:100E9000EEE6F0E0808181608083E1E8F0E010829E
:100EA000808182608083808181608083E0E8F0E0DF
:100EB000808181608083E1EBF0E0808184608083C9
:100EC000E0EBF0E0808181608083EAE7F0E0808100
:100ED0008460808380818260808380818160808360
:100EE0008081806880831092C1000895CF92DF9244
:100EF000EF92FF920F931F93CF93DF936C01EB015F
:100F00007A01E60EF71E00E010E00BC06991D601F1
:100F1000ED91FC910190F081E02DC6010995080F3B
:100F2000191FCE15DF0591F7C801DF91CF911F91F1
:100F30000F91FF90EF90DF90CF900895DB010D901F
:100F40000020E9F7AD0141505109461B570BDC0168
:100F5000ED91FC910280F381E02D09940C949E07A1
:100F6000DC01ED91FC910190F081E02D09940F934B
:100F70001F93CF93DF93EC016DE00E94B0078C01CB
:100F80006AE0CE010E94B0079C01200F311FC90109
:100F9000DF91CF911F910F9108950F931F93CF93DE
:100FA000DF93EC010E949E078C01CE010E94B707DF
:100FB0009801280F391FC901DF91CF911F910F911F
:100FC00008954F925F926F927F929F92AF92BF92DD
:100FD000CF92DF92EF92FF920F931F93CF93DF9305
:100FE000CDB7DEB7A1970FB6F894DEBF0FBECDBF69
:100FF0005C016A017B01922E19A281E0821710F038
:101000008AE0982E8E010F5D1F4F492C512C612CC8
:10101000712CC701B601A30192010E946E0A8C2DAA
:10102000929E80191124015011098A3014F4805DB8
:1010300001C0895CF801808369017A01C114D1047F
:10104000E104F10431F7B801C5010E949E07A196A1
:101050000FB6F894DEBF0FBECDBFDF91CF911F91C9
:101060000F91FF90EF90DF90CF90BF90AF909F9047
:101070007F906F905F904F9008952115310541F456
:10108000DC01ED91FC910190F081E02D642F099439
:101090000C94E1079A01462F50E060E070E00C9458
:1010A0003D080F931F93CF93DF93EC019A01462FD6
:1010B00050E060E070E00E943D088C01CE010E948B
:1010C000B7079801280F391FC901DF91CF911F91F0
:1010D0000F910895FC0184859585FC01E05CFF4F2C
:1010E00020813181FC01EE5BFF4F80819181281BC3
:1010F000390B2F733327C9010895FC018485958529
:10110000FC01E05CFF4F40815181FC01EE5BFF4F31
:10111000208131814217530741F00190F081E02D89
:10112000E80FF91F208130E002C02FEF3FEFC90127
:101130000895FC0184859585FC01E05CFF4F4081AA
:101140005181FC01EE5BFF4F208131814217530733
:1011500081F0A081B181A80FB91F8C9120813181CC
:101160002F5F3F4F2F73332731832083282F30E0A9
:1011700002C02FEF3FEFC9010895FC0186859785D6
:10118000FC01E05CFF4FDC01AE5BBF4F4081518151
:101190002D913C91119742175307C1F70895CF93B2
:1011A000DF93FC0186859785DC01A05CBF4F2D9104
:1011B0003C9111972F5F3F4F2F733327EC01CE5B8C
:1011C000DF4F4881598124173507D9F30D90BC9121
:1011D000A02DA80FB91F6C93A685B785A05CBF4F43
:1011E00011963C932E93A689B7892C9181E090E0CB
:1011F000058C02C0880F991F0A94E2F7282B2C93C4
:1012000081E090E0DF91CF91089508951F920F92B1
:101210000FB60F9211242F933F934F938F939F9369
:10122000EF93FF934091C6008091AE029091AF0280
:1012300001968F7399272091B0023091B1028217E5
:10124000930759F0E091AE02F091AF02E259FD4FE1
:1012500040839093AF028093AE02FF91EF919F91F4
:101260008F914F913F912F910F900FBE0F901F9034
:1012700018958BE092E00E946A08892B11F00C947B
:10128000050908951F920F920FB60F9211242F9304
:101290003F938F939F93EF93FF9320916A02309136
:1012A0006B0280916C0290916D022817390731F41E
:1012B0008091C1008F7D8093C10014C0E0916C02C9
:1012C000F0916D02E65DFD4F208180916C0290915E
:1012D0006D0201968F73992790936D0280936C0233
:1012E0002093C600FF91EF919F918F913F912F9195
:1012F0000F900FBE0F901F901895CF92DF92EF9234
:10130000FF92CF93DF93EC016A017B01411581EEDF
:10131000580761057105F9F0EC89FD8981E090E0DD
:101320000E8C02C0880F991F0A94E2F7808360E058
:1013300079E08DE390E0A70196010E946E0A2150AA
:10134000310941095109569547953795279521153A
:1013500080E1380798F0EC89FD89108260E874E834
:101360008EE190E0A70196010E946E0A215031099A
:10137000410951095695479537952795E889F98987
:101380003083EA89FB892083EE89FF89408181E0EF
:1013900090E09C010A8C02C0220F331F0A94E2F7EE
:1013A000422B4083EE89FF8940819C010B8C02C057
:1013B000220F331F0A94E2F7422B4083EE89FF8904
:1013C00040819C010C8C02C0220F331F0A94E2F76B
:1013D000422B4083EE89FF8920810D8C02C0880F4B
:1013E000991F0A94E2F7809582238083DF91CF9141
:1013F000FF90EF90DF90CF90089510920E02109220
:101400000D0288EE93E0A0E0B0E080930F0290938D
:101410001002A0931102B093120285E991E090931B
:101420000C0280930B028EE692E090931802809358
:1014300017028AE292E090931A028093190285ECD7
:1014400090E090931C0280931B0284EC90E09093B8
:101450001E0280931D0280EC90E090932002809306
:101460001F0281EC90E0909322028093210286EC8F
:1014700090E0909324028093230284E080932502DD
:1014800083E08093260287E08093270285E08093A3
:10149000280281E08093290208950E943B070E9460
:1014A000E300C9E3D9E00E9435012097E1F30E94EF
:1014B0003909F9CF97FB072E16F4009407D077FD72
:1014C00009D00E94900A07FC05D03EF490958195C2
:1014D0009F4F0895709561957F4F0895A1E21A2E50
:1014E000AA1BBB1BFD010DC0AA1FBB1FEE1FFF1FC8
:1014F000A217B307E407F50720F0A21BB30BE40B18
:10150000F50B661F771F881F991F1A9469F760955E
:101510007095809590959B01AC01BD01CF01089518
:10152000AA1BBB1B51E107C0AA1FBB1FA617B70709
:1015300010F0A61BB70B881F991F5A95A9F7809525
:101540009095BC01CD010895EE0FFF1F0590F49119
:10155000E02D099411E0C6E5D1E004C0FE010E942F
:0E156000A60A2296C835D107C9F7F894FFCF26
:10156E006C656E3A0020202D2020005B536C617656
:10157E00655D202D20436F6D616E646F207269630F
:10158E00657675746F3A200020202020202041645B
:10159E006472657373206E6F7420706F696E742041
:1015AE00746F206D653A2000202020202020436F8C
:1015BE006D616E646F2073636F6E6F7363697574A4
:1015CE006F3A20005B536C6176655D202D20526969
:1015DE0073706F73746120696E76696174613A20FD
:1015EE000000000000C70276071402C701EA0105D9
:1015FE000200000000CF0876076A0899087D08BD32
:02160E000800D2
:00000001FF
