:100000000C94AC000C94D4000C94D4000C94B50364
:100010000C94D9030C94FD030C94D4000C94D400DC
:100020000C94D4000C94D4000C94D4000C94D40000
:100030000C94D4000C94D4000C94D4000C94D400F0
:100040000C948D070C94D4000C94EB090C94270AA3
:100050000C94D4000C94D4000C94D4000C94D400D0
:100060000C94D4000C94D40000C2010001001100D3
:1000700011000C0000E100000A002500250021000D
:10008000009600001900390039003600127A00008D
:100090001F004600460044008070000022004D0012
:1000A0004D004A00004B00003600750075007200DC
:1000B000403800004A009C009C0099008025000008
:1000C0007200EC00EC00E900C0120000E900DA0167
:1000D000DA01D70160090000D701B603B603B30304
:1000E000B0040000B3036E076E076B072C0100001D
:1000F000DC0EC11DC11DBE1D000000070002010075
:1001000000030406000000000000000001020408D3
:100110001020408001020408102001020408102071
:10012000040404040404040402020202020203039D
:100130000303030300000000230026002900000041
:100140000000250028002B000000000024002700EC
:100150002A002502E20A2C0211241FBECFEFD8E0AC
:10016000DEBFCDBF12E0A0E0B1E0E8E3F7E102C0FE
:1001700005900D92AA3CB107D9F713E0AAECB2E0C2
:1001800001C01D92AC3DB107E1F711E0C6E5D1E039
:1001900004C02297FE010E948B0BC235D107C9F71C
:1001A0000E94320B0C948F0B0C9400008BEC92E0AD
:1001B0000C9446028BEC92E00C949302682F8BEC2B
:1001C00092E00C94460340E855E260E070E085E37D
:1001D00093E00E94620A40E855E260E070E08BEC38
:1001E00092E00E949F0460E085E00E941E0761E0AB
:1001F00083E00E941E0761E08DE00C941E07DF92F1
:10020000EF92FF920F931F93CF93DF93E82ED92E97
:10021000F62E8A0169EC71E085E393E00E94AC0858
:100220004AE050E06F2D85E393E00E9448096EECB0
:1002300071E085E393E00E94AC08CE2DDD2D13C064
:10024000699142E070E084ED91E00E94300264ED3B
:1002500071E085E393E00E94AC0862ED71E085E314
:1002600093E00E94AC088C2F8E198F1548F3B801CB
:1002700085E393E0DF91CF911F910F91FF90EF9075
:10028000DF900C94CB08EF92FF920F931F93CF93C4
:10029000DF93CDB7DEB72A970FB6F894DEBF0FBE57
:1002A000CDBF7B018C012AE0AE014F5F5F4F66ED51
:1002B00070E08AED90E00E944806182F61E08111FD
:1002C00060E08DE00E945607112351F06FED71E060
:1002D00085E393E00E94AC0843ED51E0612F09C033
:1002E0006EEF71E085E393E00E94AC0843ED51E0CE
:1002F00060E0CE0101960E94FF00812F2A960FB682
:10030000F894DEBF0FBECDBFDF91CF911F910F914B
:10031000FF90EF9008951F93CF93DF93CDB7DEB793
:10032000CB5CD1090FB6F894DEBF0FBECDBF91E014
:100330009093CA02C753DF4F9883C95CD04092E0C4
:10034000C653DF4F9883CA5CD040C553DF4F8883C4
:10035000CB5CD04081E4E1E0F1E0DE011196019058
:100360000D928A95E1F7FE01EE5BFF4F87E8DF0112
:100370001D928A95E9F761E083E00E9456079E018D
:100380002F5F3F4F43E0BE0167537F4F8EED90E0FC
:100390000E94B10560E083E00E9456078091CA0286
:1003A000882369F0198168E272E085E393E00E9496
:1003B000AC0847E452E0612FCE0102960CC068E21F
:1003C00072E085E393E00E94AC0843ED51E063E006
:1003D000CE0187539F4F0E94FF00C553DF4F0FB6DA
:1003E000F894DEBF0FBECDBFDF91CF911F9108956E
:1003F000C0E063ED71E085E393E00E94CB088C2FB1
:100400000E948B0160E177E280E090E00E9443016E
:10041000882399F060E672E085E393E00E94AC08DF
:100420004AE050E06AE085E393E00E94480963E90E
:1004300072E085E393E00E94CB0860E177E280E020
:1004400090E00E941308CF5FD4CF20E04BE06AE039
:100450008BEC92E00C946F048BEC92E00C946905A9
:10046000DC01A40FB11D47FDBA951C924150FB0160
:10047000EF70FF27E756FD4F80818E9384E07695DD
:1004800067958A95E1F74111F1CF089520912903ED
:1004900030912A0328173907C1F49091E70280911F
:1004A000E802981791F0E091E702F0E0E751FD4F84
:1004B00080812091E70230E02F5F3F4F2F73332779
:1004C0002093E702282F30E002C02FEF3FEFC90151
:1004D00008952091290330912A032817390781F4C0
:1004E0009091E7028091E802981751F0E091E702BD
:1004F000F0E0E751FD4F2081332727FD309502C002
:100500002FEF3FEFC90108952091290330912A036D
:100510002817390739F48FB7F8941092E80210922F
:10052000E7028FBF08952091290330912A032817ED
:10053000390779F48091E8022091E70290E0805C2D
:100540009F4F821B910960E470E00E943F0B9C0169
:1005500002C020E030E0C9010895DC015196ED9120
:10056000FC915297208150968C91809582238083B4
:10057000089520E001972FEF8F3F9207D9F7089554
:100580002091290330912A032817390789F0FC01AB
:10059000238D2E7F238F2FB7F8941092E8021092AC
:1005A000E70290932A03809329032FBF81E00895E7
:1005B00080E00895EF92FF920F931F93CF93DF9304
:1005C000EC018B8DEE85FF859D8581FF04C08081C8
:1005D000892329F445C08081892309F041C08B8992
:1005E0009C890E94B90208E010E0EE24E394F12C0B
:1005F0008D899E890E94B902EE85FF8580819D8547
:10060000892311F0FE2803C08E2D8095F822EE0C70
:100610000150110969F78F89988D0E94B9028B8D5D
:1006200081FDF0948091E8022091E70290E001962C
:100630008F73992730E08217930779F0E091E802F1
:10064000F0E0E751FD4FF0828091E80290E00196E2
:100650008F7399278093E80203C08B8D81608B8F05
:10066000DF91CF911F910F91FF90EF90089561114D
:1006700002C00C94AD02DC015196ED91FC915297B1
:10068000208150968C91282B20830895DF92EF9241
:10069000FF920F931F93CF93DF93EC01E62E898D8A
:1006A0009A8D892B39F481E090E09B838A8320E046
:1006B00030E049C0DFB6F8946B8D66956170CE016D
:1006C0000E943703898D9A8D05960E94B9028B8D01
:1006D00008E010E0FF24F39481FF17C08F2D8E21D6
:1006E00021F0CE010E94AD0204C061E0CE010E9463
:1006F0003703898D9A8D0E94B902FF0C01501109B0
:1007000069F7CE010E94AD0217C08F2D8E2129F00E
:1007100061E0CE010E94370303C0CE010E94AD020A
:10072000898D9A8D0E94B902FF0C0150110969F759
:1007300061E0CE010E943703DFBE898D9A8D0E9451
:10074000B90221E030E0C901DF91CF911F910F91F3
:10075000FF90EF90DF9008958091290390912A03F4
:10076000009711F00C94DA0208951F920F920FB6C1
:100770000F9211242F933F934F935F936F937F9327
:100780008F939F93AF93BF93EF93FF930E94AC031C
:10079000FF91EF91BF91AF919F918F917F916F9159
:1007A0005F914F913F912F910F900FBE0F901F902F
:1007B00018951F920F920FB60F9211242F933F930B
:1007C0004F935F936F937F938F939F93AF93BF9359
:1007D000EF93FF930E94AC03FF91EF91BF91AF9114
:1007E0009F918F917F916F915F914F913F912F9149
:1007F0000F900FBE0F901F9018951F920F920FB67B
:100800000F9211242F933F934F935F936F937F9396
:100810008F939F93AF93BF93EF93FF930E94AC038B
:10082000FF91EF91BF91AF919F918F917F916F91C8
:100830005F914F913F912F910F900FBE0F901F909E
:1008400018951F93CF93DF93EC01162F61E0812F52
:100850000E941E0761E0812F0E945607812F90E0C1
:10086000FC01E45FFE4FE491E88BFC01E05EFE4F8B
:10087000E491F0E0EE0FFF1FE25CFE4F8591949152
:10088000898B9A8BDF91CF911F9108951F93CF93FE
:10089000DF93EC01162F60E0812F0E941E078B8DE5
:1008A00081FD04C061E0812F0E9456071C87812FC3
:1008B00090E0FC01E45FFE4FE491ED87FC01E05E17
:1008C000FE4FE491F0E0EE0FFF1FEC5CFE4F8591D0
:1008D00094918E879F87DF91CF911F910895FF920A
:1008E0000F931F93CF93DF93EC01F62E522F1B82B1
:1008F0001A8208EE13E020E030E00C831D832E8383
:100900003F838EEA92E0998388831C8A1B8A1E8A21
:100910001D8A188E1F8A1A8E198E8B8D8E7F50FB22
:1009200081F98B8F642FCE010E9421046F2DCE019F
:10093000DF91CF911F910F91FF900C944604FF928D
:100940000F931F93CF93DF93EC011A8E198E188E9D
:100950001F8A1E8A1D8A1C8A1B8AA0E0B0E02CE038
:10096000F22EFA9EC001FB9E900D1124FC01E85965
:10097000FF4F05911591259134910417150726070E
:100980003707E9F4FC01E459FF4F259134912B8B93
:100990003C8BFC01E259FF4F259134912D8B3E8B0E
:1009A000FC01E059FF4F259134912F8B388F8E58E1
:1009B0009F4FFC0185919491898F9A8F05C0119664
:1009C000AC30B10509F0CDCF8F89988D892B09F412
:1009D00049C03C85363108F041C04091680038304C
:1009E00068F081E090E03E3010F480E090E021E09B
:1009F00030E001C0220F8A95EAF701C024E0242BE1
:100A0000209368003C85383038F03E3040F0363175
:100A100048F0E0E0F0E008C0EDE6F0E005C0EBE60D
:100A2000F0E002C0ECE6F0E04081383040F481E0D4
:100A300090E0282F01C0220F3A95EAF70DC0832FCE
:100A400090E03E3010F4089701C00E9721E030E0AE
:100A500001C0220F8A95EAF7242B2083898D9A8D75
:100A60000E94B902CE01DF91CF911F910F91FF90AB
:100A70000C94C002FC014485463150F5483028F002
:100A80004E3030F4EBE6F0E005C0EDE6F0E002C0F9
:100A9000ECE6F0E05081483040F481E090E0042E34
:100AA00001C0880F0A94EAF710C0242F30E04E30BE
:100AB00018F42850310902C02E50310981E090E02D
:100AC000022E01C0880F0A94EAF78095852380835F
:100AD00008952EEA32E0FC01318320830C943A051C
:100AE000FC0180E00FC0419198E0282F30E035955F
:100AF0002795842780FF02C08CE82827822F4695FF
:100B0000915099F7615078F708950F931F93CF9301
:100B1000DF931F92CDB7DEB78C01262F30E074E053
:100B2000359527957A95E1F78FE090E08227932716
:100B3000E4E0220F331FEA95E1F7822B6983F80185
:100B4000099569816F70F0E16F9FC00111249FE0EA
:100B50009627892BF8010F90DF91CF911F910F916C
:100B600009948F929F92BF92CF92DF92EF92FF9261
:100B70000F931F93CF93DF931F92CDB7DEB78C01F6
:100B8000C62EB42E490110922B03642F8C2D972F63
:100B900079830E947005D82E82E0F8010995209192
:100BA0002B032F5F20932B03F401E20FF11D27FD90
:100BB000FA9582E08083EC2C7981F72E13C0F7013F
:100BC0006081C8010E94850590912B039F5F9093DF
:100BD0002B03F70181917F01F401E90FF11D97FDCE
:100BE000FA9580838E2D8C198B1548F38091000126
:100BF0008823F9F06D2DC8010E94850580912B0393
:100C00008F5F80932B03F401E80FF11D87FDFA95A8
:100C1000D08283E0F801099580912B038F5F809348
:100C20002B03F401E80FF11D87FDFA9583E0808323
:100C30001EC083E0F801099580912B038F5F80939C
:100C40002B03F401E80FF11D87FDFA9583E0808303
:100C50006D2DC8010E94850580912B038F5F8093C5
:100C60002B03F401E80FF11D87FDFA95D0828091E6
:100C70002B03F40180830F90DF91CF911F910F918F
:100C8000FF90EF90DF90CF90BF909F908F9008954E
:100C90002F923F924F925F926F927F928F929F928C
:100CA000AF92BF92CF92DF92EF92FF920F931F937A
:100CB000CF93DF9300D000D01F92CDB7DEB79A83D9
:100CC00089835B015D834C832B83670178010E94DC
:100CD000D7072B013C0110E061C0E981FA81099539
:100CE000181619060CF05AC0F5010995992782309B
:100CF000910521F08330910509F50AC00E94D707BC
:100D00002B013C0133243394912C212C11E046C05B
:100D1000809100018823E9F1192D9A94692D8C8125
:100D20009D810E947005EC81FD81E10FF11D3197DD
:100D30009081891709F43FC0912C3DC0112371F1B6
:100D40009C01A4E035952795AA95E1F780959095AB
:100D50008F7099272817390779F731101DC08294B1
:100D6000F0EF8F22822A222041F0692D8C819D8113
:100D70000E9470058811E0CF1EC0FB819F16E0F62F
:100D8000EC81FD81E90DF11D80829394332433942D
:100D900005C02224239402C0822E312C0E94D70742
:100DA00064197509860997096C157D058E059F05DF
:100DB00008F493CFC1CF892D0F900F900F900F9013
:100DC0000F90DF91CF911F910F91FF90EF90DF90E7
:100DD000CF90BF90AF909F908F907F906F905F90DB
:100DE0004F903F902F900895833069F028F4813020
:100DF000A1F0823011F514C08630B1F08730C1F017
:100E00008430D9F404C0809180008F7703C0809132
:100E100080008F7D80938000089584B58F7702C015
:100E200084B58F7D84BD08958091B0008F7703C015
:100E30008091B0008F7D8093B0000895CF93DF93B1
:100E400090E0FC01E45FFE4F4491FC01E05EFE4F48
:100E50008491882341F190E0880F991FFC01E85BA1
:100E6000FE4F25913491D901825C9E4FFC01859102
:100E70009491C82FD92F9FB7F8948C91611106C017
:100E8000409584238C938881842308C0623041F488
:100E9000242F209582238C938881842B888302C001
:100EA000842B8C939FBFDF91CF9108950F931F9355
:100EB000CF93DF931F92CDB7DEB7282F30E0F90133
:100EC000E850FF4F8491F901E45FFE4F1491F9015E
:100ED000E05EFE4F04910023D1F0882321F0698366
:100EE0000E94F4066981E02FF0E0EE0FFF1FE25C44
:100EF000FE4F85919491DC019FB7F8948C9161111C
:100F000003C01095812301C0812B8C939FBF0F904C
:100F1000DF91CF911F910F9108951F920F920FB6FD
:100F20000F9211242F933F938F939F93AF93BF936F
:100F300080912C0390912D03A0912E03B0912F034B
:100F400030913403232F2D5F2D3720F40196A11DFE
:100F5000B11D05C0232F2A570296A11DB11D209354
:100F6000340380932C0390932D03A0932E03B0930E
:100F70002F038091300390913103A0913203B091FF
:100F800033030196A11DB11D80933003909331036B
:100F9000A0933203B0933303BF91AF919F918F9190
:100FA0003F912F910F900FBE0F901F9018950F93A8
:100FB0001F938FB7F89400912C0310912D0320916B
:100FC0002E0330912F038FBFB801C9011F910F91DC
:100FD00008950F931F939FB7F894009130031091D9
:100FE0003103209132033091330386B5A89B06C0AC
:100FF0008F3F21F00F5F1F4F2F4F3F4F9FBF322F6B
:10100000212F102F0027080F111D211D311D42E037
:10101000000F111F221F331F4A95D1F7B801C901D4
:101020001F910F910895CF92DF92EF92FF92CF938D
:10103000DF936B017C010E94E907EB010EC00E9467
:10104000E9076C1B7D0B683E734038F081E0C81ADD
:10105000D108E108F108C851DC4FC114D104E10402
:10106000F10469F7DF91CF91FF90EF90DF90CF907F
:101070000895789484B5826084BD84B5816084BD10
:1010800085B5826085BD85B5816085BDEEE6F0E001
:10109000808181608083E1E8F0E01082808182605D
:1010A0008083808181608083E0E8F0E080818160DE
:1010B0008083E1EBF0E0808184608083E0EBF0E00E
:1010C000808181608083EAE7F0E0808184608083B2
:1010D000808182608083808181608083808180685C
:1010E00080831092C1000895CF92DF92EF92FF9219
:1010F0000F931F93CF93DF936C01EB017A01E60E00
:10110000F71E00E010E00BC06991D601ED91FC9153
:101110000190F081E02DC6010995080F191FCE1529
:10112000DF0591F7C801DF91CF911F910F91FF90DB
:10113000EF90DF90CF900895DB010D900020E9F74C
:10114000AD0141505109461B570BDC01ED91FC915B
:101150000280F381E02D09940C949C08DC01ED9150
:10116000FC910190F081E02D09940F931F93CF9390
:10117000DF93EC016DE00E94AE088C016AE0CE01C5
:101180000E94AE089C01200F311FC901DF91CF9151
:101190001F910F9108950F931F93CF93DF93EC014D
:1011A0000E949C088C01CE010E94B5089801280F6E
:1011B000391FC901DF91CF911F910F9108954F926F
:1011C0005F926F927F929F92AF92BF92CF92DF9287
:1011D000EF92FF920F931F93CF93DF93CDB7DEB7BC
:1011E000A1970FB6F894DEBF0FBECDBF5C016A01B8
:1011F0007B01922E19A281E0821710F08AE0982ECE
:101200008E010F5D1F4F492C512C612C712CC70191
:10121000B601A30192010E94530B8C2D929E80195E
:101220001124015011098A3014F4805D01C0895CD9
:10123000F801808369017A01C114D104E104F10449
:1012400031F7B801C5010E949C08A1960FB6F89429
:10125000DEBF0FBECDBFDF91CF911F910F91FF90E9
:10126000EF90DF90CF90BF90AF909F907F906F9066
:101270005F904F9008952115310541F4DC01ED9107
:10128000FC910190F081E02D642F09940C94DF080B
:101290009A01462F50E060E070E00C943B09FC019D
:1012A00084859585FC01E05CFF4F20813181FC0144
:1012B000EE5BFF4F80819181281B390B2F73332701
:1012C000C9010895FC0184859585FC01E05CFF4F10
:1012D00040815181FC01EE5BFF4F2081318142173B
:1012E000530741F00190F081E02DE80FF91F2081B4
:1012F00030E002C02FEF3FEFC9010895FC01848563
:101300009585FC01E05CFF4F40815181FC01EE5B63
:10131000FF4F208131814217530781F0A081B181B5
:10132000A80FB91F8C91208131812F5F3F4F2F7300
:10133000332731832083282F30E002C02FEF3FEF87
:10134000C9010895FC0186859785FC01E05CFF4F8B
:10135000DC01AE5BBF4F408151812D913C911197D3
:1013600042175307C1F70895CF93DF93FC01868599
:101370009785DC01A05CBF4F2D913C9111972F5FA9
:101380003F4F2F733327EC01CE5BDF4F48815981EC
:1013900024173507D9F30D90BC91A02DA80FB91FC4
:1013A0006C93A685B785A05CBF4F11963C932E9396
:1013B000A689B7892C9181E090E0058C02C0880F46
:1013C000991F0A94E2F7282B2C9381E090E0DF919B
:1013D000CF91089508951F920F920FB60F92112486
:1013E0002F933F934F938F939F93EF93FF9340914E
:1013F000C6008091D8039091D90301968F739927E5
:101400002091DA033091DB038217930759F0E091C2
:10141000D803F091D903E856FC4F40839093D90349
:101420008093D803FF91EF919F918F914F913F91BE
:101430002F910F900FBE0F901F90189585E393E0AA
:101440000E944F09892B11F00C94EA0908951F920C
:101450000F920FB60F9211242F933F938F939F9368
:10146000EF93FF932091940330919503809196031D
:10147000909197032817390731F48091C1008F7D2F
:101480008093C10014C0E0919603F0919703EC5A49
:10149000FC4F2081809196039091970301968F7362
:1014A000992790939703809396032093C600FF910A
:1014B000EF919F918F913F912F910F900FBE0F90C1
:1014C0001F901895CF92DF92EF92FF92CF93DF9308
:1014D000EC016A017B01411581EE58076105710538
:1014E000F9F0EC89FD8981E090E00E8C02C0880F54
:1014F000991F0A94E2F7808360E079E08DE390E041
:10150000A70196010E94530B21503109410951094D
:101510005695479537952795211580E1380798F01E
:10152000EC89FD89108260E874E88EE190E0A70103
:1015300096010E94530B21503109410951095695DA
:10154000479537952795E889F9893083EA89FB899A
:101550002083EE89FF89408181E090E09C010A8C24
:1015600002C0220F331F0A94E2F7422B4083EE8918
:10157000FF8940819C010B8C02C0220F331F0A940B
:10158000E2F7422B4083EE89FF8940819C010C8C5D
:1015900002C0220F331F0A94E2F7422B4083EE89E8
:1015A000FF8920810D8C02C0880F991F0A94E2F7F1
:1015B000809582238083DF91CF91FF90EF90DF9021
:1015C000CF900895109238031092370388EE93E07D
:1015D000A0E0B0E08093390390933A03A0933B03DB
:1015E000B0933C038EEB92E09093360380933503E7
:1015F00088E993E0909342038093410384E593E06C
:10160000909344038093430385EC90E090934603CA
:101610008093450384EC90E09093480380934703C4
:1016200080EC90E090934A038093490381EC90E032
:1016300090934C0380934B0386EC90E090934E0381
:1016400080934D0384E080934F0383E080935003A5
:1016500087E08093510385E08093520381E080937B
:10166000530308950E9439080E94E300CEE1DAE0B6
:101670000E94F8012097E1F30E941E0AF9CF97FB20
:10168000072E16F4009407D077FD09D00E94750B41
:1016900007FC05D03EF4909581959F4F0895709575
:1016A00061957F4F0895A1E21A2EAA1BBB1BFD0175
:1016B0000DC0AA1FBB1FEE1FFF1FA217B307E40731
:1016C000F50720F0A21BB30BE40BF50B661F771F89
:1016D000881F991F1A9469F7609570958095909569
:1016E0009B01AC01BD01CF010895AA1BBB1B51E1B9
:1016F00007C0AA1FBB1FA617B70710F0A61BB70B82
:10170000881F991F5A95A9F780959095BC01CD0126
:101710000895EE0FFF1F0590F491E02D099411E05C
:10172000C6E5D1E004C0FE010E948B0B2296C835AD
:08173000D107C9F7F894FFCFBF
:1017380001202020202020202020202020202020C0
:101748002020202020202020202020202020202091
:101758002020202020202020202020202020202081
:101768002020202020202020202020202020202071
:101778002000000000000000000000000000000041
:101788000000000000000000000000000000000051
:101798000000000000000000000000000000000041
:1017A8000000000000000000000000000000000031
:1017B8000000000000000000000000000000000021
:1017C8000000000000000000000000000000000011
:1017D8000000000000000000000000000000000001
:1017E80000000000000000000000000000000000F1
:1017F8000000000000000000006C656E3A00202028
:101808002D20200030303030303030303030005B28
:101818004D61737465725D202D20526973706F730A
:1018280074612072696365767574613A20005B4D56
:1018380061737465725D202D2054494D454F555490
:101848002077616974696E6720726573706F6E7353
:10185800652E206C656E3D005B4D61737465725D2D
:10186800202D20436F6D616E646F2020696E76694C
:1018780061746F203A20005B535458202E2E2E643A
:101888006174612E2E2E20435243204554585D002A
:101898005B4D61737465725D202D20576F726B69A3
:1018A8006E67206F6E20726573706F6E736520644B
:1018B8006174612E20536C656570696E6720666F70
:1018C800722000207365632E003031323334353690
:1018D800373839414243444546000000000046037A
:1018E8007408930246026902840200000000B409E9
:0A18F80074084F097E096209A20975
:00000001FF
